:04000000B2EF17F054
:08000800046ED8CF05F0E0CF33
:1000100006F00001E9CF0CF0EACF07F0E1CF08F0DD
:10002000E2CF09F0D9CF0AF0DACF0BF0F3CF12F01C
:10003000F4CF13F0FACF14F0F5CF15F0F6CF16F099
:10004000F7CF17F000C00EF001C00FF002C010F0A3
:1000500003C011F09DA030EF00F09EB00FEF0DF047
:100060009DAA36EF00F09EBAB7EF01F00EC000F087
:100070000FC001F010C002F011C003F00CC0E9FF86
:1000800007C0EAFF078E08C0E1FF09C0E2FF0AC00F
:10009000D9FF0BC0DAFF12C0F3FF13C0F4FF14C086
:1000A000FAFF15C0F5FF16C0F6FF17C0F7FF0450A2
:1000B00006C0E0FF05C0D8FF1000F76ACA0FF66E51
:1000C000000EF7220900F550120000C1814001C066
:1000D000804101C0804100C1814001C0804100C118
:1000E000814000C1814001C0804101C0804100C108
:1000F000814000C1814001C0804100C1814001C0F8
:10010000804101C0804100C1814001C0804100C1E7
:10011000814000C1814001C0804100C1814001C0D7
:10012000804101C0804100C1814000C1814001C0C7
:10013000804101C0804100C1814001C0804100C1B7
:10014000814000C1814001C0804101C0804100C1A7
:10015000814000C1814001C0804100C1814001C097
:10016000804101C0804100C1814000C1814001C087
:10017000804101C0804100C1814001C0804100C177
:10018000814000C1814001C0804100C1814001C067
:10019000804101C0804100C1814001C0804100C157
:1001A000814000C1814001C0804101C0804100C147
:1001B000814000C1814001C0804100C1814001C037
:1001C000804101C0804100C18140F76ADA0FF66EBC
:1001D000010EF7220900F550120000C0C101C3034F
:1001E00002C2C60607C705C5C404CC0C0DCD0FCF8F
:1001F000CE0E0ACACB0BC90908C8D81819D91BDBFF
:10020000DA1A1EDEDF1FDD1D1CDC14D4D515D7174E
:1002100016D6D21213D311D1D010F03031F133F3FE
:10022000F23236F6F737F53534F43CFCFD3DFF3F4E
:100230003EFEFA3A3BFB39F9F83828E8E929EB2B7E
:100240002AEAEE2E2FEF2DEDEC2CE42425E527E70E
:10025000E62622E2E323E12120E0A06061A163A37E
:10026000A26266A6A767A56564A46CACAD6DAF6F0E
:100270006EAEAA6A6BAB69A9A86878B8B979BB7B7E
:100280007ABABE7E7FBF7DBDBC7CB47475B577B7CE
:10029000B67672B2B373B17170B0509091519353FE
:1002A000529296565797559594549C5C5D9D5F9FCE
:1002B0009E5E5A9A9B5B99595898884849894B8BFE
:1002C0008A4A4E8E8F4F8D4D4C8C4484854587478E
:1002D00046868242438341818040D8B204D0050ED5
:1002E000EA6E380EE96E006A016A026A036A050165
:1002F000386B396B3A6B3B6B375136113511341112
:100300002CE0200E3C6FD8903037313732373337FE
:10031000383739373A373B3737513B5D08E136518B
:100320003A5D05E13551395D02E13451385D0FE345
:100330003451385F3551D8A0353D395F3651D8A09A
:10034000363D3A5F3751D8A0373D3B5FD880003605
:100350000136023603363C2FD6D738C5EFFF39C5F4
:10036000ECFF3AC5ECFF3BC5ECFF0001000C036A53
:100370000401F851F80FE96E030E0320EA6E9EAAFD
:10038000FED7AECFEFFFF82B94908B90D892020E51
:100390000501336F160E326F0E0E316FC00E306FC7
:1003A000376B366BE5C335F5E4C334F5000195DFF3
:1003B000FF0ED88000560156000E0256035601C0AB
:1003C000CFFF00C0CEFF9E909D809E9A36EF00F03A
:1003D000FF0E05013D6F3E6F3B6B3A513B5D1CE2EA
:1003E000036A3B513825E96E39510320EA6EEF501C
:1003F0003E193C6F036A3C5100015FDE016E05014E
:100400003D5101183E6F036A3C510001DEDEE8CF2A
:100410003DF505013B2BE1D73EC503F03DC501F09D
:100420003EC502F00001000C040005013751000A2E
:100430000001D8B464D0010AD8B47FD0030AD8B47C
:100440009AD0010AD8B4B4D0070AD8B4C8D0010AE7
:10045000D8B4E2D0030AD8B4F6D0010AD8B410D187
:100460000F0AD8B42AD1010AD8B444D1030AD8B4A7
:100470005ED1010AD8B472D1070AD8B48CD1010A6E
:10048000D8B4A6D1030AD8B4C0D1010AD8B4DAD1FD
:100490001F0AD8B4F4D1010AD8B40ED2030AD8B4D2
:1004A00028D2010AD8B442D2070AD8B45CD2010AD1
:1004B000D8B476D2030AD8B490D2010AD8B4AAD25A
:1004C0000F0AD8B4E2D2010AD8B41AD3030AD8B4B6
:1004D00052D3010AD8B478D3070AD8B492D3010A08
:1004E000D8B4ACD33D0AD8B4C6D3010AD8B458EFB7
:1004F00006F0030AD8B475EF06F092EF06F0036A2F
:1005000005010351F80FE96E030E0320EA6E0301A3
:10051000A9C3EFFF0501032B036A0351F80FE96E2E
:10052000030E0320EA6E0301A8C3EFFF0501032BAE
:10053000020E0401F827A0EF06F0036A050103513B
:10054000F80FE96E030E0320EA6E0301B5C3EFFF57
:100550000501032B036A0351F80FE96E030E032014
:10056000EA6E0301B4C3EFFF0501032B020E040181
:10057000F827A0EF06F0036A05010351F80FE96EB2
:10058000030E0320EA6E0301A7C3EFFF0501032B4F
:10059000036A0351F80FE96E030E0320EA6E0301AC
:1005A000A6C3EFFF0501032B020E0401F827C8D3F1
:1005B000036A05010351F80FE96E030E0320EA6E8A
:1005C000EF6A032B036A0351F80FE96E030E032051
:1005D000EA6EEF6A032B020E0401F827B1D3036A17
:1005E00005010351F80FE96E030E0320EA6E0301C3
:1005F000A5C3EFFF0501032B036A0351F80FE96E52
:10060000030E0320EA6E0301A4C3EFFF0501032BD1
:10061000020E0401F82794D3036A05010351F80F71
:10062000E96E030E0320EA6EEF6A032B036A03519F
:10063000F80FE96E030E0320EA6EEF6A032B020E39
:100640000401F8277DD3036A05010351F80FE96E11
:10065000030E0320EA6E0301C9C3EFFF0501032B5C
:10066000036A0351F80FE96E030E0320EA6E0301DB
:10067000C8C3EFFF0501032B020E0401F82760D366
:10068000036A05010351F80FE96E030E0320EA6EB9
:100690000301B3C3EFFF0501032B036A0351F80FF6
:1006A000E96E030E0320EA6E0301B2C3EFFF0501FA
:1006B000032B020E0401F82743D3036A05010351FB
:1006C000F80FE96E030E0320EA6E0301BFC3EFFFCC
:1006D0000501032B036A0351F80FE96E030E032093
:1006E000EA6E0301BEC3EFFF0501032B020E0401F6
:1006F000F82726D3036A05010351F80FE96E030EAC
:100700000320EA6E0301DDC3EFFF0501032B036A3B
:100710000351F80FE96E030E0320EA6E0301DCC3F8
:10072000EFFF0501032B020E0401F82709D3036A2A
:1007300005010351F80FE96E030E0320EA6EEF6A1C
:10074000032B036A0351F80FE96E030E0320EA6ED0
:10075000EF6A032B020E0401F827F2D2036A0501A7
:100760000351F80FE96E030E0320EA6E0301CBC3B9
:10077000EFFF0501032B036A0351F80FE96E030E27
:100780000320EA6E0301CAC3EFFF0501032B020E2B
:100790000401F827D5D2036A05010351F80FE96E69
:1007A000030E0320EA6E0301CFC3EFFF0501032B05
:1007B000036A0351F80FE96E030E0320EA6E03018A
:1007C000CEC3EFFF0501032B020E0401F827B8D2B8
:1007D000036A05010351F80FE96E030E0320EA6E68
:1007E0000301ABC3EFFF0501032B036A0351F80FAD
:1007F000E96E030E0320EA6E0301AAC3EFFF0501B1
:10080000032B020E0401F8279BD2036A0501035152
:10081000F80FE96E030E0320EA6E0301B7C3EFFF82
:100820000501032B036A0351F80FE96E030E032041
:10083000EA6E0301B6C3EFFF0501032B020E0401AC
:10084000F8277ED2036A05010351F80FE96E030E03
:100850000320EA6E0301C1C3EFFF0501032B036A06
:100860000351F80FE96E030E0320EA6E0301C0C3C3
:10087000EFFF0501032B020E0401F82761D2036A82
:1008800005010351F80FE96E030E0320EA6E030120
:10089000C3C3EFFF0501032B036A0351F80FE96E91
:1008A000030E0320EA6E0301C2C3EFFF0501032B11
:1008B000020E0401F82744D2036A05010351F80F20
:1008C000E96E030E0320EA6E0301C5C3EFFF0501C5
:1008D000032B036A0351F80FE96E030E0320EA6E3F
:1008E0000301C4C3EFFF0501032B020E0401F82727
:1008F00027D2036A05010351F80FE96E030E0320A6
:10090000EA6E0301E5C3EFFF0501032B036A035100
:10091000F80FE96E030E0320EA6E0301E4C3EFFF54
:100920000501032B020E0401F8270AD2036A050110
:100930000351F80FE96E030E0320EA6E0301E7C3CB
:10094000EFFF0501032B036A0351F80FE96E030E55
:100950000320EA6E0301E6C3EFFF0501032B020E3D
:100960000401F827EDD1036A05010351F80FE96E80
:10097000030E0320EA6E0401FAC4EFFF0501032B06
:10098000036A0351F80FE96E030E0320EA6E0401B7
:10099000F9C4EFFF0501032B020E0401F827D0D1A3
:1009A000036A05010351F80FE96E030E0320EA6E96
:1009B0000401FCC4EFFF0501032B036A0351F80F88
:1009C000E96E030E0320EA6E0401FBC4EFFF05018C
:1009D000032B020E0401F827B3D1036A050103516A
:1009E000F80FE96E030E0320EA6E0401FEC4EFFF68
:1009F0000501032B036A0351F80FE96E030E032070
:100A0000EA6E0401FDC4EFFF0501032B020E040191
:100A1000F82796D1050EEA6E380EE96E030EE26EE7
:100A2000D20EE16E040E016EE6CFEEFF012EFCD772
:100A3000036A05010351F80FE96E030E0320EA6E05
:100A400038C5EFFF032B036A0351F80FE96E030E5D
:100A50000320EA6E39C5EFFF032B036A0351F80F39
:100A6000E96E030E0320EA6E3AC5EFFF032B036A1B
:100A70000351F80FE96E030E0320EA6E3BC5EFFF4A
:100A8000032B040E0401F8275BD1050EEA6E380E25
:100A9000E96E030EE26ED60EE16E040E016EE6CF35
:100AA000EEFF012EFCD7036A05010351F80FE96E32
:100AB000030E0320EA6E38C5EFFF032B036A0351D0
:100AC000F80FE96E030E0320EA6E39C5EFFF032B22
:100AD000036A0351F80FE96E030E0320EA6E3AC56C
:100AE000EFFF032B036A0351F80FE96E030E032097
:100AF000EA6E3BC5EFFF032B040E0401F82720D15B
:100B0000050EEA6E380EE96E030EE26EAC0EE16E73
:100B1000040E016EE6CFEEFF012EFCD7036A05013D
:100B20000351F80FE96E030E0320EA6E38C5EFFF9C
:100B3000032B036A0351F80FE96E030E0320EA6EDC
:100B400039C5EFFF032B036A0351F80FE96E030E5B
:100B50000320EA6E3AC5EFFF032B036A0351F80F37
:100B6000E96E030E0320EA6E3BC5EFFF032B040E74
:100B70000401F827E5D0036A05010351F80FE96E77
:100B8000030E0320EA6EEF6A032B036A0351F80F8A
:100B9000E96E030E0320EA6EEF6A032B036A03512A
:100BA000F80FE96E030E0320EA6EEF6A032B036A67
:100BB0000351F80FE96E030E0320EA6EEF6A032B70
:100BC000040E0401F827BCD0036A05010351F80F95
:100BD000E96E030E0320EA6E0301B1C3EFFF0501C6
:100BE000032B036A0351F80FE96E030E0320EA6E2C
:100BF0000301B0C3EFFF0501032B020E0401F82728
:100C00009FD0036A05010351F80FE96E030E03201C
:100C1000EA6E0301BDC3EFFF0501032B036A035115
:100C2000F80FE96E030E0320EA6E0301BCC3EFFF69
:100C30000501032B020E0401F82782D0036A050187
:100C40000351F80FE96E030E0320EA6E0301DBC3C4
:100C5000EFFF0501032B036A0351F80FE96E030E42
:100C60000320EA6E0301DAC3EFFF0501032B020E36
:100C70000401F82765D0036A05010351F80FE96EF6
:100C8000030E0320EA6E0301DFC3EFFF0501032B10
:100C9000036A0351F80FE96E030E0320EA6E0301A5
:100CA000DEC3EFFF0501032B020E0401F82748D035
:100CB000036A05010351F80FE96E030E0320EA6E83
:100CC0000301E1C3EFFF0501032B036A0351F80F92
:100CD000E96E030E0320EA6E0301E0C3EFFF050196
:100CE000032B020E0401F8272BD0036A05010351E0
:100CF000F80FE96E030E0320EA6E0301E3C3EFFF72
:100D00000501032B036A0351F80FE96E030E03205C
:100D1000EA6E0301E2C3EFFF0501032B020E04019B
:100D2000F8270ED00301F98F030EFA6F050E0401A8
:100D3000F86FFD2BD8B4FE2BF951D8B4FA07F90798
:100D400000014DEF0EF0040005013751000A0001CB
:100D500051E0010A53E0030A55E0010A57E0070A8F
:100D600059E0010A5BE0030A5DE0010A5FE00F0A57
:100D7000D8B460D0010AD8B461D0030AD8B462D024
:100D8000010AD8B463D0070AD8B47BD0010AD8B41A
:100D900093D0030AD8B4ABD0010AD8B4C3D01F0A89
:100DA000D8B4DBD0010AD8B4F3D0030AD8B40BD13D
:100DB000010AD8B40CD1070AD8B424D1010AD8B496
:100DC00025D1030AD8B426D1010AD8B427D10F0AF5
:100DD000D8B465D1010AD8B4A3D1030AD8B4E1D1FB
:100DE000010AD8B4E2D1070AD8B4FAD1010AD8B4BA
:100DF00012D22CD2020E0501032737D2020E0501B2
:100E0000032733D2020E050103272FD2020E05015C
:100E100003272BD2020E0501032727D2020E05015C
:100E2000032723D2020E050103271FD2020E05015C
:100E300003271BD2020E0501032717D2020E05015C
:100E4000032713D2020E050103270FD2036A0501FF
:100E50000351F80FE96E030E0320EA6EEFCF3CF565
:100E6000010E0325036AF80FE96E030E0320EA6EF4
:100E7000EFCF3DF53CC5CBF33DC5CAF3020E0327CA
:100E8000F4D1036A05010351F80FE96E030E032044
:100E9000EA6EEFCF3CF5010E0325036AF80FE96E09
:100EA000030E0320EA6EEFCF3DF53CC5CFF33DC501
:100EB000CEF3020E0327D9D1036A05010351F80FBF
:100EC000E96E030E0320EA6EEFCF3CF5010E032519
:100ED000036AF80FE96E030E0320EA6EEFCF3DF5CB
:100EE0003CC5ABF33DC5AAF3020E0327BED1036A8E
:100EF00005010351F80FE96E030E0320EA6EEFCFF0
:100F00003CF5010E0325036AF80FE96E030E03207A
:100F1000EA6EEFCF3DF53CC5B7F33DC5B6F3020E23
:100F20000327A3D1036A05010351F80FE96E030EED
:100F30000320EA6EEFCF3CF5010E0325036AF80F9C
:100F4000E96E030E0320EA6EEFCF3DF53CC5C1F319
:100F50003DC5C0F3020E032788D1036A0501035182
:100F6000F80FE96E030E0320EA6EEFCF3CF5010E99
:100F70000325036AF80FE96E030E0320EA6EEFCF34
:100F80003DF53CC5C3F33DC5C2F3020E03276DD149
:100F9000036A05010351F80FE96E030E0320EA6EA0
:100FA000EFCF3CF5010E0325036AF80FE96E030E3F
:100FB0000320EA6EEFCF3DF53CC5C5F33DC5C4F354
:100FC000020E032752D1020E050103274ED1036AF8
:100FD00005010351F80FE96E030E0320EA6EEFCF0F
:100FE0003CF5010E0325036AF80FE96E030E03209A
:100FF000EA6EEFCF3DF53CC5E7F33DC5E6F3020EE3
:10100000032733D1020E050103272FD1020E05015C
:1010100003272BD1020E0501032727D1030E05015B
:101020000325036AF80FE96E030E0320EA6EEFCF83
:101030003CF5020E0325036AF80FE96E030E032048
:10104000EA6EEFCF3DF5010E0325036AF80FE96E56
:10105000030E0320EA6EEFCF3EF5036A0351F80F4B
:10106000E96E030E0320EA6EEFCF3FF53CC53BF57A
:101070003DC53AF53EC539F53FC538F5030EEA6E74
:10108000D20EE96E050EE26E380EE16E040E016EB0
:10109000E6CFEEFF012EFCD7040E0327E6D0030EA9
:1010A00005010325036AF80FE96E030E0320EA6EBB
:1010B000EFCF3CF5020E0325036AF80FE96E030E2D
:1010C0000320EA6EEFCF3DF5010E0325036AF80F0A
:1010D000E96E030E0320EA6EEFCF3EF5036A03517B
:1010E000F80FE96E030E0320EA6EEFCF3FF53CC523
:1010F0003BF53DC53AF53EC539F53FC538F5030E1C
:10110000EA6ED60EE96E050EE26E380EE16E040E42
:10111000016EE6CFEEFF012EFCD7040E0327A5D00B
:10112000030E05010325036AF80FE96E030E032081
:10113000EA6EEFCF3CF5020E0325036AF80FE96E65
:10114000030E0320EA6EEFCF3DF5010E0325036A7F
:10115000F80FE96E030E0320EA6EEFCF3EF5036A47
:101160000351F80FE96E030E0320EA6EEFCF3FF54F
:101170003CC53BF53DC53AF53EC539F53FC538F5AB
:10118000030EEA6EAC0EE96E050EE26E380EE16EED
:10119000040E016EE6CFEEFF012EFCD7040E0327EE
:1011A00064D0040E0501032760D0036A05010351D2
:1011B000F80FE96E030E0320EA6EEFCF3CF5010E47
:1011C0000325036AF80FE96E030E0320EA6EEFCFE2
:1011D0003DF53CC5B1F33DC5B0F3020E032745D044
:1011E000036A05010351F80FE96E030E0320EA6E4E
:1011F000EFCF3CF5010E0325036AF80FE96E030EED
:101200000320EA6EEFCF3DF53CC5BDF33DC5BCF311
:10121000020E03272AD0036A05010351F80FE96E75
:10122000030E0320EA6EEFCF3CF5010E0325036A9F
:10123000F80FE96E030E0320EA6EEFCF3DF53CC5D3
:10124000DBF33DC5DAF3020E03270FD00301F98F5C
:10125000030EFA6F050E0401F86FFD2BD8B4FE2BB8
:10126000F951D8B4FA07F9070501000180EF0EF033
:10127000D190CAC33BF5A96A3BC5A8FFA69CA69E10
:10128000A684F250006EF29E0F01550EA76EAA0EB4
:10129000A76EA682A6B2FED7A6940050F212CBC3C8
:1012A0003BF5010EA96ECBC3A8FFA69CA69EA68403
:1012B000F2CF00F0F29E550EA76EAA0EA76EA68280
:1012C000A6B2FED7A6940050F212CEC33BF5020E92
:1012D000A96ECEC3A8FFA69CA69EA684F2CF00F05E
:1012E000F29E550EA76EAA0EA76EA682A6B2FED7D4
:1012F000A6940050F212CFC33BF5030EA96ECFC3E4
:10130000A8FFA69CA69EA684F2CF00F0F29E550EE2
:10131000A76EAA0EA76EA682A6B2FED7A69400500C
:10132000F212AAC33BF5040EA96EAAC3A8FFA69C9D
:10133000A69EA684F2CF00F0F29E550EA76EAA0ECE
:10134000A76EA682A6B2FED7A6940050F212ABC337
:101350003BF5050EA96EABC3A8FFA69CA69EA6846E
:10136000F2CF00F0F29E550EA76EAA0EA76EA682CF
:10137000A6B2FED7A6940050F212B6C33BF5060EF5
:10138000A96EB6C3A8FFA69CA69EA684F2CF00F0C5
:10139000F29E550EA76EAA0EA76EA682A6B2FED723
:1013A000A6940050F212B7C33BF5070EA96EB7C35F
:1013B000A8FFA69CA69EA684F2CF00F0F29E550E32
:1013C000A76EAA0EA76EA682A6B2FED7A69400505C
:1013D000F212C0C33BF5080EA96EC0C3A8FFA69CBD
:1013E000A69EA684F2CF00F0F29E550EA76EAA0E1E
:1013F000A76EA682A6B2FED7A6940050F212C1C371
:101400003BF5090EA96EC1C3A8FFA69CA69EA684A3
:10141000F2CF00F0F29E550EA76EAA0EA76EA6821E
:10142000A6B2FED7A6940050F212C4C33BF50A0E32
:10143000A96EC4C3A8FFA69CA69EA684F2CF00F006
:10144000F29E550EA76EAA0EA76EA682A6B2FED772
:10145000A6940050F212C5C33BF50B0EA96EC5C38E
:10146000A8FFA69CA69EA684F2CF00F0F29E550E81
:10147000A76EAA0EA76EA682A6B2FED7A6940050AB
:10148000F212C2C33BF50C0EA96EC2C3A8FFA69C04
:10149000A69EA684F2CF00F0F29E550EA76EAA0E6D
:1014A000A76EA682A6B2FED7A6940050F212C3C3BE
:1014B0003BF50D0EA96EC3C3A8FFA69CA69EA684ED
:1014C000F2CF00F0F29E550EA76EAA0EA76EA6826E
:1014D000A6B2FED7A6940050F212E4C33BF50E0E5E
:1014E000A96EE4C3A8FFA69CA69EA684F2CF00F036
:1014F000F29E550EA76EAA0EA76EA682A6B2FED7C2
:10150000A6940050F212E5C33BF50F0EA96EE5C399
:10151000A8FFA69CA69EA684F2CF00F0F29E550ED0
:10152000A76EAA0EA76EA682A6B2FED7A6940050FA
:10153000F212E6C33BF5100EA96EE6C3A8FFA69C07
:10154000A69EA684F2CF00F0F29E550EA76EAA0EBC
:10155000A76EA682A6B2FED7A6940050F212E7C3E9
:101560003BF5110EA96EE7C3A8FFA69CA69EA68414
:10157000F2CF00F0F29E550EA76EAA0EA76EA682BD
:10158000A6B2FED7A6940050F212B0C33BF5120EDD
:10159000A96EB0C3A8FFA69CA69EA684F2CF00F0B9
:1015A000F29E550EA76EAA0EA76EA682A6B2FED711
:1015B000A6940050F212B1C33BF5130EA96EB1C34D
:1015C000A8FFA69CA69EA684F2CF00F0F29E550E20
:1015D000A76EAA0EA76EA682A6B2FED7A69400504A
:1015E000F212BCC33BF5140EA96EBCC3A8FFA69CA7
:1015F000A69EA684F2CF00F0F29E550EA76EAA0E0C
:10160000A76EA682A6B2FED7A6940050F212BDC362
:101610003BF5150EA96EBDC3A8FFA69CA69EA68489
:10162000F2CF00F0F29E550EA76EAA0EA76EA6820C
:10163000A6B2FED7A6940050F212DAC33BF5160EFE
:10164000A96EDAC3A8FFA69CA69EA684F2CF00F0DE
:10165000F29E550EA76EAA0EA76EA682A6B2FED760
:10166000A6940050F212DBC33BF5170EA96EDBC344
:10167000A8FFA69CA69EA684F2CF00F0F29E550E6F
:10168000A76EAA0EA76EA682A6B2FED7A694005099
:10169000F212050EEA6E370EE96E030EE26ED20EFE
:1016A000E16E040E016EE6CFEEFF012EFCD73AC5C7
:1016B0003BF51A0EA96E3AC5A8FFA69CA69EA68465
:1016C000F2CF00F0F29E550EA76EAA0EA76EA6826C
:1016D000A6B2FED7A6940050F21239C53BF51B0EF8
:1016E000A96E39C5A8FFA69CA69EA684F2CF00F0DD
:1016F000F29E550EA76EAA0EA76EA682A6B2FED7C0
:10170000A6940050F21238C53BF5180EA96E38C5E4
:10171000A8FFA69CA69EA684F2CF00F0F29E550ECE
:10172000A76EAA0EA76EA682A6B2FED7A6940050F8
:10173000F21237C53BF5190EA96E37C5A8FFA69C56
:10174000A69EA684F2CF00F0F29E550EA76EAA0EBA
:10175000A76EA682A6B2FED7A6940050F212050E7E
:10176000EA6E370EE96E030EE26ED60EE16E040EDF
:10177000016EE6CFEEFF012EFCD73AC53BF51E0EFB
:10178000A96E3AC5A8FFA69CA69EA684F2CF00F03B
:10179000F29E550EA76EAA0EA76EA682A6B2FED71F
:1017A000A6940050F21239C53BF51F0EA96E39C53B
:1017B000A8FFA69CA69EA684F2CF00F0F29E550E2E
:1017C000A76EAA0EA76EA682A6B2FED7A694005058
:1017D000F21238C53BF51C0EA96E38C5A8FFA69CB1
:1017E000A69EA684F2CF00F0F29E550EA76EAA0E1A
:1017F000A76EA682A6B2FED7A6940050F21237C5F5
:101800003BF51D0EA96E37C5A8FFA69CA69EA68413
:10181000F2CF00F0F29E550EA76EAA0EA76EA6821A
:10182000A6B2FED7A6940050F212050EEA6E370E4D
:10183000E96E030EE26ED20EE16E040E016EE6CF8B
:10184000EEFF012EFCD73AC53BF5220EA96E3AC534
:10185000A8FFA69CA69EA684F2CF00F0F29E550E8D
:10186000A76EAA0EA76EA682A6B2FED7A6940050B7
:10187000F21239C53BF5230EA96E39C5A8FFA69C07
:10188000A69EA684F2CF00F0F29E550EA76EAA0E79
:10189000A76EA682A6B2FED7A6940050F21238C553
:1018A0003BF5200EA96E38C5A8FFA69CA69EA6846F
:1018B000F2CF00F0F29E550EA76EAA0EA76EA6827A
:1018C000A6B2FED7A6940050F21237C53BF5210E02
:1018D000A96E37C5A8FFA69CA69EA684F2CF00F0ED
:1018E000F29E550EA76EAA0EA76EA682A6B2FED7CE
:1018F000A6940050F212050EEA6E370EE96E030E42
:10190000E26ED20EE16E040E016EE6CFEEFF012E06
:10191000FCD73AC53BF5260EA96E3AC5A8FFA69C92
:10192000A69EA684F2CF00F0F29E550EA76EAA0ED8
:10193000A76EA682A6B2FED7A6940050F21239C5B1
:101940003BF5270EA96E39C5A8FFA69CA69EA684C6
:10195000F2CF00F0F29E550EA76EAA0EA76EA682D9
:10196000A6B2FED7A6940050F21238C53BF5240E5D
:10197000A96E38C5A8FFA69CA69EA684F2CF00F04B
:10198000F29E550EA76EAA0EA76EA682A6B2FED72D
:10199000A6940050F21237C53BF5250EA96E37C547
:1019A000A8FFA69CA69EA684F2CF00F0F29E550E3C
:1019B000A76EAA0EA76EA682A6B2FED7A694005066
:1019C000F212D18000019CEF0EF0050EEA6E370E88
:1019D000E96EEF5011E00A0E016EBF0E006E0400BA
:1019E000002EFDD7012EF9D75E0E006E002EFED719
:1019F00000D00400EF2EEFD753EF0FF0929C898CAC
:101A00009EA8FED7050138C5ADFF0000929C898CC9
:101A1000ACA2FED7929C899C0001DFEF0FF09D9A4B
:101A200094908B800401F851030801E3CFD20301A5
:101A3000E651F85D04E0F85302E00401C7D2020E5B
:101A40000401F85D0501376F030E396FF80E386F2A
:101A500037C53AF50001E8EC01F002C002F501C01B
:101A600001F5020E0401F85D036AF80FE96E030E3A
:101A70000320EA6EEFCF37F5010EF85D036AF80F29
:101A8000E96E030E0320EA6EEFCF38F537C500F597
:101A900038C5FFF4FF510501015D03E10051025D0E
:101AA00006E00401FB2BD8B4FC2B90D20501030106
:101AB000F951420A000113E0010AD8B471D0070AB3
:101AC000D8B4CED0010AD8B4FAD0200AD8B42DD1D7
:101AD0000F0AD8B443D1010AD8B4F6D125D20401F3
:101AE000F851050852E10301FA51000A000105E02E
:101AF000010A0EE0030A3BE03DD00301C691010E4E
:101B0000F76F040E0401F86FF92BD8B4FA2B3CD010
:101B10000301C681010EF76F0501346B336B34513D
:101B20000301C55D1DE308E1C4510501335DD8A083
:101B300002D0030115D00301D89005013335026EA0
:101B40003435036E0250A40FE96E020E0320EA6ED4
:101B5000EC6AED52EF6A332BD8B4342BE0D7030193
:101B6000040E0401F86FF92BD8B4FA2B0DD0FF0046
:101B700004010AD00301F98F030EFA6F0401FD2B53
:101B8000D8B4FE2B050EF86F0AD00301F98F020EB0
:101B9000FA6F050E0401F86FFD2BD8B4FE2BCED1E1
:101BA0000401F851070851E10301FB51000A00014B
:101BB00003E0010A20E03ED00501366B020E356FCE
:101BC000346B336B345100080FE3F80E3525E96EA2
:101BD000030E3621EA6EEF6A352BD8B4362B020E8F
:101BE0003327000E3423EED7840E0401F86FF92B4F
:101BF000D8B4FA2B29D00501366B020E356F346B41
:101C0000336B345100080FE3F80E3525E96E030EEF
:101C10003621EA6EEF6A352BD8B4362B020E332705
:101C2000000E3423EED7840E0401F86FF92BD8B4DC
:101C3000FA2B0AD00301F98F030EFA6F0401FD2B72
:101C4000D8B4FE2B050EF86F0AD00301F98F020EEF
:101C5000FA6F050E0401F86FFD2BD8B4FE2B6ED180
:101C60000401F85107081EE1040EF86FF92BD8B4EF
:101C7000FA2B020E0501036FFBC330F50301FC5183
:101C8000FB250501316F30C532F53151325D08E277
:101C900032C537F5000114EF02F00501322BF5D7FC
:101CA0000CD004010301F98F020EFA6F050E040136
:101CB000F86FFD2BD8B4FE2B050104013FD10401C0
:101CC000F851070827E2F8B125D0040E0501036F8B
:101CD000FBC330F5020E0401F85D0501316F040EFF
:101CE0000401F86FF92BD8B4FA2B30C532F5050191
:101CF0003151035D08E232C537F50001A3EF06F06C
:101D00000501322BF5D7040E0401F86FF92BD8B476
:101D1000FA2B0AD00301F98F020EFA6F050E0401A7
:101D2000F86FFD2BD8B4FE2B09D10401F85104083B
:101D30000AE1000138EF09F0040E0401F86FF92BF5
:101D4000D8B4FA2B0AD00301F98F020EFA6F050EF0
:101D50000401F86FFD2BD8B4FE2BF0D00401F8512C
:101D60000508D8A4A4D0040EF86FF92BD8B4FA2B28
:101D70000301FA51000A00010FE0010A1CE0030A06
:101D800029E0010A36E0070A43E0010A50E0030AAD
:101D90005DE0010A68E075D0040E0301E56FB00E46
:101DA000E46FB8860A0EAF6E1A0EB06EA60EAC6E59
:101DB0000000000071D0070E0301E56F080EE46F0C
:101DC000B8865B0EAF6E110EB06EA60EAC6E000044
:101DD000000062D0090E0301E56F600EE46FB88663
:101DE000040EAF6E0D0EB06EA60EAC6E00000000BD
:101DF00053D0120E0301E56FC00EE46FB886820E59
:101E0000AF6E060EB06EA60EAC6E0000000044D0A1
:101E10001C0E0301E56F200EE46FB886560EAF6E00
:101E2000040EB06EA60EAC6E0000000035D0250E7C
:101E30000301E56F800EE46FB886400EAF6E030EAF
:101E4000B06EA60EAC6E0000000026D0380E030166
:101E5000E56F400EE46FB8968A0EAF6EA60EAC6EBC
:101E60000000000019D04B0E0301E56FE46BB8864B
:101E7000A00EAF6E010EB06EA60EAC6E000000009C
:101E80000BD00301F98F030EFA6F050E0401F86FF2
:101E9000FD2BD8B4FE2B030194908B70640E0501CA
:101EA000376F000192D594908B700CD00401030120
:101EB000F98F020EFA6F050E0401F86FFD2BD8B4EE
:101EC000FE2B000104013AD00401F851040821E17D
:101ED0004D0E0301FA6F570EFB6F540EFC6F2D0E63
:101EE000FD6F530EFE6F500EFF6F4D0E0401006F1D
:101EF000330E016F760E026F310E036F2E0E046FDC
:101F0000300E056F066F100EF86FF92BD8B4FA2B50
:101F10000AD00301F98F020EFA6F050E0401F86F63
:101F2000FD2BD8B4FE2B0AD00301F98F010EFA6FF6
:101F3000050E0401F86FFD2BD8B4FE2B0301F853F6
:101F400046E0020E0401F85D0501376F030E396F9C
:101F5000F80E386F37C53AF50001E8EC01F002C021
:101F600002F501C001F5020E0401F85D036AF80FE5
:101F7000E96E030E0320EA6E050102C5EFFF010EB4
:101F80000401F85D036AF80FE96E030E0320EA6EA0
:101F9000050101C5EFFF326B0401F8510501325D07
:101FA00013E20400036A3251F80FE96E030E0320B6
:101FB000EA6EEFCF37F537C538F500011FD594909D
:101FC0008B900501322BE8D7040100D003019490D7
:101FD0008B800401F86B9E909D909D8A9E900001DD
:101FE00036EF00F0700ED36EC00E9B6ED3509698F5
:101FF000D190070EB46E9250926E04001A0E006ECD
:10200000002EFED7B450A19CB56AC150C00B19096F
:10201000C16EC050C00B0D09C06EC08EC2803F0E95
:10202000926EF80E946E000E956E929E898E94922A
:102030008B8294948B8495908C8095928C82959AC7
:102040008C8A95988C8894908B80800ED56EB50E76
:10205000CD6E000ECA6E000ECB6E850EB16E929CD8
:10206000899CC69A949A94889496300EC66E400EB7
:10207000C76E9D8AC00EF2120301F76B0001D2EF0A
:102080001CF0F2CF20F5F29E010EA96EA69CA69E32
:10209000A680A850050120BFF28E216FF2CF22F555
:1020A000F29EA96AA69CA69EA680A85022BFF28E88
:1020B000236F21C5CBF323C5CAF3F2CF20F5F29EDF
:1020C000030EA96EA69CA69EA680A85020BFF28EE5
:1020D000216FF2CF22F5F29E020EA96EA69CA69E5B
:1020E000A680A85022BFF28E236F21C5CFF323C54F
:1020F000CEF3F2CF20F5F29E050EA96EA69CA69E09
:10210000A680A85020BFF28E216FF2CF22F5F29E5A
:10211000040EA96EA69CA69EA680A85022BFF28E91
:10212000236F21C5ABF323C5AAF3F2CF20F5F29EAE
:10213000070EA96EA69CA69EA680A85020BFF28E70
:10214000216FF2CF22F5F29E060EA96EA69CA69EE6
:10215000A680A85022BFF28E236F21C5B7F323C5F6
:10216000B6F3F2CF20F5F29E090EA96EA69CA69EAC
:10217000A680A85020BFF28E216FF2CF22F5F29EEA
:10218000080EA96EA69CA69EA680A85022BFF28E1D
:10219000236F21C5C1F323C5C0F3F2CF20F5F29E12
:1021A0000B0EA96EA69CA69EA680A85020BFF28EFC
:1021B000216FF2CF22F5F29E0A0EA96EA69CA69E72
:1021C000A680A85022BFF28E236F21C5C5F323C578
:1021D000C4F3F2CF20F5F29E0D0EA96EA69CA69E2A
:1021E000A680A85020BFF28E216FF2CF22F5F29E7A
:1021F0000C0EA96EA69CA69EA680A85022BFF28EA9
:10220000236F21C5C3F323C5C2F3F2CF20F5F29E9D
:102210000F0EA96EA69CA69EA680A85020BFF28E87
:10222000216FF2CF22F5F29E0E0EA96EA69CA69EFD
:10223000A680A85022BFF28E236F21C5E5F323C5E7
:10224000E4F3F2CF20F5F29E110EA96EA69CA69E95
:10225000A680A85020BFF28E216FF2CF22F5F29E09
:10226000100EA96EA69CA69EA680A85022BFF28E34
:10227000236F21C5E7F323C5E6F3F2CF20F5F29EE5
:10228000130EA96EA69CA69EA680A85020BFF28E13
:10229000216FF2CF22F5F29E120EA96EA69CA69E89
:1022A000A680A85022BFF28E236F21C5B1F323C5AB
:1022B000B0F3F2CF20F5F29E150EA96EA69CA69E55
:1022C000A680A85020BFF28E216FF2CF22F5F29E99
:1022D000140EA96EA69CA69EA680A85022BFF28EC0
:1022E000236F21C5BDF323C5BCF3F2CF20F5F29EC9
:1022F000170EA96EA69CA69EA680A85020BFF28E9F
:10230000216FF2CF22F5F29E160EA96EA69CA69E14
:10231000A680A85022BFF28E236F21C5DBF323C510
:10232000DAF3F2CF20F5F29E1A0EA96EA69CA69EB5
:10233000A680A85020BFF28E216FF2CF22F5F29E28
:102340001B0EA96EA69CA69EA680A85022BFF28E48
:10235000236FF2CF24F5F29E180EA96EA69CA69EBE
:10236000A680A85024BFF28E256FF2CF26F5F29EEC
:10237000190EA96EA69CA69EA680A85026BFF28E16
:10238000276F21C51FF523C51EF525C51DF527C5DA
:102390001CF5030EEA6ED20EE96E050EE26E1C0EFF
:1023A000E16E040E016EE6CFEEFF012EFCD7F2CFF8
:1023B00020F5F29E1E0EA96EA69CA69EA680A85091
:1023C00020BFF28E216FF2CF22F5F29E1F0EA96E72
:1023D000A69CA69EA680A85022BFF28E236FF2CFA5
:1023E00024F5F29E1C0EA96EA69CA69EA680A8505F
:1023F00024BFF28E256FF2CF26F5F29E1D0EA96E38
:10240000A69CA69EA680A85026BFF28E276F21C547
:102410001FF523C51EF525C51DF527C51CF5030EA3
:10242000EA6ED60EE96E050EE26E1C0EE16E040E2B
:10243000016EE6CFEEFF012EFCD7F2CF20F5F29E23
:10244000220EA96EA69CA69EA680A85020BFF28E42
:10245000216FF2CF22F5F29E230EA96EA69CA69EB6
:10246000A680A85022BFF28E236FF2CF24F5F29EF1
:10247000200EA96EA69CA69EA680A85024BFF28E10
:10248000256FF2CF26F5F29E210EA96EA69CA69E80
:10249000A680A85026BFF28E276F21C51FF523C541
:1024A0001EF525C51DF527C51CF5030EEA6EAC0EFD
:1024B000E96E050EE26E1C0EE16E040E016EE6CFB3
:1024C000EEFF012EFCD7F2CF20F5F29E260EA96E6C
:1024D000A69CA69EA680A85020BFF28E216FF2CFA8
:1024E00022F5F29E270EA96EA69CA69EA680A85055
:1024F00022BFF28E236FF2CF24F5F29E240EA96E36
:10250000A69CA69EA680A85024BFF28E256FF2CF6F
:1025100026F5F29E250EA96EA69CA69EA680A85022
:1025200026BFF28E276F21C51FF523C51EF525C5D1
:102530001DF527C51CF5030EEA6EB80EE96E050EF3
:10254000E26E1C0EE16E040E016EE6CFEEFF012E70
:10255000FCD70001D4EF1CF00401F86B0301E45137
:10256000006EE551036E040E035C05E1B00E005CE5
:10257000000139E00301070E035C05E1080E005C71
:1025800000013BE00301090E035C05E1600E005C05
:1025900000013DE00301120E035C05E1C00E005C8A
:1025A00000013FE003011C0E035C05E1200E005C0E
:1025B000000141E00301250E035C05E1800E005C93
:1025C000000143E00301380E035C05E1400E005CAE
:1025D000000145E003014B0E035C04E100520001E1
:1025E00046E003014FD0B8860A0EAF6E1A0EB06EE9
:1025F000A60EAC6E000000004ED0B8865B0EAF6E2B
:10260000110EB06EA60EAC6E0000000044D0B8866D
:10261000040EAF6E0D0EB06EA60EAC6E0000000084
:102620003AD0B886820EAF6E060EB06EA60EAC6EB5
:102630000000000030D0B886560EAF6E040EB06EAB
:10264000A60EAC6E0000000026D0B886400EAF6E1D
:10265000030EB06EA60EAC6E000000001CD0B89643
:102660008A0EAF6EA60EAC6E0000000014D0B886C5
:10267000A00EAF6E010EB06EA60EAC6E0000000094
:102680000AD00301B886400EAF6E030EB06EA60EE0
:10269000AC6E000000000001D6EF1CF08E0E006E44
:1026A00021C501F020C502F0036A01AE05D0011E6C
:1026B000021E022A01E1012A015209E102C001F0D1
:1026C000026A080E005E015202E1006A0DD0D89045
:1026D00001BE04D0023601360006F9D7050121AF4C
:1026E00002D0000101D0019E0001000C0501225121
:1026F000D8B471D0006E2651D8B46DD0002604E352
:10270000810E002668E204D07F0E005E64E363E081
:1027100023C52AF527512A1B238F278F25512903EB
:10272000F4CF2CF524512803F4CF03F0F3CF2BF58D
:102730002903F3502C27F4502B23000E032225519C
:102740002803F3502C27F4502B23000E026A032297
:10275000022223512903F3502B27F4500322000EA9
:10276000022223512803F3500326F4500222000EC4
:10277000016A012225512703F3502B27F45003222D
:10278000000E0222012224512703F3500326F450A5
:102790000222000E012223512703F3500226F45097
:1027A0000122002A01BE05D02B370336023601363E
:1027B0000006000E2BAF0AD0032A0222012201508C
:1027C00005E1025003E1035001E1002A2ABF018E16
:1027D0002AAF019E04D0006A016A026A036A0001FE
:1027E000000C8E0E006E05012251005E23C502F022
:1027F00024C501F0028E005209E0D890025202E195
:10280000015204E002320132002EF7D723AF05D087
:10281000011E021E012AD8B4022A0001000C080E73
:10282000016EC250C30B0110C26E04001A0E006E7E
:10283000002EFED7C282C2B2FED7C4CF1DF505015D
:10284000C3CF1CF5CD0E1C5D1E6F000E1D591F6FF2
:10285000216F1EC520F5000121DF03C025F502C050
:1028600024F501C023F500C022F5DF0E0501296F14
:102870004F0E286F430E276F830E266F000136DF41
:1028800003C025F502C024F501C023F500C022F5E0
:10289000A8DF02C0C9F301C0C8F3140E016EC25014
:1028A000C30B0110C26E04001A0E006E002EFED77C
:1028B000C282C2B2FED7C4CF1DF50501C3CF1CF53D
:1028C000CD0E1C5D1E6F000E1D591F6F216F1EC5A2
:1028D00020F50001E3DE03C025F502C024F501C0A8
:1028E00023F500C022F5DF0E0501296F4F0E286F7A
:1028F000430E276F830E266F0001F8DE03C025F517
:1029000002C024F501C023F500C022F56ADF02C031
:10291000B3F301C0B2F3100E016EC250C30B01102D
:10292000C26E04001A0E006E002EFED7C282C2B222
:10293000FED7C4CF1DF50501C3CF1CF5CD0E1C5D20
:102940001E6F000E1D591F6F216F1EC520F500015F
:10295000A5DE03C025F502C024F501C023F500C0A3
:1029600022F5DF0E0501296F4F0E286F430E276FEA
:10297000830E266F0001BADE03C025F502C024F5E0
:1029800001C023F500C022F52CDF02C0BFF301C057
:10299000BEF3000CD19005011C5302E11D5302E06F
:1029A000000E01D0010E206F1D5305E11C510608D9
:1029B00002E3000E01D0010E201503E01D6B010E95
:1029C0001C6F1F0E216FFF0E206F1C51006E05E063
:1029D000D89021332033002EFBD720511E6F215178
:1029E00070091F6F959A8C9A1FC520F5C9501FC595
:1029F000C9FFC730FEE31EC520F5C9501EC5C9FF7B
:102A0000C730FEE3959A8C8AD1800001F8EF1CF064
:102A1000D19005011C5302E11D5302E0000E01D0CC
:102A2000010E206F1D5305E11C51060802E3000E44
:102A300001D0010E201503E01D6B010E1C6F1F0E4F
:102A4000216FFF0E206F1C51006E05E0D8902133DE
:102A50002033002EFBD720511E6F215170091F6FAC
:102A600095988C981FC520F5C9501FC5C9FFC73060
:102A7000FEE31EC520F5C9501EC5C9FFC730FEE3E1
:102A800095988C88D1800001FEEF1CF08E0E006EB0
:102A90001DC501F01CC502F0036A015209E102C024
:102AA00001F0026A080E005E015202E1006A08D0DD
:102AB000D89001BE04D0023601360006F9D7019E37
:102AC000000C05012051D8B4A5D02C6F2451D8B4E6
:102AD000A1D02C5F05E37F0E2C27D8B09BD006D069
:102AE000810E2C5FD8A096D0D8B494D02CC500F01D
:102AF000016A026A036A2B6B21C52AF52A8F22C557
:102B000029F523C528F5190E2C6F2751285F0DE2F2
:102B1000010E295F0AE22A5F08E22B5F06E22B2BF7
:102B20002A2B292B2751282728D02651295F12E24A
:102B3000010E2A5F0FE22B5F0DE22B2B2A2B265171
:102B400029272751282719E3292B17E12A2B15E1DB
:102B50002B2B13D0255180092A5F0EE2010E2B5F2B
:102B60000BE22B2B255180092A2726512927E9E33F
:102B70002A2BE7E12B2BE5D703802C2F01D00BD09C
:102B8000D890283729372A372B37D8900336023682
:102B900001362D37BAD72DA106D0D8900132023296
:102BA00003322D3302D0000635E02DBF1ED0D89061
:102BB000283729372A372B372751285F07E2010E9C
:102BC000295F04E22A5F02E22B5F1AE32651295FA4
:102BD00005E2010E2A5F02E22B5F12E32551800914
:102BE0002A5F03E2010E2B5F0BE3032A09E1022AAD
:102BF00007E1012A05E1002A0DE001320232033229
:102C000021C52CF525512C1B2CAF02D0018E06D0EE
:102C1000019E04D0006A016A026A036A0001000C86
:102C200095928C9205011D510F0B10091E6FC95012
:102C30001EC5C9FFC730FEE31CC51EF5C9501CC523
:102C4000C9FFC730FEE395928C82929E899E929E28
:102C5000898E0001000CB60E006E036A026A016ADA
:102C60000501225123112411251102E1006A0DD022
:102C7000D89001BE09D022372337243725370336B1
:102C800002360136002EF4D7019E0001000C800EA2
:102C9000D8A202D00501251B05012A6B2B6B21C58B
:102CA00029F52551291B2051D8B4DFD0286F006E9B
:102CB0002451D8B4E3D0285FD8B483D03EE325C5EF
:102CC0002EF52E8F26C52DF527C52CF52B6BD8900C
:102CD0002E332D332C332B33282FF8D729AF03D0A5
:102CE0002A81E0D02A9128912A89050EEA6E230EC6
:102CF000E96EEBD02A9929BF0AD028A113D02E3330
:102D00002D332C332B33002AD8B4C7D00BD02EBF91
:102D10000CD0D8902B372C372D372E370006D8B44F
:102D2000BCD0F5D72A8D6DD02A9D21C529F521AFBC
:102D300002D02E8FABD02E9FA9D024C528F524C554
:102D400000F02051285F21C52EF52E8F22C52DF5CC
:102D500023C52CF52B6BD8902E332D332C332B33EE
:102D6000282FF8D729AF03D02A839CD02A93289103
:102D70002A8B050EEA6E270EE96EA7D02A9B29BF83
:102D80000AD028A113D02E332D332C332B33002A15
:102D9000D8B483D00BD02EBF0CD0D8902B372C3783
:102DA0002D372E370006D8B478D0F5D72A8F29D002
:102DB0002A9F25C529F525AF02D02E8F67D02E9FDB
:102DC00065D025C52EF52E8F26C52DF527C52CF5EA
:102DD00029AF04D02E9F2A8565D02A952B6B289188
:102DE000050EEA6E230EE96E70D029BF1CD021C5F6
:102DF00029F528A106D02E332D332C332B33002A6E
:102E00004CE02BAF0BD02C2B09E12D2B07E12E2B07
:102E100005E12E332D332C33002A3FE02ABD84D721
:102E20002ABFC6D71CD0800E2E1B2EAF04D03AD09E
:102E300025C529F50AD021C529F52E5306E12D53C4
:102E400004E12C5302E1006A21D02EBF08D0D890B3
:102E50002B372C372D372E37002EF7D71ED029AF22
:102E600002D02E8F13D02E9F11D024C500F025C57F
:102E70002EF526C52DF527C52CF508D020C500F068
:102E800021C52EF522C52DF523C52CF52EC501F043
:102E90002DC502F02CC503F034D0006A016A026A25
:102EA000036A2FD02B6B2C1F2D1F2E1F2B1F2B2B9C
:102EB00005E12C2B03E12D2B01E12E2B2AB112D79A
:102EC0002AB354D72AB589D7B3D7EF502C2705E3B7
:102ED0002D2B03E12E2BD8B42881ED52EF502D2756
:102EE00003E32E2BD8B42881ED52EF50EFBE01D072
:102EF000800A2E27D8B028812AB9FCD62ABB3ED713
:102F000074D7000137EF20F00501296B2A6B010E01
:102F10002B6FDA6AD96A050E2E6F210E2D6F050E02
:102F2000EA6E250EE96E2EC5E2FF2DC5E1FF2BC529
:102F30002CF5D890E550EE02F3502923F4502A23C3
:102F40002C2FF7D729C5DEFF2AC529F52A6BD8B063
:102F50002A2B2D2BD8B42E2B2B2B2B510508DFE140
:102F60000001000CF86AD09E078EEA6AE96A700ECA
:102F7000D36E400E9B6ED3500301C76BF66B320EBF
:102F8000F56F0401F86B929C899CB886400EAF6E79
:102F9000030EB06EA60EAC6E900EAB6E000000007D
:102FA000C150C00B0F09C16E070EB46E1A6A1B6ABE
:102FB0001C6A1D6A1E6A1F6A206A216A226A236AC5
:102FC000246A256A266A276A286A296A2A6A2B6A75
:102FD0002C6A2D6A2E6A2F6A306A316A326A336A25
:102FE000346A356A366A376A386A396A3A6A3B6AD5
:102FF0003C6A3D6A3E6A3F6A406A416A426A436A85
:10300000446A456A466A476A486A496A4A6A4B6A34
:103010004C6A4D6A4E6A4F6A506A516A526A536AE4
:10302000546A556A566A576A586A596A5A6A5B6A94
:103030005C6A5D6A5E6A5F6A606A616A626A636A44
:10304000646A656A666A676A686A696A6A6A6B6AF4
:103050006C6A6D6A6E6A6F6A706A716A726A736AA4
:10306000746A756A766A776A786A796A7A6A7B6A54
:103070007C6A7D6A7E6A7F6A0001806B816B826BED
:10308000836B846B856B866B876B886B896B8A6BB4
:103090008B6B8C6B8D6B8E6B8F6B906B916B926B64
:1030A000936B946B956B966B976B986B996B9A6B14
:1030B0009B6B9C6B9D6B9E6B9F6BA06BA16BA26BC4
:1030C000A36BA46BA56BA66BA76BA86BA96BAA6B74
:1030D000AB6BAC6BAD6BAE6BAF6BB06BB16BB26B24
:1030E000B36BB46BB56BB66BB76BB86BB96BBA6BD4
:1030F000BB6BBC6BBD6BBE6BBF6BC06BC16BC26B84
:10310000C36BC46BC56BC66BC76BC86BC96BCA6B33
:10311000CB6BCC6BCD6BCE6BCF6BD06BD16BD26BE3
:10312000D36BD46BD56BD66BD76BD86BD96BDA6B93
:10313000DB6BDC6BDD6BDE6BDF6BE06BE16BE26B43
:10314000E36BE46BE56BE66BE76BE86BE96BEA6BF3
:10315000EB6BEC6BED6BEE6BEF6BF06BF16BF26BA3
:10316000F36BF46BF56BF66BF76BF86BF96BFA6B53
:10317000FB6BFC6BFD6BFE6BFF6B0101006B016B6E
:10318000026B036B046B056B066B076B086B096BBB
:103190000A6B0B6B0C6B0D6B0E6B0F6B106B116B6B
:1031A000126B136B146B156B166B176B186B196B1B
:1031B0001A6B1B6B1C6B1D6B1E6B1F6B206B216BCB
:1031C000226B236B246B256B266B276B286B296B7B
:1031D0002A6B2B6B2C6B2D6B2E6B2F6B306B316B2B
:1031E000326B336B346B356B366B376B386B396BDB
:1031F0003A6B3B6B3C6B3D6B3E6B3F6B406B416B8B
:10320000426B436B446B456B466B476B486B496B3A
:103210004A6B4B6B4C6B4D6B4E6B4F6B506B516BEA
:10322000526B536B546B556B566B576B586B596B9A
:103230005A6B5B6B5C6B5D6B5E6B5F6B606B616B4A
:10324000626B636B646B656B666B676B686B696BFA
:103250006A6B6B6B6C6B6D6B6E6B6F6B706B716BAA
:10326000726B736B746B756B766B776B786B796B5A
:103270007A6B7B6B7C6B7D6B7E6B7F6B806B816B0A
:10328000826B836B846B856B866B876B886B896BBA
:103290008A6B8B6B8C6B8D6B8E6B8F6B906B916B6A
:1032A000926B936B946B956B966B976B986B996B1A
:1032B0009A6B9B6B9C6B9D6B9E6B9F6BA06BA16BCA
:1032C000A26BA36BA46BA56BA66BA76BA86BA96B7A
:1032D000AA6BAB6BAC6BAD6BAE6BAF6BB06BB16B2A
:1032E000B26BB36BB46BB56BB66BB76BB86BB96BDA
:1032F000BA6BBB6BBC6BBD6BBE6BBF6BC06BC16B8A
:10330000C26BC36BC46BC56BC66BC76BC86BC96B39
:10331000CA6BCB6BCC6BCD6BCE6BCF6BD06BD16BE9
:10332000D26BD36BD46BD56BD66BD76BD86BD96B99
:10333000DA6BDB6BDC6BDD6BDE6BDF6BE06BE16B49
:10334000E26BE36BE46BE56BE66BE76BE86BE96BF9
:10335000EA6BEB6BEC6BED6BEE6BEF6BF06BF16BA9
:10336000F26BF36BF46BF56BF66BF76BF86BF96B59
:10337000FA6BFB6BFC6BFD6BFE6BFF6B0201006B72
:10338000016B026B036B046B056B066B076B086BC1
:10339000096B0A6B0B6B0C6B0D6B0E6B0F6B106B71
:1033A000116B126B136B146B156B166B176B186B21
:1033B000196B1A6B1B6B1C6B1D6B1E6B1F6B206BD1
:1033C000216B226B236B246B256B266B276B286B81
:1033D000296B2A6B2B6B2C6B2D6B2E6B2F6B306B31
:1033E000316B326B336B346B356B366B376B386BE1
:1033F000396B3A6B3B6B3C6B3D6B3E6B3F6B406B91
:10340000416B426B436B446B456B466B476B486B40
:10341000496B4A6B4B6B4C6B4D6B4E6B4F6B506BF0
:10342000516B526B536B546B556B566B576B586BA0
:10343000596B5A6B5B6B5C6B5D6B5E6B5F6B606B50
:10344000616B626B636B646B656B666B676B686B00
:10345000696B6A6B6B6B6C6B6D6B6E6B6F6B706BB0
:10346000716B726B736B746B756B766B776B786B60
:10347000796B7A6B7B6B7C6B7D6B7E6B7F6B806B10
:10348000816B826B836B846B856B866B876B886BC0
:10349000896B8A6B8B6B8C6B8D6B8E6B8F6B906B70
:1034A000916B926B936B946B956B966B976B986B20
:1034B000996B9A6B9B6B9C6B9D6B9E6B9F6BA06BD0
:1034C000A16BA26BA36BA46BA56BA66BA76BA86B80
:1034D000A96BAA6BAB6BAC6BAD6BAE6BAF6BB06B30
:1034E000B16BB26BB36BB46BB56BB66BB76BB86BE0
:1034F000B96BBA6BBB6BBC6BBD6BBE6BBF6BC06B90
:10350000C16BC26BC36BC46BC56BC66BC76BC86B3F
:10351000C96BCA6BCB6BCC6BCD6BCE6BCF6BD06BEF
:10352000D16BD26BD36BD46BD56BD66BD76BD86B9F
:10353000D96BDA6BDB6BDC6BDD6BDE6BDF6BE06B4F
:10354000E16BE26BE36BE46BE56BE66BE76BE86BFF
:10355000E96BEA6BEB6BEC6BED6BEE6BEF6BF06BAF
:10356000F16BF26BF36BF46BF56BF66BF76BF86B5F
:10357000F96BFA6BFB6BFC6BFD6BFE6BFF6B030176
:10358000006B016B026B036B046B056B066B076BC7
:10359000086B096B0A6B0B6B0C6B0D6B0E6B0F6B77
:1035A000106B116B126B136B146B156B166B176B27
:1035B000186B196B1A6B1B6B1C6B1D6B1E6B1F6BD7
:1035C000206B216B226B236B246B256B266B276B87
:1035D000286B296B2A6B2B6B2C6B2D6B2E6B2F6B37
:1035E000306B316B326B336B346B356B366B376BE7
:1035F000386B396B3A6B3B6B3C6B3D6B3E6B3F6B97
:10360000406B416B426B436B446B456B466B476B46
:10361000486B496B4A6B4B6B4C6B4D6B4E6B4F6BF6
:10362000506B516B526B536B546B556B566B576BA6
:10363000586B596B5A6B5B6B5C6B5D6B5E6B5F6B56
:10364000606B616B626B636B646B656B666B676B06
:10365000686B696B6A6B6B6B6C6B6D6B6E6B6F6BB6
:10366000706B716B726B736B746B756B766B776B66
:10367000786B796B7A6B7B6B7C6B7D6B7E6B7F6B16
:10368000806B816B826B836B846B856B866B876BC6
:10369000886B896B8A6B8B6B8C6B8D6B8E6B8F6B76
:1036A000906B916B926B936B946B956B966B976B26
:1036B000986B996B9A6B9B6B9C6B9D6B9E6B9F6BD6
:1036C000A06BA16BA26BA36BA46BA56BA66BA76B86
:1036D000A86BA96BAA6BAB6BAC6BAD6BAE6BAF6B36
:1036E000B06BB16BB26BB36BB46BB56BB66BB76BE6
:1036F000B86BB96BBA6BBB6BBC6BBD6BBE6BBF6B96
:10370000C06BC16BC26BC36BC46BC56BC691C86B1E
:10371000C96BCA6BCB6BCC6BCD6BCE6BCF6BD06BED
:10372000D16BD26BD36BD46BD56BD66BD76BD86B9D
:10373000D96BDA6BDB6BDC6BDD6BDE6BDF6BE06B4D
:10374000E16BE26BE36BE46BE56BE66BE76BE86BFD
:10375000E96BEA6BEB6BEC6BED6BEE6BEF6BF06BAD
:10376000F16BF26BF36BF46BF86BF96BFA6BFB6B51
:10377000FC6BFD6BFE6BFF6B0401006B016B026B5E
:10378000036B046B056B066B076B086B096B0A6BAD
:103790000B6B0C6B0D6B0E6B0F6B106B116B126B5D
:1037A000136B146B156B166B176B186B196B1A6B0D
:1037B0001B6B1C6B1D6B1E6B1F6B206B216B226BBD
:1037C000236B246B256B266B276B286B296B2A6B6D
:1037D0002B6B2C6B2D6B2E6B2F6B306B316B326B1D
:1037E000336B346B356B366B376B386B396B3A6BCD
:1037F0003B6B3C6B3D6B3E6B3F6B406B416B426B7D
:10380000436B446B456B466B476B486B496B4A6B2C
:103810004B6B4C6B4D6B4E6B4F6B506B516B526BDC
:10382000536B546B556B566B576B586B596B5A6B8C
:103830005B6B5C6B5D6B5E6B5F6B606B616B626B3C
:10384000636B646B656B666B676B686B696B6A6BEC
:103850006B6B6C6B6D6B6E6B6F6B706B716B726B9C
:10386000736B746B756B766B776B786B796B7A6B4C
:103870007B6B7C6B7D6B7E6B7F6B806B816B826BFC
:10388000836B846B856B866B876B886B896B8A6BAC
:103890008B6B8C6B8D6B8E6B8F6B906B916B926B5C
:1038A000936B946B956B966B976B986B996B9A6B0C
:1038B0009B6B9C6B9D6B9E6B9F6BA06BA16BA26BBC
:1038C000A36BA46BA56BA66BA76BA86BA96BAA6B6C
:1038D000AB6BAC6BAD6BAE6BAF6BB06BB16BB26B1C
:1038E000B36BB46BB56BB66BB76BB86BB96BBA6BCC
:1038F000BB6BBC6BBD6BBE6BBF6BC06BC16BC26B7C
:10390000C36BC46BC56BC66BC76BC86BC96BCA6B2B
:10391000CB6BCC6BCD6BCE6BCF6BD06BD16BD26BDB
:10392000D36BD46BD56BD66BD76BD86BD96BDA6B8B
:10393000DB6BDC6BDD6BDE6BDF6BE06BE16BE26B3B
:10394000E36BE46BE56BE66BE76BE86BE96BEA6BEB
:10395000EB6BEC6BED6BEE6BEF6BF06BF16BF26B9B
:10396000F36BF46BF56BF66BF76BF96BFA6BFB6B48
:10397000FC6BFD6BFE6BFF6B0501006B016B026B5B
:10398000036B046B066B056B0C6B0B6B0A6B096BA3
:10399000010E156FFF0E146F196B010E186F0001E9
:1039A000F2EF0FF041EF10F0ACEF12F09D8A9D9016
:1039B000C00EF21296928D82010E0301F76F040081
:1039C000F751FC0FD8B08AEF21F0040F00018DEF02
:1039D00021F00FEC14F003018AEF21F00501176BC1
:1039E000166BABC31DF5AAC31CF50001CAEF14F09A
:1039F000B7C31DF5B6C31CF508EF15F00301C2539C
:103A000002E1C35318E0C35316E1C251060813E3A1
:103A10000501196B010E186F0301C251006E0AE017
:103A2000D890050118371937002E01D002D00301B4
:103A3000F7D7030104D00501196B010E186F0501BA
:103A4000086B076B0851195D16E303E11851075D18
:103A500012E2D8900735026E0835036E02501A0F35
:103A6000E96E000E0320EA6EEC6AED52EF6A072B56
:103A7000D8B4082BE7D70E6B0D6B0F6B0301E86B07
:103A80000001A36BA26B9F6B9E6BA16BA06B9D6BE8
:103A90009C6B9B6B9A6BCBC31DF5CAC31CF546ECA4
:103AA00015F000C01CF501C01DF502C01EF503C0D5
:103AB0001FF503C023F502C022F501C021F500C0A7
:103AC00020F50501276B266B7A0E256F880E246F73
:103AD000000161EC15F000C01CF501C01DF502C02D
:103AE0001EF503C01FF503C025F502C024F501C073
:103AF00023F500C022F5CD0E0501296FCC0E286FED
:103B00004C0E276F860E266F000176EC13F003C073
:103B100025F502C024F501C023F500C022F5F1EC23
:103B200013F002C0CDF301C0CCF3CFC31DF5CEC35B
:103B30001CF546EC15F000C01CF501C01DF502C0D7
:103B40001EF503C01FF503C023F502C022F501C016
:103B500021F500C020F50501276B266B7A0E256F35
:103B6000880E246F000161EC15F000C01CF501C047
:103B70001DF502C01EF503C01FF503C025F502C0E8
:103B800024F501C023F500C022F5CD0E0501296FF3
:103B9000CC0E286F4C0E276F860E266F000176EC38
:103BA00013F003C025F502C024F501C023F500C0C1
:103BB00022F5F1EC13F001500301CC25D06F025037
:103BC000CD21D16FD1510F0804E20F0ED16FFF0E3E
:103BD000D06F020EF76F9ED394908B70CDC31DF5FE
:103BE000CCC31CF510EC16F0000E016EC250C30BD6
:103BF0000110C26E0501136B126B116B106B0C6B15
:103C00000B6B0A6B096B066B056BCDC31BF5CCC345
:103C10001AF51B510301D15DD8A099D006E1050129
:103C20001A510301D05DD8A092D00400C2821BC5F6
:103C30001DF51AC51CF5000110EC16F0C2B2FED736
:103C4000C4CFDDF30301C3CFDCF3D890E835036ABA
:103C50001A0FE96E000E0320EA6EECCF03F0ED526E
:103C6000EF500501095F03500A5B000E0B5B0C5B14
:103C70000301DC51050109270301DD5105010A2378
:103C8000000E0B230C23D8900301E835036A1A0FAA
:103C9000E96E000E0320EA6EDDC3ECFFED52DCC3DB
:103CA000EFFFE85304E118C5E8F3E80701D0E8079F
:103CB0000CC503F00BC502F00AC501F009C500F000
:103CC000C25105011C6F07E0D89003320232013265
:103CD00000321C2FF9D701C09BF000C09AF0000100
:103CE0009A510501102700019B5105011123000E77
:103CF0001223132300019D519B5D0CE303E19A51B4
:103D00009C5D08E20EC59FF00DC59EF09BC09DF026
:103D10009AC09CF005010D2BD8B40E2B1551000153
:103D20009B5D0CE307E19A510501145DD8A002D018
:103D3000000104D00501162BD8B4172B0501052B63
:103D4000D8B4062B1A2BD8B41B2B63D70301030E50
:103D5000F76FE0D20FEC14F004000301F551DA25FF
:103D6000016EF651DB21036E0150C9BF09D003502B
:103D7000C95D06E303E1C851015C02E296928D92AF
:103D8000F551DA5D006EF651DB59036E00C001F0AB
:103D9000C9BF07D0C951035C06E303E10150C85D08
:103DA00002E296928D82D890C735036AA40FE96E1D
:103DB000000E0320EA6E9DC0ECFFED529CC0EFFFA9
:103DC0009DC0DFF39CC0DEF3D890C735036AA40F13
:103DD000E96E000E0320EA6EECCF1DF5ED52EFCF39
:103DE0001CF5D89005011D31156F1C31146FD8904A
:103DF0000301C735036AA40FE96E010E0320EA6EC2
:103E000017C5ECFFED5216C5EFFF17C5E1F316C558
:103E1000E0F3D890C735036AA40FE96E020E0320C1
:103E2000EA6E9FC0ECFFED529EC0EFFF9FC0E3F330
:103E30009EC0E2F3C75304E1010EC45DC76F01D019
:103E4000C707EC6BEB6BEA6BE96BF06BEF6BEE6B40
:103E5000ED6BF46BF36BF26BF16B0501086B076BA9
:103E600008510301C55D55E308E1C4510501075D33
:103E7000D8A002D003014DD003010400D890050161
:103E80000735026E0835036E0250A40FE96E000E6E
:103E90000320EA6EECCF03F0ED52EF500301E92767
:103EA0000350EA23000EEB23EC23D89005010735DD
:103EB000026E0835036E0250A40FE96E010E032056
:103EC000EA6EECCF03F0ED52EF500301ED27035003
:103ED000EE23000EEF23F023D89005010735026E84
:103EE0000835036E0250A40FE96E020E0320EA6E3D
:103EF000ECCF03F0ED52EF500301F1270350F22312
:103F0000000EF323F4230501072BD8B4082BA8D700
:103F100003010400EC310501206F0301EB310501C1
:103F20001F6F0301EA3105011E6F0301E93105012D
:103F30001D6F20331F331E331D3320331F331E33B9
:103F40001D3320331F331E331D3320331F331E33E5
:103F50001D3320331F331E331D3320331F331E33D5
:103F60001D33010E20170301AA510501216F07E03F
:103F7000D89020331F331E331D33212FF9D720C58E
:103F800025F51FC524F51EC523F51DC522F5000125
:103F90002BEC16F003C025F502C024F501C023F573
:103FA00000C022F5E60E0501296F3F0E286F1C0E9A
:103FB000276F800E266F000176EC13F003C025F505
:103FC00002C024F501C023F500C022F5F1EC13F086
:103FD00002C0A5F301C0A4F3DFC303F00301DEC3F5
:103FE00002F0AA51006E05E0D89003320232002E92
:103FF000FBD7025005011C6F03C01DF51E6B1F6B24
:104000001FC525F51EC524F503C023F5226F000149
:104010002BEC16F003C025F502C024F501C023F5F2
:1040200000C022F5E60E0501296F3F0E286F1C0E19
:10403000276F800E266F000176EC13F000C01CF590
:1040400001C01DF502C01EF503C01FF5D88203C0D4
:1040500023F502C022F501C021F500C020F50501BD
:10406000276B266B256B246B000147EF16F003C00E
:1040700025F502C024F501C023F500C022F5F1ECBE
:1040800013F002C0DFF301C0DEF304000301F031DE
:104090000501206F0301EF3105011F6F0301EE31B0
:1040A00005011E6F0301ED3105011D6F20331F3324
:1040B0001E331D3320331F331E331D3320331F3374
:1040C0001E331D3320331F331E331D3320331F3364
:1040D0001E331D3320331F331E331D33010E2017B3
:1040E00020C524F51FC523F51EC522F51DC521F5E4
:1040F000286B276B270E266F100E256F000184ECAE
:1041000017F003C020F502C01FF501C01EF500C066
:104110001DF5D892196AF2BE198EF29E03C033F5CE
:1041200002C032F501C031F500C030F50501376B32
:10413000366B06C535F505C534F500016DEC01F0AB
:1041400019BEF28E01C0A7F300C0A6F305011F6BD4
:104150001E6BE1C31DF5E0C31CF51FC524F51EC58C
:1041600023F5E1C322F5E0C321F5286B276B270E69
:10417000266F100E256F000184EC17F003C01FF5A9
:1041800002C01EF501C01DF500C01CF5D892196AC9
:10419000F2BE198EF29E03C033F502C032F501C0A3
:1041A00031F500C030F50501376B366B06C535F5C6
:1041B00005C534F500016DEC01F019BEF28E01C0A9
:1041C000E1F300C0E0F304000301F4310501206FC6
:1041D0000301F33105011F6F0301F23105011E6F69
:1041E0000301F13105011D6F20331F331E331D33D1
:1041F00020331F331E331D3320331F331E331D3333
:1042000020331F331E331D3320331F331E331D3322
:1042100020331F331E331D33010E201720C524F514
:104220001FC523F51EC522F51DC521F5286B276B7B
:10423000270E266F100E256F000184EC17F003C0C7
:1042400020F502C01FF501C01EF500C01DF5D89273
:10425000196AF2BE198EF29E03C033F502C032F520
:1042600001C031F500C030F50501376B366B06C56E
:1042700035F505C534F500016DEC01F019BEF28E7F
:1042800001C0A9F300C0A8F305011F6B1E6BE3C3B7
:104290001DF5E2C31CF51FC524F51EC523F5E3C3B8
:1042A00022F5E2C321F5286B276B270E266F100E2F
:1042B000256F000184EC17F003C01FF502C01EF546
:1042C00001C01DF500C01CF5D892196AF2BE198E06
:1042D000F29E03C033F502C032F501C031F500C0D3
:1042E00030F50501376B366B06C535F505C534F578
:1042F00000016DEC01F019BEF28E01C0E3F300C0C5
:10430000E2F30301C6A102D0F76B02D0010EF76FF2
:1043100001D00301DFEF1CF0FFD7E824F76AF7367E
:10432000350FF66E430EF7220A00F550FA6E0800BC
:0C433000F550F96ED239DC39D83B543D11
:0200000400F00A
:100000000000204E01000100000880000300004BAA
:100010000100C409C409B80B00000000007F000003
:080020000000000000000000D8
:020000040030CA
:0E00000000C81900000700000FC00FE00F40FD
:00000001FF
;PIC18F4520
;CRC=09F4  CREATED="31-џэт-16 16:33"
