:04000000FFEF16F008
:08000800046ED8CF05F0E0CF33
:1000100006F00001E9CF0CF0EACF07F0E1CF08F0DD
:10002000E2CF09F0D9CF0AF0DACF0BF0F3CF12F01C
:10003000F4CF13F0FACF14F0F5CF15F0F6CF16F099
:10004000F7CF17F000C00EF001C00FF002C010F0A3
:1000500003C011F09DA030EF00F09EB091EF0CF0C6
:100060009DAA36EF00F09EBAB8EF01F00EC000F086
:100070000FC001F010C002F011C003F00CC0E9FF86
:1000800007C0EAFF078E08C0E1FF09C0E2FF0AC00F
:10009000D9FF0BC0DAFF12C0F3FF13C0F4FF14C086
:1000A000FAFF15C0F5FF16C0F6FF17C0F7FF0450A2
:1000B00006C0E0FF05C0D8FF1000F76ACA0FF66E51
:1000C000000EF7220900F550120000C1814001C066
:1000D000804101C0804100C1814001C0804100C118
:1000E000814000C1814001C0804101C0804100C108
:1000F000814000C1814001C0804100C1814001C0F8
:10010000804101C0804100C1814001C0804100C1E7
:10011000814000C1814001C0804100C1814001C0D7
:10012000804101C0804100C1814000C1814001C0C7
:10013000804101C0804100C1814001C0804100C1B7
:10014000814000C1814001C0804101C0804100C1A7
:10015000814000C1814001C0804100C1814001C097
:10016000804101C0804100C1814000C1814001C087
:10017000804101C0804100C1814001C0804100C177
:10018000814000C1814001C0804100C1814001C067
:10019000804101C0804100C1814001C0804100C157
:1001A000814000C1814001C0804101C0804100C147
:1001B000814000C1814001C0804100C1814001C037
:1001C000804101C0804100C18140F76ADA0FF66EBC
:1001D000010EF7220900F550120000C0C101C3034F
:1001E00002C2C60607C705C5C404CC0C0DCD0FCF8F
:1001F000CE0E0ACACB0BC90908C8D81819D91BDBFF
:10020000DA1A1EDEDF1FDD1D1CDC14D4D515D7174E
:1002100016D6D21213D311D1D010F03031F133F3FE
:10022000F23236F6F737F53534F43CFCFD3DFF3F4E
:100230003EFEFA3A3BFB39F9F83828E8E929EB2B7E
:100240002AEAEE2E2FEF2DEDEC2CE42425E527E70E
:10025000E62622E2E323E12120E0A06061A163A37E
:10026000A26266A6A767A56564A46CACAD6DAF6F0E
:100270006EAEAA6A6BAB69A9A86878B8B979BB7B7E
:100280007ABABE7E7FBF7DBDBC7CB47475B577B7CE
:10029000B67672B2B373B17170B0509091519353FE
:1002A000529296565797559594549C5C5D9D5F9FCE
:1002B0009E5E5A9A9B5B99595898884849894B8BFE
:1002C0008A4A4E8E8F4F8D4D4C8C4484854587478E
:1002D00046868242438341818040D8B204D0050ED5
:1002E000EA6E340EE96E006A016A026A036A050169
:1002F000346B356B366B376B335132113111301132
:100300002CE0200E386FD8902C372D372E372F3712
:1003100034373537363737373351375D08E13251A7
:10032000365D05E13151355D02E13051345D0FE359
:100330003051345F3151D8A0313D355F3251D8A0B2
:10034000323D365F3351D8A0333D375FD880003619
:10035000013602360336382FD6D734C5EFFF35C500
:10036000ECFF36C5ECFF37C5ECFF0001D9EF01F01B
:10037000036A0401EF51EF0FE96E030E0320EA6EEA
:100380009EAAFED7AECFEFFFEF2B94908B90D89222
:10039000020E05012F6F160E2E6F0E0E2D6FC00E62
:1003A0002C6F336B326BDCC331F5DBC330F50001EE
:1003B00094D7FF0ED88000560156000E0256035601
:1003C00001C0CFFF00C0CEFF9E909D809E9A36EF69
:1003D00000F0FF0E0501396F3A6F376B3651375D0C
:1003E0001CE2036A37513425E96E35510320EA6E69
:1003F000EF503A19386F036A385100015EDE016E22
:100400000501395101183A6F036A38510001DDDEE8
:10041000E8CF39F50501372BE1D73AC503F039C5E7
:1004200001F03AC502F00001000C0400050133514F
:10043000000A000158E0010AD8B471D0030AD8B408
:100440008AD0010AD8B4A3D0070AD8B4B6D0010A1A
:10045000D8B4CFD0030AD8B4E2D0010AD8B4FBD0C4
:100460000F0AD8B414D1010AD8B42DD1030AD8B4D4
:1004700040D1010AD8B453D1070AD8B46CD1010ACB
:10048000D8B485D1030AD8B49ED1010AD8B4B7D163
:100490001F0AD8B4D0D1010AD8B4E9D1030AD8B41C
:1004A00002D2010AD8B41BD2070AD8B434D2010A46
:1004B000D8B449D2030AD8B45ED2010AD8B473D2F0
:1004C0000F0AD8B4B2D2010AD8B4F1D2030AD8B410
:1004D00030D3010AD8B455D3070AD8B46ED3010A71
:1004E000D8B487D3A2D3036A0401FA51EF0FE96E9F
:1004F000030E0320EA6E0301A8C3EFFF0401FA2BE9
:10050000036AFA51EF0FE96E030E0320EA6E03014E
:10051000A7C3EFFF0401FA2B020EEF2794D3036A5F
:100520000401FA51EF0FE96E030E0320EA6E030196
:10053000B4C3EFFF0401FA2B036AFA51EF0FE96E1F
:10054000030E0320EA6E0301B3C3EFFF0401FA2B8D
:10055000020EEF2778D3036A0401FA51EF0FE96E18
:10056000030E0320EA6E0301A6C3EFFF0401FA2B7A
:10057000036AFA51EF0FE96E030E0320EA6E0301DE
:10058000A5C3EFFF0401FA2B020EEF275CD3036A29
:100590000401FA51EF0FE96E030E0320EA6EEF6AD1
:1005A000FA2B036AFA51EF0FE96E030E0320EA6E8D
:1005B000EF6AFA2B020EEF2746D3036A0401FA51C1
:1005C000EF0FE96E030E0320EA6E0301A4C3EFFFF1
:1005D0000401FA2B036AFA51EF0FE96E030E0320B0
:1005E000EA6E0301A3C3EFFF0401FA2B020EEF270B
:1005F0002AD3036A0401FA51EF0FE96E030E0320B8
:10060000EA6EEF6AFA2B036AFA51EF0FE96E030EF6
:100610000320EA6EEF6AFA2B020EEF2714D3036A67
:100620000401FA51EF0FE96E030E0320EA6E030195
:10063000C8C3EFFF0401FA2B036AFA51EF0FE96E0A
:10064000030E0320EA6E0301C7C3EFFF0401FA2B78
:10065000020EEF27F8D2036A0401FA51EF0FE96E98
:10066000030E0320EA6E0301B2C3EFFF0401FA2B6D
:10067000036AFA51EF0FE96E030E0320EA6E0301DD
:10068000B1C3EFFF0401FA2B020EEF27DCD2036A9D
:100690000401FA51EF0FE96E030E0320EA6E030125
:1006A000BEC3EFFF0401FA2B036AFA51EF0FE96EA4
:1006B000030E0320EA6E0301BDC3EFFF0401FA2B12
:1006C000020EEF27C0D2036A0401FA51EF0FE96E60
:1006D000030E0320EA6EEF6AFA2B036AFA51EF0F5A
:1006E000E96E030E0320EA6EEF6AFA2B020EEF2783
:1006F000AAD2036A0401FA51EF0FE96E030E032038
:10070000EA6EEF6AFA2B036AFA51EF0FE96E030EF5
:100710000320EA6EEF6AFA2B020EEF2794D2036AE7
:100720000401FA51EF0FE96E030E0320EA6E030194
:10073000CAC3EFFF0401FA2B036AFA51EF0FE96E07
:10074000030E0320EA6E0301C9C3EFFF0401FA2B75
:10075000020EEF2778D2036A0401FA51EF0FE96E17
:10076000030E0320EA6E0301CEC3EFFF0401FA2B50
:10077000036AFA51EF0FE96E030E0320EA6E0301DC
:10078000CDC3EFFF0401FA2B020EEF275CD2036A00
:100790000401FA51EF0FE96E030E0320EA6E030124
:1007A000AAC3EFFF0401FA2B036AFA51EF0FE96EB7
:1007B000030E0320EA6E0301A9C3EFFF0401FA2B25
:1007C000020EEF2740D2036A0401FA51EF0FE96EDF
:1007D000030E0320EA6E0301B6C3EFFF0401FA2BF8
:1007E000036AFA51EF0FE96E030E0320EA6E03016C
:1007F000B5C3EFFF0401FA2B020EEF2724D2036AE0
:100800000401FA51EF0FE96E030E0320EA6E0301B3
:10081000C0C3EFFF0401FA2B036AFA51EF0FE96E30
:10082000030E0320EA6E0301BFC3EFFF0401FA2B9E
:10083000020EEF2708D2036A0401FA51EF0FE96EA6
:10084000030E0320EA6E0301C2C3EFFF0401FA2B7B
:10085000036AFA51EF0FE96E030E0320EA6E0301FB
:10086000C1C3EFFF0401FA2B020EEF27ECD1036A9C
:100870000401FA51EF0FE96E030E0320EA6E030143
:10088000C4C3EFFF0401FA2B036AFA51EF0FE96EBC
:10089000030E0320EA6E0301C3C3EFFF0401FA2B2A
:1008A000020EEF27D0D1036A0401FA51EF0FE96E6F
:1008B000030E0320EA6E0301DCC3EFFF0401FA2BF1
:1008C000036AFA51EF0FE96E030E0320EA6E03018B
:1008D000DBC3EFFF0401FA2B020EEF27B4D1036A4A
:1008E0000401FA51EF0FE96E030E0320EA6E0301D3
:1008F000DEC3EFFF0401FA2B036AFA51EF0FE96E32
:10090000030E0320EA6E0301DDC3EFFF0401FA2B9F
:10091000020EEF2798D1036A0401FA51EF0FE96E36
:10092000030E0320EA6EF1C4EFFFFA2B036AFA51BB
:10093000EF0FE96E030E0320EA6EF0C4EFFFFA2B0F
:10094000020EEF2780D1036A0401FA51EF0FE96E1E
:10095000030E0320EA6EF3C4EFFFFA2B036AFA5189
:10096000EF0FE96E030E0320EA6EF2C4EFFFFA2BDD
:10097000020EEF2768D1036A0401FA51EF0FE96E06
:10098000030E0320EA6EF5C4EFFFFA2B036AFA5157
:10099000EF0FE96E030E0320EA6EF4C4EFFFFA2BAB
:1009A000020EEF2750D1050EEA6E340EE96E030EEB
:1009B000E26ED10EE16E040E016EE6CFEEFF012E67
:1009C000FCD7036A0401FA51EF0FE96E030E03200E
:1009D000EA6E050134C5EFFF0401FA2B036AFA51F0
:1009E000EF0FE96E030E0320EA6E050135C5EFFF38
:1009F0000401FA2B036AFA51EF0FE96E030E03208C
:100A0000EA6E050136C5EFFF0401FA2B036AFA51BD
:100A1000EF0FE96E030E0320EA6E050137C5EFFF05
:100A20000401FA2B040EEF270ED1050EEA6E340EE8
:100A3000E96E030EE26ED50EE16E040E016EE6CF96
:100A4000EEFF012EFCD7036A0401FA51EF0FE96EA5
:100A5000030E0320EA6E050134C5EFFF0401FA2BF3
:100A6000036AFA51EF0FE96E030E0320EA6E0501E7
:100A700035C5EFFF0401FA2B036AFA51EF0FE96E57
:100A8000030E0320EA6E050136C5EFFF0401FA2BC1
:100A9000036AFA51EF0FE96E030E0320EA6E0501B7
:100AA00037C5EFFF0401FA2B040EEF27CCD0050E5B
:100AB000EA6E340EE96E030EE26EAB0EE16E040ECA
:100AC000016EE6CFEEFF012EFCD7036A0401FA5156
:100AD000EF0FE96E030E0320EA6E050134C5EFFF48
:100AE0000401FA2B036AFA51EF0FE96E030E03209B
:100AF000EA6E050135C5EFFF0401FA2B036AFA51CE
:100B0000EF0FE96E030E0320EA6E050136C5EFFF15
:100B10000401FA2B036AFA51EF0FE96E030E03206A
:100B2000EA6E050137C5EFFF0401FA2B040EEF272B
:100B30008AD0036A0401FA51EF0FE96E030E032015
:100B4000EA6EEF6AFA2B036AFA51EF0FE96E030EB1
:100B50000320EA6EEF6AFA2B036AFA51EF0FE96E8F
:100B6000030E0320EA6EEF6AFA2B036AFA51EF0FC5
:100B7000E96E030E0320EA6EEF6AFA2B040EEF27EC
:100B800062D0036A0401FA51EF0FE96E030E0320ED
:100B9000EA6E0301B0C3EFFF0401FA2B036AFA51B6
:100BA000EF0FE96E030E0320EA6E0301AFC3EFFF00
:100BB0000401FA2B020EEF2746D0036A0401FA5112
:100BC000EF0FE96E030E0320EA6E0301BCC3EFFFD3
:100BD0000401FA2B036AFA51EF0FE96E030E0320AA
:100BE000EA6E0301BBC3EFFF0401FA2B020EEF27ED
:100BF0002AD0036A0401FA51EF0FE96E030E0320B5
:100C0000EA6E0301DAC3EFFF0401FA2B036AFA511B
:100C1000EF0FE96E030E0320EA6E0301D9C3EFFF65
:100C20000401FA2B020EEF270ED00301F08F030E02
:100C3000F16F050E0401EF6FF42BD8B4F52BF051D2
:100C4000D8B4F107F0070001CBEF0DF00400050167
:100C50003351000A000151E0010A53E0030A55E054
:100C6000010A57E0070A59E0010A5BE0030A5DE068
:100C7000010A5FE00F0AD8B460D0010AD8B461D08D
:100C8000030AD8B462D0010AD8B463D0070AD8B432
:100C90007BD0010AD8B493D0030AD8B4ABD0010AF0
:100CA000D8B4C3D01F0AD8B4DBD0010AD8B4F3D06B
:100CB000030AD8B40BD1010AD8B40CD1070AD8B4AE
:100CC00024D1010AD8B425D1030AD8B426D1010A07
:100CD000D8B427D10F0AD8B465D1010AD8B4A3D1AA
:100CE000030AD8B4E1D1010AD8B4E2D1070AD8B4D2
:100CF000FAD1010AD8B412D22CD2020E0401FA277A
:100D000036D2020E0401FA2732D2020E0401FA276B
:100D10002ED2020E0401FA272AD2020E0401FA276B
:100D200026D2020E0401FA2722D2020E0401FA276B
:100D30001ED2020E0401FA271AD2020E0401FA276B
:100D400016D2020E0401FA2712D2020E0401FA276B
:100D50000ED2036A0401FA51EF0FE96E030E03206D
:100D6000EA6EEFCF38F5010EFA25036AEF0FE96E50
:100D7000030E0320EA6EEFCF39F538C5CAF339C543
:100D8000C9F3020EFA27F3D1036A0401FA51EF0FF7
:100D9000E96E030E0320EA6EEFCF38F5010EFA2557
:100DA000036AEF0FE96E030E0320EA6EEFCF39F509
:100DB00038C5CEF339C5CDF3020EFA27D8D1036A70
:100DC0000401FA51EF0FE96E030E0320EA6EEFCF34
:100DD00038F5010EFA25036AEF0FE96E030E0320C2
:100DE000EA6EEFCF39F538C5AAF339C5A9F3020E7B
:100DF000FA27BDD1036A0401FA51EF0FE96E030E21
:100E00000320EA6EEFCF38F5010EFA25036AEF0FE3
:100E1000E96E030E0320EA6EEFCF39F538C5B6F35D
:100E200039C5B5F3020EFA27A2D1036A0401FA51BB
:100E3000EF0FE96E030E0320EA6EEFCF38F5010ED7
:100E4000FA25036AEF0FE96E030E0320EA6EEFCF77
:100E500039F538C5C0F339C5BFF3020EFA2787D17B
:100E6000036A0401FA51EF0FE96E030E0320EA6EE4
:100E7000EFCF38F5010EFA25036AEF0FE96E030E86
:100E80000320EA6EEFCF39F538C5C2F339C5C1F397
:100E9000020EFA276CD1036A0401FA51EF0FE96ED2
:100EA000030E0320EA6EEFCF38F5010EFA25036A30
:100EB000EF0FE96E030E0320EA6EEFCF39F538C568
:100EC000C4F339C5C3F3020EFA2751D1020E04014F
:100ED000FA274DD1036A0401FA51EF0FE96E030EB0
:100EE0000320EA6EEFCF38F5010EFA25036AEF0F03
:100EF000E96E030E0320EA6EEFCF39F538C5DEF355
:100F000039C5DDF3020EFA2732D1020E0401FA27A9
:100F10002ED1020E0401FA272AD1020E0401FA276B
:100F200026D1030E0401FA25036AEF0FE96E030EC2
:100F30000320EA6EEFCF38F5020EFA25036AEF0FB1
:100F4000E96E030E0320EA6EEFCF39F5010EFA25A4
:100F5000036AEF0FE96E030E0320EA6EEFCF3AF556
:100F6000036AFA51EF0FE96E030E0320EA6EEFCF2A
:100F70003BF538C537F539C536F53AC535F53BC5C6
:100F800034F5030EEA6ED10EE96E050EE26E340EF4
:100F9000E16E040E016EE6CFEEFF012EFCD7040ECB
:100FA000FA27E5D0030E0401FA25036AEF0FE96E74
:100FB000030E0320EA6EEFCF38F5020EFA25036A1E
:100FC000EF0FE96E030E0320EA6EEFCF39F5010E45
:100FD000FA25036AEF0FE96E030E0320EA6EEFCFE6
:100FE0003AF5036AFA51EF0FE96E030E0320EA6E39
:100FF000EFCF3BF538C537F539C536F53AC535F588
:101000003BC534F5030EEA6ED50EE96E050EE26EB1
:10101000340EE16E040E016EE6CFEEFF012EFCD71A
:10102000040EFA27A4D0030E0401FA25036AEF0F79
:10103000E96E030E0320EA6EEFCF38F5020EFA25B3
:10104000036AEF0FE96E030E0320EA6EEFCF39F566
:10105000010EFA25036AEF0FE96E030E0320EA6E14
:10106000EFCF3AF5036AFA51EF0FE96E030E032052
:10107000EA6EEFCF3BF538C537F539C536F53AC5D9
:1010800035F53BC534F5030EEA6EAB0EE96E050E81
:10109000E26E340EE16E040E016EE6CFEEFF012E1D
:1010A000FCD7040EFA2763D0040E0401FA275FD0A0
:1010B000036A0401FA51EF0FE96E030E0320EA6E92
:1010C000EFCF38F5010EFA25036AEF0FE96E030E34
:1010D0000320EA6EEFCF39F538C5B0F339C5AFF369
:1010E000020EFA2744D0036A0401FA51EF0FE96EA9
:1010F000030E0320EA6EEFCF38F5010EFA25036ADE
:10110000EF0FE96E030E0320EA6EEFCF39F538C515
:10111000BCF339C5BBF3020EFA2729D0036A0401D8
:10112000FA51EF0FE96E030E0320EA6EEFCF38F5A8
:10113000010EFA25036AEF0FE96E030E0320EA6E33
:10114000EFCF39F538C5DAF339C5D9F3020EFA27EE
:101150000ED00301F08F030EF16F050E0401EF6F47
:10116000F42BD8B4F52BF051D8B4F107F0070001F7
:10117000FDEF0DF0D190C9C337F5A96A37C5A8FFB7
:10118000A69CA69EA684F250006EF29E0F01550EFC
:10119000A76EAA0EA76EA682A6B2FED7A69400508E
:1011A000F212CAC337F5010EA96ECAC3A8FFA69CE6
:1011B000A69EA684F2CF00F0F29E550EA76EAA0E50
:1011C000A76EA682A6B2FED7A6940050F212CDC397
:1011D00037F5020EA96ECDC3A8FFA69CA69EA684D5
:1011E000F2CF00F0F29E550EA76EAA0EA76EA68251
:1011F000A6B2FED7A6940050F212CEC337F5030E66
:10120000A96ECEC3A8FFA69CA69EA684F2CF00F02E
:10121000F29E550EA76EAA0EA76EA682A6B2FED7A4
:10122000A6940050F212A9C337F5040EA96EA9C303
:10123000A8FFA69CA69EA684F2CF00F0F29E550EB3
:10124000A76EAA0EA76EA682A6B2FED7A6940050DD
:10125000F212AAC337F5050EA96EAAC3A8FFA69C71
:10126000A69EA684F2CF00F0F29E550EA76EAA0E9F
:10127000A76EA682A6B2FED7A6940050F212B5C3FE
:1012800037F5060EA96EB5C3A8FFA69CA69EA68438
:10129000F2CF00F0F29E550EA76EAA0EA76EA682A0
:1012A000A6B2FED7A6940050F212B6C337F5070EC9
:1012B000A96EB6C3A8FFA69CA69EA684F2CF00F096
:1012C000F29E550EA76EAA0EA76EA682A6B2FED7F4
:1012D000A6940050F212BFC337F5080EA96EBFC323
:1012E000A8FFA69CA69EA684F2CF00F0F29E550E03
:1012F000A76EAA0EA76EA682A6B2FED7A69400502D
:10130000F212C0C337F5090EA96EC0C3A8FFA69C90
:10131000A69EA684F2CF00F0F29E550EA76EAA0EEE
:10132000A76EA682A6B2FED7A6940050F212C3C33F
:1013300037F50A0EA96EC3C3A8FFA69CA69EA68475
:10134000F2CF00F0F29E550EA76EAA0EA76EA682EF
:10135000A6B2FED7A6940050F212C4C337F50B0E06
:10136000A96EC4C3A8FFA69CA69EA684F2CF00F0D7
:10137000F29E550EA76EAA0EA76EA682A6B2FED743
:10138000A6940050F212C1C337F50C0EA96EC1C36A
:10139000A8FFA69CA69EA684F2CF00F0F29E550E52
:1013A000A76EAA0EA76EA682A6B2FED7A69400507C
:1013B000F212C2C337F50D0EA96EC2C3A8FFA69CD8
:1013C000A69EA684F2CF00F0F29E550EA76EAA0E3E
:1013D000A76EA682A6B2FED7A6940050F212DBC377
:1013E00037F50E0EA96EDBC3A8FFA69CA69EA684A9
:1013F000F2CF00F0F29E550EA76EAA0EA76EA6823F
:10140000A6B2FED7A6940050F212DCC337F50F0E39
:10141000A96EDCC3A8FFA69CA69EA684F2CF00F00E
:10142000F29E550EA76EAA0EA76EA682A6B2FED792
:10143000A6940050F212DDC337F5100EA96EDDC37D
:10144000A8FFA69CA69EA684F2CF00F0F29E550EA1
:10145000A76EAA0EA76EA682A6B2FED7A6940050CB
:10146000F212DEC337F5110EA96EDEC3A8FFA69CEB
:10147000A69EA684F2CF00F0F29E550EA76EAA0E8D
:10148000A76EA682A6B2FED7A6940050F212AFC3F2
:1014900037F5120EA96EAFC3A8FFA69CA69EA68420
:1014A000F2CF00F0F29E550EA76EAA0EA76EA6828E
:1014B000A6B2FED7A6940050F212B0C337F5130EB1
:1014C000A96EB0C3A8FFA69CA69EA684F2CF00F08A
:1014D000F29E550EA76EAA0EA76EA682A6B2FED7E2
:1014E000A6940050F212BBC337F5140EA96EBBC30D
:1014F000A8FFA69CA69EA684F2CF00F0F29E550EF1
:10150000A76EAA0EA76EA682A6B2FED7A69400501A
:10151000F212BCC337F5150EA96EBCC3A8FFA69C7A
:10152000A69EA684F2CF00F0F29E550EA76EAA0EDC
:10153000A76EA682A6B2FED7A6940050F212D9C317
:1015400037F5160EA96ED9C3A8FFA69CA69EA68441
:10155000F2CF00F0F29E550EA76EAA0EA76EA682DD
:10156000A6B2FED7A6940050F212DAC337F5170ED2
:10157000A96EDAC3A8FFA69CA69EA684F2CF00F0AF
:10158000F29E550EA76EAA0EA76EA682A6B2FED731
:10159000A6940050F212050EEA6E330EE96E030EA9
:1015A000E26ED10EE16E040E016EE6CFEEFF012E6B
:1015B000FCD736C537F51A0EA96E36C5A8FFA69C0E
:1015C000A69EA684F2CF00F0F29E550EA76EAA0E3C
:1015D000A76EA682A6B2FED7A6940050F21235C519
:1015E00037F51B0EA96E35C5A8FFA69CA69EA6843E
:1015F000F2CF00F0F29E550EA76EAA0EA76EA6823D
:10160000A6B2FED7A6940050F21234C537F5180ED4
:10161000A96E34C5A8FFA69CA69EA684F2CF00F0B2
:10162000F29E550EA76EAA0EA76EA682A6B2FED790
:10163000A6940050F21233C537F5190EA96E33C5C2
:10164000A8FFA69CA69EA684F2CF00F0F29E550E9F
:10165000A76EAA0EA76EA682A6B2FED7A6940050C9
:10166000F212050EEA6E330EE96E030EE26ED50E2F
:10167000E16E040E016EE6CFEEFF012EFCD736C5FB
:1016800037F51E0EA96E36C5A8FFA69CA69EA68499
:10169000F2CF00F0F29E550EA76EAA0EA76EA6829C
:1016A000A6B2FED7A6940050F21235C537F51F0E2C
:1016B000A96E35C5A8FFA69CA69EA684F2CF00F011
:1016C000F29E550EA76EAA0EA76EA682A6B2FED7F0
:1016D000A6940050F21234C537F51C0EA96E34C51D
:1016E000A8FFA69CA69EA684F2CF00F0F29E550EFF
:1016F000A76EAA0EA76EA682A6B2FED7A694005029
:10170000F21233C537F51D0EA96E33C5A8FFA69C8E
:10171000A69EA684F2CF00F0F29E550EA76EAA0EEA
:10172000A76EA682A6B2FED7A6940050F212050EAE
:10173000EA6E330EE96E030EE26ED10EE16E040E18
:10174000016EE6CFEEFF012EFCD736C537F5220E2F
:10175000A96E36C5A8FFA69CA69EA684F2CF00F06F
:10176000F29E550EA76EAA0EA76EA682A6B2FED74F
:10177000A6940050F21235C537F5230EA96E35C573
:10178000A8FFA69CA69EA684F2CF00F0F29E550E5E
:10179000A76EAA0EA76EA682A6B2FED7A694005088
:1017A000F21234C537F5200EA96E34C5A8FFA69CE9
:1017B000A69EA684F2CF00F0F29E550EA76EAA0E4A
:1017C000A76EA682A6B2FED7A6940050F21233C529
:1017D00037F5210EA96E33C5A8FFA69CA69EA68448
:1017E000F2CF00F0F29E550EA76EAA0EA76EA6824B
:1017F000A6B2FED7A6940050F212050EEA6E330E82
:10180000E96E030EE26ED10EE16E040E016EE6CFBC
:10181000EEFF012EFCD736C537F5260EA96E36C56C
:10182000A8FFA69CA69EA684F2CF00F0F29E550EBD
:10183000A76EAA0EA76EA682A6B2FED7A6940050E7
:10184000F21235C537F5270EA96E35C5A8FFA69C3F
:10185000A69EA684F2CF00F0F29E550EA76EAA0EA9
:10186000A76EA682A6B2FED7A6940050F21234C587
:1018700037F5240EA96E34C5A8FFA69CA69EA684A3
:10188000F2CF00F0F29E550EA76EAA0EA76EA682AA
:10189000A6B2FED7A6940050F21233C537F5250E36
:1018A000A96E33C5A8FFA69CA69EA684F2CF00F021
:1018B000F29E550EA76EAA0EA76EA682A6B2FED7FE
:1018C000A6940050F212D180000119EF0EF0050E1F
:1018D000EA6E330EE96EEF5011E00A0E016EBF0E94
:1018E000006E0400002EFDD7012EF9D75E0E006EAB
:1018F000002EFED700D00400EF2EEFD7D0EF0EF071
:10190000929C898C9EA8FED7050134C5ADFF0000CE
:10191000929C898CACA2FED7929C899C00015AEFC4
:101920000FF09D9A94908B800401EF51030801E31E
:10193000C8D20301DD51EF5D04E0EF5302E0040182
:10194000C0D2020E0401EF5D0501336F030E356F47
:10195000EF0E346F33C536F50001E9EC01F002C03B
:10196000F9F401C0F8F4020E0401EF5D036AEF0F11
:10197000E96E030E0320EA6EEFCF33F5010EEF5D43
:10198000036AEF0FE96E030E0320EA6EEFCF34F522
:1019900033C5F7F434C5F6F4F651F85D03E1F751B9
:1019A000F95D04E0F22BD8B4F32B8BD20301F05194
:1019B000420A000113E0010AD8B471D0070AD8B472
:1019C000CED0010AD8B4F9D0200AD8B42BD10F0A4E
:1019D000D8B441D1010AD8B4F4D123D20401EF51D3
:1019E000050852E10301F151000A000105E0010A76
:1019F0000EE0030A3BE03DD00301C591010EEE6FFE
:101A0000040E0401EF6FF02BD8B4F12B3CD003018E
:101A1000C581010EEE6F0501306B2F6B3051030154
:101A2000C45D1DE308E1C35105012F5DD8A002D0BC
:101A3000030115D00301D89005012F35026E303512
:101A4000036E0250A30FE96E020E0320EA6EEC6AE9
:101A5000ED52EF6A2F2BD8B4302BE0D70301040EE0
:101A60000401EF6FF02BD8B4F12B0DD0FF0004016F
:101A70000AD00301F08F030EF16F0401F42BD8B4E8
:101A8000F52B050EEF6F0AD00301F08F020EF16FF8
:101A9000050E0401EF6FF42BD8B4F52BCCD1040163
:101AA000EF51070851E10301F251000A000103E080
:101AB000010A20E03ED00501326B020E316F306B1F
:101AC0002F6B305100080FE3EF0E3125E96E030E46
:101AD0003221EA6EEF6A312BD8B4322B020E2F2757
:101AE000000E3023EED7840E0401EF6FF02BD8B434
:101AF000F12B29D00501326B020E316F306B2F6B49
:101B0000305100080FE3EF0E3125E96E030E32214C
:101B1000EA6EEF6A312BD8B4322B020E2F27000E5B
:101B20003023EED7840E0401EF6FF02BD8B4F12BE5
:101B30000AD00301F08F030EF16F0401F42BD8B427
:101B4000F52B050EEF6F0AD00301F08F020EF16F37
:101B5000050E0401EF6FF42BD8B4F52B6CD1040102
:101B6000EF5107081DE1040EEF6FF02BD8B4F12BF5
:101B7000020EFA6FF2C32CF50301F351F2250501B1
:101B80002D6F2CC52EF52D512E5D08E22EC533F597
:101B9000000115EF02F005012E2BF5D70CD0040142
:101BA0000301F08F020EF16F050E0401EF6FF42BAD
:101BB000D8B4F52B050104013ED10401EF5107080B
:101BC00026E2EFB124D0040EFA6FF2C32CF5020E18
:101BD000EF5D05012D6F040E0401EF6FF02BD8B4FB
:101BE000F12B2CC52EF505012D510401FA5D09E2FA
:101BF0002EC533F5000126EF06F005012E2BF4D794
:101C00000401040EEF6FF02BD8B4F12B0AD00301BE
:101C1000F08F020EF16F050E0401EF6FF42BD8B4B4
:101C2000F52B09D10401EF5104080AE10001BAEFD4
:101C300008F0040E0401EF6FF02BD8B4F12B0AD09A
:101C40000301F08F020EF16F050E0401EF6FF42B0C
:101C5000D8B4F52BF0D00401EF510508D8A4A4D0D6
:101C6000040EEF6FF02BD8B4F12B0301F151000AF1
:101C700000010FE0010A1CE0030A29E0010A36E036
:101C8000070A43E0010A50E0030A5DE0010A68E048
:101C900075D0040E0301DC6FB00EDB6FB8860A0E40
:101CA000AF6E1A0EB06EA60EAC6E0000000071D0C2
:101CB000070E0301DC6F080EDB6FB8865B0EAF6E9C
:101CC000110EB06EA60EAC6E0000000062D0090EC0
:101CD0000301DC6F600EDB6FB886040EAF6E0D0E75
:101CE000B06EA60EAC6E0000000053D0120E0301C1
:101CF000DC6FC00EDB6FB886820EAF6E060EB06E64
:101D0000A60EAC6E0000000044D01C0E0301DC6F78
:101D1000200EDB6FB886560EAF6E040EB06EA60EA8
:101D2000AC6E0000000035D0250E0301DC6F800E84
:101D3000DB6FB886400EAF6E030EB06EA60EAC6EB3
:101D40000000000026D0380E0301DC6F400EDB6F70
:101D5000B8968A0EAF6EA60EAC6E0000000019D0C9
:101D60004B0E0301DC6FDB6BB886A00EAF6E010E6D
:101D7000B06EA60EAC6E000000000BD00301F08F19
:101D8000030EF16F050E0401EF6FF42BD8B4F52BA1
:101D9000030194908B70640E0501336F000197D599
:101DA00094908B700CD004010301F08F020EF16F40
:101DB000050E0401EF6FF42BD8B4F52B00010401DC
:101DC0003AD00401EF51040821E14D0E0301F16FF7
:101DD000570EF26F540EF36F2D0EF46F530EF56F16
:101DE000500EF66F4D0EF76F330EF86F760EF96FDB
:101DF000310EFA6F2E0EFB6F300EFC6FFD6F100E62
:101E00000401EF6FF02BD8B4F12B0AD00301F08F4F
:101E1000020EF16F050E0401EF6FF42BD8B4F52B11
:101E20000AD00301F08F010EF16F050E0401EF6F70
:101E3000F42BD8B4F52B0301EF5344E0020E040158
:101E4000EF5D0501336F030E356FEF0E346F33C551
:101E500036F50001E9EC01F002C0F9F401C0F8F434
:101E6000020E0401EF5D036AEF0FE96E030E03201B
:101E7000EA6EF9C4EFFF010EEF5D036AEF0FE96E42
:101E8000030E0320EA6EF8C4EFFF05012E6B040178
:101E9000EF5105012E5D13E20400036A2E51EF0F8E
:101EA000E96E030E0320EA6EEFCF33F533C534F548
:101EB000000126D594908B9005012E2BE8D70401C4
:101EC00000D0030194908B800401EF6B9E909D9055
:101ED0009D8A9E90000136EF00F0700ED36EC00E0A
:101EE0009B6ED3509698D190070EB46E9250926E1E
:101EF00004001A0E006E002EFED7B450A19CB56AE5
:101F0000C150C00B1909C16EC050C00B0D09C06E85
:101F1000C08EC2803F0E926EF80E946E000E956ECB
:101F2000929E898E94928B8294948B8495908C80CF
:101F300095928C82959A8C8A95988C8894908B80B7
:101F4000800ED56EB50ECD6E000ECA6E000ECB6E35
:101F5000850EB16E929C899CC69A949A94889496A8
:101F6000300EC66E400EC76E9D8AC00EF21203017F
:101F7000EE6B000115EF1CF0F2CF1BF5F29E010E87
:101F8000A96EA69CA69EA680A85005011BBFF28E36
:101F90001C6FF2CF1DF5F29EA96AA69CA69EA68094
:101FA000A8501DBFF28E1E6F1CC5CAF31EC5C9F313
:101FB000F2CF1BF5F29E030EA96EA69CA69EA680EC
:101FC000A8501BBFF28E1C6FF2CF1DF5F29E020EC1
:101FD000A96EA69CA69EA680A8501DBFF28E1E6F5D
:101FE0001CC5CEF31EC5CDF3F2CF1BF5F29E050E38
:101FF000A96EA69CA69EA680A8501BBFF28E1C6F41
:10200000F2CF1DF5F29E040EA96EA69CA69EA68098
:10201000A8501DBFF28E1E6F1CC5AAF31EC5A9F3E2
:10202000F2CF1BF5F29E070EA96EA69CA69EA68077
:10203000A8501BBFF28E1C6FF2CF1DF5F29E060E4C
:10204000A96EA69CA69EA680A8501DBFF28E1E6FEC
:102050001CC5B6F31EC5B5F3F2CF1BF5F29E090EF3
:10206000A96EA69CA69EA680A8501BBFF28E1C6FD0
:10207000F2CF1DF5F29E080EA96EA69CA69EA68024
:10208000A8501DBFF28E1E6F1CC5C0F31EC5BFF346
:10209000F2CF1BF5F29E0B0EA96EA69CA69EA68003
:1020A000A8501BBFF28E1C6FF2CF1DF5F29E0A0ED8
:1020B000A96EA69CA69EA680A8501DBFF28E1E6F7C
:1020C0001CC5C4F31EC5C3F3F2CF1BF5F29E0D0E63
:1020D000A96EA69CA69EA680A8501BBFF28E1C6F60
:1020E000F2CF1DF5F29E0C0EA96EA69CA69EA680B0
:1020F000A8501DBFF28E1E6F1CC5C2F31EC5C1F3D2
:10210000F2CF1BF5F29E0F0EA96EA69CA69EA6808E
:10211000A8501BBFF28E1C6FF2CF1DF5F29E0E0E63
:10212000A96EA69CA69EA680A8501DBFF28E1E6F0B
:102130001CC5DCF31EC5DBF3F2CF1BF5F29E110EBE
:10214000A96EA69CA69EA680A8501BBFF28E1C6FEF
:10215000F2CF1DF5F29E100EA96EA69CA69EA6803B
:10216000A8501DBFF28E1E6F1CC5DEF31EC5DDF329
:10217000F2CF1BF5F29E130EA96EA69CA69EA6801A
:10218000A8501BBFF28E1C6FF2CF1DF5F29E120EEF
:10219000A96EA69CA69EA680A8501DBFF28E1E6F9B
:1021A0001CC5B0F31EC5AFF3F2CF1BF5F29E150EA2
:1021B000A96EA69CA69EA680A8501BBFF28E1C6F7F
:1021C000F2CF1DF5F29E140EA96EA69CA69EA680C7
:1021D000A8501DBFF28E1E6F1CC5BCF31EC5BBF3FD
:1021E000F2CF1BF5F29E170EA96EA69CA69EA680A6
:1021F000A8501BBFF28E1C6FF2CF1DF5F29E160E7B
:10220000A96EA69CA69EA680A8501DBFF28E1E6F2A
:102210001CC5DAF31EC5D9F3F2CF1BF5F29E1A0ED8
:10222000A96EA69CA69EA680A8501BBFF28E1C6F0E
:10223000F2CF1DF5F29E1B0EA96EA69CA69EA6804F
:10224000A8501DBFF28E1E6FF2CF1FF5F29E180E22
:10225000A96EA69CA69EA680A8501FBFF28E206FD6
:10226000F2CF21F5F29E190EA96EA69CA69EA6801D
:10227000A85021BFF28E226F1CC51AF51EC519F594
:1022800020C518F522C517F5030EEA6ED10EE96ECA
:10229000050EE26E170EE16E040E016EE6CFEEFF44
:1022A000012EFCD7F2CF1BF5F29E1E0EA96EA69C46
:1022B000A69EA680A8501BBFF28E1C6FF2CF1DF504
:1022C000F29E1F0EA96EA69CA69EA680A8501DBFBA
:1022D000F28E1E6FF2CF1FF5F29E1C0EA96EA69C09
:1022E000A69EA680A8501FBFF28E206FF2CF21F5C8
:1022F000F29E1D0EA96EA69CA69EA680A85021BF88
:10230000F28E226F1CC51AF51EC519F520C518F5E9
:1023100022C517F5030EEA6ED50EE96E050EE26EC4
:10232000170EE16E040E016EE6CFEEFF012EFCD714
:10233000F2CF1BF5F29E220EA96EA69CA69EA68049
:10234000A8501BBFF28E1C6FF2CF1DF5F29E230E1C
:10235000A96EA69CA69EA680A8501DBFF28E1E6FD9
:10236000F2CF1FF5F29E200EA96EA69CA69EA68017
:10237000A8501FBFF28E206FF2CF21F5F29E210EE2
:10238000A96EA69CA69EA680A85021BFF28E226FA1
:102390001CC51AF51EC519F520C518F522C517F577
:1023A000030EEA6EAB0EE96E050EE26E170EE16EDD
:1023B000040E016EE6CFEEFF012EFCD7F2CF1BF527
:1023C000F29E260EA96EA69CA69EA680A8501BBFB4
:1023D000F28E1C6FF2CF1DF5F29E270EA96EA69C01
:1023E000A69EA680A8501DBFF28E1E6FF2CF1FF5CD
:1023F000F29E240EA96EA69CA69EA680A8501FBF82
:10240000F28E206FF2CF21F5F29E250EA96EA69CCA
:10241000A69EA680A85021BFF28E226F1CC51AF579
:102420001EC519F520C518F522C517F5030EEA6E6D
:10243000B70EE96E050EE26E170EE16E040E016E28
:10244000E6CFEEFF012EFCD7000117EF1CF00401D0
:10245000EF6B0301DB51006EDC51036E040E035C75
:1024600005E1B00E005C000139E00301070E035CDA
:1024700005E1080E005C00013BE00301090E035C6E
:1024800005E1600E005C00013DE00301120E035CFB
:1024900005E1C00E005C00013FE003011C0E035C7F
:1024A00005E1200E005C000141E00301250E035C04
:1024B00005E1800E005C000143E00301380E035C7F
:1024C00005E1400E005C000145E003014B0E035C9A
:1024D00004E10052000146E003014FD0B8860A0E25
:1024E000AF6E1A0EB06EA60EAC6E000000004ED09D
:1024F000B8865B0EAF6E110EB06EA60EAC6E00000D
:10250000000044D0B886040EAF6E0D0EB06EA60E5D
:10251000AC6E000000003AD0B886820EAF6E060E98
:10252000B06EA60EAC6E0000000030D0B886560E1D
:10253000AF6E040EB06EA60EAC6E0000000026D08A
:10254000B886400EAF6E030EB06EA60EAC6E0000E5
:1025500000001CD0B8968A0EAF6EA60EAC6E0000BE
:10256000000014D0B886A00EAF6E010EB06EA60E9D
:10257000AC6E000000000AD00301B886400EAF6EBA
:10258000030EB06EA60EAC6E00000000000119EF45
:102590001CF08E0E006E1CC501F01BC502F0036A14
:1025A00001AE05D0011E021E022A01E1012A0152DC
:1025B00009E102C001F0026A080E005E015202E168
:1025C000006A0DD0D89001BE04D002360136000654
:1025D000F9D705011CAF02D0000101D0019E000116
:1025E000000C05011C51D8B471D0006E2051D8B434
:1025F0006DD0002604E3810E002668E204D07F0E31
:10260000005E64E363E01DC524F52151241B1D8F8A
:10261000218F1F512303F4CF26F51E512203F4CF3F
:1026200003F0F3CF25F52303F3502627F450252399
:10263000000E03221F512203F3502627F4502523B6
:10264000000E026A032202221D512303F3502527A4
:10265000F4500322000E02221D512203F3500326E0
:10266000F4500222000E016A01221F512103F3508F
:102670002527F4500322000E022201221E512103BD
:10268000F3500326F4500222000E01221D512103B3
:10269000F3500226F4500122002A01BE05D025374E
:1026A0000336023601360006000E25AF0AD0032A93
:1026B00002220122015005E1025003E1035001E131
:1026C000002A24BF018E24AF019E04D0006A016A53
:1026D000026A036A0001000C8E0E006E050119519A
:1026E000005E1AC502F01BC501F0028E005209E01F
:1026F000D890025202E1015204E002320132002E6F
:10270000F7D71AAF05D0011E021E012AD8B4022A3B
:102710000001000C080E016EC250C30B0110C26E06
:1027200004001A0E006E002EFED7C282C2B2FED77F
:10273000C4CF18F50501C3CF17F5CD0E175D196F7E
:10274000000E18591A6F1C6F19C51BF5000121DF07
:1027500003C01FF502C01EF501C01DF500C01CF529
:10276000DF0E0501236F4F0E226F430E216F830E84
:10277000206F000136DF03C01CF502C01BF501C04D
:102780001AF500C019F5A8DF02C0C8F301C0C7F3ED
:10279000140E016EC250C30B0110C26E04001A0E5B
:1027A000006E002EFED7C282C2B2FED7C4CF18F58B
:1027B0000501C3CF17F5CD0E175D196F000E18591F
:1027C0001A6F1C6F19C51BF50001E3DE03C01FF56E
:1027D00002C01EF501C01DF500C01CF5DF0E05018D
:1027E000236F4F0E226F430E216F830E206F000167
:1027F000F8DE03C01CF502C01BF501C01AF500C0CD
:1028000019F56ADF02C0B2F301C0B1F3100E016E18
:10281000C250C30B0110C26E04001A0E006E002ECF
:10282000FED7C282C2B2FED7C4CF18F50501C3CF0E
:1028300017F5CD0E175D196F000E18591A6F1C6F22
:1028400019C51BF50001A5DE03C01FF502C01EF56A
:1028500001C01DF500C01CF5DF0E0501236F4F0EF2
:10286000226F430E216F830E206F0001BADE03C07A
:102870001CF502C01BF501C01AF500C019F52CDFCC
:1028800002C0BEF301C0BDF3000CD1900501175387
:1028900002E1185302E0000E01D0010E1B6F185325
:1028A00005E11751060802E3000E01D0010E1B15C9
:1028B00003E0186B010E176F1F0E1C6FFF0E1B6FCE
:1028C0001751006E05E0D8901C331B33002EFBD748
:1028D0001B51196F1C5170091A6F959A8C9A1AC561
:1028E0001BF5C9501AC5C9FFC730FEE319C51BF552
:1028F000C95019C5C9FFC730FEE3959A8C8AD180AB
:1029000000013BEF1CF0D1900501175302E1185371
:1029100002E0000E01D0010E1B6F185305E11751A4
:10292000060802E3000E01D0010E1B1503E0186B30
:10293000010E176F1F0E1C6FFF0E1B6F1751006EDD
:1029400005E0D8901C331B33002EFBD71B51196FA9
:102950001C5170091A6F95988C981AC51BF5C950AF
:102960001AC5C9FFC730FEE319C51BF5C95019C503
:10297000C9FFC730FEE395988C88D180000141EFF4
:102980001CF08E0E006E1DC501F01CC502F0036A1E
:10299000015209E102C001F0026A080E005E015214
:1029A00002E1006A08D0D89001BE04D00236013698
:1029B0000006F9D7019E000C05011C51D8B4A5D022
:1029C000286F2051D8B4A1D0285F05E37F0E2827B7
:1029D000D8B09BD006D0810E285FD8A096D0D8B4AE
:1029E00094D028C500F0016A026A036A276B1DC5EE
:1029F00026F5268F1EC525F51FC524F5190E286F4F
:102A00002351245F0DE2010E255F0AE2265F08E2F2
:102A1000275F06E2272B262B252B2351242728D09E
:102A20002251255F12E2010E265F0FE2275F0DE2C1
:102A3000272B262B225125272351242719E3252B29
:102A400017E1262B15E1272B13D021518009265F92
:102A50000EE2010E275F0BE2272B2151800926276A
:102A600022512527E9E3262BE7E1272BE5D7038031
:102A7000282F01D00BD0D890243725372637273779
:102A8000D8900336023601362937BAD729A106D0A5
:102A9000D890013202320332293302D0000635E0E9
:102AA00029BF1ED0D8902437253726372737235102
:102AB000245F07E2010E255F04E2265F02E2275F42
:102AC0001AE32251255F05E2010E265F02E2275F2D
:102AD00012E321518009265F03E2010E275F0BE319
:102AE000032A09E1022A07E1012A05E1002A0DE093
:102AF0000132023203321DC528F52151281B28AFAF
:102B000002D0018E06D0019E04D0006A016A026ADA
:102B1000036A0001000C95928C92050118510F0B6D
:102B20001009196FC95019C5C9FFC730FEE317C591
:102B300019F5C95017C5C9FFC730FEE395928C82BD
:102B4000929E899E929E898E0001000CB60E006EA8
:102B5000036A026A016A0501185119111A111B1141
:102B600002E1006A0DD0D89001BE09D0183719379C
:102B70001A371B37033602360136002EF4D7019E72
:102B80000001000C800ED8A202D00501211B050116
:102B9000266B276B1DC525F52151251B1C51D8B46B
:102BA000DFD0246F006E2051D8B4E3D0245FD8B4B6
:102BB00083D03EE321C52AF52A8F22C529F523C5F6
:102BC00028F5276BD8902A33293328332733242F2D
:102BD000F8D725AF03D02681E0D02691249126890D
:102BE000050EEA6E1F0EE96EEBD0269925BF0AD0BE
:102BF00024A113D02A33293328332733002AD8B409
:102C0000C7D00BD02ABF0CD0D89027372837293708
:102C10002A370006D8B4BCD0F5D7268D6DD0269DB6
:102C20001DC525F51DAF02D02A8FABD02A9FA9D094
:102C300020C524F520C500F01C51245F1DC52AF5D0
:102C40002A8F1EC529F51FC528F5276BD8902A3372
:102C5000293328332733242FF8D725AF03D02683F1
:102C60009CD026932491268B050EEA6E230EE96EE6
:102C7000A7D0269B25BF0AD024A113D02A332933FD
:102C800028332733002AD8B483D00BD02ABF0CD0E6
:102C9000D8902737283729372A370006D8B478D074
:102CA000F5D7268F29D0269F21C525F521AF02D043
:102CB0002A8F67D02A9F65D021C52AF52A8F22C581
:102CC00029F523C528F525AF04D02A9F268565D090
:102CD0002695276B2491050EEA6E1F0EE96E70D0C3
:102CE00025BF1CD01DC525F524A106D02A332933C4
:102CF00028332733002A4CE027AF0BD0282B09E1DB
:102D0000292B07E12A2B05E12A3329332833002A0E
:102D10003FE026BD84D726BFC6D71CD0800E2A1B15
:102D20002AAF04D03AD021C525F50AD01DC525F516
:102D30002A5306E1295304E1285302E1006A21D015
:102D40002ABF08D0D8902737283729372A37002EAE
:102D5000F7D71ED025AF02D02A8F13D02A9F11D0CB
:102D600020C500F021C52AF522C529F523C528F57F
:102D700008D01CC500F01DC52AF51EC529F51FC5C4
:102D800028F52AC501F029C502F028C503F034D082
:102D9000006A016A026A036A2FD0276B281F291F65
:102DA0002A1F271F272B05E1282B03E1292B01E1EF
:102DB0002A2B26B112D726B354D726B589D7B3D735
:102DC000EF50282705E3292B03E12A2BD8B42481CF
:102DD000ED52EF50292703E32A2BD8B42481ED527A
:102DE000EF50EFBE01D0800A2A27D8B0248126B93F
:102DF000FCD626BB3ED774D700011EEF1FF0F86A41
:102E0000D09E078EEA6AE96A700ED36E400E9B6E02
:102E1000D3500301C66BED6B320EEC6F0401EF6B08
:102E2000929C899CB886400EAF6E030EB06EA60EC3
:102E3000AC6E900EAB6E00000000C150C00B0F09CD
:102E4000C16E070EB46E196A1A6A1B6A1C6A1D6A83
:102E50001E6A1F6A206A216A226A236A246A256A16
:102E6000266A276A286A296A2A6A2B6A2C6A2D6AC6
:102E70002E6A2F6A306A316A326A336A346A356A76
:102E8000366A376A386A396A3A6A3B6A3C6A3D6A26
:102E90003E6A3F6A406A416A426A436A446A456AD6
:102EA000466A476A486A496A4A6A4B6A4C6A4D6A86
:102EB0004E6A4F6A506A516A526A536A546A556A36
:102EC000566A576A586A596A5A6A5B6A5C6A5D6AE6
:102ED0005E6A5F6A606A616A626A636A646A656A96
:102EE000666A676A686A696A6A6A6B6A6C6A6D6A46
:102EF0006E6A6F6A706A716A726A736A746A756AF6
:102F0000766A776A786A796A7A6A7B6A7C6A7D6AA5
:102F10007E6A7F6A0001806B816B826B836B846B3E
:102F2000856B866B876B886B896B8A6B8B6B8C6B05
:102F30008D6B8E6B8F6B906B916B926B936B946BB5
:102F4000956B966B976B986B996B9A6B9B6B9C6B65
:102F50009D6B9E6B9F6BA06BA16BA26BA36BA46B15
:102F6000A56BA66BA76BA86BA96BAA6BAB6BAC6BC5
:102F7000AD6BAE6BAF6BB06BB16BB26BB36BB46B75
:102F8000B56BB66BB76BB86BB96BBA6BBB6BBC6B25
:102F9000BD6BBE6BBF6BC06BC16BC26BC36BC46BD5
:102FA000C56BC66BC76BC86BC96BCA6BCB6BCC6B85
:102FB000CD6BCE6BCF6BD06BD16BD26BD36BD46B35
:102FC000D56BD66BD76BD86BD96BDA6BDB6BDC6BE5
:102FD000DD6BDE6BDF6BE06BE16BE26BE36BE46B95
:102FE000E56BE66BE76BE86BE96BEA6BEB6BEC6B45
:102FF000ED6BEE6BEF6BF06BF16BF26BF36BF46BF5
:10300000F56BF66BF76BF86BF96BFA6BFB6BFC6BA4
:10301000FD6BFE6BFF6B0101006B016B026B036BC1
:10302000046B056B066B076B086B096B0A6B0B6B0C
:103030000C6B0D6B0E6B0F6B106B116B126B136BBC
:10304000146B156B166B176B186B196B1A6B1B6B6C
:103050001C6B1D6B1E6B1F6B206B216B226B236B1C
:10306000246B256B266B276B286B296B2A6B2B6BCC
:103070002C6B2D6B2E6B2F6B306B316B326B336B7C
:10308000346B356B366B376B386B396B3A6B3B6B2C
:103090003C6B3D6B3E6B3F6B406B416B426B436BDC
:1030A000446B456B466B476B486B496B4A6B4B6B8C
:1030B0004C6B4D6B4E6B4F6B506B516B526B536B3C
:1030C000546B556B566B576B586B596B5A6B5B6BEC
:1030D0005C6B5D6B5E6B5F6B606B616B626B636B9C
:1030E000646B656B666B676B686B696B6A6B6B6B4C
:1030F0006C6B6D6B6E6B6F6B706B716B726B736BFC
:10310000746B756B766B776B786B796B7A6B7B6BAB
:103110007C6B7D6B7E6B7F6B806B816B826B836B5B
:10312000846B856B866B876B886B896B8A6B8B6B0B
:103130008C6B8D6B8E6B8F6B906B916B926B936BBB
:10314000946B956B966B976B986B996B9A6B9B6B6B
:103150009C6B9D6B9E6B9F6BA06BA16BA26BA36B1B
:10316000A46BA56BA66BA76BA86BA96BAA6BAB6BCB
:10317000AC6BAD6BAE6BAF6BB06BB16BB26BB36B7B
:10318000B46BB56BB66BB76BB86BB96BBA6BBB6B2B
:10319000BC6BBD6BBE6BBF6BC06BC16BC26BC36BDB
:1031A000C46BC56BC66BC76BC86BC96BCA6BCB6B8B
:1031B000CC6BCD6BCE6BCF6BD06BD16BD26BD36B3B
:1031C000D46BD56BD66BD76BD86BD96BDA6BDB6BEB
:1031D000DC6BDD6BDE6BDF6BE06BE16BE26BE36B9B
:1031E000E46BE56BE66BE76BE86BE96BEA6BEB6B4B
:1031F000EC6BED6BEE6BEF6BF06BF16BF26BF36BFB
:10320000F46BF56BF66BF76BF86BF96BFA6BFB6BAA
:10321000FC6BFD6BFE6BFF6B0201006B016B026BC5
:10322000036B046B056B066B076B086B096B0A6B12
:103230000B6B0C6B0D6B0E6B0F6B106B116B126BC2
:10324000136B146B156B166B176B186B196B1A6B72
:103250001B6B1C6B1D6B1E6B1F6B206B216B226B22
:10326000236B246B256B266B276B286B296B2A6BD2
:103270002B6B2C6B2D6B2E6B2F6B306B316B326B82
:10328000336B346B356B366B376B386B396B3A6B32
:103290003B6B3C6B3D6B3E6B3F6B406B416B426BE2
:1032A000436B446B456B466B476B486B496B4A6B92
:1032B0004B6B4C6B4D6B4E6B4F6B506B516B526B42
:1032C000536B546B556B566B576B586B596B5A6BF2
:1032D0005B6B5C6B5D6B5E6B5F6B606B616B626BA2
:1032E000636B646B656B666B676B686B696B6A6B52
:1032F0006B6B6C6B6D6B6E6B6F6B706B716B726B02
:10330000736B746B756B766B776B786B796B7A6BB1
:103310007B6B7C6B7D6B7E6B7F6B806B816B826B61
:10332000836B846B856B866B876B886B896B8A6B11
:103330008B6B8C6B8D6B8E6B8F6B906B916B926BC1
:10334000936B946B956B966B976B986B996B9A6B71
:103350009B6B9C6B9D6B9E6B9F6BA06BA16BA26B21
:10336000A36BA46BA56BA66BA76BA86BA96BAA6BD1
:10337000AB6BAC6BAD6BAE6BAF6BB06BB16BB26B81
:10338000B36BB46BB56BB66BB76BB86BB96BBA6B31
:10339000BB6BBC6BBD6BBE6BBF6BC06BC16BC26BE1
:1033A000C36BC46BC56BC66BC76BC86BC96BCA6B91
:1033B000CB6BCC6BCD6BCE6BCF6BD06BD16BD26B41
:1033C000D36BD46BD56BD66BD76BD86BD96BDA6BF1
:1033D000DB6BDC6BDD6BDE6BDF6BE06BE16BE26BA1
:1033E000E36BE46BE56BE66BE76BE86BE96BEA6B51
:1033F000EB6BEC6BED6BEE6BEF6BF06BF16BF26B01
:10340000F36BF46BF56BF66BF76BF86BF96BFA6BB0
:10341000FB6BFC6BFD6BFE6BFF6B0301006B016BC9
:10342000026B036B046B056B066B076B086B096B18
:103430000A6B0B6B0C6B0D6B0E6B0F6B106B116BC8
:10344000126B136B146B156B166B176B186B196B78
:103450001A6B1B6B1C6B1D6B1E6B1F6B206B216B28
:10346000226B236B246B256B266B276B286B296BD8
:103470002A6B2B6B2C6B2D6B2E6B2F6B306B316B88
:10348000326B336B346B356B366B376B386B396B38
:103490003A6B3B6B3C6B3D6B3E6B3F6B406B416BE8
:1034A000426B436B446B456B466B476B486B496B98
:1034B0004A6B4B6B4C6B4D6B4E6B4F6B506B516B48
:1034C000526B536B546B556B566B576B586B596BF8
:1034D0005A6B5B6B5C6B5D6B5E6B5F6B606B616BA8
:1034E000626B636B646B656B666B676B686B696B58
:1034F0006A6B6B6B6C6B6D6B6E6B6F6B706B716B08
:10350000726B736B746B756B766B776B786B796BB7
:103510007A6B7B6B7C6B7D6B7E6B7F6B806B816B67
:10352000826B836B846B856B866B876B886B896B17
:103530008A6B8B6B8C6B8D6B8E6B8F6B906B916BC7
:10354000926B936B946B956B966B976B986B996B77
:103550009A6B9B6B9C6B9D6B9E6B9F6BA06BA16B27
:10356000A26BA36BA46BA56BA66BA76BA86BA96BD7
:10357000AA6BAB6BAC6BAD6BAE6BAF6BB06BB16B87
:10358000B26BB36BB46BB56BB66BB76BB86BB96B37
:10359000BA6BBB6BBC6BBD6BBE6BBF6BC06BC16BE7
:1035A000C26BC36BC46BC591C76BC86BC96BCA6B6D
:1035B000CB6BCC6BCD6BCE6BCF6BD06BD16BD26B3F
:1035C000D36BD46BD56BD66BD76BD86BD96BDA6BEF
:1035D000DB6BDC6BDD6BDE6BDF6BE06BE16BE26B9F
:1035E000E36BE46BE56BE66BE76BE86BE96BEA6B4F
:1035F000EB6BEF6BF06BF16BF26BF36BF46BF56BEA
:10360000F66BF76BF86BF96BFA6BFB6BFC6BFD6B96
:10361000FE6BFF6B0401006B016B026B036B046BB1
:10362000056B066B076B086B096B0A6B0B6B0C6BFE
:103630000D6B0E6B0F6B106B116B126B136B146BAE
:10364000156B166B176B186B196B1A6B1B6B1C6B5E
:103650001D6B1E6B1F6B206B216B226B236B246B0E
:10366000256B266B276B286B296B2A6B2B6B2C6BBE
:103670002D6B2E6B2F6B306B316B326B336B346B6E
:10368000356B366B376B386B396B3A6B3B6B3C6B1E
:103690003D6B3E6B3F6B406B416B426B436B446BCE
:1036A000456B466B476B486B496B4A6B4B6B4C6B7E
:1036B0004D6B4E6B4F6B506B516B526B536B546B2E
:1036C000556B566B576B586B596B5A6B5B6B5C6BDE
:1036D0005D6B5E6B5F6B606B616B626B636B646B8E
:1036E000656B666B676B686B696B6A6B6B6B6C6B3E
:1036F0006D6B6E6B6F6B706B716B726B736B746BEE
:10370000756B766B776B786B796B7A6B7B6B7C6B9D
:103710007D6B7E6B7F6B806B816B826B836B846B4D
:10372000856B866B876B886B896B8A6B8B6B8C6BFD
:103730008D6B8E6B8F6B906B916B926B936B946BAD
:10374000956B966B976B986B996B9A6B9B6B9C6B5D
:103750009D6B9E6B9F6BA06BA16BA26BA36BA46B0D
:10376000A56BA66BA76BA86BA96BAA6BAB6BAC6BBD
:10377000AD6BAE6BAF6BB06BB16BB26BB36BB46B6D
:10378000B56BB66BB76BB86BB96BBA6BBB6BBC6B1D
:10379000BD6BBE6BBF6BC06BC16BC26BC36BC46BCD
:1037A000C56BC66BC76BC86BC96BCA6BCB6BCC6B7D
:1037B000CD6BCE6BCF6BD06BD16BD26BD36BD46B2D
:1037C000D56BD66BD76BD86BD96BDA6BDB6BDC6BDD
:1037D000DD6BDE6BDF6BE06BE16BE26BE36BE46B8D
:1037E000E56BE66BE76BE86BE96BEA6BEB6BEC6B3D
:1037F000ED6BEE6BF06BF16BF26BF36BF46BF56BE7
:10380000F66BF76BF86BF96BFA6BFB6BFD6BFC6B94
:103810000501036B026B010E0C6FFF0E0B6F106B3B
:10382000010E0F6F00016DEF0FF0BCEF0FF027EFEF
:1038300012F09D8A9D90C00EF21296928D82010E1A
:103840000301EE6F0400EE51FC0FD8B02FEF20F013
:10385000040F000132EF20F08AEC13F003012FEF88
:1038600020F005010E6B0D6BAAC318F5A9C317F55F
:10387000000145EF14F0B6C318F5B5C317F583EF93
:1038800014F00301C15302E1C25318E0C25316E120
:10389000C151060813E30501106B010E0F6F030100
:1038A000C151006E0AE0D89005010F371037002E85
:1038B00001D002D00301F7D7030104D00501106B3A
:1038C000010E0F6F0401FF6BFE6BFF510501105DD0
:1038D0001DE308E10F510401FE5DD8A002D00501EF
:1038E00015D00501D8900401FE35026EFF35036E38
:1038F0000250190FE96E000E0320EA6EEC6AED52D9
:10390000EF6AFE2BD8B4FF2BE0D70501056B046BE3
:10391000066B0301DF6B0001A26BA16B9E6B9D6BBD
:10392000A06B9F6B9C6B9B6B9A6B996BCAC31DF5CD
:10393000C9C31CF5C1EC14F000C013F501C014F5A7
:1039400002C015F503C016F503C01FF502C01EF531
:1039500001C01DF500C01CF50501236B226B7A0E1A
:10396000216F880E206F0001DCEC14F000C013F50D
:1039700001C014F502C015F503C016F503C01FF50C
:1039800002C01EF501C01DF500C01CF5CD0E0501DD
:10399000236FCC0E226F4C0E216F860E206F00011C
:1039A000F1EC12F003C01CF502C01BF501C01AF5C2
:1039B00000C019F56CEC13F002C0CCF301C0CBF3DE
:1039C000CEC31DF5CDC31CF5C1EC14F000C013F53A
:1039D00001C014F502C015F503C016F503C01FF5AC
:1039E00002C01EF501C01DF500C01CF50501236BCA
:1039F000226B7A0E216F880E206F0001DCEC14F030
:103A000000C013F501C014F502C015F503C016F58A
:103A100003C01FF502C01EF501C01DF500C01CF556
:103A2000CD0E0501236FCC0E226F4C0E216F860E3A
:103A3000206F0001F1EC12F003C01CF502C01BF571
:103A400001C01AF500C019F56CEC13F00150030128
:103A5000CB25CF6F0250CC21D06FD0510F0804E29C
:103A60000F0ED06FFF0ECF6F020EEE6FF8D2949054
:103A70008B70CCC318F5CBC317F58BEC15F0000E8B
:103A8000016EC250C30B0110C26E05010A6B096BB7
:103A9000086B076BCCC312F5CBC311F512510301B0
:103AA000D05DD8A094D006E1050111510301CF5D8E
:103AB000D8A08DD00400C28212C518F511C517F523
:103AC00000018BEC15F0C2B2FED7C4CF01F50501A1
:103AD000C3CF00F5D8900301DF35036A190FE96EF3
:103AE000000E0320EA6EECCF03F0ED52EF5005011B
:103AF000025F0350035B0051022701510323D8905A
:103B00000301DF35036A190FE96E000E0320EA6E28
:103B100001C5ECFFED5200C5EFFF010E05010F5D81
:103B2000006E000E1059036E00500301DF5D04E1CA
:103B3000035202E1DF6B01D0DF2B03C59AF002C50F
:103B400099F0C151006E0AE0D89000019A33993380
:103B5000002E01D002D00301F7D7030100019951D3
:103B60000501072700019A5105010823000E0923CA
:103B70000A2300019C519A5D0CE303E199519B5D7E
:103B800008E205C59EF004C59DF09AC09CF099C05E
:103B90009BF00501042BD8B4052B0C5100019A5D54
:103BA0000CE307E1995105010B5DD8A002D000019B
:103BB00004D005010D2BD8B40E2B0401FC2BD8B476
:103BC000FD2B0501112BD8B4122B68D70301030E6E
:103BD000EE6F45D28AEC13F004000301EC51D925B5
:103BE000016EED51DA21036E0150C8BF09D00350B8
:103BF000C85D06E303E1C751015C02E296928D9233
:103C0000EC51D95D006EED51DA59036E00C001F040
:103C1000C8BF07D0C851035C06E303E10150C75D8C
:103C200002E296928D82D890C635036AA30FE96EA0
:103C3000000E0320EA6E9CC0ECFFED529BC0EFFF2C
:103C4000D890C635036AA30FE96E000E0320EA6E12
:103C5000ECCF14F5ED52EFCF13F5D89005011431E8
:103C60000C6F13310B6FD8900301C635036AA30F95
:103C7000E96E010E0320EA6E0EC5ECFFED520DC594
:103C8000EFFFD890C635036AA30FE96E020E03203A
:103C9000EA6E9EC0ECFFED529DC0EFFFC65304E1FB
:103CA000010EC35DC66F01D0C607E36BE26BE16B2B
:103CB000E06BE76BE66BE56BE46BEB6BEA6BE96B78
:103CC000E86B0401FF6BFE6BFF510301C45D54E31D
:103CD00008E1C3510401FE5DD8A002D003014CD01D
:103CE0000301D8900401FE35026EFF35036E0250C9
:103CF000A30FE96E000E0320EA6EECCF03F0ED5245
:103D0000EF500301E0270350E123000EE223E323F9
:103D1000D8900401FE35026EFF35036E0250A30FEA
:103D2000E96E010E0320EA6EECCF03F0ED52EF5086
:103D30000301E4270350E523000EE623E723D89090
:103D40000401FE35026EFF35036E0250A30FE96ECB
:103D5000020E0320EA6EECCF03F0ED52EF500301A8
:103D6000E8270350E923000EEA23EB230401FE2B8E
:103D7000D8B4FF2BA9D70301E331036EE231026E01
:103D8000E131016EE031006E033202320132003265
:103D90000332023201320032033202320132003287
:103DA0000332023201320032033202320132003277
:103DB0000332023201320032010E031603C01BF53A
:103DC00002C01AF501C019F500C018F50001A6ECF3
:103DD00015F000C014F501C015F502C016F503C0BA
:103DE00017F503C01FF502C01EF501C01DF500C088
:103DF0001CF5E60E0501236F3F0E226F1C0E216F8E
:103E0000800E206F0001F1EC12F000C014F501C02B
:103E100015F502C016F503C017F5D88203C01FF5CB
:103E200002C01EF501C01DF500C01CF50501236B85
:103E3000226B216B206B0001C2EF15F003C01CF553
:103E400002C01BF501C01AF500C019F56CEC13F0A7
:103E500002C015F501C014F502C0A4F301C0A3F31C
:103E60000301A951006E05E0D890A433A333002EBE
:103E7000FBD7E731036EE631026EE531016EE431C6
:103E8000006E03320232013200320332023201325A
:103E90000032033202320132003203320232013286
:103EA0000032033202320132003203320232013276
:103EB0000032010E031603C01BF502C01AF501C043
:103EC00019F500C018F50001A6EC15F000C014F5B6
:103ED00001C015F502C016F503C017F503C01FF5A4
:103EE00002C01EF501C01DF500C01CF50501236BC5
:103EF000400E226F1C0E216F8C0E206F0001F1EC22
:103F000012F000C014F501C015F502C016F503C08B
:103F100017F5FDC41DF5FCC41CF5C1EC14F017C564
:103F20001FF516C51EF515C51DF514C51CF503C0F6
:103F300023F502C022F501C021F500C020F5DCEC1C
:103F400014F003C01CF502C01BF501C01AF500C037
:103F500019F56CEC13F002C0A6F301C0A5F3030140
:103F6000EB31036EEA31026EE931016EE831006E29
:103F700003320232013200320332023201320032A5
:103F80000332023201320032033202320132003295
:103F90000332023201320032033202320132003285
:103FA000010E031603C01BF502C01AF501C019F576
:103FB00000C018F50001A6EC15F000C014F501C012
:103FC00015F502C016F503C017F503C01FF502C0B2
:103FD0001EF501C01DF500C01CF50501236B400E48
:103FE000226F1C0E216F8C0E206F0001F1EC12F07D
:103FF00000C014F501C015F502C016F503C017F591
:10400000FDC41DF5FCC41CF5C1EC14F017C51FF56B
:1040100016C51EF515C51DF514C51CF503C023F501
:1040200002C022F501C021F500C020F5DCEC14F03F
:1040300003C01CF502C01BF501C01AF500C019F53C
:104040006CEC13F002C0A8F301C0A7F30301C5A1F3
:1040500002D0EE6B02D0010EEE6F01D0030122EF11
:104060001CF0FFD7E824F76AF7367F0FF66E400E94
:10407000F7220A00F550FA6E0800F550F96E58382C
:0640800062386E3AD43BE9
:0200000400F00A
:100000000000204E01000100000880000400004BA9
:100010000100C409C409B80B00000000007F000003
:080020000000000000000000D8
:020000040030CA
:0E00000000C81900000700000FC00FE00F40FD
:00000001FF
;PIC18F4520
;CRC=6FCB  CREATED="26-дек-15 01:59"
