:0400000005EF17F001
:08000800046ED8CF05F0E0CF33
:1000100006F00001E9CF0CF0EACF07F0E1CF08F0DD
:10002000E2CF09F0D9CF0AF0DACF0BF0F3CF12F01C
:10003000F4CF13F0FACF14F0F5CF15F0F6CF16F099
:10004000F7CF17F000C00EF001C00FF002C010F0A3
:1000500003C011F09DA030EF00F09EB077EF0CF0E0
:100060009DAA36EF00F09EBAB7EF01F00EC000F087
:100070000FC001F010C002F011C003F00CC0E9FF86
:1000800007C0EAFF078E08C0E1FF09C0E2FF0AC00F
:10009000D9FF0BC0DAFF12C0F3FF13C0F4FF14C086
:1000A000FAFF15C0F5FF16C0F6FF17C0F7FF0450A2
:1000B00006C0E0FF05C0D8FF1000F76ACA0FF66E51
:1000C000000EF7220900F550120000C1814001C066
:1000D000804101C0804100C1814001C0804100C118
:1000E000814000C1814001C0804101C0804100C108
:1000F000814000C1814001C0804100C1814001C0F8
:10010000804101C0804100C1814001C0804100C1E7
:10011000814000C1814001C0804100C1814001C0D7
:10012000804101C0804100C1814000C1814001C0C7
:10013000804101C0804100C1814001C0804100C1B7
:10014000814000C1814001C0804101C0804100C1A7
:10015000814000C1814001C0804100C1814001C097
:10016000804101C0804100C1814000C1814001C087
:10017000804101C0804100C1814001C0804100C177
:10018000814000C1814001C0804100C1814001C067
:10019000804101C0804100C1814001C0804100C157
:1001A000814000C1814001C0804101C0804100C147
:1001B000814000C1814001C0804100C1814001C037
:1001C000804101C0804100C18140F76ADA0FF66EBC
:1001D000010EF7220900F550120000C0C101C3034F
:1001E00002C2C60607C705C5C404CC0C0DCD0FCF8F
:1001F000CE0E0ACACB0BC90908C8D81819D91BDBFF
:10020000DA1A1EDEDF1FDD1D1CDC14D4D515D7174E
:1002100016D6D21213D311D1D010F03031F133F3FE
:10022000F23236F6F737F53534F43CFCFD3DFF3F4E
:100230003EFEFA3A3BFB39F9F83828E8E929EB2B7E
:100240002AEAEE2E2FEF2DEDEC2CE42425E527E70E
:10025000E62622E2E323E12120E0A06061A163A37E
:10026000A26266A6A767A56564A46CACAD6DAF6F0E
:100270006EAEAA6A6BAB69A9A86878B8B979BB7B7E
:100280007ABABE7E7FBF7DBDBC7CB47475B577B7CE
:10029000B67672B2B373B17170B0509091519353FE
:1002A000529296565797559594549C5C5D9D5F9FCE
:1002B0009E5E5A9A9B5B99595898884849894B8BFE
:1002C0008A4A4E8E8F4F8D4D4C8C4484854587478E
:1002D00046868242438341818040D8B204D0050ED5
:1002E000EA6E9A0EE96E006A016A026A036A050103
:1002F0009A6B9B6B9C6B9D6B995198119711961102
:100300002CE0200E9E6FD890923793379437953714
:100310009A379B379C379D3799519D5D08E19851DD
:100320009C5D05E197519B5D02E196519A5D0FE35B
:1003300096519A5F9751D8A0973D9B5F9851D8A04E
:10034000983D9C5F9951D8A0993D9D5FD88000361B
:100350000136023603369E2FD6D79AC5EFFF9BC5CE
:10036000ECFF9CC5ECFF9DC5ECFF0001000C036A8F
:1003700005015851580FE96E040E0320EA6E9EAA3B
:10038000FED7AECFEFFF582B94908B90D892020EF1
:10039000956F160E946F0E0E936FC00E926F996B41
:1003A000986BDDC397F5DCC396F5000196DFFF0E71
:1003B000D88000560156000E0256035601C0CFFFEA
:1003C00000C0CEFF9E909D809E9A36EF00F0FF0EFB
:1003D00005019F6FA06F9D6B9C519D5D1CE2036AA0
:1003E0009D519A25E96E9B510320EA6EEF50A019AA
:1003F0009E6F036A9E51000160DE016E05019F51F0
:100400000118A06F036A9E510001DFDEE8CF9FF55F
:1004100005019D2BE1D7A0C503F09FC501F0A0C544
:1004200002F00001000C040005019951000A0001CE
:1004300058E0010AD8B471D0030AD8B48AD0010AAE
:10044000D8B4A3D0070AD8B4B6D0010AD8B4CFD054
:10045000030AD8B4E2D0010AD8B4FBD00F0AD8B44A
:1004600014D1010AD8B42DD1030AD8B440D1010A5D
:10047000D8B453D1070AD8B46CD1010AD8B485D105
:10048000030AD8B49ED1010AD8B4B7D11F0AD8B490
:10049000D0D1010AD8B4E9D1030AD8B402D2010AF2
:1004A000D8B41BD2070AD8B434D2010AD8B449D27E
:1004B000030AD8B45ED2010AD8B473D20F0AD8B4F2
:1004C000AAD2010AD8B4E1D2030AD8B418D3010AD7
:1004D000D8B43DD3070AD8B456D3010AD8B46FD3E1
:1004E0008AD3036A05016351580FE96E040E032095
:1004F000EA6E0301A9C3EFFF0501632B036A635191
:10050000580FE96E040E0320EA6E0301A8C3EFFF43
:100510000501632B020E58277CD3036A0501635142
:10052000580FE96E040E0320EA6E0301B5C3EFFF16
:100530000501632B036A6351580FE96E040E032013
:10054000EA6E0301B4C3EFFF0501632B020E5827C7
:1005500060D3036A05016351580FE96E040E03204E
:10056000EA6E0301A7C3EFFF0501632B036A635122
:10057000580FE96E040E0320EA6E0301A6C3EFFFD5
:100580000501632B020E582744D3036A050163510A
:10059000580FE96E040E0320EA6EEF6A632B036ABC
:1005A0006351580FE96E040E0320EA6EEF6A632B65
:1005B000020E58272ED3036A05016351580FE96EC6
:1005C000040E0320EA6E0301A5C3EFFF0501632BB0
:1005D000036A6351580FE96E040E0320EA6E0301AB
:1005E000A4C3EFFF0501632B020E582712D3036A41
:1005F00005016351580FE96E040E0320EA6EEF6A9D
:10060000632B036A6351580FE96E040E0320EA6EF0
:10061000EF6A632B020E5827FCD2036A050163516F
:10062000580FE96E040E0320EA6E0301C9C3EFFF01
:100630000501632B036A6351580FE96E040E032012
:10064000EA6E0301C8C3EFFF0501632B020E5827B2
:10065000E0D2036A05016351580FE96E040E0320CE
:10066000EA6E0301B3C3EFFF0501632B036A635115
:10067000580FE96E040E0320EA6E0301B2C3EFFFC8
:100680000501632B020E5827C4D2036A050163518A
:10069000580FE96E040E0320EA6E0301BFC3EFFF9B
:1006A0000501632B036A6351580FE96E040E0320A2
:1006B000EA6E0301BEC3EFFF0501632B020E58274C
:1006C000A8D2036A05016351580FE96E040E032096
:1006D000EA6EEF6A632B036A6351580FE96E040EEA
:1006E0000320EA6EEF6A632B020E582792D2036A48
:1006F00005016351580FE96E040E0320EA6EEF6A9C
:10070000632B036A6351580FE96E040E0320EA6EEF
:10071000EF6A632B020E58277CD2036A05016351EE
:10072000580FE96E040E0320EA6E0301CBC3EFFFFE
:100730000501632B036A6351580FE96E040E032011
:10074000EA6E0301CAC3EFFF0501632B020E5827AF
:1007500060D2036A05016351580FE96E040E03204D
:10076000EA6E0301CFC3EFFF0501632B036A6351F8
:10077000580FE96E040E0320EA6E0301CEC3EFFFAB
:100780000501632B020E582744D2036A0501635109
:10079000580FE96E040E0320EA6E0301ABC3EFFFAE
:1007A0000501632B036A6351580FE96E040E0320A1
:1007B000EA6E0301AAC3EFFF0501632B020E58275F
:1007C00028D2036A05016351580FE96E040E032015
:1007D000EA6E0301B7C3EFFF0501632B036A6351A0
:1007E000580FE96E040E0320EA6E0301B6C3EFFF53
:1007F0000501632B020E58270CD2036A05016351D1
:10080000580FE96E040E0320EA6E0301C1C3EFFF27
:100810000501632B036A6351580FE96E040E032030
:10082000EA6E0301C0C3EFFF0501632B020E5827D8
:10083000F0D1036A05016351580FE96E040E0320DD
:10084000EA6E0301C3C3EFFF0501632B036A635123
:10085000580FE96E040E0320EA6E0301C2C3EFFFD6
:100860000501632B020E5827D4D1036A0501635199
:10087000580FE96E040E0320EA6E0301C5C3EFFFB3
:100880000501632B036A6351580FE96E040E0320C0
:10089000EA6E0301C4C3EFFF0501632B020E582764
:1008A000B8D1036A05016351580FE96E040E0320A5
:1008B000EA6E0301DDC3EFFF0501632B036A635199
:1008C000580FE96E040E0320EA6E0301DCC3EFFF4C
:1008D0000501632B020E58279CD1036A0501635161
:1008E000580FE96E040E0320EA6E0301DFC3EFFF29
:1008F0000501632B036A6351580FE96E040E032050
:10090000EA6E0301DEC3EFFF0501632B020E5827D9
:1009100080D1036A05016351580FE96E040E03206C
:10092000EA6E5AC5EFFF632B036A6351580FE96EF5
:10093000040E0320EA6E59C5EFFF632B020E582701
:1009400068D1036A05016351580FE96E040E032054
:10095000EA6E5CC5EFFF632B036A6351580FE96EC3
:10096000040E0320EA6E5BC5EFFF632B020E5827CF
:1009700050D1036A05016351580FE96E040E03203C
:10098000EA6E5EC5EFFF632B036A6351580FE96E91
:10099000040E0320EA6E5DC5EFFF632B020E58279D
:1009A00038D1050EEA6E9A0EE96E030EE26ED20E93
:1009B000E16E040E016EE6CFEEFF012EFCD7036A56
:1009C00005016351580FE96E040E0320EA6E9AC5C3
:1009D000EFFF632B036A6351580FE96E040E032087
:1009E000EA6E9BC5EFFF632B036A6351580FE96EF4
:1009F000040E0320EA6E9CC5EFFF632B036A63516C
:100A0000580FE96E040E0320EA6E9DC5EFFF632BBD
:100A1000040E5827FED0050EEA6E9A0EE96E030EFC
:100A2000E26ED60EE16E040E016EE6CFEEFF012EF1
:100A3000FCD7036A05016351580FE96E040E0320C9
:100A4000EA6E9AC5EFFF632B036A6351580FE96E94
:100A5000040E0320EA6E9BC5EFFF632B036A63510C
:100A6000580FE96E040E0320EA6E9CC5EFFF632B5E
:100A7000036A6351580FE96E040E0320EA6E9DC5A8
:100A8000EFFF632B040E5827C4D0050EEA6E9A0EB2
:100A9000E96E030EE26EAC0EE16E040E016EE6CF5F
:100AA000EEFF012EFCD7036A05016351580FE96E72
:100AB000040E0320EA6E9AC5EFFF632B036A6351AD
:100AC000580FE96E040E0320EA6E9BC5EFFF632BFF
:100AD000036A6351580FE96E040E0320EA6E9CC549
:100AE000EFFF632B036A6351580FE96E040E032076
:100AF000EA6E9DC5EFFF632B040E58278AD0036A68
:100B000005016351580FE96E040E0320EA6EEF6A87
:100B1000632B036A6351580FE96E040E0320EA6EDB
:100B2000EF6A632B036A6351580FE96E040E0320CA
:100B3000EA6EEF6A632B036A6351580FE96E040E85
:100B40000320EA6EEF6A632B040E582762D0036A13
:100B500005016351580FE96E040E0320EA6E03018C
:100B6000B1C3EFFF0501632B036A6351580FE96EB0
:100B7000040E0320EA6E0301B0C3EFFF0501632BEF
:100B8000020E582746D0036A05016351580FE96EDB
:100B9000040E0320EA6E0301BDC3EFFF0501632BC2
:100BA000036A6351580FE96E040E0320EA6E0301D5
:100BB000BCC3EFFF0501632B020E58272AD0036A3E
:100BC00005016351580FE96E040E0320EA6E03011C
:100BD000DBC3EFFF0501632B036A6351580FE96E16
:100BE000040E0320EA6E0301DAC3EFFF0501632B55
:100BF000020E58270ED00401598F030E5A6F050EAE
:100C00000501586F5D2BD8B45E2B5951D8B45A07E3
:100C100059070001AFEF0DF0040005019951000ADA
:100C2000000151E0010A53E0030A55E0010A57E0D0
:100C3000070A59E0010A5BE0030A5DE0010A5FE090
:100C40000F0AD8B460D0010AD8B461D0030AD8B46E
:100C500062D0010AD8B463D0070AD8B47BD0010AA5
:100C6000D8B493D0030AD8B4ABD0010AD8B4C3D057
:100C70001F0AD8B4DBD0010AD8B4F3D0030AD8B421
:100C80000BD1010AD8B40CD1070AD8B424D1010A77
:100C9000D8B425D1030AD8B426D1010AD8B427D1B3
:100CA0000F0AD8B465D1010AD8B4A3D1030AD8B4C5
:100CB000E1D1010AD8B4E2D1070AD8B4FAD1010AC5
:100CC000D8B412D22CD2020E0501632736D2020EFE
:100CD0000501632732D2020E050163272ED2020ED0
:100CE000050163272AD2020E0501632726D2020ED0
:100CF0000501632722D2020E050163271ED2020ED0
:100D0000050163271AD2020E0501632716D2020ECF
:100D10000501632712D2020E050163270ED2036A72
:100D200005016351580FE96E040E0320EA6EEFCF00
:100D30009EF5010E6325036A580FE96E040E032029
:100D4000EA6EEFCF9FF59EC5CBF39FC5CAF3020EA7
:100D50006327F3D1036A05016351580FE96E040E4E
:100D60000320EA6EEFCF9EF5010E6325036A580F4C
:100D7000E96E040E0320EA6EEFCF9FF59EC5CFF318
:100D80009FC5CEF3020E6327D8D1036A05016351D4
:100D9000580FE96E040E0320EA6EEFCF9EF5010EA8
:100DA0006325036A580FE96E040E0320EA6EEFCF45
:100DB0009FF59EC5ABF39FC5AAF3020E6327BDD175
:100DC000036A05016351580FE96E040E0320EA6EB1
:100DD000EFCF9EF5010E6325036A580FE96E040EEE
:100DE0000320EA6EEFCF9FF59EC5B7F39FC5B6F31C
:100DF000020E6327A2D1036A05016351580FE96E01
:100E0000040E0320EA6EEFCF9EF5010E6325036A00
:100E1000580FE96E040E0320EA6EEFCF9FF59EC5D2
:100E2000C1F39FC5C0F3020E632787D1036A050192
:100E30006351580FE96E040E0320EA6EEFCF9EF562
:100E4000010E6325036A580FE96E040E0320EA6E53
:100E5000EFCF9FF59EC5C3F39FC5C2F3020E632774
:100E60006CD1036A05016351580FE96E040E03202B
:100E7000EA6EEFCF9EF5010E6325036A580FE96E07
:100E8000040E0320EA6EEFCF9FF59EC5C5F39FC504
:100E9000C4F3020E632751D1020E050163274DD121
:100EA000036A05016351580FE96E040E0320EA6ED0
:100EB000EFCF9EF5010E6325036A580FE96E040E0D
:100EC0000320EA6EEFCF9FF59EC5DFF39FC5DEF3EB
:100ED000020E632732D1020E050163272ED1020EC6
:100EE000050163272AD1020E0501632726D1030ECF
:100EF00005016325036A580FE96E040E0320EA6EAC
:100F0000EFCF9EF5020E6325036A580FE96E040EBB
:100F10000320EA6EEFCF9FF5010E6325036A580F99
:100F2000E96E040E0320EA6EEFCFA0F5036A635169
:100F3000580FE96E040E0320EA6EEFCFA1F59EC5AF
:100F40009DF59FC59CF5A0C59BF5A1C59AF5030E1F
:100F5000EA6ED20EE96E050EE26E9A0EE16E040E96
:100F6000016EE6CFEEFF012EFCD7040E6327E5D01D
:100F7000030E05016325036A580FE96E040E032072
:100F8000EA6EEFCF9EF5020E6325036A580FE96EF5
:100F9000040E0320EA6EEFCF9FF5010E6325036A6E
:100FA000580FE96E040E0320EA6EEFCFA0F5036A36
:100FB0006351580FE96E040E0320EA6EEFCFA1F5DE
:100FC0009EC59DF59FC59CF5A0C59BF5A1C59AF54D
:100FD000030EEA6ED60EE96E050EE26E9A0EE16E13
:100FE000040E016EE6CFEEFF012EFCD7040E632740
:100FF000A4D0030E05016325036A580FE96E040EA1
:101000000320EA6EEFCF9EF5020E6325036A580FA8
:10101000E96E040E0320EA6EEFCF9FF5010E632503
:10102000036A580FE96E040E0320EA6EEFCFA0F5B5
:10103000036A6351580FE96E040E0320EA6EEFCF86
:10104000A1F59EC59DF59FC59CF5A0C59BF5A1C5C5
:101050009AF5030EEA6EAC0EE96E050EE26E9A0E7C
:10106000E16E040E016EE6CFEEFF012EFCD7040EFA
:10107000632763D0040E050163275FD0036A05016F
:101080006351580FE96E040E0320EA6EEFCF9EF510
:10109000010E6325036A580FE96E040E0320EA6E01
:1010A000EFCF9FF59EC5B1F39FC5B0F3020E632746
:1010B00044D0036A05016351580FE96E040E032002
:1010C000EA6EEFCF9EF5010E6325036A580FE96EB5
:1010D000040E0320EA6EEFCF9FF59EC5BDF39FC5BA
:1010E000BCF3020E632729D0036A05016351580F30
:1010F000E96E040E0320EA6EEFCF9EF5010E632524
:10110000036A580FE96E040E0320EA6EEFCF9FF5D5
:101110009EC5DBF39FC5DAF3020E63270ED00401F0
:10112000598F030E5A6F050E0501586F5D2BD8B409
:101130005E2B5951D8B45A0759070001DAEF0DF068
:10114000D190CAC39DF5A96A9DC5A8FFA69CA69E7D
:10115000A684F250006EF29E0F01550EA76EAA0EE5
:10116000A76EA682A6B2FED7A6940050F212CBC3F9
:101170009DF5010EA96E9DC5A8FFA69CA69EA684FE
:10118000F250006EF29E550EA76EAA0EA76EA682B2
:10119000A6B2FED7A6940050F212CEC39DF5020E61
:1011A000A96ECEC3A8FFA69CA69EA684F2CF00F08F
:1011B000F29E550EA76EAA0EA76EA682A6B2FED705
:1011C000A6940050F212CFC39DF5030EA96ECFC3B3
:1011D000A8FFA69CA69EA684F2CF00F0F29E550E14
:1011E000A76EAA0EA76EA682A6B2FED7A69400503E
:1011F000F212AAC39DF5040EA96EAAC3A8FFA69C6D
:10120000A69EA684F2CF00F0F29E550EA76EAA0EFF
:10121000A76EA682A6B2FED7A6940050F212ABC368
:101220009DF5050EA96EABC3A8FFA69CA69EA6843D
:10123000F2CF00F0F29E550EA76EAA0EA76EA68200
:10124000A6B2FED7A6940050F212B6C39DF5060EC4
:10125000A96EB6C3A8FFA69CA69EA684F2CF00F0F6
:10126000F29E550EA76EAA0EA76EA682A6B2FED754
:10127000A6940050F212B7C39DF5070EA96EB7C32E
:10128000A8FFA69CA69EA684F2CF00F0F29E550E63
:10129000A76EAA0EA76EA682A6B2FED7A69400508D
:1012A000F212C0C39DF5080EA96EC0C3A8FFA69C8C
:1012B000A69EA684F2CF00F0F29E550EA76EAA0E4F
:1012C000A76EA682A6B2FED7A6940050F212C1C3A2
:1012D0009DF5090EA96EC1C3A8FFA69CA69EA68473
:1012E000F2CF00F0F29E550EA76EAA0EA76EA68250
:1012F000A6B2FED7A6940050F212C4C39DF50A0E02
:10130000A96EC4C3A8FFA69CA69EA684F2CF00F037
:10131000F29E550EA76EAA0EA76EA682A6B2FED7A3
:10132000A6940050F212C5C39DF50B0EA96EC5C35D
:10133000A8FFA69CA69EA684F2CF00F0F29E550EB2
:10134000A76EAA0EA76EA682A6B2FED7A6940050DC
:10135000F212C2C39DF50C0EA96EC2C3A8FFA69CD3
:10136000A69EA684F2CF00F0F29E550EA76EAA0E9E
:10137000A76EA682A6B2FED7A6940050F212C3C3EF
:101380009DF50D0EA96EC3C3A8FFA69CA69EA684BC
:10139000F2CF00F0F29E550EA76EAA0EA76EA6829F
:1013A000A6B2FED7A6940050F212DCC39DF50E0E35
:1013B000A96EDCC3A8FFA69CA69EA684F2CF00F06F
:1013C000F29E550EA76EAA0EA76EA682A6B2FED7F3
:1013D000A6940050F212DDC39DF50F0EA96EDDC379
:1013E000A8FFA69CA69EA684F2CF00F0F29E550E02
:1013F000A76EAA0EA76EA682A6B2FED7A69400502C
:10140000F212DEC39DF5100EA96EDEC3A8FFA69CE6
:10141000A69EA684F2CF00F0F29E550EA76EAA0EED
:10142000A76EA682A6B2FED7A6940050F212DFC322
:101430009DF5110EA96EDFC3A8FFA69CA69EA684EB
:10144000F2CF00F0F29E550EA76EAA0EA76EA682EE
:10145000A6B2FED7A6940050F212B0C39DF5120EAC
:10146000A96EB0C3A8FFA69CA69EA684F2CF00F0EA
:10147000F29E550EA76EAA0EA76EA682A6B2FED742
:10148000A6940050F212B1C39DF5130EA96EB1C31C
:10149000A8FFA69CA69EA684F2CF00F0F29E550E51
:1014A000A76EAA0EA76EA682A6B2FED7A69400507B
:1014B000F212BCC39DF5140EA96EBCC3A8FFA69C76
:1014C000A69EA684F2CF00F0F29E550EA76EAA0E3D
:1014D000A76EA682A6B2FED7A6940050F212BDC394
:1014E0009DF5150EA96EBDC3A8FFA69CA69EA68459
:1014F000F2CF00F0F29E550EA76EAA0EA76EA6823E
:10150000A6B2FED7A6940050F212DAC39DF5160ECD
:10151000A96EDAC3A8FFA69CA69EA684F2CF00F00F
:10152000F29E550EA76EAA0EA76EA682A6B2FED791
:10153000A6940050F212DBC39DF5170EA96EDBC313
:10154000A8FFA69CA69EA684F2CF00F0F29E550EA0
:10155000A76EAA0EA76EA682A6B2FED7A6940050CA
:10156000F212050EEA6E990EE96E030EE26ED20ECD
:10157000E16E040E016EE6CFEEFF012EFCD79CC596
:101580009DF51A0EA96E9CC5A8FFA69CA69EA684D2
:10159000F2CF00F0F29E550EA76EAA0EA76EA6829D
:1015A000A6B2FED7A6940050F2129BC59DF51B0E65
:1015B000A96E9BC5A8FFA69CA69EA684F2CF00F0AC
:1015C000F29E550EA76EAA0EA76EA682A6B2FED7F1
:1015D000A6940050F2129AC59DF5180EA96E9AC5F0
:1015E000A8FFA69CA69EA684F2CF00F0F29E550E00
:1015F000A76EAA0EA76EA682A6B2FED7A69400502A
:10160000F21299C59DF5190EA96E99C5A8FFA69C61
:10161000A69EA684F2CF00F0F29E550EA76EAA0EEB
:10162000A76EA682A6B2FED7A6940050F212050EAF
:10163000EA6E990EE96E030EE26ED60EE16E040EAE
:10164000016EE6CFEEFF012EFCD79CC59DF51E0E68
:10165000A96E9CC5A8FFA69CA69EA684F2CF00F00A
:10166000F29E550EA76EAA0EA76EA682A6B2FED750
:10167000A6940050F2129BC59DF51F0EA96E9BC546
:10168000A8FFA69CA69EA684F2CF00F0F29E550E5F
:10169000A76EAA0EA76EA682A6B2FED7A694005089
:1016A000F2129AC59DF51C0EA96E9AC5A8FFA69CBC
:1016B000A69EA684F2CF00F0F29E550EA76EAA0E4B
:1016C000A76EA682A6B2FED7A6940050F21299C5C4
:1016D0009DF51D0EA96E99C5A8FFA69CA69EA68481
:1016E000F2CF00F0F29E550EA76EAA0EA76EA6824C
:1016F000A6B2FED7A6940050F212050EEA6E990E1D
:10170000E96E030EE26ED20EE16E040E016EE6CFBC
:10171000EEFF012EFCD79CC59DF5220EA96E9CC53F
:10172000A8FFA69CA69EA684F2CF00F0F29E550EBE
:10173000A76EAA0EA76EA682A6B2FED7A6940050E8
:10174000F2129BC59DF5230EA96E9BC5A8FFA69C12
:10175000A69EA684F2CF00F0F29E550EA76EAA0EAA
:10176000A76EA682A6B2FED7A6940050F2129AC522
:101770009DF5200EA96E9AC5A8FFA69CA69EA684DC
:10178000F2CF00F0F29E550EA76EAA0EA76EA682AB
:10179000A6B2FED7A6940050F21299C59DF5210E6F
:1017A000A96E99C5A8FFA69CA69EA684F2CF00F0BC
:1017B000F29E550EA76EAA0EA76EA682A6B2FED7FF
:1017C000A6940050F212050EEA6E990EE96E030E11
:1017D000E26ED20EE16E040E016EE6CFEEFF012E38
:1017E000FCD79CC59DF5260EA96E9CC5A8FFA69C9E
:1017F000A69EA684F2CF00F0F29E550EA76EAA0E0A
:10180000A76EA682A6B2FED7A6940050F2129BC580
:101810009DF5270EA96E9BC5A8FFA69CA69EA68433
:10182000F2CF00F0F29E550EA76EAA0EA76EA6820A
:10183000A6B2FED7A6940050F2129AC59DF5240ECA
:10184000A96E9AC5A8FFA69CA69EA684F2CF00F01A
:10185000F29E550EA76EAA0EA76EA682A6B2FED75E
:10186000A6940050F21299C59DF5250EA96E99C552
:10187000A8FFA69CA69EA684F2CF00F0F29E550E6D
:10188000A76EAA0EA76EA682A6B2FED7A694005097
:10189000F212D1800001F5EF0DF0050EEA6E990EFF
:1018A000E96EEF5011E00A0E016EBF0E006E0400EB
:1018B000002EFDD7012EF9D75E0E006E002EFED74A
:1018C00000D00400EF2EEFD7ACEF0EF0929C898C85
:1018D0009EA8FED705019AC5ADFF0000929C898C99
:1018E000ACA2FED7929C899C000132EF0FF09D9A2A
:1018F00094908B8005015851030801E3B9D203018C
:10190000DE510401585D04E0585302E00501B0D2F5
:10191000020E0501585D996F040E9B6F580E9A6F69
:1019200099C59CF50001E7EC01F002C062F501C029
:1019300061F5020E0501585D036A580FE96E040E49
:101940000320EA6EEFCF99F5010E585D036A580F38
:10195000E96E040E0320EA6EEFCF9AF599C560F5A3
:101960009AC55FF55F51615D03E16051625D04E01E
:101970005B2BD8B45C2B7CD204015951420A000184
:1019800013E0010AD8B471D0070AD8B4CCD0010A48
:10199000D8B4F4D0200AD8B421D10F0AD8B437D1A2
:1019A000010AD8B4EAD119D205015851050852E10B
:1019B00004015A51000A000105E0010A0EE0030A81
:1019C0003BE03DD00301C691010EEF6F040E05010F
:1019D000586F592BD8B45A2B3CD00301C681010E45
:1019E000EF6F0501966B956B96510301C55D1DE385
:1019F00008E1C4510501955DD8A002D0030115D0BE
:101A00000301D89005019535026E9635036E02509C
:101A1000A40FE96E020E0320EA6EEC6AED52EF6A43
:101A2000952BD8B4962BE0D70301040E0501586F0F
:101A3000592BD8B45A2B0DD0FF0005010AD0040150
:101A4000598F030E5A6F05015D2BD8B45E2B050E1E
:101A5000586F0AD00401598F020E5A6F050E050106
:101A6000586F5D2BD8B45E2BC2D1050158510708C1
:101A70004FE104015B51000A000103E0010A1FE08D
:101A80003CD00501986B020E976F966B956B965143
:101A900000080FE3580E9725E96E040E9821EA6EB0
:101AA000EF6A972BD8B4982B020E9527000E962339
:101AB000EED7840E586F592BD8B45A2B28D0050175
:101AC000986B020E976F966B956B965100080FE31B
:101AD000580E9725E96E040E9821EA6EEF6A972B4F
:101AE000D8B4982B020E9527000E9623EED7840EBD
:101AF000586F592BD8B45A2B0AD00401598F030EB2
:101B00005A6F05015D2BD8B45E2B050E586F0AD0B5
:101B10000401598F020E5A6F050E0501586F5D2B97
:101B2000D8B45E2B64D10501585107081CE1040E9E
:101B3000586F592BD8B45A2B020E636F5BC492F5C1
:101B400004015C515B250501936F92C594F5935197
:101B5000945D08E294C599F5000113EF02F00501C8
:101B6000942BF5D70AD00401598F020E5A6F050E37
:101B70000501586F5D2BD8B45E2B39D10501585142
:101B8000070821E258B11FD0040E636F5BC492F5C1
:101B9000020E585D936F040E586F592BD8B45A2B10
:101BA00092C594F59351635D08E294C599F50001DF
:101BB0000CEF06F00501942BF5D7040E586F592B46
:101BC000D8B45A2B0AD00401598F020E5A6F050E51
:101BD0000501586F5D2BD8B45E2B09D10501585112
:101BE00004080AE10001A0EF08F0040E0501586F97
:101BF000592BD8B45A2B0AD00401598F020E5A6FB0
:101C0000050E0501586F5D2BD8B45E2BF0D0050191
:101C100058510508D8A4A4D0040E586F592BD8B435
:101C20005A2B04015A51000A00010FE0010A1CE07E
:101C3000030A29E0010A36E0070A43E0010A50E0FE
:101C4000030A5DE0010A68E075D0040E0301DD6F50
:101C5000B00EDC6FB8860A0EAF6E1A0EB06EA60E0E
:101C6000AC6E0000000071D0070E0301DD6F080E9E
:101C7000DC6FB8865B0EAF6E110EB06EA60EAC6E4A
:101C80000000000062D0090E0301DD6F600EDC6F02
:101C9000B886040EAF6E0D0EB06EA60EAC6E0000D0
:101CA000000053D0120E0301DD6FC00EDC6FB8864A
:101CB000820EAF6E060EB06EA60EAC6E0000000077
:101CC00044D01C0E0301DD6F200EDC6FB886560E6B
:101CD000AF6E040EB06EA60EAC6E0000000035D0E4
:101CE000250E0301DD6F800EDC6FB886400EAF6EEF
:101CF000030EB06EA60EAC6E0000000026D0380EAB
:101D00000301DD6F400EDC6FB8968A0EAF6EA60E33
:101D1000AC6E0000000019D04B0E0301DD6FDC6BD0
:101D2000B886A00EAF6E010EB06EA60EAC6E0000AF
:101D300000000BD00401598F030E5A6F050E0501E8
:101D4000586F5D2BD8B45E2B030194908B70640E9A
:101D50000501996F0001A1D594908B700CD00501FD
:101D60000401598F020E5A6F050E0501586F5D2B45
:101D7000D8B45E2B000105013AD005015851040882
:101D800021E14D0E04015A6F570E5B6F540E5C6FCC
:101D90002D0E5D6F530E5E6F500E5F6F4D0E606FB8
:101DA000330E616F760E626F310E636F2E0E646FAD
:101DB000300E656F666F100E0501586F592BD8B441
:101DC0005A2B0AD00401598F020E5A6F050E0501D5
:101DD000586F5D2BD8B45E2B0AD00401598F010EC9
:101DE0005A6F050E0501586F5D2BD8B45E2B0401A8
:101DF00058533FE0020E0501585D996F040E9B6F2A
:101E0000580E9A6F99C59CF50001E7EC01F002C0ED
:101E100062F501C061F5020E0501585D036A580FB5
:101E2000E96E040E0320EA6E62C5EFFF010E585DF5
:101E3000036A580FE96E040E0320EA6E61C5EFFFD6
:101E4000946B5851945D13E20400036A9451580F47
:101E5000E96E040E0320EA6EEFCF99F599C59AF565
:101E6000000134D594908B900501942BEAD700D0D3
:101E7000040194908B800501586B9E909D909D8AE3
:101E80009E90000136EF00F0700ED36EC00E9B6E78
:101E9000D3509698D190070EB46E9250926E040073
:101EA0001A0E006E002EFED7B450A19CB56AC15028
:101EB000C00B1909C16EC050C00B0D09C06EC08E99
:101EC000C2803F0E926EF80E946E000E956E929E3A
:101ED000898E94928B8294948B8495908C80959229
:101EE0008C82959A8C8A95988C8894908B80800EA1
:101EF000D56EB50ECD6E000ECA6E000ECB6E850E81
:101F0000B16E929C899CC69A949A94889496300E4D
:101F1000C66E400EC76E9D8AC00EF2120301EF6BB3
:101F200000011BEF1CF0F2CF81F5F29E010EA96EAD
:101F3000A69CA69EA680A850050181BFF28E826F46
:101F4000F2CF83F5F29EA96AA69CA69EA680A85011
:101F500083BFF28E846F82C5CBF384C5CAF3F2CF00
:101F600081F5F29E030EA96EA69CA69EA680A8509F
:101F700081BFF28E826FF2CF83F5F29E020EA96EC0
:101F8000A69CA69EA680A85083BFF28E846F82C5B1
:101F9000CFF384C5CEF3F2CF81F5F29E050EA96E84
:101FA000A69CA69EA680A85081BFF28E826FF2CF1B
:101FB00083F5F29E040EA96EA69CA69EA680A8504C
:101FC00083BFF28E846F82C5ABF384C5AAF3F2CFD0
:101FD00081F5F29E070EA96EA69CA69EA680A8502B
:101FE00081BFF28E826FF2CF83F5F29E060EA96E4C
:101FF000A69CA69EA680A85083BFF28E846F82C541
:10200000B7F384C5B6F3F2CF81F5F29E090EA96E3F
:10201000A69CA69EA680A85081BFF28E826FF2CFAA
:1020200083F5F29E080EA96EA69CA69EA680A850D7
:1020300083BFF28E846F82C5C1F384C5C0F3F2CF33
:1020400081F5F29E0B0EA96EA69CA69EA680A850B6
:1020500081BFF28E826FF2CF83F5F29E0A0EA96ED7
:10206000A69CA69EA680A85083BFF28E846F82C5D0
:10207000C5F384C5C4F3F2CF81F5F29E0D0EA96EAF
:10208000A69CA69EA680A85081BFF28E826FF2CF3A
:1020900083F5F29E0C0EA96EA69CA69EA680A85063
:1020A00083BFF28E846F82C5C3F384C5C2F3F2CFBF
:1020B00081F5F29E0F0EA96EA69CA69EA680A85042
:1020C00081BFF28E826FF2CF83F5F29E0E0EA96E63
:1020D000A69CA69EA680A85083BFF28E846F82C560
:1020E000DDF384C5DCF3F2CF81F5F29E110EA96E0B
:1020F000A69CA69EA680A85081BFF28E826FF2CFCA
:1021000083F5F29E100EA96EA69CA69EA680A850EE
:1021100083BFF28E846F82C5DFF384C5DEF3F2CF16
:1021200081F5F29E130EA96EA69CA69EA680A850CD
:1021300081BFF28E826FF2CF83F5F29E120EA96EEE
:10214000A69CA69EA680A85083BFF28E846F82C5EF
:10215000B1F384C5B0F3F2CF81F5F29E150EA96EEE
:10216000A69CA69EA680A85081BFF28E826FF2CF59
:1021700083F5F29E140EA96EA69CA69EA680A8507A
:1021800083BFF28E846F82C5BDF384C5BCF3F2CFEA
:1021900081F5F29E170EA96EA69CA69EA680A85059
:1021A00081BFF28E826FF2CF83F5F29E160EA96E7A
:1021B000A69CA69EA680A85083BFF28E846F82C57F
:1021C000DBF384C5DAF3F2CF81F5F29E1A0EA96E25
:1021D000A69CA69EA680A85081BFF28E826FF2CFE9
:1021E00083F5F29E1B0EA96EA69CA69EA680A85003
:1021F00083BFF28E846FF2CF85F5F29E180EA96E22
:10220000A69CA69EA680A85085BFF28E866FF2CFB0
:1022100087F5F29E190EA96EA69CA69EA680A850D0
:1022200087BFF28E886F82C580F584C57FF586C52D
:102230007EF588C57DF5030EEA6ED20EE96E050EB9
:10224000E26E7D0EE16E040E016EE6CFEEFF012E12
:10225000FCD7F2CF81F5F29E1E0EA96EA69CA69E1B
:10226000A680A85081BFF28E826FF2CF83F5F29ED6
:102270001F0EA96EA69CA69EA680A85083BFF28EB4
:10228000846FF2CF85F5F29E1C0EA96EA69CA69EC9
:10229000A680A85085BFF28E866FF2CF87F5F29E9A
:1022A0001D0EA96EA69CA69EA680A85087BFF28E82
:1022B000886F82C580F584C57FF586C57EF588C5A3
:1022C0007DF5030EEA6ED60EE96E050EE26E7D0E0A
:1022D000E16E040E016EE6CFEEFF012EFCD7F2CFC9
:1022E00081F5F29E220EA96EA69CA69EA680A850FD
:1022F00081BFF28E826FF2CF83F5F29E230EA96E1C
:10230000A69CA69EA680A85083BFF28E846FF2CFB3
:1023100085F5F29E200EA96EA69CA69EA680A850CA
:1023200085BFF28E866FF2CF87F5F29E210EA96EE1
:10233000A69CA69EA680A85087BFF28E886F82C5F5
:1023400080F584C57FF586C57EF588C57DF5030ECD
:10235000EA6EAC0EE96E050EE26E7D0EE16E040EC5
:10236000016EE6CFEEFF012EFCD7F2CF81F5F29E93
:10237000260EA96EA69CA69EA680A85081BFF28EAE
:10238000826FF2CF83F5F29E270EA96EA69CA69EC1
:10239000A680A85083BFF28E846FF2CF85F5F29E9F
:1023A000240EA96EA69CA69EA680A85085BFF28E7C
:1023B000866FF2CF87F5F29E250EA96EA69CA69E8B
:1023C000A680A85087BFF28E886F82C580F584C52D
:1023D0007FF586C57EF588C57DF5030EEA6EB80EDD
:1023E000E96E050EE26E7D0EE16E040E016EE6CF23
:1023F000EEFF012EFCD700011DEF1CF00501586B0C
:102400000301DC51006EDD51036E040E035C05E137
:10241000B00E005C000139E00301070E035C05E12A
:10242000080E005C00013BE00301090E035C05E1BE
:10243000600E005C00013DE00301120E035C05E14B
:10244000C00E005C00013FE003011C0E035C05E1CF
:10245000200E005C000141E00301250E035C05E154
:10246000800E005C000143E00301380E035C05E1CF
:10247000400E005C000145E003014B0E035C04E1EB
:102480000052000146E003014FD0B8860A0EAF6E3D
:102490001A0EB06EA60EAC6E000000004ED0B886CC
:1024A0005B0EAF6E110EB06EA60EAC6E000000009B
:1024B00044D0B886040EAF6E0D0EB06EA60EAC6E94
:1024C000000000003AD0B886820EAF6E060EB06EE5
:1024D000A60EAC6E0000000030D0B886560EAF6E6F
:1024E000040EB06EA60EAC6E0000000026D0B886BA
:1024F000400EAF6E030EB06EA60EAC6E0000000074
:102500001CD0B8968A0EAF6EA60EAC6E000000000E
:1025100014D0B886A00EAF6E010EB06EA60EAC6ED3
:10252000000000000AD00301B886400EAF6E030E13
:10253000B06EA60EAC6E0000000000011FEF1CF094
:102540008E0E006E82C501F081C502F0036A01AEF5
:1025500005D0011E021E022A01E1012A015209E1F1
:1025600002C001F0026A080E005E015202E1006A38
:102570000DD0D89001BE04D0023601360006F9D73E
:10258000050182AF02D0000101D0019E0001000CC4
:1025900005018251D8B471D0006E8651D8B46DD087
:1025A000002604E3810E002668E204D07F0E005E60
:1025B00064E363E083C58AF587518A1B838F878F25
:1025C00085518903F4CF8CF584518803F4CF03F04F
:1025D000F3CF8BF58903F3508C27F4508B23000E37
:1025E000032285518803F3508C27F4508B23000E6F
:1025F000026A0322022283518903F3508B27F4508D
:102600000322000E022283518803F3500326F45064
:102610000222000E016A012285518703F3508B27A5
:10262000F4500322000E0222012284518703F3504A
:102630000326F4500222000E012283518703F35037
:102640000226F4500122002A01BE05D08B37033642
:10265000023601360006000E8BAF0AD0032A022292
:102660000122015005E1025003E1035001E1002A7B
:102670008ABF018E8AAF019E04D0006A016A026A95
:10268000036A0001000C8E0E006E05017F51005E92
:1026900080C502F081C501F0028E005209E0D89099
:1026A000025202E1015204E002320132002EF7D759
:1026B00080AF05D0011E021E012AD8B4022A0001F3
:1026C000000C080E016EC250C30B0110C26E040054
:1026D0001A0E006E002EFED7C282C2B2FED7C4CF41
:1026E0007EF50501C3CF7DF5CD0E7D5D7F6F000EBC
:1026F0007E59806F826F7FC581F5000121DF03C0A5
:1027000085F502C084F501C083F500C082F5DF0EB7
:102710000501896F4F0E886F430E876F830E866F9A
:10272000000136DF03C082F502C081F501C080F5EB
:1027300000C07FF5A8DF02C0C9F301C0C8F3140EC2
:10274000016EC250C30B0110C26E04001A0E006E5F
:10275000002EFED7C282C2B2FED7C4CF7EF50501DD
:10276000C3CF7DF5CD0E7D5D7F6F000E7E59806FEE
:10277000826F7FC581F50001E3DE03C085F502C0ED
:1027800084F501C083F500C082F5DF0E0501896F75
:102790004F0E886F430E876F830E866F0001F8DE41
:1027A00003C082F502C081F501C080F500C07FF54D
:1027B0006ADF02C0B3F301C0B2F3100E016EC25063
:1027C000C30B0110C26E04001A0E006E002EFED75D
:1027D000C282C2B2FED7C4CF7EF50501C3CF7DF55C
:1027E000CD0E7D5D7F6F000E7E59806F826F7FC53D
:1027F00081F50001A5DE03C085F502C084F501C0A6
:1028000083F500C082F5DF0E0501896F4F0E886FDA
:10281000430E876F830E866F0001BADE03C082F518
:1028200002C081F501C080F500C07FF52CDF02C039
:10283000BFF301C0BEF3000CD19005017D5302E14E
:102840007E5302E0000E01D0010E816F7E5305E140
:102850007D51060802E3000E01D0010E811503E050
:102860007E6B010E7D6F1F0E826FFF0E816F7D519B
:10287000006E05E0D89082338133002EFBD7815162
:102880007F6F82517009806F959A8C9A80C581F50F
:10289000C95080C5C9FFC730FEE37FC581F5C95067
:1028A0007FC5C9FFC730FEE3959A8C8AD1800001AD
:1028B00041EF1CF0D19005017D5302E17E5302E00F
:1028C000000E01D0010E816F7E5305E17D51060897
:1028D00002E3000E01D0010E811503E07E6B010EB4
:1028E0007D6F1F0E826FFF0E816F7D51006E05E0C0
:1028F000D89082338133002EFBD781517F6F825174
:102900007009806F95988C9880C581F5C95080C5F5
:10291000C9FFC730FEE37FC581F5C9507FC5C9FF38
:10292000C730FEE395988C88D180000147EF1CF0FA
:102930008E0E006E7EC501F07DC502F0036A015265
:1029400009E102C001F0026A080E005E015202E1D4
:10295000006A08D0D89001BE04D0023601360006C5
:10296000F9D7019E000C05018151D8B4A5D08D6F17
:102970008551D8B4A1D08D5F05E37F0E8D27D8B0E7
:102980009BD006D0810E8D5FD8A096D0D8B494D0BD
:102990008DC500F0016A026A036A8C6B82C58BF5F3
:1029A0008B8F83C58AF584C589F5190E8D6F885183
:1029B000895F0DE2010E8A5F0AE28B5F08E28C5F9D
:1029C00006E28C2B8B2B8A2B8851892728D08751A4
:1029D0008A5F12E2010E8B5F0FE28C5F0DE28C2B9F
:1029E0008B2B87518A278851892719E38A2B17E176
:1029F0008B2B15E18C2B13D0865180098B5F0EE257
:102A0000010E8C5F0BE28C2B865180098B2787513E
:102A10008A27E9E38B2BE7E18C2BE5D703808D2F09
:102A200001D00BD0D89089378A378B378C37D89024
:102A30000336023601368E37BAD78EA106D0D8902B
:102A40000132023203328E3302D0000635E08EBFEF
:102A50001ED0D89089378A378B378C378851895F59
:102A600007E2010E8A5F04E28B5F02E28C5F1AE3E9
:102A700087518A5F05E2010E8B5F02E28C5F12E3F1
:102A8000865180098B5F03E2010E8C5F0BE3032A02
:102A900009E1022A07E1012A05E1002A0DE00132DD
:102AA0000232033282C58DF586518D1B8DAF02D067
:102AB000018E06D0019E04D0006A016A026A036A90
:102AC0000001000C95928C92050180510F0B1009AA
:102AD000816FC95081C5C9FFC730FEE37FC581F54D
:102AE000C9507FC5C9FFC730FEE395928C82929E84
:102AF000899E929E898E0001000CB60E006E036ABC
:102B0000026A016A0501825183118411851102E173
:102B1000006A0DD0D89001BE09D082378337843740
:102B20008537033602360136002EF4D7019E0001A8
:102B3000DCEF1EF0800ED8A202D00501871B050134
:102B40008C6B8D6B83C58BF587518B1B8251D8B4F1
:102B5000DFD08A6F006E8651D8B4E3D08A5FD8B4D4
:102B600083D03EE387C590F5908F88C58FF589C5E2
:102B70008EF58D6BD89090338F338E338D338A2FB3
:102B8000F8D78BAF03D08C81E0D08C918A918C895F
:102B9000050EEA6E850EE96EEBD08C998BBF0AD0DC
:102BA0008AA113D090338F338E338D33002AD8B45B
:102BB000C7D00BD090BF0CD0D8908D378E378F37C1
:102BC00090370006D8B4BCD0F5D78C8D6DD08C9DD5
:102BD00083C58BF583AF02D0908FABD0909FA9D0E7
:102BE00086C58AF586C500F082518A5F83C590F557
:102BF000908F84C58FF585C58EF58D6BD8909033F9
:102C00008F338E338D338A2FF8D78BAF03D08C83DD
:102C10009CD08C938A918C8B050EEA6E890EE96E9E
:102C2000A7D08C9B8BBF0AD08AA113D090338F334F
:102C30008E338D33002AD8B483D00BD090BF0CD004
:102C4000D8908D378E378F3790370006D8B478D02C
:102C5000F5D78C8F29D08C9F87C58BF587AF02D095
:102C6000908F67D0909F65D087C590F5908F88C56D
:102C70008FF589C58EF58BAF04D0909F8C8565D07C
:102C80008C958D6B8A91050EEA6E850EE96E70D07B
:102C90008BBF1CD083C58BF58AA106D090338F33B0
:102CA0008E338D33002A4CE08DAF0BD08E2B09E193
:102CB0008F2B07E1902B05E190338F338E33002A61
:102CC0003FE08CBD84D78CBFC6D71CD0800E901B34
:102CD00090AF04D03AD087C58BF50AD083C58BF569
:102CE000905306E18F5304E18E5302E1006A21D034
:102CF00090BF08D0D8908D378E378F379037002E01
:102D0000F7D71ED08BAF02D0908F13D0909F11D0E9
:102D100086C500F087C590F588C58FF589C58EF505
:102D200008D082C500F083C590F584C58FF585C5B0
:102D30008EF590C501F08FC502F08EC503F034D03A
:102D4000006A016A026A036A2FD08D6B8E1F8F1F83
:102D5000901F8D1F8D2B05E18E2B03E18F2B01E141
:102D6000902B8CB112D78CB354D78CB589D7B3D7ED
:102D7000EF508E2705E38F2B03E1902BD8B48A8187
:102D8000ED52EF508F2703E3902BD8B48A81ED5298
:102D9000EF50EFBE01D0800A9027D8B08A818CB95D
:102DA000FCD68CBB3ED774D7000109EF1FF005019C
:102DB0008A6B8B6B010E8C6FDA6AD96A050E8F6F86
:102DC000820E8E6F050EEA6E860EE96E8FC5E2FFEB
:102DD0008EC5E1FF8CC58DF5D890E550EE02F3501D
:102DE0008A23F4508B238D2FF7D78AC5DEFF8BC53E
:102DF0008AF58B6BD8B08B2B8E2BD8B48F2B8C2B6A
:102E00008C510508DFE10001000CF86AD09E078EA6
:102E1000EA6AE96A700ED36E400E9B6ED3500301CE
:102E2000C76BEE6B320EED6F0501586B929C899C5F
:102E3000B886400EAF6E030EB06EA60EAC6E900E4E
:102E4000AB6E00000000C150C00B0F09C16E070E31
:102E5000B46E1A6A1B6A1C6A1D6A1E6A1F6A206A9F
:102E6000216A226A236A246A256A266A276A286AEE
:102E7000296A2A6A2B6A2C6A2D6A2E6A2F6A306A9E
:102E8000316A326A336A346A356A366A376A386A4E
:102E9000396A3A6A3B6A3C6A3D6A3E6A3F6A406AFE
:102EA000416A426A436A446A456A466A476A486AAE
:102EB000496A4A6A4B6A4C6A4D6A4E6A4F6A506A5E
:102EC000516A526A536A546A556A566A576A586A0E
:102ED000596A5A6A5B6A5C6A5D6A5E6A5F6A606ABE
:102EE000616A626A636A646A656A666A676A686A6E
:102EF000696A6A6A6B6A6C6A6D6A6E6A6F6A706A1E
:102F0000716A726A736A746A756A766A776A786ACD
:102F1000796A7A6A7B6A7C6A7D6A7E6A7F6A000166
:102F2000806B816B826B836B846B856B866B876B2D
:102F3000886B896B8A6B8B6B8C6B8D6B8E6B8F6BDD
:102F4000906B916B926B936B946B956B966B976B8D
:102F5000986B996B9A6B9B6B9C6B9D6B9E6B9F6B3D
:102F6000A06BA16BA26BA36BA46BA56BA66BA76BED
:102F7000A86BA96BAA6BAB6BAC6BAD6BAE6BAF6B9D
:102F8000B06BB16BB26BB36BB46BB56BB66BB76B4D
:102F9000B86BB96BBA6BBB6BBC6BBD6BBE6BBF6BFD
:102FA000C06BC16BC26BC36BC46BC56BC66BC76BAD
:102FB000C86BC96BCA6BCB6BCC6BCD6BCE6BCF6B5D
:102FC000D06BD16BD26BD36BD46BD56BD66BD76B0D
:102FD000D86BD96BDA6BDB6BDC6BDD6BDE6BDF6BBD
:102FE000E06BE16BE26BE36BE46BE56BE66BE76B6D
:102FF000E86BE96BEA6BEB6BEC6BED6BEE6BEF6B1D
:10300000F06BF16BF26BF36BF46BF56BF66BF76BCC
:10301000F86BF96BFA6BFB6BFC6BFD6BFE6BFF6B7C
:103020000101006B016B026B036B046B056B066B9C
:10303000076B086B096B0A6B0B6B0C6B0D6B0E6BE4
:103040000F6B106B116B126B136B146B156B166B94
:10305000176B186B196B1A6B1B6B1C6B1D6B1E6B44
:103060001F6B206B216B226B236B246B256B266BF4
:10307000276B286B296B2A6B2B6B2C6B2D6B2E6BA4
:103080002F6B306B316B326B336B346B356B366B54
:10309000376B386B396B3A6B3B6B3C6B3D6B3E6B04
:1030A0003F6B406B416B426B436B446B456B466BB4
:1030B000476B486B496B4A6B4B6B4C6B4D6B4E6B64
:1030C0004F6B506B516B526B536B546B556B566B14
:1030D000576B586B596B5A6B5B6B5C6B5D6B5E6BC4
:1030E0005F6B606B616B626B636B646B656B666B74
:1030F000676B686B696B6A6B6B6B6C6B6D6B6E6B24
:103100006F6B706B716B726B736B746B756B766BD3
:10311000776B786B796B7A6B7B6B7C6B7D6B7E6B83
:103120007F6B806B816B826B836B846B856B866B33
:10313000876B886B896B8A6B8B6B8C6B8D6B8E6BE3
:103140008F6B906B916B926B936B946B956B966B93
:10315000976B986B996B9A6B9B6B9C6B9D6B9E6B43
:103160009F6BA06BA16BA26BA36BA46BA56BA66BF3
:10317000A76BA86BA96BAA6BAB6BAC6BAD6BAE6BA3
:10318000AF6BB06BB16BB26BB36BB46BB56BB66B53
:10319000B76BB86BB96BBA6BBB6BBC6BBD6BBE6B03
:1031A000BF6BC06BC16BC26BC36BC46BC56BC66BB3
:1031B000C76BC86BC96BCA6BCB6BCC6BCD6BCE6B63
:1031C000CF6BD06BD16BD26BD36BD46BD56BD66B13
:1031D000D76BD86BD96BDA6BDB6BDC6BDD6BDE6BC3
:1031E000DF6BE06BE16BE26BE36BE46BE56BE66B73
:1031F000E76BE86BE96BEA6BEB6BEC6BED6BEE6B23
:10320000EF6BF06BF16BF26BF36BF46BF56BF66BD2
:10321000F76BF86BF96BFA6BFB6BFC6BFD6BFE6B82
:10322000FF6B0201006B016B026B036B046B056BA0
:10323000066B076B086B096B0A6B0B6B0C6B0D6BEA
:103240000E6B0F6B106B116B126B136B146B156B9A
:10325000166B176B186B196B1A6B1B6B1C6B1D6B4A
:103260001E6B1F6B206B216B226B236B246B256BFA
:10327000266B276B286B296B2A6B2B6B2C6B2D6BAA
:103280002E6B2F6B306B316B326B336B346B356B5A
:10329000366B376B386B396B3A6B3B6B3C6B3D6B0A
:1032A0003E6B3F6B406B416B426B436B446B456BBA
:1032B000466B476B486B496B4A6B4B6B4C6B4D6B6A
:1032C0004E6B4F6B506B516B526B536B546B556B1A
:1032D000566B576B586B596B5A6B5B6B5C6B5D6BCA
:1032E0005E6B5F6B606B616B626B636B646B656B7A
:1032F000666B676B686B696B6A6B6B6B6C6B6D6B2A
:103300006E6B6F6B706B716B726B736B746B756BD9
:10331000766B776B786B796B7A6B7B6B7C6B7D6B89
:103320007E6B7F6B806B816B826B836B846B856B39
:10333000866B876B886B896B8A6B8B6B8C6B8D6BE9
:103340008E6B8F6B906B916B926B936B946B956B99
:10335000966B976B986B996B9A6B9B6B9C6B9D6B49
:103360009E6B9F6BA06BA16BA26BA36BA46BA56BF9
:10337000A66BA76BA86BA96BAA6BAB6BAC6BAD6BA9
:10338000AE6BAF6BB06BB16BB26BB36BB46BB56B59
:10339000B66BB76BB86BB96BBA6BBB6BBC6BBD6B09
:1033A000BE6BBF6BC06BC16BC26BC36BC46BC56BB9
:1033B000C66BC76BC86BC96BCA6BCB6BCC6BCD6B69
:1033C000CE6BCF6BD06BD16BD26BD36BD46BD56B19
:1033D000D66BD76BD86BD96BDA6BDB6BDC6BDD6BC9
:1033E000DE6BDF6BE06BE16BE26BE36BE46BE56B79
:1033F000E66BE76BE86BE96BEA6BEB6BEC6BED6B29
:10340000EE6BEF6BF06BF16BF26BF36BF46BF56BD8
:10341000F66BF76BF86BF96BFA6BFB6BFC6BFD6B88
:10342000FE6BFF6B0301006B016B026B036B046BA4
:10343000056B066B076B086B096B0A6B0B6B0C6BF0
:103440000D6B0E6B0F6B106B116B126B136B146BA0
:10345000156B166B176B186B196B1A6B1B6B1C6B50
:103460001D6B1E6B1F6B206B216B226B236B246B00
:10347000256B266B276B286B296B2A6B2B6B2C6BB0
:103480002D6B2E6B2F6B306B316B326B336B346B60
:10349000356B366B376B386B396B3A6B3B6B3C6B10
:1034A0003D6B3E6B3F6B406B416B426B436B446BC0
:1034B000456B466B476B486B496B4A6B4B6B4C6B70
:1034C0004D6B4E6B4F6B506B516B526B536B546B20
:1034D000556B566B576B586B596B5A6B5B6B5C6BD0
:1034E0005D6B5E6B5F6B606B616B626B636B646B80
:1034F000656B666B676B686B696B6A6B6B6B6C6B30
:103500006D6B6E6B6F6B706B716B726B736B746BDF
:10351000756B766B776B786B796B7A6B7B6B7C6B8F
:103520007D6B7E6B7F6B806B816B826B836B846B3F
:10353000856B866B876B886B896B8A6B8B6B8C6BEF
:103540008D6B8E6B8F6B906B916B926B936B946B9F
:10355000956B966B976B986B996B9A6B9B6B9C6B4F
:103560009D6B9E6B9F6BA06BA16BA26BA36BA46BFF
:10357000A56BA66BA76BA86BA96BAA6BAB6BAC6BAF
:10358000AD6BAE6BAF6BB06BB16BB26BB36BB46B5F
:10359000B56BB66BB76BB86BB96BBA6BBB6BBC6B0F
:1035A000BD6BBE6BBF6BC06BC16BC26BC36BC46BBF
:1035B000C56BC691C86BC96BCA6BCB6BCC6BCD6B43
:1035C000CE6BCF6BD06BD16BD26BD36BD46BD56B17
:1035D000D66BD76BD86BD96BDA6BDB6BDC6BDD6BC7
:1035E000DE6BDF6BE06BE16BE26BE36BE46BE56B77
:1035F000E66BE76BE86BE96BEA6BEB6BEC6B04017A
:10360000586B596B5A6B5B6B5C6B5D6B5E6B5F6B86
:10361000606B616B626B636B646B656B666B676B36
:10362000686B696B6A6B6B6B6C6B6D6B6E6B6F6BE6
:10363000706B716B726B736B746B756B766B776B96
:10364000786B796B7A6B7B6B7C6B7D6B7E6B7F6B46
:10365000806B816B826B836B846B856B866B876BF6
:10366000886B896B8A6B8B6B8C6B8D6B8E6B8F6BA6
:10367000906B916B926B936B946B956B966B976B56
:10368000986B996B9A6B9B6B9C6B9D6B9E6B9F6B06
:10369000A06BA16BA26BA36BA46BA56BA66BA76BB6
:1036A000A86BA96BAA6BAB6BAC6BAD6BAE6BAF6B66
:1036B000B06BB16BB26BB36BB46BB56BB66BB76B16
:1036C000B86BB96BBA6BBB6BBC6BBD6BBE6BBF6BC6
:1036D000C06BC16BC26BC36BC46BC56BC66BC76B76
:1036E000C86BC96BCA6BCB6BCC6BCD6BCE6BCF6B26
:1036F000D06BD16BD26BD36BD46BD56BD66BD76BD6
:10370000D86BD96BDA6BDB6BDC6BDD6BDE6BDF6B85
:10371000E06BE16BE26BE36BE46BE56BE66BE76B35
:10372000E86BE96BEA6BEB6BEC6BED6BEE6BEF6BE5
:10373000F06BF16BF26BF36BF46BF56BF66BF76B95
:10374000F86BF96BFA6BFB6BFC6BFD6BFE6BFF6B45
:103750000501006B016B026B036B046B056B066B61
:10376000076B086B096B0A6B0B6B0C6B0D6B0E6BAD
:103770000F6B106B116B126B136B146B156B166B5D
:10378000176B186B196B1A6B1B6B1C6B1D6B1E6B0D
:103790001F6B206B216B226B236B246B256B266BBD
:1037A000276B286B296B2A6B2B6B2C6B2D6B2E6B6D
:1037B0002F6B306B316B326B336B346B356B366B1D
:1037C000376B386B396B3A6B3B6B3C6B3D6B3E6BCD
:1037D0003F6B406B416B426B436B446B456B466B7D
:1037E000476B486B496B4A6B4B6B4C6B4D6B4E6B2D
:1037F0004F6B506B516B526B536B546B556B566BDD
:10380000576B596B5A6B5B6B5C6B5D6B5E6B5F6B85
:10381000606B616B626B636B646B666B656B6C6B2F
:103820006B6B010E756FFF0E746F796B010E786F05
:10383000000144EF0FF093EF0FF0FEEF11F09D8ABF
:103840009D90C00EF21296928D82010E0301EF6FD1
:103850000400EF51FC0FD8B0EEEF1FF0040F000191
:10386000F0EF1FF061EC13F00301EEEF1FF0050124
:10387000776B766BABC37EF5AAC37DF500011CEFB9
:1038800014F0B7C37EF5B6C37DF55AEF14F003010B
:10389000C25302E1C35318E0C35316E1C2510608F4
:1038A00013E30501796B010E786F0301C251006EBD
:1038B0000AE0D890050178377937002E01D002D080
:1038C0000301F7D7030104D00501796B010E786F6E
:1038D0000501686B676B6851795D16E303E1785108
:1038E000675D12E2D8906735026E6835036E02504C
:1038F0001A0FE96E000E0320EA6EEC6AED52EF6AD1
:10390000672BD8B4682BE7D76E6B6D6B6F6B0301B9
:10391000E06B0001A36BA26B9F6B9E6BA16BA06B16
:103920009D6B9C6B9B6B9A6BCBC37EF5CAC37DF57D
:1039300098EC14F000C07DF501C07EF502C07FF563
:1039400003C080F503C084F502C083F501C082F591
:1039500000C081F50501886B876B7A0E866F880E33
:10396000856F0001B3EC14F000C07DF501C07EF559
:1039700002C07FF503C080F503C085F502C084F561
:1039800001C083F500C082F5A80E0501896FC60E3F
:10399000886F4B0E876F890E866F0001C8EC12F09E
:1039A00003C082F502C081F501C080F500C07FF53B
:1039B00043EC13F002C0CDF301C0CCF3CFC37EF5CE
:1039C000CEC37DF598EC14F000C07DF501C07EF506
:1039D00002C07FF503C080F503C084F502C083F503
:1039E00001C082F500C081F50501886B876B7A0EF6
:1039F000866F880E856F0001B3EC14F000C07DF572
:103A000001C07EF502C07FF503C080F503C085F5D7
:103A100002C084F501C083F500C082F5A80E05013F
:103A2000896FC60E886F4B0E876F890E866F0001F7
:103A3000C8EC12F003C082F502C081F501C080F528
:103A400000C07FF543EC13F001500301CC25D06F8B
:103A50000250CD21D16F020EEF6FC0D2CDC37EF5E3
:103A6000CCC37DF562EC15F0000E016EC250C30BA5
:103A70000110C26E0501736B726B716B706BCDC3FD
:103A80007BF5CCC37AF57B510301D15DD8A08BD0F7
:103A900008E1D05105017A5DD8A002D0030183D09E
:103AA0000301C2827BC57EF57AC57DF5000162EC1B
:103AB00015F0C2B2FED7C4CF6AF50501C3CF69F5D0
:103AC000D8900301E035036A1A0FE96E000E032057
:103AD000EA6EECCF03F0ED52EF5005016B5F03503F
:103AE0006C5B69516B276A516C23D8900301E035F8
:103AF000036A1A0FE96E000E0320EA6E6AC5ECFF36
:103B0000ED5269C5EFFFE05304E178C5E0F3E0074B
:103B100001D0E0076CC59BF06BC59AF0C251006EF6
:103B20000AE0D89000019B339A33002E01D002D0D6
:103B30000301F7D7030100019A5105017027000125
:103B40009B5105017123000E7223732300019D51C7
:103B50009B5D0CE303E19A519C5D08E26EC59FF00A
:103B60006DC59EF09BC09DF09AC09CF005016D2B29
:103B7000D8B46E2B755100019B5D0CE307E19A519F
:103B80000501745DD8A002D0000104D00501762B98
:103B9000D8B4772B0501652BD8B4662B7A2BD8B413
:103BA0007B2B71D70301030EEF6F18D261EC13F07A
:103BB00004000301ED51DA25016EEE51DB21036EA5
:103BC0000150C9BF09D00350C95D06E303E1C851E4
:103BD000015C02E296928D92ED51DA5D006EEE513B
:103BE000DB59036E00C001F0C9BF07D0C951035CA7
:103BF00006E303E10150C85D02E296928D82D890FF
:103C0000C735036AA40FE96E000E0320EA6E9DC05B
:103C1000ECFFED529CC0EFFFD890C735036AA40FAC
:103C2000E96E000E0320EA6EECCF7EF5ED52EFCF89
:103C30007DF5D89005017E31756F7D31746FD89018
:103C40000301C735036AA40FE96E010E0320EA6E73
:103C500077C5ECFFED5276C5EFFFD890C735036A04
:103C6000A40FE96E020E0320EA6E9FC0ECFFED5236
:103C70009EC0EFFFC75304E1010EC45DC76F01D0C2
:103C8000C707E46BE36BE26BE16BE86BE76BE66B3A
:103C9000E56BEC6BEB6BEA6BE96B0501686B676BD3
:103CA00068510301C55D54E308E1C4510501675D36
:103CB000D8A002D003014CD00301D890050167358C
:103CC000026E6835036E0250A40FE96E000E0320E9
:103CD000EA6EECCF03F0ED52EF500301E127035001
:103CE000E223000EE323E423D89005016735026E3A
:103CF0006835036E0250A40FE96E010E0320EA6ED0
:103D0000ECCF03F0ED52EF500301E5270350E6231B
:103D1000000EE723E823D89005016735026E683569
:103D2000036E0250A40FE96E020E0320EA6EECCF80
:103D300003F0ED52EF500301E9270350EA23000E90
:103D4000EB23EC230501672BD8B4682BA9D703011B
:103D5000E4310501816F0301E3310501806F030147
:103D6000E23105017F6F0301E13105017E6F81338F
:103D700080337F337E33813380337F337E338133AF
:103D800080337F337E33813380337F337E3381339F
:103D900080337F337E33813380337F337E33010E34
:103DA000811781C585F580C584F57FC583F57EC5FE
:103DB00082F500017DEF15F003C085F502C084F5A2
:103DC00001C083F500C082F5E60E0501896F3F0E44
:103DD000886F1C0E876F800E866F0001C8EC12F092
:103DE00000C07EF501C07FF502C080F503C081F5FB
:103DF000D88203C085F502C084F501C083F500C0F8
:103E000082F50501896B886B876B866B00019AEFE1
:103E100015F003C082F502C081F501C080F500C035
:103E20007FF543EC13F002C07FF501C07EF502C0C0
:103E3000A5F301C0A4F30301AA51006E05E0D890D8
:103E4000A533A433002EFBD7E8310501816F0301B0
:103E5000E7310501806F0301E63105017F6F030142
:103E6000E53105017E6F813380337F337E338133CB
:103E700080337F337E33813380337F337E338133AE
:103E800080337F337E33813380337F337E3381339E
:103E900080337F337E33010E811781C585F580C560
:103EA00084F57FC583F57EC582F5896B886B270E07
:103EB000876F100E866F0001D7EC16F003C081F5F6
:103EC00002C080F501C07FF500C07EF5D892196A66
:103ED000F2BE198EF29E03C095F502C094F501C0A2
:103EE00093F500C092F50501996B986B66C597F53F
:103EF00065C596F500016DEC01F019BEF28E01C0AA
:103F0000A7F300C0A6F30301EC310501816F0301A3
:103F1000EB310501806F0301EA3105017F6F030179
:103F2000E93105017E6F813380337F337E33813306
:103F300080337F337E33813380337F337E338133ED
:103F400080337F337E33813380337F337E338133DD
:103F500080337F337E33010E811781C585F580C59F
:103F600084F57FC583F57EC582F5896B886B270E46
:103F7000876F100E866F0001D7EC16F003C081F535
:103F800002C080F501C07FF500C07EF5D892196AA5
:103F9000F2BE198EF29E03C095F502C094F501C0E1
:103FA00093F500C092F50501996B986B66C597F57E
:103FB00065C596F500016DEC01F019BEF28E01C0E9
:103FC000A9F300C0A8F30301C6A102D0EF6B02D091
:103FD000010EEF6F94908B8001D0030139D4FFD78D
:103FE000E824F76AF736FB0FF66E3F0EF7220A0059
:103FF000F550FA6E0800F550F96E64386E385C3A88
:02400000AC3BD7
:0200000400F00A
:10000000FC08E80301000100000880004000004BEC
:100010000100C409C409B80B00000000007F000003
:080020000000000000000000D8
:020000040030CA
:0E00000000C81900000700000FC00FE00F40FD
:00000001FF
;PIC18F4520
;CRC=1CB0  CREATED="25-дек-15 01:10"
