:04000000FFEF16F008
:08000800046ED8CF05F0E0CF33
:1000100006F00001E9CF0CF0EACF07F0E1CF08F0DD
:10002000E2CF09F0D9CF0AF0DACF0BF0F3CF12F01C
:10003000F4CF13F0FACF14F0F5CF15F0F6CF16F099
:10004000F7CF17F000C00EF001C00FF002C010F0A3
:1000500003C011F09DA030EF00F09EB091EF0CF0C6
:100060009DAA36EF00F09EBAB8EF01F00EC000F086
:100070000FC001F010C002F011C003F00CC0E9FF86
:1000800007C0EAFF078E08C0E1FF09C0E2FF0AC00F
:10009000D9FF0BC0DAFF12C0F3FF13C0F4FF14C086
:1000A000FAFF15C0F5FF16C0F6FF17C0F7FF0450A2
:1000B00006C0E0FF05C0D8FF1000F76ACA0FF66E51
:1000C000000EF7220900F550120000C1814001C066
:1000D000804101C0804100C1814001C0804100C118
:1000E000814000C1814001C0804101C0804100C108
:1000F000814000C1814001C0804100C1814001C0F8
:10010000804101C0804100C1814001C0804100C1E7
:10011000814000C1814001C0804100C1814001C0D7
:10012000804101C0804100C1814000C1814001C0C7
:10013000804101C0804100C1814001C0804100C1B7
:10014000814000C1814001C0804101C0804100C1A7
:10015000814000C1814001C0804100C1814001C097
:10016000804101C0804100C1814000C1814001C087
:10017000804101C0804100C1814001C0804100C177
:10018000814000C1814001C0804100C1814001C067
:10019000804101C0804100C1814001C0804100C157
:1001A000814000C1814001C0804101C0804100C147
:1001B000814000C1814001C0804100C1814001C037
:1001C000804101C0804100C18140F76ADA0FF66EBC
:1001D000010EF7220900F550120000C0C101C3034F
:1001E00002C2C60607C705C5C404CC0C0DCD0FCF8F
:1001F000CE0E0ACACB0BC90908C8D81819D91BDBFF
:10020000DA1A1EDEDF1FDD1D1CDC14D4D515D7174E
:1002100016D6D21213D311D1D010F03031F133F3FE
:10022000F23236F6F737F53534F43CFCFD3DFF3F4E
:100230003EFEFA3A3BFB39F9F83828E8E929EB2B7E
:100240002AEAEE2E2FEF2DEDEC2CE42425E527E70E
:10025000E62622E2E323E12120E0A06061A163A37E
:10026000A26266A6A767A56564A46CACAD6DAF6F0E
:100270006EAEAA6A6BAB69A9A86878B8B979BB7B7E
:100280007ABABE7E7FBF7DBDBC7CB47475B577B7CE
:10029000B67672B2B373B17170B0509091519353FE
:1002A000529296565797559594549C5C5D9D5F9FCE
:1002B0009E5E5A9A9B5B99595898884849894B8BFE
:1002C0008A4A4E8E8F4F8D4D4C8C4484854587478E
:1002D00046868242438341818040D8B204D0050ED5
:1002E000EA6E360EE96E006A016A026A036A050167
:1002F000366B376B386B396B355134113311321122
:100300002CE0200E3A6FD8902E372F373037313708
:1003100036373737383739373551395D08E1345199
:10032000385D05E13351375D02E13251365D0FE34F
:100330003251365F3351D8A0333D375F3451D8A0A6
:10034000343D385F3551D8A0353D395FD88000360F
:100350000136023603363A2FD6D736C5EFFF37C5FA
:10036000ECFF38C5ECFF39C5ECFF0001D9EF01F017
:10037000036A0401EF51EF0FE96E030E0320EA6EEA
:100380009EAAFED7AECFEFFFEF2B94908B90D89222
:10039000020E0501316F160E306F0E0E2F6FC00E5C
:1003A0002E6F356B346BDCC333F5DBC332F50001E4
:1003B00094D7FF0ED88000560156000E0256035601
:1003C00001C0CFFF00C0CEFF9E909D809E9A36EF69
:1003D00000F0FF0E05013B6F3C6F396B3851395D02
:1003E0001CE2036A39513625E96E37510320EA6E63
:1003F000EF503C193A6F036A3A5100015EDE016E1C
:1004000005013B5101183C6F036A3A510001DDDEE2
:10041000E8CF3BF50501392BE1D73CC503F03BC5DF
:1004200001F03CC502F00001000C0400050135514B
:10043000000A000158E0010AD8B471D0030AD8B408
:100440008AD0010AD8B4A3D0070AD8B4B6D0010A1A
:10045000D8B4CFD0030AD8B4E2D0010AD8B4FBD0C4
:100460000F0AD8B414D1010AD8B42DD1030AD8B4D4
:1004700040D1010AD8B453D1070AD8B46CD1010ACB
:10048000D8B485D1030AD8B49ED1010AD8B4B7D163
:100490001F0AD8B4D0D1010AD8B4E9D1030AD8B41C
:1004A00002D2010AD8B41BD2070AD8B434D2010A46
:1004B000D8B449D2030AD8B45ED2010AD8B473D2F0
:1004C0000F0AD8B4B2D2010AD8B4F1D2030AD8B410
:1004D00030D3010AD8B455D3070AD8B46ED3010A71
:1004E000D8B487D3A2D3036A0401FA51EF0FE96E9F
:1004F000030E0320EA6E0301A8C3EFFF0401FA2BE9
:10050000036AFA51EF0FE96E030E0320EA6E03014E
:10051000A7C3EFFF0401FA2B020EEF2794D3036A5F
:100520000401FA51EF0FE96E030E0320EA6E030196
:10053000B4C3EFFF0401FA2B036AFA51EF0FE96E1F
:10054000030E0320EA6E0301B3C3EFFF0401FA2B8D
:10055000020EEF2778D3036A0401FA51EF0FE96E18
:10056000030E0320EA6E0301A6C3EFFF0401FA2B7A
:10057000036AFA51EF0FE96E030E0320EA6E0301DE
:10058000A5C3EFFF0401FA2B020EEF275CD3036A29
:100590000401FA51EF0FE96E030E0320EA6EEF6AD1
:1005A000FA2B036AFA51EF0FE96E030E0320EA6E8D
:1005B000EF6AFA2B020EEF2746D3036A0401FA51C1
:1005C000EF0FE96E030E0320EA6E0301A4C3EFFFF1
:1005D0000401FA2B036AFA51EF0FE96E030E0320B0
:1005E000EA6E0301A3C3EFFF0401FA2B020EEF270B
:1005F0002AD3036A0401FA51EF0FE96E030E0320B8
:10060000EA6EEF6AFA2B036AFA51EF0FE96E030EF6
:100610000320EA6EEF6AFA2B020EEF2714D3036A67
:100620000401FA51EF0FE96E030E0320EA6E030195
:10063000C8C3EFFF0401FA2B036AFA51EF0FE96E0A
:10064000030E0320EA6E0301C7C3EFFF0401FA2B78
:10065000020EEF27F8D2036A0401FA51EF0FE96E98
:10066000030E0320EA6E0301B2C3EFFF0401FA2B6D
:10067000036AFA51EF0FE96E030E0320EA6E0301DD
:10068000B1C3EFFF0401FA2B020EEF27DCD2036A9D
:100690000401FA51EF0FE96E030E0320EA6E030125
:1006A000BEC3EFFF0401FA2B036AFA51EF0FE96EA4
:1006B000030E0320EA6E0301BDC3EFFF0401FA2B12
:1006C000020EEF27C0D2036A0401FA51EF0FE96E60
:1006D000030E0320EA6EEF6AFA2B036AFA51EF0F5A
:1006E000E96E030E0320EA6EEF6AFA2B020EEF2783
:1006F000AAD2036A0401FA51EF0FE96E030E032038
:10070000EA6EEF6AFA2B036AFA51EF0FE96E030EF5
:100710000320EA6EEF6AFA2B020EEF2794D2036AE7
:100720000401FA51EF0FE96E030E0320EA6E030194
:10073000CAC3EFFF0401FA2B036AFA51EF0FE96E07
:10074000030E0320EA6E0301C9C3EFFF0401FA2B75
:10075000020EEF2778D2036A0401FA51EF0FE96E17
:10076000030E0320EA6E0301CEC3EFFF0401FA2B50
:10077000036AFA51EF0FE96E030E0320EA6E0301DC
:10078000CDC3EFFF0401FA2B020EEF275CD2036A00
:100790000401FA51EF0FE96E030E0320EA6E030124
:1007A000AAC3EFFF0401FA2B036AFA51EF0FE96EB7
:1007B000030E0320EA6E0301A9C3EFFF0401FA2B25
:1007C000020EEF2740D2036A0401FA51EF0FE96EDF
:1007D000030E0320EA6E0301B6C3EFFF0401FA2BF8
:1007E000036AFA51EF0FE96E030E0320EA6E03016C
:1007F000B5C3EFFF0401FA2B020EEF2724D2036AE0
:100800000401FA51EF0FE96E030E0320EA6E0301B3
:10081000C0C3EFFF0401FA2B036AFA51EF0FE96E30
:10082000030E0320EA6E0301BFC3EFFF0401FA2B9E
:10083000020EEF2708D2036A0401FA51EF0FE96EA6
:10084000030E0320EA6E0301C2C3EFFF0401FA2B7B
:10085000036AFA51EF0FE96E030E0320EA6E0301FB
:10086000C1C3EFFF0401FA2B020EEF27ECD1036A9C
:100870000401FA51EF0FE96E030E0320EA6E030143
:10088000C4C3EFFF0401FA2B036AFA51EF0FE96EBC
:10089000030E0320EA6E0301C3C3EFFF0401FA2B2A
:1008A000020EEF27D0D1036A0401FA51EF0FE96E6F
:1008B000030E0320EA6E0301DCC3EFFF0401FA2BF1
:1008C000036AFA51EF0FE96E030E0320EA6E03018B
:1008D000DBC3EFFF0401FA2B020EEF27B4D1036A4A
:1008E0000401FA51EF0FE96E030E0320EA6E0301D3
:1008F000DEC3EFFF0401FA2B036AFA51EF0FE96E32
:10090000030E0320EA6E0301DDC3EFFF0401FA2B9F
:10091000020EEF2798D1036A0401FA51EF0FE96E36
:10092000030E0320EA6EF1C4EFFFFA2B036AFA51BB
:10093000EF0FE96E030E0320EA6EF0C4EFFFFA2B0F
:10094000020EEF2780D1036A0401FA51EF0FE96E1E
:10095000030E0320EA6EF3C4EFFFFA2B036AFA5189
:10096000EF0FE96E030E0320EA6EF2C4EFFFFA2BDD
:10097000020EEF2768D1036A0401FA51EF0FE96E06
:10098000030E0320EA6EF5C4EFFFFA2B036AFA5157
:10099000EF0FE96E030E0320EA6EF4C4EFFFFA2BAB
:1009A000020EEF2750D1050EEA6E360EE96E030EE9
:1009B000E26ED10EE16E040E016EE6CFEEFF012E67
:1009C000FCD7036A0401FA51EF0FE96E030E03200E
:1009D000EA6E050136C5EFFF0401FA2B036AFA51EE
:1009E000EF0FE96E030E0320EA6E050137C5EFFF36
:1009F0000401FA2B036AFA51EF0FE96E030E03208C
:100A0000EA6E050138C5EFFF0401FA2B036AFA51BB
:100A1000EF0FE96E030E0320EA6E050139C5EFFF03
:100A20000401FA2B040EEF270ED1050EEA6E360EE6
:100A3000E96E030EE26ED50EE16E040E016EE6CF96
:100A4000EEFF012EFCD7036A0401FA51EF0FE96EA5
:100A5000030E0320EA6E050136C5EFFF0401FA2BF1
:100A6000036AFA51EF0FE96E030E0320EA6E0501E7
:100A700037C5EFFF0401FA2B036AFA51EF0FE96E55
:100A8000030E0320EA6E050138C5EFFF0401FA2BBF
:100A9000036AFA51EF0FE96E030E0320EA6E0501B7
:100AA00039C5EFFF0401FA2B040EEF27CCD0050E59
:100AB000EA6E360EE96E030EE26EAB0EE16E040EC8
:100AC000016EE6CFEEFF012EFCD7036A0401FA5156
:100AD000EF0FE96E030E0320EA6E050136C5EFFF46
:100AE0000401FA2B036AFA51EF0FE96E030E03209B
:100AF000EA6E050137C5EFFF0401FA2B036AFA51CC
:100B0000EF0FE96E030E0320EA6E050138C5EFFF13
:100B10000401FA2B036AFA51EF0FE96E030E03206A
:100B2000EA6E050139C5EFFF0401FA2B040EEF2729
:100B30008AD0036A0401FA51EF0FE96E030E032015
:100B4000EA6EEF6AFA2B036AFA51EF0FE96E030EB1
:100B50000320EA6EEF6AFA2B036AFA51EF0FE96E8F
:100B6000030E0320EA6EEF6AFA2B036AFA51EF0FC5
:100B7000E96E030E0320EA6EEF6AFA2B040EEF27EC
:100B800062D0036A0401FA51EF0FE96E030E0320ED
:100B9000EA6E0301B0C3EFFF0401FA2B036AFA51B6
:100BA000EF0FE96E030E0320EA6E0301AFC3EFFF00
:100BB0000401FA2B020EEF2746D0036A0401FA5112
:100BC000EF0FE96E030E0320EA6E0301BCC3EFFFD3
:100BD0000401FA2B036AFA51EF0FE96E030E0320AA
:100BE000EA6E0301BBC3EFFF0401FA2B020EEF27ED
:100BF0002AD0036A0401FA51EF0FE96E030E0320B5
:100C0000EA6E0301DAC3EFFF0401FA2B036AFA511B
:100C1000EF0FE96E030E0320EA6E0301D9C3EFFF65
:100C20000401FA2B020EEF270ED00301F08F030E02
:100C3000F16F050E0401EF6FF42BD8B4F52BF051D2
:100C4000D8B4F107F0070001CBEF0DF00400050167
:100C50003551000A000151E0010A53E0030A55E052
:100C6000010A57E0070A59E0010A5BE0030A5DE068
:100C7000010A5FE00F0AD8B460D0010AD8B461D08D
:100C8000030AD8B462D0010AD8B463D0070AD8B432
:100C90007BD0010AD8B493D0030AD8B4ABD0010AF0
:100CA000D8B4C3D01F0AD8B4DBD0010AD8B4F3D06B
:100CB000030AD8B40BD1010AD8B40CD1070AD8B4AE
:100CC00024D1010AD8B425D1030AD8B426D1010A07
:100CD000D8B427D10F0AD8B465D1010AD8B4A3D1AA
:100CE000030AD8B4E1D1010AD8B4E2D1070AD8B4D2
:100CF000FAD1010AD8B412D22CD2020E0401FA277A
:100D000036D2020E0401FA2732D2020E0401FA276B
:100D10002ED2020E0401FA272AD2020E0401FA276B
:100D200026D2020E0401FA2722D2020E0401FA276B
:100D30001ED2020E0401FA271AD2020E0401FA276B
:100D400016D2020E0401FA2712D2020E0401FA276B
:100D50000ED2036A0401FA51EF0FE96E030E03206D
:100D6000EA6EEFCF3AF5010EFA25036AEF0FE96E4E
:100D7000030E0320EA6EEFCF3BF53AC5CAF33BC53D
:100D8000C9F3020EFA27F3D1036A0401FA51EF0FF7
:100D9000E96E030E0320EA6EEFCF3AF5010EFA2555
:100DA000036AEF0FE96E030E0320EA6EEFCF3BF507
:100DB0003AC5CEF33BC5CDF3020EFA27D8D1036A6C
:100DC0000401FA51EF0FE96E030E0320EA6EEFCF34
:100DD0003AF5010EFA25036AEF0FE96E030E0320C0
:100DE000EA6EEFCF3BF53AC5AAF33BC5A9F3020E75
:100DF000FA27BDD1036A0401FA51EF0FE96E030E21
:100E00000320EA6EEFCF3AF5010EFA25036AEF0FE1
:100E1000E96E030E0320EA6EEFCF3BF53AC5B6F359
:100E20003BC5B5F3020EFA27A2D1036A0401FA51B9
:100E3000EF0FE96E030E0320EA6EEFCF3AF5010ED5
:100E4000FA25036AEF0FE96E030E0320EA6EEFCF77
:100E50003BF53AC5C0F33BC5BFF3020EFA2787D175
:100E6000036A0401FA51EF0FE96E030E0320EA6EE4
:100E7000EFCF3AF5010EFA25036AEF0FE96E030E84
:100E80000320EA6EEFCF3BF53AC5C2F33BC5C1F391
:100E9000020EFA276CD1036A0401FA51EF0FE96ED2
:100EA000030E0320EA6EEFCF3AF5010EFA25036A2E
:100EB000EF0FE96E030E0320EA6EEFCF3BF53AC564
:100EC000C4F33BC5C3F3020EFA2751D1020E04014D
:100ED000FA274DD1036A0401FA51EF0FE96E030EB0
:100EE0000320EA6EEFCF3AF5010EFA25036AEF0F01
:100EF000E96E030E0320EA6EEFCF3BF53AC5DEF351
:100F00003BC5DDF3020EFA2732D1020E0401FA27A7
:100F10002ED1020E0401FA272AD1020E0401FA276B
:100F200026D1030E0401FA25036AEF0FE96E030EC2
:100F30000320EA6EEFCF3AF5020EFA25036AEF0FAF
:100F4000E96E030E0320EA6EEFCF3BF5010EFA25A2
:100F5000036AEF0FE96E030E0320EA6EEFCF3CF554
:100F6000036AFA51EF0FE96E030E0320EA6EEFCF2A
:100F70003DF53AC539F53BC538F53CC537F53DC5B6
:100F800036F5030EEA6ED10EE96E050EE26E360EF0
:100F9000E16E040E016EE6CFEEFF012EFCD7040ECB
:100FA000FA27E5D0030E0401FA25036AEF0FE96E74
:100FB000030E0320EA6EEFCF3AF5020EFA25036A1C
:100FC000EF0FE96E030E0320EA6EEFCF3BF5010E43
:100FD000FA25036AEF0FE96E030E0320EA6EEFCFE6
:100FE0003CF5036AFA51EF0FE96E030E0320EA6E37
:100FF000EFCF3DF53AC539F53BC538F53CC537F57A
:101000003DC536F5030EEA6ED50EE96E050EE26EAD
:10101000360EE16E040E016EE6CFEEFF012EFCD718
:10102000040EFA27A4D0030E0401FA25036AEF0F79
:10103000E96E030E0320EA6EEFCF3AF5020EFA25B1
:10104000036AEF0FE96E030E0320EA6EEFCF3BF564
:10105000010EFA25036AEF0FE96E030E0320EA6E14
:10106000EFCF3CF5036AFA51EF0FE96E030E032050
:10107000EA6EEFCF3DF53AC539F53BC538F53CC5CD
:1010800037F53DC536F5030EEA6EAB0EE96E050E7B
:10109000E26E360EE16E040E016EE6CFEEFF012E1B
:1010A000FCD7040EFA2763D0040E0401FA275FD0A0
:1010B000036A0401FA51EF0FE96E030E0320EA6E92
:1010C000EFCF3AF5010EFA25036AEF0FE96E030E32
:1010D0000320EA6EEFCF3BF53AC5B0F33BC5AFF363
:1010E000020EFA2744D0036A0401FA51EF0FE96EA9
:1010F000030E0320EA6EEFCF3AF5010EFA25036ADC
:10110000EF0FE96E030E0320EA6EEFCF3BF53AC511
:10111000BCF33BC5BBF3020EFA2729D0036A0401D6
:10112000FA51EF0FE96E030E0320EA6EEFCF3AF5A6
:10113000010EFA25036AEF0FE96E030E0320EA6E33
:10114000EFCF3BF53AC5DAF33BC5D9F3020EFA27E8
:101150000ED00301F08F030EF16F050E0401EF6F47
:10116000F42BD8B4F52BF051D8B4F107F0070001F7
:10117000FDEF0DF0D190C9C339F5A96A39C5A8FFB3
:10118000A69CA69EA684F250006EF29E0F01550EFC
:10119000A76EAA0EA76EA682A6B2FED7A69400508E
:1011A000F212CAC339F5010EA96ECAC3A8FFA69CE4
:1011B000A69EA684F2CF00F0F29E550EA76EAA0E50
:1011C000A76EA682A6B2FED7A6940050F212CDC397
:1011D00039F5020EA96ECDC3A8FFA69CA69EA684D3
:1011E000F2CF00F0F29E550EA76EAA0EA76EA68251
:1011F000A6B2FED7A6940050F212CEC339F5030E64
:10120000A96ECEC3A8FFA69CA69EA684F2CF00F02E
:10121000F29E550EA76EAA0EA76EA682A6B2FED7A4
:10122000A6940050F212A9C339F5040EA96EA9C301
:10123000A8FFA69CA69EA684F2CF00F0F29E550EB3
:10124000A76EAA0EA76EA682A6B2FED7A6940050DD
:10125000F212AAC339F5050EA96EAAC3A8FFA69C6F
:10126000A69EA684F2CF00F0F29E550EA76EAA0E9F
:10127000A76EA682A6B2FED7A6940050F212B5C3FE
:1012800039F5060EA96EB5C3A8FFA69CA69EA68436
:10129000F2CF00F0F29E550EA76EAA0EA76EA682A0
:1012A000A6B2FED7A6940050F212B6C339F5070EC7
:1012B000A96EB6C3A8FFA69CA69EA684F2CF00F096
:1012C000F29E550EA76EAA0EA76EA682A6B2FED7F4
:1012D000A6940050F212BFC339F5080EA96EBFC321
:1012E000A8FFA69CA69EA684F2CF00F0F29E550E03
:1012F000A76EAA0EA76EA682A6B2FED7A69400502D
:10130000F212C0C339F5090EA96EC0C3A8FFA69C8E
:10131000A69EA684F2CF00F0F29E550EA76EAA0EEE
:10132000A76EA682A6B2FED7A6940050F212C3C33F
:1013300039F50A0EA96EC3C3A8FFA69CA69EA68473
:10134000F2CF00F0F29E550EA76EAA0EA76EA682EF
:10135000A6B2FED7A6940050F212C4C339F50B0E04
:10136000A96EC4C3A8FFA69CA69EA684F2CF00F0D7
:10137000F29E550EA76EAA0EA76EA682A6B2FED743
:10138000A6940050F212C1C339F50C0EA96EC1C368
:10139000A8FFA69CA69EA684F2CF00F0F29E550E52
:1013A000A76EAA0EA76EA682A6B2FED7A69400507C
:1013B000F212C2C339F50D0EA96EC2C3A8FFA69CD6
:1013C000A69EA684F2CF00F0F29E550EA76EAA0E3E
:1013D000A76EA682A6B2FED7A6940050F212DBC377
:1013E00039F50E0EA96EDBC3A8FFA69CA69EA684A7
:1013F000F2CF00F0F29E550EA76EAA0EA76EA6823F
:10140000A6B2FED7A6940050F212DCC339F50F0E37
:10141000A96EDCC3A8FFA69CA69EA684F2CF00F00E
:10142000F29E550EA76EAA0EA76EA682A6B2FED792
:10143000A6940050F212DDC339F5100EA96EDDC37B
:10144000A8FFA69CA69EA684F2CF00F0F29E550EA1
:10145000A76EAA0EA76EA682A6B2FED7A6940050CB
:10146000F212DEC339F5110EA96EDEC3A8FFA69CE9
:10147000A69EA684F2CF00F0F29E550EA76EAA0E8D
:10148000A76EA682A6B2FED7A6940050F212AFC3F2
:1014900039F5120EA96EAFC3A8FFA69CA69EA6841E
:1014A000F2CF00F0F29E550EA76EAA0EA76EA6828E
:1014B000A6B2FED7A6940050F212B0C339F5130EAF
:1014C000A96EB0C3A8FFA69CA69EA684F2CF00F08A
:1014D000F29E550EA76EAA0EA76EA682A6B2FED7E2
:1014E000A6940050F212BBC339F5140EA96EBBC30B
:1014F000A8FFA69CA69EA684F2CF00F0F29E550EF1
:10150000A76EAA0EA76EA682A6B2FED7A69400501A
:10151000F212BCC339F5150EA96EBCC3A8FFA69C78
:10152000A69EA684F2CF00F0F29E550EA76EAA0EDC
:10153000A76EA682A6B2FED7A6940050F212D9C317
:1015400039F5160EA96ED9C3A8FFA69CA69EA6843F
:10155000F2CF00F0F29E550EA76EAA0EA76EA682DD
:10156000A6B2FED7A6940050F212DAC339F5170ED0
:10157000A96EDAC3A8FFA69CA69EA684F2CF00F0AF
:10158000F29E550EA76EAA0EA76EA682A6B2FED731
:10159000A6940050F212050EEA6E350EE96E030EA7
:1015A000E26ED10EE16E040E016EE6CFEEFF012E6B
:1015B000FCD738C539F51A0EA96E38C5A8FFA69C08
:1015C000A69EA684F2CF00F0F29E550EA76EAA0E3C
:1015D000A76EA682A6B2FED7A6940050F21237C517
:1015E00039F51B0EA96E37C5A8FFA69CA69EA6843A
:1015F000F2CF00F0F29E550EA76EAA0EA76EA6823D
:10160000A6B2FED7A6940050F21236C539F5180ED0
:10161000A96E36C5A8FFA69CA69EA684F2CF00F0B0
:10162000F29E550EA76EAA0EA76EA682A6B2FED790
:10163000A6940050F21235C539F5190EA96E35C5BC
:10164000A8FFA69CA69EA684F2CF00F0F29E550E9F
:10165000A76EAA0EA76EA682A6B2FED7A6940050C9
:10166000F212050EEA6E350EE96E030EE26ED50E2D
:10167000E16E040E016EE6CFEEFF012EFCD738C5F9
:1016800039F51E0EA96E38C5A8FFA69CA69EA68495
:10169000F2CF00F0F29E550EA76EAA0EA76EA6829C
:1016A000A6B2FED7A6940050F21237C539F51F0E28
:1016B000A96E37C5A8FFA69CA69EA684F2CF00F00F
:1016C000F29E550EA76EAA0EA76EA682A6B2FED7F0
:1016D000A6940050F21236C539F51C0EA96E36C517
:1016E000A8FFA69CA69EA684F2CF00F0F29E550EFF
:1016F000A76EAA0EA76EA682A6B2FED7A694005029
:10170000F21235C539F51D0EA96E35C5A8FFA69C88
:10171000A69EA684F2CF00F0F29E550EA76EAA0EEA
:10172000A76EA682A6B2FED7A6940050F212050EAE
:10173000EA6E350EE96E030EE26ED10EE16E040E16
:10174000016EE6CFEEFF012EFCD738C539F5220E2B
:10175000A96E38C5A8FFA69CA69EA684F2CF00F06D
:10176000F29E550EA76EAA0EA76EA682A6B2FED74F
:10177000A6940050F21237C539F5230EA96E37C56D
:10178000A8FFA69CA69EA684F2CF00F0F29E550E5E
:10179000A76EAA0EA76EA682A6B2FED7A694005088
:1017A000F21236C539F5200EA96E36C5A8FFA69CE3
:1017B000A69EA684F2CF00F0F29E550EA76EAA0E4A
:1017C000A76EA682A6B2FED7A6940050F21235C527
:1017D00039F5210EA96E35C5A8FFA69CA69EA68444
:1017E000F2CF00F0F29E550EA76EAA0EA76EA6824B
:1017F000A6B2FED7A6940050F212050EEA6E350E80
:10180000E96E030EE26ED10EE16E040E016EE6CFBC
:10181000EEFF012EFCD738C539F5260EA96E38C566
:10182000A8FFA69CA69EA684F2CF00F0F29E550EBD
:10183000A76EAA0EA76EA682A6B2FED7A6940050E7
:10184000F21237C539F5270EA96E37C5A8FFA69C39
:10185000A69EA684F2CF00F0F29E550EA76EAA0EA9
:10186000A76EA682A6B2FED7A6940050F21236C585
:1018700039F5240EA96E36C5A8FFA69CA69EA6849F
:10188000F2CF00F0F29E550EA76EAA0EA76EA682AA
:10189000A6B2FED7A6940050F21235C539F5250E32
:1018A000A96E35C5A8FFA69CA69EA684F2CF00F01F
:1018B000F29E550EA76EAA0EA76EA682A6B2FED7FE
:1018C000A6940050F212D180000119EF0EF0050E1F
:1018D000EA6E350EE96EEF5011E00A0E016EBF0E92
:1018E000006E0400002EFDD7012EF9D75E0E006EAB
:1018F000002EFED700D00400EF2EEFD7D0EF0EF071
:10190000929C898C9EA8FED7050136C5ADFF0000CC
:10191000929C898CACA2FED7929C899C00015AEFC4
:101920000FF09D9A94908B800401EF51030801E31E
:10193000C8D20301DD51EF5D04E0EF5302E0040182
:10194000C0D2020E0401EF5D0501356F030E376F43
:10195000EF0E366F35C538F50001E9EC01F002C035
:10196000F9F401C0F8F4020E0401EF5D036AEF0F11
:10197000E96E030E0320EA6EEFCF35F5010EEF5D41
:10198000036AEF0FE96E030E0320EA6EEFCF36F520
:1019900035C5F7F436C5F6F4F651F85D03E1F751B5
:1019A000F95D04E0F22BD8B4F32B8BD20301F05194
:1019B000420A000113E0010AD8B471D0070AD8B472
:1019C000CED0010AD8B4F9D0200AD8B42BD10F0A4E
:1019D000D8B441D1010AD8B4F4D123D20401EF51D3
:1019E000050852E10301F151000A000105E0010A76
:1019F0000EE0030A3BE03DD00301C591010EEE6FFE
:101A0000040E0401EF6FF02BD8B4F12B3CD003018E
:101A1000C581010EEE6F0501326B316B325103014E
:101A2000C45D1DE308E1C3510501315DD8A002D0BA
:101A3000030115D00301D89005013135026E32350E
:101A4000036E0250A30FE96E020E0320EA6EEC6AE9
:101A5000ED52EF6A312BD8B4322BE0D70301040EDC
:101A60000401EF6FF02BD8B4F12B0DD0FF0004016F
:101A70000AD00301F08F030EF16F0401F42BD8B4E8
:101A8000F52B050EEF6F0AD00301F08F020EF16FF8
:101A9000050E0401EF6FF42BD8B4F52BCCD1040163
:101AA000EF51070851E10301F251000A000103E080
:101AB000010A20E03ED00501346B020E336F326B19
:101AC000316B325100080FE3EF0E3325E96E030E40
:101AD0003421EA6EEF6A332BD8B4342B020E31274F
:101AE000000E3223EED7840E0401EF6FF02BD8B432
:101AF000F12B29D00501346B020E336F326B316B41
:101B0000325100080FE3EF0E3325E96E030E342146
:101B1000EA6EEF6A332BD8B4342B020E3127000E55
:101B20003223EED7840E0401EF6FF02BD8B4F12BE3
:101B30000AD00301F08F030EF16F0401F42BD8B427
:101B4000F52B050EEF6F0AD00301F08F020EF16F37
:101B5000050E0401EF6FF42BD8B4F52B6CD1040102
:101B6000EF5107081DE1040EEF6FF02BD8B4F12BF5
:101B7000020EFA6FF2C32EF50301F351F2250501AF
:101B80002F6F2EC530F52F51305D08E230C535F589
:101B9000000115EF02F00501302BF5D70CD0040140
:101BA0000301F08F020EF16F050E0401EF6FF42BAD
:101BB000D8B4F52B050104013ED10401EF5107080B
:101BC00026E2EFB124D0040EFA6FF2C32EF5020E16
:101BD000EF5D05012F6F040E0401EF6FF02BD8B4F9
:101BE000F12B2EC530F505012F510401FA5D09E2F4
:101BF00030C535F5000126EF06F00501302BF4D78E
:101C00000401040EEF6FF02BD8B4F12B0AD00301BE
:101C1000F08F020EF16F050E0401EF6FF42BD8B4B4
:101C2000F52B09D10401EF5104080AE10001BAEFD4
:101C300008F0040E0401EF6FF02BD8B4F12B0AD09A
:101C40000301F08F020EF16F050E0401EF6FF42B0C
:101C5000D8B4F52BF0D00401EF510508D8A4A4D0D6
:101C6000040EEF6FF02BD8B4F12B0301F151000AF1
:101C700000010FE0010A1CE0030A29E0010A36E036
:101C8000070A43E0010A50E0030A5DE0010A68E048
:101C900075D0040E0301DC6FB00EDB6FB8860A0E40
:101CA000AF6E1A0EB06EA60EAC6E0000000071D0C2
:101CB000070E0301DC6F080EDB6FB8865B0EAF6E9C
:101CC000110EB06EA60EAC6E0000000062D0090EC0
:101CD0000301DC6F600EDB6FB886040EAF6E0D0E75
:101CE000B06EA60EAC6E0000000053D0120E0301C1
:101CF000DC6FC00EDB6FB886820EAF6E060EB06E64
:101D0000A60EAC6E0000000044D01C0E0301DC6F78
:101D1000200EDB6FB886560EAF6E040EB06EA60EA8
:101D2000AC6E0000000035D0250E0301DC6F800E84
:101D3000DB6FB886400EAF6E030EB06EA60EAC6EB3
:101D40000000000026D0380E0301DC6F400EDB6F70
:101D5000B8968A0EAF6EA60EAC6E0000000019D0C9
:101D60004B0E0301DC6FDB6BB886A00EAF6E010E6D
:101D7000B06EA60EAC6E000000000BD00301F08F19
:101D8000030EF16F050E0401EF6FF42BD8B4F52BA1
:101D9000030194908B70640E0501356F000197D597
:101DA00094908B700CD004010301F08F020EF16F40
:101DB000050E0401EF6FF42BD8B4F52B00010401DC
:101DC0003AD00401EF51040821E14D0E0301F16FF7
:101DD000570EF26F540EF36F2D0EF46F530EF56F16
:101DE000500EF66F4D0EF76F330EF86F760EF96FDB
:101DF000310EFA6F2E0EFB6F300EFC6FFD6F100E62
:101E00000401EF6FF02BD8B4F12B0AD00301F08F4F
:101E1000020EF16F050E0401EF6FF42BD8B4F52B11
:101E20000AD00301F08F010EF16F050E0401EF6F70
:101E3000F42BD8B4F52B0301EF5344E0020E040158
:101E4000EF5D0501356F030E376FEF0E366F35C549
:101E500038F50001E9EC01F002C0F9F401C0F8F432
:101E6000020E0401EF5D036AEF0FE96E030E03201B
:101E7000EA6EF9C4EFFF010EEF5D036AEF0FE96E42
:101E8000030E0320EA6EF8C4EFFF0501306B040176
:101E9000EF510501305D13E20400036A3051EF0F8A
:101EA000E96E030E0320EA6EEFCF35F535C536F542
:101EB000000126D594908B900501302BE8D70401C2
:101EC00000D0030194908B800401EF6B9E909D9055
:101ED0009D8A9E90000136EF00F0700ED36EC00E0A
:101EE0009B6ED3509698D190070EB46E9250926E1E
:101EF00004001A0E006E002EFED7B450A19CB56AE5
:101F0000C150C00B1909C16EC050C00B0D09C06E85
:101F1000C08EC2803F0E926EF80E946E000E956ECB
:101F2000929E898E94928B8294948B8495908C80CF
:101F300095928C82959A8C8A95988C8894908B80B7
:101F4000800ED56EB50ECD6E000ECA6E000ECB6E35
:101F5000850EB16E929C899CC69A949A94889496A8
:101F6000300EC66E400EC76E9D8AC00EF21203017F
:101F7000EE6B000117EF1CF0F2CF1DF5F29E010E83
:101F8000A96EA69CA69EA680A85005011DBFF28E34
:101F90001E6FF2CF1FF5F29EA96AA69CA69EA68090
:101FA000A8501FBFF28E206F1EC5CAF320C5C9F30B
:101FB000F2CF1DF5F29E030EA96EA69CA69EA680EA
:101FC000A8501DBFF28E1E6FF2CF1FF5F29E020EBB
:101FD000A96EA69CA69EA680A8501FBFF28E206F59
:101FE0001EC5CEF320C5CDF3F2CF1DF5F29E050E32
:101FF000A96EA69CA69EA680A8501DBFF28E1E6F3D
:10200000F2CF1FF5F29E040EA96EA69CA69EA68096
:10201000A8501FBFF28E206F1EC5AAF320C5A9F3DA
:10202000F2CF1DF5F29E070EA96EA69CA69EA68075
:10203000A8501DBFF28E1E6FF2CF1FF5F29E060E46
:10204000A96EA69CA69EA680A8501FBFF28E206FE8
:102050001EC5B6F320C5B5F3F2CF1DF5F29E090EED
:10206000A96EA69CA69EA680A8501DBFF28E1E6FCC
:10207000F2CF1FF5F29E080EA96EA69CA69EA68022
:10208000A8501FBFF28E206F1EC5C0F320C5BFF33E
:10209000F2CF1DF5F29E0B0EA96EA69CA69EA68001
:1020A000A8501DBFF28E1E6FF2CF1FF5F29E0A0ED2
:1020B000A96EA69CA69EA680A8501FBFF28E206F78
:1020C0001EC5C4F320C5C3F3F2CF1DF5F29E0D0E5D
:1020D000A96EA69CA69EA680A8501DBFF28E1E6F5C
:1020E000F2CF1FF5F29E0C0EA96EA69CA69EA680AE
:1020F000A8501FBFF28E206F1EC5C2F320C5C1F3CA
:10210000F2CF1DF5F29E0F0EA96EA69CA69EA6808C
:10211000A8501DBFF28E1E6FF2CF1FF5F29E0E0E5D
:10212000A96EA69CA69EA680A8501FBFF28E206F07
:102130001EC5DCF320C5DBF3F2CF1DF5F29E110EB8
:10214000A96EA69CA69EA680A8501DBFF28E1E6FEB
:10215000F2CF1FF5F29E100EA96EA69CA69EA68039
:10216000A8501FBFF28E206F1EC5DEF320C5DDF321
:10217000F2CF1DF5F29E130EA96EA69CA69EA68018
:10218000A8501DBFF28E1E6FF2CF1FF5F29E120EE9
:10219000A96EA69CA69EA680A8501FBFF28E206F97
:1021A0001EC5B0F320C5AFF3F2CF1DF5F29E150E9C
:1021B000A96EA69CA69EA680A8501DBFF28E1E6F7B
:1021C000F2CF1FF5F29E140EA96EA69CA69EA680C5
:1021D000A8501FBFF28E206F1EC5BCF320C5BBF3F5
:1021E000F2CF1DF5F29E170EA96EA69CA69EA680A4
:1021F000A8501DBFF28E1E6FF2CF1FF5F29E160E75
:10220000A96EA69CA69EA680A8501FBFF28E206F26
:102210001EC5DAF320C5D9F3F2CF1DF5F29E1A0ED2
:10222000A96EA69CA69EA680A8501DBFF28E1E6F0A
:10223000F2CF1FF5F29E1B0EA96EA69CA69EA6804D
:10224000A8501FBFF28E206FF2CF21F5F29E180E1C
:10225000A96EA69CA69EA680A85021BFF28E226FD2
:10226000F2CF23F5F29E190EA96EA69CA69EA6801B
:10227000A85023BFF28E246F1EC51CF520C51BF588
:1022800022C51AF524C519F5030EEA6ED10EE96EC2
:10229000050EE26E190EE16E040E016EE6CFEEFF42
:1022A000012EFCD7F2CF1DF5F29E1E0EA96EA69C44
:1022B000A69EA680A8501DBFF28E1E6FF2CF1FF5FE
:1022C000F29E1F0EA96EA69CA69EA680A8501FBFB8
:1022D000F28E206FF2CF21F5F29E1C0EA96EA69C05
:1022E000A69EA680A85021BFF28E226FF2CF23F5C2
:1022F000F29E1D0EA96EA69CA69EA680A85023BF86
:10230000F28E246F1EC51CF520C51BF522C51AF5DB
:1023100024C519F5030EEA6ED50EE96E050EE26EC0
:10232000190EE16E040E016EE6CFEEFF012EFCD712
:10233000F2CF1DF5F29E220EA96EA69CA69EA68047
:10234000A8501DBFF28E1E6FF2CF1FF5F29E230E16
:10235000A96EA69CA69EA680A8501FBFF28E206FD5
:10236000F2CF21F5F29E200EA96EA69CA69EA68015
:10237000A85021BFF28E226FF2CF23F5F29E210EDC
:10238000A96EA69CA69EA680A85023BFF28E246F9D
:102390001EC51CF520C51BF522C51AF524C519F567
:1023A000030EEA6EAB0EE96E050EE26E190EE16EDB
:1023B000040E016EE6CFEEFF012EFCD7F2CF1DF525
:1023C000F29E260EA96EA69CA69EA680A8501DBFB2
:1023D000F28E1E6FF2CF1FF5F29E270EA96EA69CFD
:1023E000A69EA680A8501FBFF28E206FF2CF21F5C7
:1023F000F29E240EA96EA69CA69EA680A85021BF80
:10240000F28E226FF2CF23F5F29E250EA96EA69CC6
:10241000A69EA680A85023BFF28E246F1EC51CF571
:1024200020C51BF522C51AF524C519F5030EEA6E61
:10243000B70EE96E050EE26E190EE16E040E016E26
:10244000E6CFEEFF012EFCD7000119EF1CF00401CE
:10245000EF6B0301DB51006EDC51036E040E035C75
:1024600005E1B00E005C000139E00301070E035CDA
:1024700005E1080E005C00013BE00301090E035C6E
:1024800005E1600E005C00013DE00301120E035CFB
:1024900005E1C00E005C00013FE003011C0E035C7F
:1024A00005E1200E005C000141E00301250E035C04
:1024B00005E1800E005C000143E00301380E035C7F
:1024C00005E1400E005C000145E003014B0E035C9A
:1024D00004E10052000146E003014FD0B8860A0E25
:1024E000AF6E1A0EB06EA60EAC6E000000004ED09D
:1024F000B8865B0EAF6E110EB06EA60EAC6E00000D
:10250000000044D0B886040EAF6E0D0EB06EA60E5D
:10251000AC6E000000003AD0B886820EAF6E060E98
:10252000B06EA60EAC6E0000000030D0B886560E1D
:10253000AF6E040EB06EA60EAC6E0000000026D08A
:10254000B886400EAF6E030EB06EA60EAC6E0000E5
:1025500000001CD0B8968A0EAF6EA60EAC6E0000BE
:10256000000014D0B886A00EAF6E010EB06EA60E9D
:10257000AC6E000000000AD00301B886400EAF6EBA
:10258000030EB06EA60EAC6E0000000000011BEF43
:102590001CF08E0E006E1EC501F01DC502F0036A10
:1025A00001AE05D0011E021E022A01E1012A0152DC
:1025B00009E102C001F0026A080E005E015202E168
:1025C000006A0DD0D89001BE04D002360136000654
:1025D000F9D705011EAF02D0000101D0019E000114
:1025E000000C05011E51D8B471D0006E2251D8B430
:1025F0006DD0002604E3810E002668E204D07F0E31
:10260000005E64E363E01FC526F52351261B1F8F80
:10261000238F21512503F4CF28F520512403F4CF33
:1026200003F0F3CF27F52503F3502827F450272391
:10263000000E032221512403F3502827F4502723AE
:10264000000E026A032202221F512503F35027279E
:10265000F4500322000E02221F512403F3500326DC
:10266000F4500222000E016A012221512303F3508B
:102670002727F4500322000E0222012220512303B7
:10268000F3500326F4500222000E01221F512303AF
:10269000F3500226F4500122002A01BE05D027374C
:1026A0000336023601360006000E27AF0AD0032A91
:1026B00002220122015005E1025003E1035001E131
:1026C000002A26BF018E26AF019E04D0006A016A4F
:1026D000026A036A0001000C8E0E006E05011B5198
:1026E000005E1CC502F01DC501F0028E005209E01B
:1026F000D890025202E1015204E002320132002E6F
:10270000F7D71CAF05D0011E021E012AD8B4022A39
:102710000001000C080E016EC250C30B0110C26E06
:1027200004001A0E006E002EFED7C282C2B2FED77F
:10273000C4CF1AF50501C3CF19F5CD0E195D1B6F76
:10274000000E1A591C6F1E6F1BC51DF5000121DFFD
:1027500003C021F502C020F501C01FF500C01EF521
:10276000DF0E0501256F4F0E246F430E236F830E7E
:10277000226F000136DF03C01EF502C01DF501C047
:102780001CF500C01BF5A8DF02C0C8F301C0C7F3E9
:10279000140E016EC250C30B0110C26E04001A0E5B
:1027A000006E002EFED7C282C2B2FED7C4CF1AF589
:1027B0000501C3CF19F5CD0E195D1B6F000E1A5917
:1027C0001C6F1E6F1BC51DF50001E3DE03C021F564
:1027D00002C020F501C01FF500C01EF5DF0E050187
:1027E000256F4F0E246F430E236F830E226F00015F
:1027F000F8DE03C01EF502C01DF501C01CF500C0C7
:102800001BF56ADF02C0B2F301C0B1F3100E016E16
:10281000C250C30B0110C26E04001A0E006E002ECF
:10282000FED7C282C2B2FED7C4CF1AF50501C3CF0C
:1028300019F5CD0E195D1B6F000E1A591C6F1E6F16
:102840001BC51DF50001A5DE03C021F502C020F562
:1028500001C01FF500C01EF5DF0E0501256F4F0EEC
:10286000246F430E236F830E226F0001BADE03C074
:102870001EF502C01DF501C01CF500C01BF52CDFC4
:1028800002C0BEF301C0BDF3000CD1900501195385
:1028900002E11A5302E0000E01D0010E1D6F1A531F
:1028A00005E11951060802E3000E01D0010E1D15C5
:1028B00003E01A6B010E196F1F0E1E6FFF0E1D6FC6
:1028C0001951006E05E0D8901E331D33002EFBD742
:1028D0001D511B6F1E5170091C6F959A8C9A1CC557
:1028E0001DF5C9501CC5C9FFC730FEE31BC51DF54A
:1028F000C9501BC5C9FFC730FEE3959A8C8AD180A9
:1029000000013DEF1CF0D1900501195302E11A536B
:1029100002E0000E01D0010E1D6F1A5305E119519E
:10292000060802E3000E01D0010E1D1503E01A6B2C
:10293000010E196F1F0E1E6FFF0E1D6F1951006ED5
:1029400005E0D8901E331D33002EFBD71D511B6FA1
:102950001E5170091C6F95988C981CC51DF5C950A7
:102960001CC5C9FFC730FEE31BC51DF5C9501BC5FB
:10297000C9FFC730FEE395988C88D180000143EFF2
:102980001CF08E0E006E1FC501F01EC502F0036A1A
:10299000015209E102C001F0026A080E005E015214
:1029A00002E1006A08D0D89001BE04D00236013698
:1029B0000006F9D7019E000C05011E51D8B4A5D020
:1029C0002A6F2251D8B4A1D02A5F05E37F0E2A27AF
:1029D000D8B09BD006D0810E2A5FD8A096D0D8B4AC
:1029E00094D02AC500F0016A026A036A296B1FC5E8
:1029F00028F5288F20C527F521C526F5190E2A6F41
:102A00002551265F0DE2010E275F0AE2285F08E2EA
:102A1000295F06E2292B282B272B2551262728D092
:102A20002451275F12E2010E285F0FE2295F0DE2B9
:102A3000292B282B245127272551262719E3272B1B
:102A400017E1282B15E1292B13D023518009285F8A
:102A50000EE2010E295F0BE2292B23518009282762
:102A600024512727E9E3282BE7E1292BE5D7038029
:102A70002A2F01D00BD0D89026372737283729376F
:102A8000D8900336023601362B37BAD72BA106D0A1
:102A9000D8900132023203322B3302D0000635E0E7
:102AA0002BBF1ED0D89026372737283729372551F6
:102AB000265F07E2010E275F04E2285F02E2295F3A
:102AC0001AE32451275F05E2010E285F02E2295F25
:102AD00012E323518009285F03E2010E295F0BE313
:102AE000032A09E1022A07E1012A05E1002A0DE093
:102AF0000132023203321FC52AF523512A1B2AAFA5
:102B000002D0018E06D0019E04D0006A016A026ADA
:102B1000036A0001000C95928C9205011A510F0B6B
:102B200010091B6FC9501BC5C9FFC730FEE319C58B
:102B30001BF5C95019C5C9FFC730FEE395928C82B9
:102B4000929E899E929E898E0001000CB60E006EA8
:102B5000036A026A016A05011A511B111C111D1139
:102B600002E1006A0DD0D89001BE09D01A371B3798
:102B70001C371D37033602360136002EF4D7019E6E
:102B80000001000C800ED8A202D00501231B050114
:102B9000286B296B1FC527F52351271B1E51D8B45D
:102BA000DFD0266F006E2251D8B4E3D0265FD8B4B0
:102BB00083D03EE323C52CF52C8F24C52BF525C5EA
:102BC0002AF5296BD8902C332B332A332933262F1F
:102BD000F8D727AF03D02881E0D028912691288903
:102BE000050EEA6E210EE96EEBD0289927BF0AD0B8
:102BF00026A113D02C332B332A332933002AD8B4FF
:102C0000C7D00BD02CBF0CD0D89029372A372B3700
:102C10002C370006D8B4BCD0F5D7288D6DD0289DB0
:102C20001FC527F51FAF02D02C8FABD02C9FA9D08A
:102C300022C526F522C500F01E51265F1FC52CF5C2
:102C40002C8F20C52BF521C52AF5296BD8902C3364
:102C50002B332A332933262FF8D727AF03D02883E5
:102C60009CD028932691288B050EEA6E250EE96EDE
:102C7000A7D0289B27BF0AD026A113D02C332B33F3
:102C80002A332933002AD8B483D00BD02CBF0CD0E0
:102C9000D89029372A372B372C370006D8B478D06C
:102CA000F5D7288F29D0289F23C527F523AF02D039
:102CB0002C8F67D02C9F65D023C52CF52C8F24C575
:102CC0002BF525C52AF527AF04D02C9F288565D084
:102CD0002895296B2691050EEA6E210EE96E70D0BB
:102CE00027BF1CD01FC527F526A106D02C332B33B8
:102CF0002A332933002A4CE029AF0BD02A2B09E1D3
:102D00002B2B07E12C2B05E12C332B332A33002A04
:102D10003FE028BD84D728BFC6D71CD0800E2C1B0F
:102D20002CAF04D03AD023C527F50AD01FC527F50C
:102D30002C5306E12B5304E12A5302E1006A21D00F
:102D40002CBF08D0D89029372A372B372C37002EA4
:102D5000F7D71ED027AF02D02C8F13D02C9F11D0C5
:102D600022C500F023C52CF524C52BF525C52AF571
:102D700008D01EC500F01FC52CF520C52BF521C5B8
:102D80002AF52CC501F02BC502F02AC503F034D07A
:102D9000006A016A026A036A2FD0296B2A1F2B1F5F
:102DA0002C1F291F292B05E12A2B03E12B2B01E1E5
:102DB0002C2B28B112D728B354D728B589D7B3D72D
:102DC000EF502A2705E32B2B03E12C2BD8B42681C7
:102DD000ED52EF502B2703E32C2BD8B42681ED5274
:102DE000EF50EFBE01D0800A2C27D8B0268128B939
:102DF000FCD628BB3ED774D7000128EF1FF0F86A35
:102E0000D09E078EEA6AE96A700ED36E400E9B6E02
:102E1000D3500301C66BED6B320EEC6F0401EF6B08
:102E2000929C899CB886400EAF6E030EB06EA60EC3
:102E3000AC6E900EAB6E00000000C150C00B0F09CD
:102E4000C16E070EB46E196A1A6A1B6A1C6A1D6A83
:102E50001E6A1F6A206A216A226A236A246A256A16
:102E6000266A276A286A296A2A6A2B6A2C6A2D6AC6
:102E70002E6A2F6A306A316A326A336A346A356A76
:102E8000366A376A386A396A3A6A3B6A3C6A3D6A26
:102E90003E6A3F6A406A416A426A436A446A456AD6
:102EA000466A476A486A496A4A6A4B6A4C6A4D6A86
:102EB0004E6A4F6A506A516A526A536A546A556A36
:102EC000566A576A586A596A5A6A5B6A5C6A5D6AE6
:102ED0005E6A5F6A606A616A626A636A646A656A96
:102EE000666A676A686A696A6A6A6B6A6C6A6D6A46
:102EF0006E6A6F6A706A716A726A736A746A756AF6
:102F0000766A776A786A796A7A6A7B6A7C6A7D6AA5
:102F10007E6A7F6A0001806B816B826B836B846B3E
:102F2000856B866B876B886B896B8A6B8B6B8C6B05
:102F30008D6B8E6B8F6B906B916B926B936B946BB5
:102F4000956B966B976B986B996B9A6B9B6B9C6B65
:102F50009D6B9E6B9F6BA06BA16BA26BA36BA46B15
:102F6000A56BA66BA76BA86BA96BAA6BAB6BAC6BC5
:102F7000AD6BAE6BAF6BB06BB16BB26BB36BB46B75
:102F8000B56BB66BB76BB86BB96BBA6BBB6BBC6B25
:102F9000BD6BBE6BBF6BC06BC16BC26BC36BC46BD5
:102FA000C56BC66BC76BC86BC96BCA6BCB6BCC6B85
:102FB000CD6BCE6BCF6BD06BD16BD26BD36BD46B35
:102FC000D56BD66BD76BD86BD96BDA6BDB6BDC6BE5
:102FD000DD6BDE6BDF6BE06BE16BE26BE36BE46B95
:102FE000E56BE66BE76BE86BE96BEA6BEB6BEC6B45
:102FF000ED6BEE6BEF6BF06BF16BF26BF36BF46BF5
:10300000F56BF66BF76BF86BF96BFA6BFB6BFC6BA4
:10301000FD6BFE6BFF6B0101006B016B026B036BC1
:10302000046B056B066B076B086B096B0A6B0B6B0C
:103030000C6B0D6B0E6B0F6B106B116B126B136BBC
:10304000146B156B166B176B186B196B1A6B1B6B6C
:103050001C6B1D6B1E6B1F6B206B216B226B236B1C
:10306000246B256B266B276B286B296B2A6B2B6BCC
:103070002C6B2D6B2E6B2F6B306B316B326B336B7C
:10308000346B356B366B376B386B396B3A6B3B6B2C
:103090003C6B3D6B3E6B3F6B406B416B426B436BDC
:1030A000446B456B466B476B486B496B4A6B4B6B8C
:1030B0004C6B4D6B4E6B4F6B506B516B526B536B3C
:1030C000546B556B566B576B586B596B5A6B5B6BEC
:1030D0005C6B5D6B5E6B5F6B606B616B626B636B9C
:1030E000646B656B666B676B686B696B6A6B6B6B4C
:1030F0006C6B6D6B6E6B6F6B706B716B726B736BFC
:10310000746B756B766B776B786B796B7A6B7B6BAB
:103110007C6B7D6B7E6B7F6B806B816B826B836B5B
:10312000846B856B866B876B886B896B8A6B8B6B0B
:103130008C6B8D6B8E6B8F6B906B916B926B936BBB
:10314000946B956B966B976B986B996B9A6B9B6B6B
:103150009C6B9D6B9E6B9F6BA06BA16BA26BA36B1B
:10316000A46BA56BA66BA76BA86BA96BAA6BAB6BCB
:10317000AC6BAD6BAE6BAF6BB06BB16BB26BB36B7B
:10318000B46BB56BB66BB76BB86BB96BBA6BBB6B2B
:10319000BC6BBD6BBE6BBF6BC06BC16BC26BC36BDB
:1031A000C46BC56BC66BC76BC86BC96BCA6BCB6B8B
:1031B000CC6BCD6BCE6BCF6BD06BD16BD26BD36B3B
:1031C000D46BD56BD66BD76BD86BD96BDA6BDB6BEB
:1031D000DC6BDD6BDE6BDF6BE06BE16BE26BE36B9B
:1031E000E46BE56BE66BE76BE86BE96BEA6BEB6B4B
:1031F000EC6BED6BEE6BEF6BF06BF16BF26BF36BFB
:10320000F46BF56BF66BF76BF86BF96BFA6BFB6BAA
:10321000FC6BFD6BFE6BFF6B0201006B016B026BC5
:10322000036B046B056B066B076B086B096B0A6B12
:103230000B6B0C6B0D6B0E6B0F6B106B116B126BC2
:10324000136B146B156B166B176B186B196B1A6B72
:103250001B6B1C6B1D6B1E6B1F6B206B216B226B22
:10326000236B246B256B266B276B286B296B2A6BD2
:103270002B6B2C6B2D6B2E6B2F6B306B316B326B82
:10328000336B346B356B366B376B386B396B3A6B32
:103290003B6B3C6B3D6B3E6B3F6B406B416B426BE2
:1032A000436B446B456B466B476B486B496B4A6B92
:1032B0004B6B4C6B4D6B4E6B4F6B506B516B526B42
:1032C000536B546B556B566B576B586B596B5A6BF2
:1032D0005B6B5C6B5D6B5E6B5F6B606B616B626BA2
:1032E000636B646B656B666B676B686B696B6A6B52
:1032F0006B6B6C6B6D6B6E6B6F6B706B716B726B02
:10330000736B746B756B766B776B786B796B7A6BB1
:103310007B6B7C6B7D6B7E6B7F6B806B816B826B61
:10332000836B846B856B866B876B886B896B8A6B11
:103330008B6B8C6B8D6B8E6B8F6B906B916B926BC1
:10334000936B946B956B966B976B986B996B9A6B71
:103350009B6B9C6B9D6B9E6B9F6BA06BA16BA26B21
:10336000A36BA46BA56BA66BA76BA86BA96BAA6BD1
:10337000AB6BAC6BAD6BAE6BAF6BB06BB16BB26B81
:10338000B36BB46BB56BB66BB76BB86BB96BBA6B31
:10339000BB6BBC6BBD6BBE6BBF6BC06BC16BC26BE1
:1033A000C36BC46BC56BC66BC76BC86BC96BCA6B91
:1033B000CB6BCC6BCD6BCE6BCF6BD06BD16BD26B41
:1033C000D36BD46BD56BD66BD76BD86BD96BDA6BF1
:1033D000DB6BDC6BDD6BDE6BDF6BE06BE16BE26BA1
:1033E000E36BE46BE56BE66BE76BE86BE96BEA6B51
:1033F000EB6BEC6BED6BEE6BEF6BF06BF16BF26B01
:10340000F36BF46BF56BF66BF76BF86BF96BFA6BB0
:10341000FB6BFC6BFD6BFE6BFF6B0301006B016BC9
:10342000026B036B046B056B066B076B086B096B18
:103430000A6B0B6B0C6B0D6B0E6B0F6B106B116BC8
:10344000126B136B146B156B166B176B186B196B78
:103450001A6B1B6B1C6B1D6B1E6B1F6B206B216B28
:10346000226B236B246B256B266B276B286B296BD8
:103470002A6B2B6B2C6B2D6B2E6B2F6B306B316B88
:10348000326B336B346B356B366B376B386B396B38
:103490003A6B3B6B3C6B3D6B3E6B3F6B406B416BE8
:1034A000426B436B446B456B466B476B486B496B98
:1034B0004A6B4B6B4C6B4D6B4E6B4F6B506B516B48
:1034C000526B536B546B556B566B576B586B596BF8
:1034D0005A6B5B6B5C6B5D6B5E6B5F6B606B616BA8
:1034E000626B636B646B656B666B676B686B696B58
:1034F0006A6B6B6B6C6B6D6B6E6B6F6B706B716B08
:10350000726B736B746B756B766B776B786B796BB7
:103510007A6B7B6B7C6B7D6B7E6B7F6B806B816B67
:10352000826B836B846B856B866B876B886B896B17
:103530008A6B8B6B8C6B8D6B8E6B8F6B906B916BC7
:10354000926B936B946B956B966B976B986B996B77
:103550009A6B9B6B9C6B9D6B9E6B9F6BA06BA16B27
:10356000A26BA36BA46BA56BA66BA76BA86BA96BD7
:10357000AA6BAB6BAC6BAD6BAE6BAF6BB06BB16B87
:10358000B26BB36BB46BB56BB66BB76BB86BB96B37
:10359000BA6BBB6BBC6BBD6BBE6BBF6BC06BC16BE7
:1035A000C26BC36BC46BC591C76BC86BC96BCA6B6D
:1035B000CB6BCC6BCD6BCE6BCF6BD06BD16BD26B3F
:1035C000D36BD46BD56BD66BD76BD86BD96BDA6BEF
:1035D000DB6BDC6BDD6BDE6BDF6BE06BE16BE26B9F
:1035E000E36BE46BE56BE66BE76BE86BE96BEA6B4F
:1035F000EB6BEF6BF06BF16BF26BF36BF46BF56BEA
:10360000F66BF76BF86BF96BFA6BFB6BFC6BFD6B96
:10361000FE6BFF6B0401006B016B026B036B046BB1
:10362000056B066B076B086B096B0A6B0B6B0C6BFE
:103630000D6B0E6B0F6B106B116B126B136B146BAE
:10364000156B166B176B186B196B1A6B1B6B1C6B5E
:103650001D6B1E6B1F6B206B216B226B236B246B0E
:10366000256B266B276B286B296B2A6B2B6B2C6BBE
:103670002D6B2E6B2F6B306B316B326B336B346B6E
:10368000356B366B376B386B396B3A6B3B6B3C6B1E
:103690003D6B3E6B3F6B406B416B426B436B446BCE
:1036A000456B466B476B486B496B4A6B4B6B4C6B7E
:1036B0004D6B4E6B4F6B506B516B526B536B546B2E
:1036C000556B566B576B586B596B5A6B5B6B5C6BDE
:1036D0005D6B5E6B5F6B606B616B626B636B646B8E
:1036E000656B666B676B686B696B6A6B6B6B6C6B3E
:1036F0006D6B6E6B6F6B706B716B726B736B746BEE
:10370000756B766B776B786B796B7A6B7B6B7C6B9D
:103710007D6B7E6B7F6B806B816B826B836B846B4D
:10372000856B866B876B886B896B8A6B8B6B8C6BFD
:103730008D6B8E6B8F6B906B916B926B936B946BAD
:10374000956B966B976B986B996B9A6B9B6B9C6B5D
:103750009D6B9E6B9F6BA06BA16BA26BA36BA46B0D
:10376000A56BA66BA76BA86BA96BAA6BAB6BAC6BBD
:10377000AD6BAE6BAF6BB06BB16BB26BB36BB46B6D
:10378000B56BB66BB76BB86BB96BBA6BBB6BBC6B1D
:10379000BD6BBE6BBF6BC06BC16BC26BC36BC46BCD
:1037A000C56BC66BC76BC86BC96BCA6BCB6BCC6B7D
:1037B000CD6BCE6BCF6BD06BD16BD26BD36BD46B2D
:1037C000D56BD66BD76BD86BD96BDA6BDB6BDC6BDD
:1037D000DD6BDE6BDF6BE06BE16BE26BE36BE46B8D
:1037E000E56BE66BE76BE86BE96BEA6BEB6BEC6B3D
:1037F000ED6BEE6BF06BF16BF26BF36BF46BF56BE7
:10380000F66BF76BF86BF96BFA6BFB6BFD6BFC6B94
:103810000501056B046B036B026B010E0E6FFF0E4F
:103820000D6F126B010E116F00016DEF0FF0BCEF09
:103830000FF027EF12F09D8A9D90C00EF212969223
:103840008D82010E0301EE6F0400EE51FC0FD8B023
:1038500039EF20F0040F00013CEF20F08AEC13F068
:10386000030139EF20F00501106B0F6BAAC31AF5A5
:10387000A9C319F5000145EF14F0B6C31AF5B5C395
:1038800019F583EF14F00301C15302E1C25318E0AC
:10389000C25316E1C151060813E30501126B010E74
:1038A000116F0301C151006E0AE0D8900501113774
:1038B0001237002E01D002D00301F7D7030104D044
:1038C0000501126B010E116F0401FF6BFE6BFF51BE
:1038D0000501125D1DE308E111510401FE5DD8A050
:1038E00002D0050115D00501D8900401FE35026E05
:1038F000FF35036E0250190FE96E000E0320EA6EC9
:10390000EC6AED52EF6AFE2BD8B4FF2BE0D705012D
:10391000076B066B086B0301DF6B0001A26BA16BE9
:103920009E6B9D6BA06B9F6B9C6B9B6B9A6B996B5B
:10393000CAC31FF5C9C31EF5C1EC14F000C015F5CC
:1039400001C016F502C017F503C018F503C021F534
:1039500002C020F501C01FF500C01EF50501256B52
:10396000246B7A0E236F880E226F0001DCEC14F0BA
:1039700000C015F501C016F502C017F503C018F513
:1039800003C021F502C020F501C01FF500C01EF5DF
:10399000CD0E0501256FCC0E246F4C0E236F860EC5
:1039A000226F0001F1EC12F003C01EF502C01DF5FC
:1039B00001C01CF500C01BF56CEC13F002C0CCF389
:1039C00001C0CBF3CEC31FF5CDC31EF5C1EC14F07F
:1039D00000C015F501C016F502C017F503C018F5B3
:1039E00003C021F502C020F501C01FF500C01EF57F
:1039F0000501256B246B7A0E236F880E226F000160
:103A0000DCEC14F000C015F501C016F502C017F586
:103A100003C018F503C021F502C020F501C01FF551
:103A200000C01EF5CD0E0501256FCC0E246F4C0E87
:103A3000236F860E226F0001F1EC12F003C01EF519
:103A400002C01DF501C01CF500C01BF56CEC13F0A5
:103A500001500301CB25CF6F0250CC21D06FD05144
:103A60000F0804E20F0ED06FFF0ECF6F020EEE6F45
:103A700000D394908B70CCC31AF5CBC319F58BECA3
:103A800015F0000E016EC250C30B0110C26E05018D
:103A90000C6B0B6B0A6B096B056B046B036B026B96
:103AA000CCC314F5CBC313F514510301D05DD8A0DA
:103AB00097D006E1050113510301CF5DD8A090D046
:103AC0000400C282C2B2FED7C4CF01F50501C3CF44
:103AD00000F514C51AF513C519F500018BEC15F0A6
:103AE000D8900301DF35036A190FE96E000E032039
:103AF000EA6EECCF03F0ED52EF500501025F035088
:103B0000035B000E045B055B005102270151032398
:103B1000000E04230523D8900301DF35036A190F33
:103B2000E96E000E0320EA6E01C5ECFFED5200C500
:103B3000EFFFDF5304E111C5DFF3DF0701D0DF073B
:103B400005C503F004C502F003C501F002C500F08D
:103B5000C1510501156F07E0D890033202320132DE
:103B60000032152FF9D701C09AF000C099F000017A
:103B700099510501092700019A5105010A23000EF8
:103B80000B230C2300019C519A5D0CE303E1995136
:103B90009B5D08E207C59EF006C59DF09AC09CF0AB
:103BA00099C09BF00501062BD8B4072B0E510001DC
:103BB0009A5D0CE307E1995105010D5DD8A002D093
:103BC000000104D005010F2BD8B4102B0401FC2BED
:103BD000D8B4FD2B0501132BD8B4142B65D70301E2
:103BE000030EEE6F46D28AEC13F004000301EC5191
:103BF000D925016EED51DA21036E0150C8BF09D0FD
:103C00000350C85D06E303E1C751015C02E29692EE
:103C10008D92EC51D95D006EED51DA59036E00C002
:103C200001F0C8BF07D0C851035C06E303E10150AF
:103C3000C75D02E296928D82D890C635036AA30FC3
:103C4000E96E000E0320EA6E9CC0ECFFED529BC0B3
:103C5000EFFFD890C635036AA30FE96E000E03206C
:103C6000EA6EECCF16F5ED52EFCF15F5D8900501C1
:103C700016310E6F15310D6FD8900301C635036AEA
:103C8000A30FE96E010E0320EA6E10C5ECFFED52A2
:103C90000FC5EFFFD890C635036AA30FE96E020E79
:103CA0000320EA6E9EC0ECFFED529DC0EFFFC653AD
:103CB00004E1010EC35DC66F01D0C607E36BE26B82
:103CC000E16BE06BE76BE66BE56BE46BEB6BEA6B70
:103CD000E96BE86B0401FF6BFE6BFF510301C45DF0
:103CE00055E308E1C3510401FE5DD8A002D00301F1
:103CF0004DD003010400D8900401FE35026EFF355B
:103D0000036E0250A30FE96E000E0320EA6EECCFA3
:103D100003F0ED52EF500301E0270350E123000EC2
:103D2000E223E323D8900401FE35026EFF35036ED3
:103D30000250A30FE96E010E0320EA6EECCF03F0F0
:103D4000ED52EF500301E4270350E523000EE62374
:103D5000E723D8900401FE35026EFF35036E025052
:103D6000A30FE96E020E0320EA6EECCF03F0ED52D2
:103D7000EF500301E8270350E923000EEA23EB2369
:103D80000401FE2BD8B4FF2BA8D70301E331036E47
:103D9000E231026EE131016EE031006E0332023237
:103DA0000132003203320232013200320332023277
:103DB0000132003203320232013200320332023267
:103DC000013200320332023201320032010E031698
:103DD00003C01DF502C01CF501C01BF500C01AF59B
:103DE0000001A6EC15F000C016F501C017F502C0E1
:103DF00018F503C019F503C021F502C020F501C074
:103E00001FF500C01EF5E60E0501256F3F0E246F5D
:103E10001C0E236F800E226F0001F1EC12F000C027
:103E200016F501C017F502C018F503C019F5D882C0
:103E300003C021F502C020F501C01FF500C01EF52A
:103E40000501256B246B236B226B0001C2EF15F07B
:103E500003C01EF502C01DF501C01CF500C01BF516
:103E60006CEC13F002C017F501C016F502C0A4F304
:103E700001C0A3F30301A951006E05E0D890A4335B
:103E8000A333002EFBD7E731036EE631026EE53136
:103E9000016EE431006E033202320132003203322D
:103EA0000232013200320332023201320032033276
:103EB0000232013200320332023201320032033266
:103EC000023201320032010E031603C01DF502C09A
:103ED0001CF501C01BF500C01AF50001A6EC15F099
:103EE00000C016F501C017F502C018F503C019F59A
:103EF00003C021F502C020F501C01FF500C01EF56A
:103F00000501256B400E246F1C0E236F8C0E226F53
:103F10000001F1EC12F000C016F501C017F502C067
:103F200018F503C019F5FDC41FF5FCC41EF5C1EC5E
:103F300014F019C521F518C520F517C51FF516C5CC
:103F40001EF503C025F502C024F501C023F500C00D
:103F500022F5DCEC14F003C01EF502C01DF501C013
:103F60001CF500C01BF56CEC13F002C0A6F301C0F9
:103F7000A5F30301EB31036EEA31026EE931016E04
:103F8000E831006E03320232013200320332023273
:103F90000132003203320232013200320332023285
:103FA0000132003203320232013200320332023275
:103FB00001320032010E031603C01DF502C01CF5CC
:103FC00001C01BF500C01AF50001A6EC15F000C0F9
:103FD00016F501C017F502C018F503C019F503C0A6
:103FE00021F502C020F501C01FF500C01EF5050136
:103FF000256B400E246F1C0E236F8C0E226F000168
:10400000F1EC12F000C016F501C017F502C018F56A
:1040100003C019F5FDC41FF5FCC41EF5C1EC14F076
:1040200019C521F518C520F517C51FF516C51EF5CC
:1040300003C025F502C024F501C023F500C022F518
:10404000DCEC14F003C01EF502C01DF501C01CF528
:1040500000C01BF56CEC13F002C0A8F301C0A7F37D
:104060000301C5A102D0EE6B02D0010EEE6F01D0AC
:10407000030124EF1CF0FFD7E824F76AF736930F0B
:10408000F66E400EF7220A00F550FA6E0800F55061
:0A409000F96E5C386638723AE63BC0
:0200000400F00A
:100000000000204E01000100000880000300004BAA
:100010000100C409C409B80B00000000007F000003
:080020000000000000000000D8
:020000040030CA
:0E00000000C81900000700000FC00FE00F40FD
:00000001FF
;PIC18F4520
;CRC=331B  CREATED="29-дек-15 01:36"
