:040000002DEF17F0D9
:08000800046ED8CF05F0E0CF33
:1000100006F00001E9CF0CF0EACF07F0E1CF08F0DD
:10002000E2CF09F0D9CF0AF0DACF0BF0F3CF12F01C
:10003000F4CF13F0FACF14F0F5CF15F0F6CF16F099
:10004000F7CF17F000C00EF001C00FF002C010F0A3
:1000500003C011F09DA030EF00F09EB090EF0CF0C7
:100060009DAA36EF00F09EBAB7EF01F00EC000F087
:100070000FC001F010C002F011C003F00CC0E9FF86
:1000800007C0EAFF078E08C0E1FF09C0E2FF0AC00F
:10009000D9FF0BC0DAFF12C0F3FF13C0F4FF14C086
:1000A000FAFF15C0F5FF16C0F6FF17C0F7FF0450A2
:1000B00006C0E0FF05C0D8FF1000F76ACA0FF66E51
:1000C000000EF7220900F550120000C1814001C066
:1000D000804101C0804100C1814001C0804100C118
:1000E000814000C1814001C0804101C0804100C108
:1000F000814000C1814001C0804100C1814001C0F8
:10010000804101C0804100C1814001C0804100C1E7
:10011000814000C1814001C0804100C1814001C0D7
:10012000804101C0804100C1814000C1814001C0C7
:10013000804101C0804100C1814001C0804100C1B7
:10014000814000C1814001C0804101C0804100C1A7
:10015000814000C1814001C0804100C1814001C097
:10016000804101C0804100C1814000C1814001C087
:10017000804101C0804100C1814001C0804100C177
:10018000814000C1814001C0804100C1814001C067
:10019000804101C0804100C1814001C0804100C157
:1001A000814000C1814001C0804101C0804100C147
:1001B000814000C1814001C0804100C1814001C037
:1001C000804101C0804100C18140F76ADA0FF66EBC
:1001D000010EF7220900F550120000C0C101C3034F
:1001E00002C2C60607C705C5C404CC0C0DCD0FCF8F
:1001F000CE0E0ACACB0BC90908C8D81819D91BDBFF
:10020000DA1A1EDEDF1FDD1D1CDC14D4D515D7174E
:1002100016D6D21213D311D1D010F03031F133F3FE
:10022000F23236F6F737F53534F43CFCFD3DFF3F4E
:100230003EFEFA3A3BFB39F9F83828E8E929EB2B7E
:100240002AEAEE2E2FEF2DEDEC2CE42425E527E70E
:10025000E62622E2E323E12120E0A06061A163A37E
:10026000A26266A6A767A56564A46CACAD6DAF6F0E
:100270006EAEAA6A6BAB69A9A86878B8B979BB7B7E
:100280007ABABE7E7FBF7DBDBC7CB47475B577B7CE
:10029000B67672B2B373B17170B0509091519353FE
:1002A000529296565797559594549C5C5D9D5F9FCE
:1002B0009E5E5A9A9B5B99595898884849894B8BFE
:1002C0008A4A4E8E8F4F8D4D4C8C4484854587478E
:1002D00046868242438341818040D8B204D0050ED5
:1002E000EA6E360EE96E006A016A026A036A050167
:1002F000366B376B386B396B355134113311321122
:100300002CE0200E3A6FD8902E372F373037313708
:1003100036373737383739373551395D08E1345199
:10032000385D05E13351375D02E13251365D0FE34F
:100330003251365F3351D8A0333D375F3451D8A0A6
:10034000343D385F3551D8A0353D395FD88000360F
:100350000136023603363A2FD6D736C5EFFF37C5FA
:10036000ECFF38C5ECFF39C5ECFF0001000C036A57
:100370000401F051F00FE96E030E0320EA6E9EAA0D
:10038000FED7AECFEFFFF02B94908B90D892020E59
:100390000501316F160E306F0E0E2F6FC00E2E6FCF
:1003A000356B346BDDC333F5DCC332F5000195DF0B
:1003B000FF0ED88000560156000E0256035601C0AB
:1003C000CFFF00C0CEFF9E909D809E9A36EF00F03A
:1003D000FF0E05013B6F3C6F396B3851395D1CE2F4
:1003E000036A39513625E96E37510320EA6EEF5022
:1003F0003C193A6F036A3A5100015FDE016E050154
:100400003B5101183C6F036A3A510001DEDEE8CF30
:100410003BF50501392BE1D73CC503F03BC501F0A5
:100420003CC502F00001000C040005013551000A32
:10043000000158E0010AD8B471D0030AD8B48AD0B8
:10044000010AD8B4A3D0070AD8B4B6D0010AD8B4E8
:10045000CFD0030AD8B4E2D0010AD8B4FBD00F0A37
:10046000D8B414D1010AD8B42DD1030AD8B440D1DC
:10047000010AD8B453D1070AD8B46CD1010AD8B450
:1004800085D1030AD8B49ED1010AD8B4B7D11F0AC6
:10049000D8B4D0D1010AD8B4E9D1030AD8B402D271
:1004A000010AD8B41BD2070AD8B434D2010AD8B48E
:1004B00049D2030AD8B45ED2010AD8B473D20F0A63
:1004C000D8B4B2D2010AD8B4F1D2030AD8B430D326
:1004D000010AD8B455D3070AD8B46ED3010AD8B4E8
:1004E00087D3A2D3036A0401FB51F00FE96E030E18
:1004F0000320EA6E0301A9C3EFFF0401FB2B036A8B
:10050000FB51F00FE96E030E0320EA6E0301A8C34E
:10051000EFFF0401FB2B020EF02794D3036A0401C2
:10052000FB51F00FE96E030E0320EA6E0301B5C321
:10053000EFFF0401FB2B036AFB51F00FE96E030E82
:100540000320EA6E0301B4C3EFFF0401FB2B020E8C
:10055000F02778D3036A0401FB51F00FE96E030E14
:100560000320EA6E0301A7C3EFFF0401FB2B036A1C
:10057000FB51F00FE96E030E0320EA6E0301A6C3E0
:10058000EFFF0401FB2B020EF0275CD3036A04018A
:10059000FB51F00FE96E030E0320EA6EEF6AFB2BAE
:1005A000036AFB51F00FE96E030E0320EA6EEF6A57
:1005B000FB2B020EF02746D3036A0401FB51F00F18
:1005C000E96E030E0320EA6E0301A5C3EFFF0401E9
:1005D000FB2B036AFB51F00FE96E030E0320EA6E5A
:1005E0000301A4C3EFFF0401FB2B020EF0272AD363
:1005F000036A0401FB51F00FE96E030E0320EA6E5B
:10060000EF6AFB2B036AFB51F00FE96E030E032028
:10061000EA6EEF6AFB2B020EF02714D3036A040183
:10062000FB51F00FE96E030E0320EA6E0301C9C30C
:10063000EFFF0401FB2B036AFB51F00FE96E030E81
:100640000320EA6E0301C8C3EFFF0401FB2B020E77
:10065000F027F8D2036A0401FB51F00FE96E030E94
:100660000320EA6E0301B3C3EFFF0401FB2B036A0F
:10067000FB51F00FE96E030E0320EA6E0301B2C3D3
:10068000EFFF0401FB2B020EF027DCD2036A04010A
:10069000FB51F00FE96E030E0320EA6E0301BFC3A6
:1006A000EFFF0401FB2B036AFB51F00FE96E030E11
:1006B0000320EA6E0301BEC3EFFF0401FB2B020E11
:1006C000F027C0D2036A0401FB51F00FE96E030E5C
:1006D0000320EA6EEF6AFB2B036AFB51F00FE96E11
:1006E000030E0320EA6EEF6AFB2B020EF027AAD25C
:1006F000036A0401FB51F00FE96E030E0320EA6E5A
:10070000EF6AFB2B036AFB51F00FE96E030E032027
:10071000EA6EEF6AFB2B020EF02794D2036A040103
:10072000FB51F00FE96E030E0320EA6E0301CBC309
:10073000EFFF0401FB2B036AFB51F00FE96E030E80
:100740000320EA6E0301CAC3EFFF0401FB2B020E74
:10075000F02778D2036A0401FB51F00FE96E030E13
:100760000320EA6E0301CFC3EFFF0401FB2B036AF2
:10077000FB51F00FE96E030E0320EA6E0301CEC3B6
:10078000EFFF0401FB2B020EF0275CD2036A040189
:10079000FB51F00FE96E030E0320EA6E0301ABC3B9
:1007A000EFFF0401FB2B036AFB51F00FE96E030E10
:1007B0000320EA6E0301AAC3EFFF0401FB2B020E24
:1007C000F02740D2036A0401FB51F00FE96E030EDB
:1007D0000320EA6E0301B7C3EFFF0401FB2B036A9A
:1007E000FB51F00FE96E030E0320EA6E0301B6C35E
:1007F000EFFF0401FB2B020EF02724D2036A040151
:10080000FB51F00FE96E030E0320EA6E0301C1C332
:10081000EFFF0401FB2B036AFB51F00FE96E030E9F
:100820000320EA6E0301C0C3EFFF0401FB2B020E9D
:10083000F02708D2036A0401FB51F00FE96E030EA2
:100840000320EA6E0301C3C3EFFF0401FB2B036A1D
:10085000FB51F00FE96E030E0320EA6E0301C2C3E1
:10086000EFFF0401FB2B020EF027ECD1036A040119
:10087000FB51F00FE96E030E0320EA6E0301C5C3BE
:10088000EFFF0401FB2B036AFB51F00FE96E030E2F
:100890000320EA6E0301C4C3EFFF0401FB2B020E29
:1008A000F027D0D1036A0401FB51F00FE96E030E6B
:1008B0000320EA6E0301DDC3EFFF0401FB2B036A93
:1008C000FB51F00FE96E030E0320EA6E0301DCC357
:1008D000EFFF0401FB2B020EF027B4D1036A0401E1
:1008E000FB51F00FE96E030E0320EA6E0301DFC334
:1008F000EFFF0401FB2B036AFB51F00FE96E030EBF
:100900000320EA6E0301DEC3EFFF0401FB2B020E9E
:10091000F02798D1036A0401FB51F00FE96E030E32
:100920000320EA6EF2C4EFFFFB2B036AFB51F00FCA
:10093000E96E030E0320EA6EF1C4EFFFFB2B020EFB
:10094000F02780D1036A0401FB51F00FE96E030E1A
:100950000320EA6EF4C4EFFFFB2B036AFB51F00F98
:10096000E96E030E0320EA6EF3C4EFFFFB2B020EC9
:10097000F02768D1036A0401FB51F00FE96E030E02
:100980000320EA6EF6C4EFFFFB2B036AFB51F00F66
:10099000E96E030E0320EA6EF5C4EFFFFB2B020E97
:1009A000F02750D1050EEA6E360EE96E030EE26EA8
:1009B000D20EE16E040E016EE6CFEEFF012EFCD7E3
:1009C000036A0401FB51F00FE96E030E0320EA6E87
:1009D000050136C5EFFF0401FB2B036AFB51F00F45
:1009E000E96E030E0320EA6E050137C5EFFF04012F
:1009F000FB2B036AFB51F00FE96E030E0320EA6E36
:100A0000050138C5EFFF0401FB2B036AFB51F00F12
:100A1000E96E030E0320EA6E050139C5EFFF0401FC
:100A2000FB2B040EF0270ED1050EEA6E360EE96E92
:100A3000030EE26ED60EE16E040E016EE6CFEEFFFF
:100A4000012EFCD7036A0401FB51F00FE96E030E7F
:100A50000320EA6E050136C5EFFF0401FB2B036A94
:100A6000FB51F00FE96E030E0320EA6E050137C556
:100A7000EFFF0401FB2B036AFB51F00FE96E030E3D
:100A80000320EA6E050138C5EFFF0401FB2B036A62
:100A9000FB51F00FE96E030E0320EA6E050139C524
:100AA000EFFF0401FB2B040EF027CCD0050EEA6EFD
:100AB000360EE96E030EE26EAC0EE16E040E016EB0
:100AC000E6CFEEFF012EFCD7036A0401FB51F00FC5
:100AD000E96E030E0320EA6E050136C5EFFF04013F
:100AE000FB2B036AFB51F00FE96E030E0320EA6E45
:100AF000050137C5EFFF0401FB2B036AFB51F00F23
:100B0000E96E030E0320EA6E050138C5EFFF04010C
:100B1000FB2B036AFB51F00FE96E030E0320EA6E14
:100B2000050139C5EFFF0401FB2B040EF0278AD025
:100B3000036A0401FB51F00FE96E030E0320EA6E15
:100B4000EF6AFB2B036AFB51F00FE96E030E0320E3
:100B5000EA6EEF6AFB2B036AFB51F00FE96E030E9E
:100B60000320EA6EEF6AFB2B036AFB51F00FE96E7C
:100B7000030E0320EA6EEF6AFB2B040EF02762D00F
:100B8000036A0401FB51F00FE96E030E0320EA6EC5
:100B90000301B1C3EFFF0401FB2B036AFB51F00F0C
:100BA000E96E030E0320EA6E0301B0C3EFFF0401F8
:100BB000FB2B020EF02746D0036A0401FB51F00F15
:100BC000E96E030E0320EA6E0301BDC3EFFF0401CB
:100BD000FB2B036AFB51F00FE96E030E0320EA6E54
:100BE0000301BCC3EFFF0401FB2B020EF0272AD048
:100BF000036A0401FB51F00FE96E030E0320EA6E55
:100C00000301DBC3EFFF0401FB2B036AFB51F00F71
:100C1000E96E030E0320EA6E0301DAC3EFFF04015D
:100C2000FB2B020EF0270ED00301F18F030EF26FA3
:100C3000050E0401F06FF52BD8B4F62BF151D8B4A2
:100C4000F207F1070001CAEF0DF00400050135516C
:100C5000000A000151E0010A53E0030A55E0010ACD
:100C600057E0070A59E0010A5BE0030A5DE0010A68
:100C70005FE00F0AD8B460D0010AD8B461D0030A8B
:100C8000D8B462D0010AD8B463D0070AD8B47BD0F4
:100C9000010AD8B493D0030AD8B4ABD0010AD8B4AF
:100CA000C3D01F0AD8B4DBD0010AD8B4F3D0030AEA
:100CB000D8B40BD1010AD8B40CD1070AD8B424D1C6
:100CC000010AD8B425D1030AD8B426D1010AD8B470
:100CD00027D10F0AD8B465D1010AD8B4A3D1030A29
:100CE000D8B4E1D1010AD8B4E2D1070AD8B4FAD114
:100CF000010AD8B412D22CD2020E0401FB2736D23C
:100D0000020E0401FB2732D2020E0401FB272ED271
:100D1000020E0401FB272AD2020E0401FB2726D271
:100D2000020E0401FB2722D2020E0401FB271ED271
:100D3000020E0401FB271AD2020E0401FB2716D271
:100D4000020E0401FB2712D2020E0401FB270ED271
:100D5000036A0401FB51F00FE96E030E0320EA6EF3
:100D6000EFCF3AF5010EFB25036AF00FE96E030E93
:100D70000320EA6EEFCF3BF53AC5CBF33BC5CAF390
:100D8000020EFB27F3D1036A0401FB51F00FE96E59
:100D9000030E0320EA6EEFCF3AF5010EFB25036A3E
:100DA000F00FE96E030E0320EA6EEFCF3BF53AC574
:100DB000CFF33BC5CEF3020EFB27D8D1036A040163
:100DC000FB51F00FE96E030E0320EA6EEFCF3AF508
:100DD000010EFB25036AF00FE96E030E0320EA6E95
:100DE000EFCF3BF53AC5ABF33BC5AAF3020EFB27A9
:100DF000BDD1036A0401FB51F00FE96E030E03201D
:100E0000EA6EEFCF3AF5010EFB25036AF00FE96EAB
:100E1000030E0320EA6EEFCF3BF53AC5B7F33BC5AF
:100E2000B6F3020EFB27A2D1036A0401FB51F00FB7
:100E3000E96E030E0320EA6EEFCF3AF5010EFB25B3
:100E4000036AF00FE96E030E0320EA6EEFCF3BF565
:100E50003AC5C1F33BC5C0F3020EFB2787D1036A35
:100E60000401FB51F00FE96E030E0320EA6EEFCF91
:100E70003AF5010EFB25036AF00FE96E030E03201D
:100E8000EA6EEFCF3BF53AC5C3F33BC5C2F3020EA2
:100E9000FB276CD1036A0401FB51F00FE96E030ECE
:100EA0000320EA6EEFCF3AF5010EFB25036AF00F3F
:100EB000E96E030E0320EA6EEFCF3BF53AC5C5F3AA
:100EC0003BC5C4F3020EFB2751D1020E0401FB27E0
:100ED0004DD1036A0401FB51F00FE96E030E0320AC
:100EE000EA6EEFCF3AF5010EFB25036AF00FE96ECB
:100EF000030E0320EA6EEFCF3BF53AC5DFF33BC5A7
:100F0000DEF3020EFB2732D1020E0401FB272ED1A5
:100F1000020E0401FB272AD1020E0401FB2726D171
:100F2000030E0401FB25036AF00FE96E030E032094
:100F3000EA6EEFCF3AF5020EFB25036AF00FE96E79
:100F4000030E0320EA6EEFCF3BF5010EFB25036A8B
:100F5000F00FE96E030E0320EA6EEFCF3CF5036A53
:100F6000FB51F00FE96E030E0320EA6EEFCF3DF563
:100F70003AC539F53BC538F53CC537F53DC536F5BD
:100F8000030EEA6ED20EE96E050EE26E360EE16ECB
:100F9000040E016EE6CFEEFF012EFCD7040EFB27F8
:100FA000E5D0030E0401FB25036AF00FE96E030E82
:100FB0000320EA6EEFCF3AF5020EFB25036AF00F2D
:100FC000E96E030E0320EA6EEFCF3BF5010EFB2521
:100FD000036AF00FE96E030E0320EA6EEFCF3CF5D3
:100FE000036AFB51F00FE96E030E0320EA6EEFCFA8
:100FF0003DF53AC539F53BC538F53CC537F53DC536
:1010000036F5030EEA6ED60EE96E050EE26E360E6A
:10101000E16E040E016EE6CFEEFF012EFCD7040E4A
:10102000FB27A4D0030E0401FB25036AF00FE96E31
:10103000030E0320EA6EEFCF3AF5020EFB25036A9A
:10104000F00FE96E030E0320EA6EEFCF3BF5010EC1
:10105000FB25036AF00FE96E030E0320EA6EEFCF63
:101060003CF5036AFB51F00FE96E030E0320EA6EB4
:10107000EFCF3DF53AC539F53BC538F53CC537F5F9
:101080003DC536F5030EEA6EAC0EE96E050EE26E56
:10109000360EE16E040E016EE6CFEEFF012EFCD798
:1010A000040EFB2763D0040E0401FB275FD0036A04
:1010B0000401FB51F00FE96E030E0320EA6EEFCF3F
:1010C0003AF5010EFB25036AF00FE96E030E0320CB
:1010D000EA6EEFCF3BF53AC5B1F33BC5B0F3020E74
:1010E000FB2744D0036A0401FB51F00FE96E030EA5
:1010F0000320EA6EEFCF3AF5010EFB25036AF00FED
:10110000E96E030E0320EA6EEFCF3BF53AC5BDF35F
:101110003BC5BCF3020EFB2729D0036A0401FB5137
:10112000F00FE96E030E0320EA6EEFCF3AF5010EE1
:10113000FB25036AF00FE96E030E0320EA6EEFCF82
:101140003BF53AC5DBF33BC5DAF3020EFB270ED0C5
:101150000301F18F030EF26F050E0401F06FF52B02
:10116000D8B4F62BF151D8B4F207F1070001FCEF27
:101170000DF0D190CAC339F5A96A39C5A8FFA69C5C
:10118000A69EA684F250006EF29E0F01550EA76E29
:10119000AA0EA76EA682A6B2FED7A6940050F2129F
:1011A000CBC339F5010EA96ECBC3A8FFA69CA69EA2
:1011B000A684F2CF00F0F29E550EA76EAA0EA76E7F
:1011C000A682A6B2FED7A6940050F212CEC339F57D
:1011D000020EA96ECEC3A8FFA69CA69EA684F2CF3F
:1011E00000F0F29E550EA76EAA0EA76EA682A6B2BA
:1011F000FED7A6940050F212CFC339F5030EA96EA4
:10120000CFC3A8FFA69CA69EA684F2CF00F0F29EB4
:10121000550EA76EAA0EA76EA682A6B2FED7A694FA
:101220000050F212AAC339F5040EA96EAAC3A8FF92
:10123000A69CA69EA684F2CF00F0F29E550EA76E45
:10124000AA0EA76EA682A6B2FED7A6940050F212EE
:10125000ABC339F5050EA96EABC3A8FFA69CA69E2D
:10126000A684F2CF00F0F29E550EA76EAA0EA76ECE
:10127000A682A6B2FED7A6940050F212B6C339F5E4
:10128000060EA96EB6C3A8FFA69CA69EA684F2CFA2
:1012900000F0F29E550EA76EAA0EA76EA682A6B209
:1012A000FED7A6940050F212B7C339F5070EA96E07
:1012B000B7C3A8FFA69CA69EA684F2CF00F0F29E1C
:1012C000550EA76EAA0EA76EA682A6B2FED7A6944A
:1012D0000050F212C0C339F5080EA96EC0C3A8FFB2
:1012E000A69CA69EA684F2CF00F0F29E550EA76E95
:1012F000AA0EA76EA682A6B2FED7A6940050F2123E
:10130000C1C339F5090EA96EC1C3A8FFA69CA69E4C
:10131000A684F2CF00F0F29E550EA76EAA0EA76E1D
:10132000A682A6B2FED7A6940050F212C4C339F525
:101330000A0EA96EC4C3A8FFA69CA69EA684F2CFDF
:1013400000F0F29E550EA76EAA0EA76EA682A6B258
:10135000FED7A6940050F212C5C339F50B0EA96E44
:10136000C5C3A8FFA69CA69EA684F2CF00F0F29E5D
:10137000550EA76EAA0EA76EA682A6B2FED7A69499
:101380000050F212C2C339F50C0EA96EC2C3A8FFF9
:10139000A69CA69EA684F2CF00F0F29E550EA76EE4
:1013A000AA0EA76EA682A6B2FED7A6940050F2128D
:1013B000C3C339F50D0EA96EC3C3A8FFA69CA69E94
:1013C000A684F2CF00F0F29E550EA76EAA0EA76E6D
:1013D000A682A6B2FED7A6940050F212DCC339F55D
:1013E0000E0EA96EDCC3A8FFA69CA69EA684F2CF13
:1013F00000F0F29E550EA76EAA0EA76EA682A6B2A8
:10140000FED7A6940050F212DDC339F50F0EA96E77
:10141000DDC3A8FFA69CA69EA684F2CF00F0F29E94
:10142000550EA76EAA0EA76EA682A6B2FED7A694E8
:101430000050F212DEC339F5100EA96EDEC3A8FF0C
:10144000A69CA69EA684F2CF00F0F29E550EA76E33
:10145000AA0EA76EA682A6B2FED7A6940050F212DC
:10146000DFC339F5110EA96EDFC3A8FFA69CA69EA7
:10147000A684F2CF00F0F29E550EA76EAA0EA76EBC
:10148000A682A6B2FED7A6940050F212B0C339F5D8
:10149000120EA96EB0C3A8FFA69CA69EA684F2CF8A
:1014A00000F0F29E550EA76EAA0EA76EA682A6B2F7
:1014B000FED7A6940050F212B1C339F5130EA96EEF
:1014C000B1C3A8FFA69CA69EA684F2CF00F0F29E10
:1014D000550EA76EAA0EA76EA682A6B2FED7A69438
:1014E0000050F212BCC339F5140EA96EBCC3A8FF9C
:1014F000A69CA69EA684F2CF00F0F29E550EA76E83
:10150000AA0EA76EA682A6B2FED7A6940050F2122B
:10151000BDC339F5150EA96EBDC3A8FFA69CA69E36
:10152000A684F2CF00F0F29E550EA76EAA0EA76E0B
:10153000A682A6B2FED7A6940050F212DAC339F5FD
:10154000160EA96EDAC3A8FFA69CA69EA684F2CFAB
:1015500000F0F29E550EA76EAA0EA76EA682A6B246
:10156000FED7A6940050F212DBC339F5170EA96E10
:10157000DBC3A8FFA69CA69EA684F2CF00F0F29E35
:10158000550EA76EAA0EA76EA682A6B2FED7A69487
:101590000050F212050EEA6E350EE96E030EE26E91
:1015A000D20EE16E040E016EE6CFEEFF012EFCD7E7
:1015B00038C539F51A0EA96E38C5A8FFA69CA69E97
:1015C000A684F2CF00F0F29E550EA76EAA0EA76E6B
:1015D000A682A6B2FED7A6940050F21237C539F5FE
:1015E0001B0EA96E37C5A8FFA69CA69EA684F2CFA7
:1015F00000F0F29E550EA76EAA0EA76EA682A6B2A6
:10160000FED7A6940050F21236C539F5180EA96E11
:1016100036C5A8FFA69CA69EA684F2CF00F0F29E37
:10162000550EA76EAA0EA76EA682A6B2FED7A694E6
:101630000050F21235C539F5190EA96E35C5A8FF4F
:10164000A69CA69EA684F2CF00F0F29E550EA76E31
:10165000AA0EA76EA682A6B2FED7A6940050F212DA
:10166000050EEA6E350EE96E030EE26ED60EE16EE1
:10167000040E016EE6CFEEFF012EFCD738C539F51A
:101680001E0EA96E38C5A8FFA69CA69EA684F2CF02
:1016900000F0F29E550EA76EAA0EA76EA682A6B205
:1016A000FED7A6940050F21237C539F51F0EA96E69
:1016B00037C5A8FFA69CA69EA684F2CF00F0F29E96
:1016C000550EA76EAA0EA76EA682A6B2FED7A69446
:1016D0000050F21236C539F51C0EA96E36C5A8FFAA
:1016E000A69CA69EA684F2CF00F0F29E550EA76E91
:1016F000AA0EA76EA682A6B2FED7A6940050F2123A
:1017000035C539F51D0EA96E35C5A8FFA69CA69E48
:10171000A684F2CF00F0F29E550EA76EAA0EA76E19
:10172000A682A6B2FED7A6940050F212050EEA6E6B
:10173000350EE96E030EE26ED20EE16E040E016EFE
:10174000E6CFEEFF012EFCD738C539F5220EA96E83
:1017500038C5A8FFA69CA69EA684F2CF00F0F29EF4
:10176000550EA76EAA0EA76EA682A6B2FED7A694A5
:101770000050F21237C539F5230EA96E37C5A8FF00
:10178000A69CA69EA684F2CF00F0F29E550EA76EF0
:10179000AA0EA76EA682A6B2FED7A6940050F21299
:1017A00036C539F5200EA96E36C5A8FFA69CA69EA3
:1017B000A684F2CF00F0F29E550EA76EAA0EA76E79
:1017C000A682A6B2FED7A6940050F21235C539F50E
:1017D000210EA96E35C5A8FFA69CA69EA684F2CFB1
:1017E00000F0F29E550EA76EAA0EA76EA682A6B2B4
:1017F000FED7A6940050F212050EEA6E350EE96E81
:10180000030EE26ED20EE16E040E016EE6CFEEFF25
:10181000012EFCD738C539F5260EA96E38C5A8FFAC
:10182000A69CA69EA684F2CF00F0F29E550EA76E4F
:10183000AA0EA76EA682A6B2FED7A6940050F212F8
:1018400037C539F5270EA96E37C5A8FFA69CA69EF9
:10185000A684F2CF00F0F29E550EA76EAA0EA76ED8
:10186000A682A6B2FED7A6940050F21236C539F56C
:10187000240EA96E36C5A8FFA69CA69EA684F2CF0C
:1018800000F0F29E550EA76EAA0EA76EA682A6B213
:10189000FED7A6940050F21235C539F5250EA96E73
:1018A00035C5A8FFA69CA69EA684F2CF00F0F29EA6
:1018B000550EA76EAA0EA76EA682A6B2FED7A69454
:1018C0000050F212D180000118EF0EF0050EEA6E02
:1018D000350EE96EEF5011E00A0E016EBF0E006E7C
:1018E0000400002EFDD7012EF9D75E0E006E002EEB
:1018F000FED700D00400EF2EEFD7CFEF0EF0929C72
:10190000898C9EA8FED7050136C5ADFF0000929CCC
:10191000898CACA2FED7929C899C000159EF0FF0F4
:101920009D9A94908B800401F051030801E3C8D282
:101930000301DE51F05D04E0F05302E00401C0D287
:10194000020E0401F05D0501356F030E376FF00ED6
:10195000366F35C538F50001E8EC01F002C0FAF445
:1019600001C0F9F4020E0401F05D036AF00FE96EA4
:10197000030E0320EA6EEFCF35F5010EF05D036A2A
:10198000F00FE96E030E0320EA6EEFCF36F535C592
:10199000F8F436C5F7F4F751F95D03E1F851FA5D53
:1019A00004E0F32BD8B4F42B8BD20301F151420A9B
:1019B000000113E0010AD8B471D0070AD8B4CED020
:1019C000010AD8B4F9D0200AD8B42BD10F0AD8B460
:1019D00041D1010AD8B4F4D123D20401F051050851
:1019E00052E10301F251000A000105E0010A0EE094
:1019F000030A3BE03DD00301C691010EEF6F040ED8
:101A00000401F06FF12BD8B4F22B3CD00301C68156
:101A1000010EEF6F0501326B316B32510301C55D71
:101A20001DE308E1C4510501315DD8A002D00301D6
:101A300015D00301D89005013135026E3235036EA1
:101A40000250A40FE96E020E0320EA6EEC6AED521A
:101A5000EF6A312BD8B4322BE0D70301040E040116
:101A6000F06FF12BD8B4F22B0DD0FF0004010AD097
:101A70000301F18F030EF26F0401F52BD8B4F62B9E
:101A8000050EF06F0AD00301F18F020EF26F050E02
:101A90000401F06FF52BD8B4F62BCCD10401F05132
:101AA000070851E10301F351000A000103E0010AB4
:101AB00020E03ED00501346B020E336F326B316B88
:101AC000325100080FE3F00E3325E96E030E342186
:101AD000EA6EEF6A332BD8B4342B020E3127000E96
:101AE0003223EED7840E0401F06FF12BD8B4F22B21
:101AF00029D00501346B020E336F326B316B3251DA
:101B000000080FE3F00E3325E96E030E3421EA6E70
:101B1000EF6A332BD8B4342B020E3127000E322358
:101B2000EED7840E0401F06FF12BD8B4F22B0AD05B
:101B30000301F18F030EF26F0401F52BD8B4F62BDD
:101B4000050EF06F0AD00301F18F020EF26F050E41
:101B50000401F06FF52BD8B4F62B6CD10401F051D1
:101B600007081DE1040EF06FF12BD8B4F22B020E22
:101B7000FB6FF3C32EF50301F451F32505012F6F1D
:101B80002EC530F52F51305D08E230C535F5000126
:101B900014EF02F00501302BF5D70CD0040103013E
:101BA000F18F020EF26F050E0401F06FF52BD8B421
:101BB000F62B050104013ED10401F051070826E28D
:101BC000F0B124D0040EFB6FF3C32EF5020EF05DCE
:101BD00005012F6F040E0401F06FF12BD8B4F22B26
:101BE0002EC530F505012F510401FB5D09E230C51A
:101BF00035F5000125EF06F00501302BF4D704017F
:101C0000040EF06FF12BD8B4F22B0AD00301F18F40
:101C1000020EF26F050E0401F06FF52BD8B4F62B0F
:101C200009D10401F05104080AE10001B9EF08F0FC
:101C3000040E0401F06FF12BD8B4F22B0AD003018B
:101C4000F18F020EF26F050E0401F06FF52BD8B480
:101C5000F62BF0D00401F0510508D8A4A4D0040E4E
:101C6000F06FF12BD8B4F22B0301F251000A0001FE
:101C70000FE0010A1CE0030A29E0010A36E0070A26
:101C800043E0010A50E0030A5DE0010A68E075D014
:101C9000040E0301DD6FB00EDC6FB8860A0EAF6E66
:101CA0001A0EB06EA60EAC6E0000000071D0070ECA
:101CB0000301DD6F080EDC6FB8865B0EAF6E110E90
:101CC000B06EA60EAC6E0000000062D0090E0301DB
:101CD000DD6F600EDC6FB886040EAF6E0D0EB06E59
:101CE000A60EAC6E0000000053D0120E0301DD6F93
:101CF000C00EDC6FB886820EAF6E060EB06EA60EFA
:101D0000AC6E0000000044D01C0E0301DD6F200EFD
:101D1000DC6FB886560EAF6E040EB06EA60EAC6EBB
:101D20000000000035D0250E0301DD6F800EDC6F52
:101D3000B886400EAF6E030EB06EA60EAC6E0000FD
:101D4000000026D0380E0301DD6F400EDC6FB89620
:101D50008A0EAF6EA60EAC6E0000000019D04B0EBE
:101D60000301DD6FDC6BB886A00EAF6E010EB06EA6
:101D7000A60EAC6E000000000BD00301F18F030E25
:101D8000F26F050E0401F06FF52BD8B4F62B0301AA
:101D900094908B70640E0501356F000197D5949077
:101DA0008B700CD004010301F18F020EF26F050E4F
:101DB0000401F06FF52BD8B4F62B000104013AD0E2
:101DC0000401F051040821E14D0E0301F26F570E9A
:101DD000F36F540EF46F2D0EF56F530EF66F500E19
:101DE000F76F4D0EF86F330EF96F760EFA6F310EF6
:101DF000FB6F2E0EFC6F300EFD6FFE6F100E040198
:101E0000F06FF12BD8B4F22B0AD00301F18F020E40
:101E1000F26F050E0401F06FF52BD8B4F62B0AD043
:101E20000301F18F010EF26F050E0401F06FF52B27
:101E3000D8B4F62B0301F05344E0020E0401F05D28
:101E40000501356F030E376FF00E366F35C538F567
:101E50000001E8EC01F002C0FAF401C0F9F4020E4E
:101E60000401F05D036AF00FE96E030E0320EA6ED1
:101E7000FAC4EFFF010EF05D036AF00FE96E030E86
:101E80000320EA6EF9C4EFFF0501306B0401F05145
:101E90000501305D13E20400036A3051F00FE96E72
:101EA000030E0320EA6EEFCF35F535C536F5000198
:101EB00026D594908B900501302BE8D7040100D0F3
:101EC000030194908B800401F06B9E909D909D8AFD
:101ED0009E90000136EF00F0700ED36EC00E9B6E28
:101EE000D3509698D190070EB46E9250926E040023
:101EF0001A0E006E002EFED7B450A19CB56AC150D8
:101F0000C00B1909C16EC050C00B0D09C06EC08E48
:101F1000C2803F0E926EF80E946E000E956E929EE9
:101F2000898E94928B8294948B8495908C809592D8
:101F30008C82959A8C8A95988C8894908B80800E50
:101F4000D56EB50ECD6E000ECA6E000ECB6E850E30
:101F5000B16E929C899CC69A949A94889496300EFD
:101F6000C66E400EC76E9D8AC00EF2120301EF6B63
:101F7000000145EF1CF0F2CF1DF5F29E010EA96E97
:101F8000A69CA69EA680A85005011DBFF28E1E6FBE
:101F9000F2CF1FF5F29EA96AA69CA69EA680A85025
:101FA0001FBFF28E206F1EC5CBF320C5CAF3F2CF40
:101FB0001DF5F29E030EA96EA69CA69EA680A850B3
:101FC0001DBFF28E1E6FF2CF1FF5F29E020EA96E9C
:101FD000A69CA69EA680A8501FBFF28E206F1EC58D
:101FE000CFF320C5CEF3F2CF1DF5F29E050EA96EFC
:101FF000A69CA69EA680A8501DBFF28E1E6FF2CF93
:102000001FF5F29E040EA96EA69CA69EA680A8505F
:102010001FBFF28E206F1EC5ABF320C5AAF3F2CF0F
:102020001DF5F29E070EA96EA69CA69EA680A8503E
:102030001DBFF28E1E6FF2CF1FF5F29E060EA96E27
:10204000A69CA69EA680A8501FBFF28E206F1EC51C
:10205000B7F320C5B6F3F2CF1DF5F29E090EA96EB7
:10206000A69CA69EA680A8501DBFF28E1E6FF2CF22
:102070001FF5F29E080EA96EA69CA69EA680A850EB
:102080001FBFF28E206F1EC5C1F320C5C0F3F2CF73
:102090001DF5F29E0B0EA96EA69CA69EA680A850CA
:1020A0001DBFF28E1E6FF2CF1FF5F29E0A0EA96EB3
:1020B000A69CA69EA680A8501FBFF28E206F1EC5AC
:1020C000C5F320C5C4F3F2CF1DF5F29E0D0EA96E27
:1020D000A69CA69EA680A8501DBFF28E1E6FF2CFB2
:1020E0001FF5F29E0C0EA96EA69CA69EA680A85077
:1020F0001FBFF28E206F1EC5C3F320C5C2F3F2CFFF
:102100001DF5F29E0F0EA96EA69CA69EA680A85055
:102110001DBFF28E1E6FF2CF1FF5F29E0E0EA96E3E
:10212000A69CA69EA680A8501FBFF28E206F1EC53B
:10213000DDF320C5DCF3F2CF1DF5F29E110EA96E82
:10214000A69CA69EA680A8501DBFF28E1E6FF2CF41
:102150001FF5F29E100EA96EA69CA69EA680A85002
:102160001FBFF28E206F1EC5DFF320C5DEF3F2CF56
:102170001DF5F29E130EA96EA69CA69EA680A850E1
:102180001DBFF28E1E6FF2CF1FF5F29E120EA96ECA
:10219000A69CA69EA680A8501FBFF28E206F1EC5CB
:1021A000B1F320C5B0F3F2CF1DF5F29E150EA96E66
:1021B000A69CA69EA680A8501DBFF28E1E6FF2CFD1
:1021C0001FF5F29E140EA96EA69CA69EA680A8508E
:1021D0001FBFF28E206F1EC5BDF320C5BCF3F2CF2A
:1021E0001DF5F29E170EA96EA69CA69EA680A8506D
:1021F0001DBFF28E1E6FF2CF1FF5F29E160EA96E56
:10220000A69CA69EA680A8501FBFF28E206F1EC55A
:10221000DBF320C5DAF3F2CF1DF5F29E1A0EA96E9C
:10222000A69CA69EA680A8501DBFF28E1E6FF2CF60
:102230001FF5F29E1B0EA96EA69CA69EA680A85016
:102240001FBFF28E206FF2CF21F5F29E180EA96EFD
:10225000A69CA69EA680A85021BFF28E226FF2CF28
:1022600023F5F29E190EA96EA69CA69EA680A850E4
:1022700023BFF28E246F1EC51CF520C51BF522C599
:102280001AF524C519F5030EEA6ED20EE96E050E95
:10229000E26E190EE16E040E016EE6CFEEFF012E26
:1022A000FCD7F2CF1DF5F29E1E0EA96EA69CA69E2F
:1022B000A680A8501DBFF28E1E6FF2CF1FF5F29EB2
:1022C0001F0EA96EA69CA69EA680A8501FBFF28EC8
:1022D000206FF2CF21F5F29E1C0EA96EA69CA69E41
:1022E000A680A85021BFF28E226FF2CF23F5F29E76
:1022F0001D0EA96EA69CA69EA680A85023BFF28E96
:10230000246F1EC51CF520C51BF522C51AF524C572
:1023100019F5030EEA6ED60EE96E050EE26E190E81
:10232000E16E040E016EE6CFEEFF012EFCD7F2CF78
:102330001DF5F29E220EA96EA69CA69EA680A85010
:102340001DBFF28E1E6FF2CF1FF5F29E230EA96EF7
:10235000A69CA69EA680A8501FBFF28E206FF2CF2B
:1023600021F5F29E200EA96EA69CA69EA680A850DE
:1023700021BFF28E226FF2CF23F5F29E210EA96EBD
:10238000A69CA69EA680A85023BFF28E246F1EC5D1
:102390001CF520C51BF522C51AF524C519F5030E39
:1023A000EA6EAC0EE96E050EE26E190EE16E040ED9
:1023B000016EE6CFEEFF012EFCD7F2CF1DF5F29EA7
:1023C000260EA96EA69CA69EA680A8501DBFF28EC2
:1023D0001E6FF2CF1FF5F29E270EA96EA69CA69E39
:1023E000A680A8501FBFF28E206FF2CF21F5F29E7B
:1023F000240EA96EA69CA69EA680A85021BFF28E90
:10240000226FF2CF23F5F29E250EA96EA69CA69E02
:10241000A680A85023BFF28E246F1EC51CF520C5D0
:102420001BF522C51AF524C519F5030EEA6EB80E80
:10243000E96E050EE26E190EE16E040E016EE6CF36
:10244000EEFF012EFCD7000147EF1CF00401F06BFA
:102450000301DC51006EDD51036E040E035C05E1E7
:10246000B00E005C000139E00301070E035C05E1DA
:10247000080E005C00013BE00301090E035C05E16E
:10248000600E005C00013DE00301120E035C05E1FB
:10249000C00E005C00013FE003011C0E035C05E17F
:1024A000200E005C000141E00301250E035C05E104
:1024B000800E005C000143E00301380E035C05E17F
:1024C000400E005C000145E003014B0E035C04E19B
:1024D0000052000146E003014FD0B8860A0EAF6EED
:1024E0001A0EB06EA60EAC6E000000004ED0B8867C
:1024F0005B0EAF6E110EB06EA60EAC6E000000004B
:1025000044D0B886040EAF6E0D0EB06EA60EAC6E43
:10251000000000003AD0B886820EAF6E060EB06E94
:10252000A60EAC6E0000000030D0B886560EAF6E1E
:10253000040EB06EA60EAC6E0000000026D0B88669
:10254000400EAF6E030EB06EA60EAC6E0000000023
:102550001CD0B8968A0EAF6EA60EAC6E00000000BE
:1025600014D0B886A00EAF6E010EB06EA60EAC6E83
:10257000000000000AD00301B886400EAF6E030EC3
:10258000B06EA60EAC6E00000000000149EF1CF01A
:102590008E0E006E1EC501F01DC502F0036A01AE6D
:1025A00005D0011E021E022A01E1012A015209E1A1
:1025B00002C001F0026A080E005E015202E1006AE8
:1025C0000DD0D89001BE04D0023601360006F9D7EE
:1025D00005011EAF02D0000101D0019E0001000CD8
:1025E00005011E51D8B471D0006E2251D8B46DD0FF
:1025F000002604E3810E002668E204D07F0E005E10
:1026000064E363E01FC526F52351261B1F8F238F2C
:1026100021512503F4CF28F520512403F4CF03F0F2
:10262000F3CF27F52503F3502827F4502723000E76
:10263000032221512403F3502827F4502723000EAE
:10264000026A032202221F512503F3502727F45068
:102650000322000E02221F512403F3500326F450DC
:102660000222000E016A012221512303F350272781
:10267000F4500322000E0222012220512303F350C2
:102680000326F4500222000E01221F512303F350AF
:102690000226F4500122002A01BE05D02737033656
:1026A000023601360006000E27AF0AD0032A0222A6
:1026B0000122015005E1025003E1035001E1002A2B
:1026C00026BF018E26AF019E04D0006A016A026A0D
:1026D000036A0001000C8E0E006E05011B51005EA6
:1026E0001CC502F01DC501F0028E005209E0D89011
:1026F000025202E1015204E002320132002EF7D709
:102700001CAF05D0011E021E012AD8B4022A000106
:10271000000C080E016EC250C30B0110C26E040003
:102720001A0E006E002EFED7C282C2B2FED7C4CFF0
:102730001AF50501C3CF19F5CD0E195D1B6F000EFB
:102740001A591C6F1E6F1BC51DF5000121DF03C048
:1027500021F502C020F501C01FF500C01EF5DF0EF7
:102760000501256F4F0E246F430E236F830E226FDA
:10277000000136DF03C01EF502C01DF501C01CF5C7
:1027800000C01BF5A8DF02C0C9F301C0C8F3140ED6
:10279000016EC250C30B0110C26E04001A0E006E0F
:1027A000002EFED7C282C2B2FED7C4CF1AF50501F1
:1027B000C3CF19F5CD0E195D1B6F000E1A591C6F92
:1027C0001E6F1BC51DF50001E3DE03C021F502C02D
:1027D00020F501C01FF500C01EF5DF0E0501256FB5
:1027E0004F0E246F430E236F830E226F0001F8DE1D
:1027F00003C01EF502C01DF501C01CF500C01BF58D
:102800006ADF02C0B3F301C0B2F3100E016EC25012
:10281000C30B0110C26E04001A0E006E002EFED70C
:10282000C282C2B2FED7C4CF1AF50501C3CF19F5D3
:10283000CD0E195D1B6F000E1A591C6F1E6F1BC544
:102840001DF50001A5DE03C021F502C020F501C081
:102850001FF500C01EF5DF0E0501256F4F0E246F1A
:10286000430E236F830E226F0001BADE03C01EF5F4
:1028700002C01DF501C01CF500C01BF52CDF02C015
:10288000BFF301C0BEF3000CD1900501195302E162
:102890001A5302E0000E01D0010E1D6F1A5305E11C
:1028A0001951060802E3000E01D0010E1D1503E0C8
:1028B0001A6B010E196F1F0E1E6FFF0E1D6F19513F
:1028C000006E05E0D8901E331D33002EFBD71D513E
:1028D0001B6F1E5170091C6F959A8C9A1CC51DF5B3
:1028E000C9501CC5C9FFC730FEE31BC51DF5C95043
:1028F0001BC5C9FFC730FEE3959A8C8AD1800001C1
:102900006BEF1CF0D1900501195302E11A5302E05C
:10291000000E01D0010E1D6F1A5305E11951060872
:1029200002E3000E01D0010E1D1503E01A6B010E2B
:10293000196F1F0E1E6FFF0E1D6F1951006E05E0FF
:10294000D8901E331D33002EFBD71D511B6F1E5117
:1029500070091C6F95988C981CC51DF5C9501CC535
:10296000C9FFC730FEE31BC51DF5C9501BC5C9FF14
:10297000C730FEE395988C88D180000171EF1CF080
:102980008E0E006E1AC501F019C502F0036A0152DD
:1029900009E102C001F0026A080E005E015202E184
:1029A000006A08D0D89001BE04D002360136000675
:1029B000F9D7019E000C05011D51D8B4A5D0296F8F
:1029C0002151D8B4A1D0295F05E37F0E2927D8B0C3
:1029D0009BD006D0810E295FD8A096D0D8B494D0D1
:1029E00029C500F0016A026A036A286B1EC527F533
:1029F000278F1FC526F520C525F5190E296F2451EF
:102A0000255F0DE2010E265F0AE2275F08E2285FDC
:102A100006E2282B272B262B2451252728D02351AB
:102A2000265F12E2010E275F0FE2285F0DE2282BDE
:102A3000272B235126272451252719E3262B17E17D
:102A4000272B15E1282B13D022518009275F0EE296
:102A5000010E285F0BE2282B2251800927272351E2
:102A60002627E9E3272BE7E1282BE5D70380292F49
:102A700001D00BD0D8902537263727372837D89064
:102A80000336023601362A37BAD72AA106D0D890A3
:102A90000132023203322A3302D0000635E02ABF67
:102AA0001ED0D89025372637273728372451255F61
:102AB00007E2010E265F04E2275F02E2285F1AE3C5
:102AC0002351265F05E2010E275F02E2285F12E331
:102AD00022518009275F03E2010E285F0BE3032ADE
:102AE00009E1022A07E1012A05E1002A0DE001328D
:102AF000023203321EC529F52251291B29AF02D00B
:102B0000018E06D0019E04D0006A016A026A036A3F
:102B10000001000C95928C9205011A510F0B1009BF
:102B20001B6FC9501BC5C9FFC730FEE319C51BF594
:102B3000C95019C5C9FFC730FEE395928C82929E99
:102B4000899E929E898E0001000CB60E006E036A6B
:102B5000026A016A05011E511F112011211102E1B3
:102B6000006A0DD0D89001BE09D01E371F3720371C
:102B70002137033602360136002EF4D7019E0001BC
:102B80003BEF1FF0800ED8A202D00501231B0501E8
:102B9000286B296B1FC527F52351271B1E51D8B45D
:102BA000DFD0266F006E2251D8B4E3D0265FD8B4B0
:102BB00083D03EE323C52CF52C8F24C52BF525C5EA
:102BC0002AF5296BD8902C332B332A332933262F1F
:102BD000F8D727AF03D02881E0D028912691288903
:102BE000050EEA6E210EE96EEBD0289927BF0AD0B8
:102BF00026A113D02C332B332A332933002AD8B4FF
:102C0000C7D00BD02CBF0CD0D89029372A372B3700
:102C10002C370006D8B4BCD0F5D7288D6DD0289DB0
:102C20001FC527F51FAF02D02C8FABD02C9FA9D08A
:102C300022C526F522C500F01E51265F1FC52CF5C2
:102C40002C8F20C52BF521C52AF5296BD8902C3364
:102C50002B332A332933262FF8D727AF03D02883E5
:102C60009CD028932691288B050EEA6E250EE96EDE
:102C7000A7D0289B27BF0AD026A113D02C332B33F3
:102C80002A332933002AD8B483D00BD02CBF0CD0E0
:102C9000D89029372A372B372C370006D8B478D06C
:102CA000F5D7288F29D0289F23C527F523AF02D039
:102CB0002C8F67D02C9F65D023C52CF52C8F24C575
:102CC0002BF525C52AF527AF04D02C9F288565D084
:102CD0002895296B2691050EEA6E210EE96E70D0BB
:102CE00027BF1CD01FC527F526A106D02C332B33B8
:102CF0002A332933002A4CE029AF0BD02A2B09E1D3
:102D00002B2B07E12C2B05E12C332B332A33002A04
:102D10003FE028BD84D728BFC6D71CD0800E2C1B0F
:102D20002CAF04D03AD023C527F50AD01FC527F50C
:102D30002C5306E12B5304E12A5302E1006A21D00F
:102D40002CBF08D0D89029372A372B372C37002EA4
:102D5000F7D71ED027AF02D02C8F13D02C9F11D0C5
:102D600022C500F023C52CF524C52BF525C52AF571
:102D700008D01EC500F01FC52CF520C52BF521C5B8
:102D80002AF52CC501F02BC502F02AC503F034D07A
:102D9000006A016A026A036A2FD0296B2A1F2B1F5F
:102DA0002C1F291F292B05E12A2B03E12B2B01E1E5
:102DB0002C2B28B112D728B354D728B589D7B3D72D
:102DC000EF502A2705E32B2B03E12C2BD8B42681C7
:102DD000ED52EF502B2703E32C2BD8B42681ED5274
:102DE000EF50EFBE01D0800A2C27D8B0268128B939
:102DF000FCD628BB3ED774D7000168EF1FF0050151
:102E0000266B276B010E286FDA6AD96A050E2B6FC5
:102E10001E0E2A6F050EEA6E220EE96E2BC5E2FF2A
:102E20002AC5E1FF28C529F5D890E550EE02F350F8
:102E30002623F4502723292FF7D726C5DEFF27C5E1
:102E400026F5276BD8B0272B2A2BD8B42B2B282B71
:102E500028510508DFE10001000CF86AD09E078EBA
:102E6000EA6AE96A700ED36E400E9B6ED35003017E
:102E7000C76BEE6B320EED6F0401F06B929C899C78
:102E8000B886400EAF6E030EB06EA60EAC6E900EFE
:102E9000AB6E00000000C150C00B0F09C16E070EE1
:102EA000B46E1A6A1B6A1C6A1D6A1E6A1F6A206A4F
:102EB000216A226A236A246A256A266A276A286A9E
:102EC000296A2A6A2B6A2C6A2D6A2E6A2F6A306A4E
:102ED000316A326A336A346A356A366A376A386AFE
:102EE000396A3A6A3B6A3C6A3D6A3E6A3F6A406AAE
:102EF000416A426A436A446A456A466A476A486A5E
:102F0000496A4A6A4B6A4C6A4D6A4E6A4F6A506A0D
:102F1000516A526A536A546A556A566A576A586ABD
:102F2000596A5A6A5B6A5C6A5D6A5E6A5F6A606A6D
:102F3000616A626A636A646A656A666A676A686A1D
:102F4000696A6A6A6B6A6C6A6D6A6E6A6F6A706ACD
:102F5000716A726A736A746A756A766A776A786A7D
:102F6000796A7A6A7B6A7C6A7D6A7E6A7F6A000116
:102F7000806B816B826B836B846B856B866B876BDD
:102F8000886B896B8A6B8B6B8C6B8D6B8E6B8F6B8D
:102F9000906B916B926B936B946B956B966B976B3D
:102FA000986B996B9A6B9B6B9C6B9D6B9E6B9F6BED
:102FB000A06BA16BA26BA36BA46BA56BA66BA76B9D
:102FC000A86BA96BAA6BAB6BAC6BAD6BAE6BAF6B4D
:102FD000B06BB16BB26BB36BB46BB56BB66BB76BFD
:102FE000B86BB96BBA6BBB6BBC6BBD6BBE6BBF6BAD
:102FF000C06BC16BC26BC36BC46BC56BC66BC76B5D
:10300000C86BC96BCA6BCB6BCC6BCD6BCE6BCF6B0C
:10301000D06BD16BD26BD36BD46BD56BD66BD76BBC
:10302000D86BD96BDA6BDB6BDC6BDD6BDE6BDF6B6C
:10303000E06BE16BE26BE36BE46BE56BE66BE76B1C
:10304000E86BE96BEA6BEB6BEC6BED6BEE6BEF6BCC
:10305000F06BF16BF26BF36BF46BF56BF66BF76B7C
:10306000F86BF96BFA6BFB6BFC6BFD6BFE6BFF6B2C
:103070000101006B016B026B036B046B056B066B4C
:10308000076B086B096B0A6B0B6B0C6B0D6B0E6B94
:103090000F6B106B116B126B136B146B156B166B44
:1030A000176B186B196B1A6B1B6B1C6B1D6B1E6BF4
:1030B0001F6B206B216B226B236B246B256B266BA4
:1030C000276B286B296B2A6B2B6B2C6B2D6B2E6B54
:1030D0002F6B306B316B326B336B346B356B366B04
:1030E000376B386B396B3A6B3B6B3C6B3D6B3E6BB4
:1030F0003F6B406B416B426B436B446B456B466B64
:10310000476B486B496B4A6B4B6B4C6B4D6B4E6B13
:103110004F6B506B516B526B536B546B556B566BC3
:10312000576B586B596B5A6B5B6B5C6B5D6B5E6B73
:103130005F6B606B616B626B636B646B656B666B23
:10314000676B686B696B6A6B6B6B6C6B6D6B6E6BD3
:103150006F6B706B716B726B736B746B756B766B83
:10316000776B786B796B7A6B7B6B7C6B7D6B7E6B33
:103170007F6B806B816B826B836B846B856B866BE3
:10318000876B886B896B8A6B8B6B8C6B8D6B8E6B93
:103190008F6B906B916B926B936B946B956B966B43
:1031A000976B986B996B9A6B9B6B9C6B9D6B9E6BF3
:1031B0009F6BA06BA16BA26BA36BA46BA56BA66BA3
:1031C000A76BA86BA96BAA6BAB6BAC6BAD6BAE6B53
:1031D000AF6BB06BB16BB26BB36BB46BB56BB66B03
:1031E000B76BB86BB96BBA6BBB6BBC6BBD6BBE6BB3
:1031F000BF6BC06BC16BC26BC36BC46BC56BC66B63
:10320000C76BC86BC96BCA6BCB6BCC6BCD6BCE6B12
:10321000CF6BD06BD16BD26BD36BD46BD56BD66BC2
:10322000D76BD86BD96BDA6BDB6BDC6BDD6BDE6B72
:10323000DF6BE06BE16BE26BE36BE46BE56BE66B22
:10324000E76BE86BE96BEA6BEB6BEC6BED6BEE6BD2
:10325000EF6BF06BF16BF26BF36BF46BF56BF66B82
:10326000F76BF86BF96BFA6BFB6BFC6BFD6BFE6B32
:10327000FF6B0201006B016B026B036B046B056B50
:10328000066B076B086B096B0A6B0B6B0C6B0D6B9A
:103290000E6B0F6B106B116B126B136B146B156B4A
:1032A000166B176B186B196B1A6B1B6B1C6B1D6BFA
:1032B0001E6B1F6B206B216B226B236B246B256BAA
:1032C000266B276B286B296B2A6B2B6B2C6B2D6B5A
:1032D0002E6B2F6B306B316B326B336B346B356B0A
:1032E000366B376B386B396B3A6B3B6B3C6B3D6BBA
:1032F0003E6B3F6B406B416B426B436B446B456B6A
:10330000466B476B486B496B4A6B4B6B4C6B4D6B19
:103310004E6B4F6B506B516B526B536B546B556BC9
:10332000566B576B586B596B5A6B5B6B5C6B5D6B79
:103330005E6B5F6B606B616B626B636B646B656B29
:10334000666B676B686B696B6A6B6B6B6C6B6D6BD9
:103350006E6B6F6B706B716B726B736B746B756B89
:10336000766B776B786B796B7A6B7B6B7C6B7D6B39
:103370007E6B7F6B806B816B826B836B846B856BE9
:10338000866B876B886B896B8A6B8B6B8C6B8D6B99
:103390008E6B8F6B906B916B926B936B946B956B49
:1033A000966B976B986B996B9A6B9B6B9C6B9D6BF9
:1033B0009E6B9F6BA06BA16BA26BA36BA46BA56BA9
:1033C000A66BA76BA86BA96BAA6BAB6BAC6BAD6B59
:1033D000AE6BAF6BB06BB16BB26BB36BB46BB56B09
:1033E000B66BB76BB86BB96BBA6BBB6BBC6BBD6BB9
:1033F000BE6BBF6BC06BC16BC26BC36BC46BC56B69
:10340000C66BC76BC86BC96BCA6BCB6BCC6BCD6B18
:10341000CE6BCF6BD06BD16BD26BD36BD46BD56BC8
:10342000D66BD76BD86BD96BDA6BDB6BDC6BDD6B78
:10343000DE6BDF6BE06BE16BE26BE36BE46BE56B28
:10344000E66BE76BE86BE96BEA6BEB6BEC6BED6BD8
:10345000EE6BEF6BF06BF16BF26BF36BF46BF56B88
:10346000F66BF76BF86BF96BFA6BFB6BFC6BFD6B38
:10347000FE6BFF6B0301006B016B026B036B046B54
:10348000056B066B076B086B096B0A6B0B6B0C6BA0
:103490000D6B0E6B0F6B106B116B126B136B146B50
:1034A000156B166B176B186B196B1A6B1B6B1C6B00
:1034B0001D6B1E6B1F6B206B216B226B236B246BB0
:1034C000256B266B276B286B296B2A6B2B6B2C6B60
:1034D0002D6B2E6B2F6B306B316B326B336B346B10
:1034E000356B366B376B386B396B3A6B3B6B3C6BC0
:1034F0003D6B3E6B3F6B406B416B426B436B446B70
:10350000456B466B476B486B496B4A6B4B6B4C6B1F
:103510004D6B4E6B4F6B506B516B526B536B546BCF
:10352000556B566B576B586B596B5A6B5B6B5C6B7F
:103530005D6B5E6B5F6B606B616B626B636B646B2F
:10354000656B666B676B686B696B6A6B6B6B6C6BDF
:103550006D6B6E6B6F6B706B716B726B736B746B8F
:10356000756B766B776B786B796B7A6B7B6B7C6B3F
:103570007D6B7E6B7F6B806B816B826B836B846BEF
:10358000856B866B876B886B896B8A6B8B6B8C6B9F
:103590008D6B8E6B8F6B906B916B926B936B946B4F
:1035A000956B966B976B986B996B9A6B9B6B9C6BFF
:1035B0009D6B9E6B9F6BA06BA16BA26BA36BA46BAF
:1035C000A56BA66BA76BA86BA96BAA6BAB6BAC6B5F
:1035D000AD6BAE6BAF6BB06BB16BB26BB36BB46B0F
:1035E000B56BB66BB76BB86BB96BBA6BBB6BBC6BBF
:1035F000BD6BBE6BBF6BC06BC16BC26BC36BC46B6F
:10360000C56BC691C86BC96BCA6BCB6BCC6BCD6BF2
:10361000CE6BCF6BD06BD16BD26BD36BD46BD56BC6
:10362000D66BD76BD86BD96BDA6BDB6BDC6BDD6B76
:10363000DE6BDF6BE06BE16BE26BE36BE46BE56B26
:10364000E66BE76BE86BE96BEA6BEB6BEC6BF06BD3
:10365000F16BF26BF36BF46BF56BF66BF76BF86B6E
:10366000F96BFA6BFB6BFC6BFD6BFE6BFF6B040184
:10367000006B016B026B036B046B056B066B076BD6
:10368000086B096B0A6B0B6B0C6B0D6B0E6B0F6B86
:10369000106B116B126B136B146B156B166B176B36
:1036A000186B196B1A6B1B6B1C6B1D6B1E6B1F6BE6
:1036B000206B216B226B236B246B256B266B276B96
:1036C000286B296B2A6B2B6B2C6B2D6B2E6B2F6B46
:1036D000306B316B326B336B346B356B366B376BF6
:1036E000386B396B3A6B3B6B3C6B3D6B3E6B3F6BA6
:1036F000406B416B426B436B446B456B466B476B56
:10370000486B496B4A6B4B6B4C6B4D6B4E6B4F6B05
:10371000506B516B526B536B546B556B566B576BB5
:10372000586B596B5A6B5B6B5C6B5D6B5E6B5F6B65
:10373000606B616B626B636B646B656B666B676B15
:10374000686B696B6A6B6B6B6C6B6D6B6E6B6F6BC5
:10375000706B716B726B736B746B756B766B776B75
:10376000786B796B7A6B7B6B7C6B7D6B7E6B7F6B25
:10377000806B816B826B836B846B856B866B876BD5
:10378000886B896B8A6B8B6B8C6B8D6B8E6B8F6B85
:10379000906B916B926B936B946B956B966B976B35
:1037A000986B996B9A6B9B6B9C6B9D6B9E6B9F6BE5
:1037B000A06BA16BA26BA36BA46BA56BA66BA76B95
:1037C000A86BA96BAA6BAB6BAC6BAD6BAE6BAF6B45
:1037D000B06BB16BB26BB36BB46BB56BB66BB76BF5
:1037E000B86BB96BBA6BBB6BBC6BBD6BBE6BBF6BA5
:1037F000C06BC16BC26BC36BC46BC56BC66BC76B55
:10380000C86BC96BCA6BCB6BCC6BCD6BCE6BCF6B04
:10381000D06BD16BD26BD36BD46BD56BD66BD76BB4
:10382000D86BD96BDA6BDB6BDC6BDD6BDE6BDF6B64
:10383000E06BE16BE26BE36BE46BE56BE66BE76B14
:10384000E86BE96BEA6BEB6BEC6BED6BEE6BEF6BC4
:10385000F16BF26BF36BF46BF56BF66BF76BF86B6C
:10386000F96BFA6BFB6BFC6BFE6BFD6B0501066B7A
:10387000056B046B036B010E0F6FFF0E0E6F136B66
:10388000010E126F00016CEF0FF0BBEF0FF026EF8F
:1038900012F09D8A9D90C00EF21296928D82010EBA
:1038A0000301EF6F0400EF51FC0FD8B04DEF20F093
:1038B000040F00014FEF20F089EC13F003014DEFEE
:1038C00020F00501116B106BABC31AF5AAC319F5F3
:1038D000000144EF14F0B7C31AF5B6C319F582EF2F
:1038E00014F00301C25302E1C35318E0C35316E1BD
:1038F000C251060813E30501136B010E126F030199
:10390000C251006E0AE0D890050112371337002E1D
:1039100001D002D00301F7D7030104D00501136BD6
:10392000010E126F0501006B0401FF6B05010051D0
:10393000135D22E308E112510401FF5DD8A002D01B
:1039400005011AD00501D8900401FF35026E05016A
:103950000035036E02501A0FE96E000E0320EA6E66
:10396000EC6AED52EF6A0401FF2BD8A403D00501E5
:10397000002B0401DBD70501086B076B096B030102
:10398000E06B0001A36BA26B9F6B9E6BA16BA06BA6
:103990009D6B9C6B9B6B9A6BCBC31AF5CAC319F5D5
:1039A000C0EC14F000C016F501C017F502C018F500
:1039B00003C019F503C020F502C01FF501C01EF5B4
:1039C00000C01DF50501246B236B7A0E226F880E53
:1039D000216F0001DBEC14F000C016F501C017F5F3
:1039E00002C018F503C019F503C021F502C020F587
:1039F00001C01FF500C01EF5CD0E0501256FCC0ED0
:103A0000246F4C0E236F860E226F0001F0EC12F033
:103A100003C01EF502C01DF501C01CF500C01BF55A
:103A20006BEC13F002C0CDF301C0CCF3CFC31AF599
:103A3000CEC319F5C0EC14F000C016F501C017F59F
:103A400002C018F503C019F503C020F502C01FF528
:103A500001C01EF500C01DF50501246B236B7A0E15
:103A6000226F880E216F0001DBEC14F000C016F508
:103A700001C017F502C018F503C019F503C021F500
:103A800002C020F501C01FF500C01EF5CD0E0501D6
:103A9000256FCC0E246F4C0E236F860E226F000113
:103AA000F0EC12F003C01EF502C01DF501C01CF5BC
:103AB00000C01BF56BEC13F001500301CC25D06F57
:103AC0000250CD21D16FD1510F0804E20F0ED16FFA
:103AD000FF0ED06F020EEF6FE0D294908B70CDC3CB
:103AE0001AF5CCC319F58AEC15F0000E016EC25020
:103AF000C30B0110C26E05010D6B0C6B0B6B0A6BD7
:103B0000066B056B046B036B0401FE6BFD6BCDC391
:103B100015F5CCC314F5050115510301D15DD8A0ED
:103B200097D006E1050114510301D05DD8A090D0D3
:103B30000400C28215C51AF514C519F500018AECF6
:103B400015F0C2B2FED7C4CF02F50501C3CF01F50F
:103B5000D8900301E035036A1A0FE96E000E0320C6
:103B6000EA6EECCF03F0ED52EF500501035F035016
:103B7000045B000E055B065B015103270251042321
:103B8000000E05230623D8900301E035036A1A0FBF
:103B9000E96E000E0320EA6E02C5ECFFED5201C58E
:103BA000EFFFE05304E112C5E0F3E00701D0E007C6
:103BB00006C503F005C502F004C501F003C500F019
:103BC000C2510501166F07E0D8900332023201326C
:103BD0000032162FF9D701C09BF000C09AF0000107
:103BE0009A5105010A2700019B5105010B23000E84
:103BF0000C230D2300019D519B5D0CE303E19A51C1
:103C00009C5D08E208C59FF007C59EF09BC09DF033
:103C10009AC09CF00501072BD8B4082B0F51000166
:103C20009B5D0CE307E19A5105010E5DD8A002D01F
:103C3000000104D00501102BD8B4112B0401FD2B79
:103C4000D8B4FE2B0501142BD8B4152B65D703016E
:103C5000030EEF6F22D289EC13F004000301ED5143
:103C6000DA25016EEE51DB21036E0150C9BF09D088
:103C70000350C95D06E303E1C851015C02E296927C
:103C80008D92ED51DA5D006EEE51DB59036E00C08E
:103C900001F0C9BF07D0C951035C06E303E101503D
:103CA000C85D02E296928D82D890C735036AA40F50
:103CB000E96E000E0320EA6E9DC0ECFFED529CC041
:103CC000EFFFD890C735036AA40FE96E000E0320FA
:103CD000EA6EECCF17F5ED52EFCF16F5D89005014F
:103CE00017310F6F16310E6FD8900301C735036A75
:103CF000A40FE96E010E0320EA6E11C5ECFFED5230
:103D000010C5EFFFD890C735036AA40FE96E020E05
:103D10000320EA6E9FC0ECFFED529EC0EFFFC75339
:103D200004E1010EC45DC76F01D0C707E46BE36B0C
:103D3000E26BE16BE86BE76BE66BE56BEC6BEB6BF7
:103D4000EA6BE96B0501006B0401FF6B0501005193
:103D50000301C55D5BE308E1C4510401FF5DD8A028
:103D600002D0030153D003010400D8900401FF35B1
:103D7000026E05010035036E0250A40FE96E000EBD
:103D80000320EA6EECCF03F0ED52EF500301E12780
:103D90000350E223000EE323E423D8900401FF350F
:103DA000026E05010035036E0250A40FE96E010E8C
:103DB0000320EA6EECCF03F0ED52EF500301E5274C
:103DC0000350E623000EE723E823D8900401FF35D3
:103DD000026E05010035036E0250A40FE96E020E5B
:103DE0000320EA6EECCF03F0ED52EF500301E92718
:103DF0000350EA23000EEB23EC230401FF2BD8A48D
:103E000003D00501002B0401A1D703010400E43114
:103E100005011A6F0301E3310501196F0301E23156
:103E20000501186F0301E1310501176F1A331933CA
:103E3000183317331A331933183317331A33193326
:103E4000183317331A331933183317331A33193316
:103E5000183317331A33193318331733010E1A175F
:103E60001AC521F519C520F518C51FF517C51EF58A
:103E70000001A5EF15F003C021F502C020F501C037
:103E80001FF500C01EF5E60E0501256F3F0E246FDD
:103E90001C0E236F800E226F0001F0EC12F000C0A8
:103EA00017F501C018F502C019F503C01AF5D8823C
:103EB00003C021F502C020F501C01FF500C01EF5AA
:103EC0000501256B246B236B226B0001C2EF15F0FB
:103ED00003C01EF502C01DF501C01CF500C01BF596
:103EE0006BEC13F002C018F501C017F502C0A5F382
:103EF00001C0A4F30301AA51006E05E0D890A533D8
:103F0000A433002EFBD70400E83105011A6F03012A
:103F1000E7310501196F0301E6310501186F03014F
:103F2000E5310501176F1A331933183317331A3374
:103F30001933183317331A331933183317331A3325
:103F40001933183317331A331933183317331A3315
:103F5000193318331733010E1A171AC521F519C56D
:103F600020F518C51FF517C51EF5256B246B270E08
:103F7000236F100E226F0001FFEC16F003C01AF53C
:103F800002C019F501C018F500C017F5D892196ADA
:103F9000F2BE198EF29E03C031F502C030F501C0A9
:103FA0002FF500C02EF50501356B346BFEC433F5DB
:103FB000FDC432F500016DEC01F019BEF28E01C0B6
:103FC000A7F300C0A6F304000301EC3105011A6F4A
:103FD0000301EB310501196F0301EA310501186F87
:103FE0000301E9310501176F1A33193318331733F9
:103FF0001A331933183317331A3319331833173365
:104000001A331933183317331A3319331833173354
:104010001A33193318331733010E1A171AC521F53D
:1040200019C520F518C51FF517C51EF5256B246B9E
:10403000270E236F100E226F0001FFEC16F003C055
:104040001AF502C019F501C018F500C017F5D8928D
:10405000196AF2BE198EF29E03C031F502C030F526
:1040600001C02FF500C02EF50501356B346BFEC481
:1040700033F5FDC432F500016DEC01F019BEF28E8E
:1040800001C0A9F300C0A8F30301C6A102D0EF6BE1
:1040900002D0010EEF6F01D0030104D4FFD7E82452
:1040A000F76AF736B90FF66E400EF7220A00F550A0
:1040B000FA6E0800F550F96EB838C238DA3A563C54
:0200000400F00A
:100000000000204E01000100000880000300004BAA
:100010000100C409C409B80B00000000007F000003
:080020000000000000000000D8
:020000040030CA
:0E00000000C81900000700000FC00FE00F40FD
:00000001FF
;PIC18F4520
;CRC=B9CF  CREATED="29-дек-15 02:25"
