:04000000C1EF16F046
:08000800046ED8CF05F0E0CF33
:1000100006F00001E9CF0CF0EACF07F0E1CF08F0DD
:10002000E2CF09F0D9CF0AF0DACF0BF0F3CF12F01C
:10003000F4CF13F0FACF14F0F5CF15F0F6CF16F099
:10004000F7CF17F000C00EF001C00FF002C010F0A3
:1000500003C011F09DA030EF00F09EB078EF0CF0DF
:100060009DAA36EF00F09EBAB8EF01F00EC000F086
:100070000FC001F010C002F011C003F00CC0E9FF86
:1000800007C0EAFF078E08C0E1FF09C0E2FF0AC00F
:10009000D9FF0BC0DAFF12C0F3FF13C0F4FF14C086
:1000A000FAFF15C0F5FF16C0F6FF17C0F7FF0450A2
:1000B00006C0E0FF05C0D8FF1000F76ACA0FF66E51
:1000C000000EF7220900F550120000C1814001C066
:1000D000804101C0804100C1814001C0804100C118
:1000E000814000C1814001C0804101C0804100C108
:1000F000814000C1814001C0804100C1814001C0F8
:10010000804101C0804100C1814001C0804100C1E7
:10011000814000C1814001C0804100C1814001C0D7
:10012000804101C0804100C1814000C1814001C0C7
:10013000804101C0804100C1814001C0804100C1B7
:10014000814000C1814001C0804101C0804100C1A7
:10015000814000C1814001C0804100C1814001C097
:10016000804101C0804100C1814000C1814001C087
:10017000804101C0804100C1814001C0804100C177
:10018000814000C1814001C0804100C1814001C067
:10019000804101C0804100C1814001C0804100C157
:1001A000814000C1814001C0804101C0804100C147
:1001B000814000C1814001C0804100C1814001C037
:1001C000804101C0804100C18140F76ADA0FF66EBC
:1001D000010EF7220900F550120000C0C101C3034F
:1001E00002C2C60607C705C5C404CC0C0DCD0FCF8F
:1001F000CE0E0ACACB0BC90908C8D81819D91BDBFF
:10020000DA1A1EDEDF1FDD1D1CDC14D4D515D7174E
:1002100016D6D21213D311D1D010F03031F133F3FE
:10022000F23236F6F737F53534F43CFCFD3DFF3F4E
:100230003EFEFA3A3BFB39F9F83828E8E929EB2B7E
:100240002AEAEE2E2FEF2DEDEC2CE42425E527E70E
:10025000E62622E2E323E12120E0A06061A163A37E
:10026000A26266A6A767A56564A46CACAD6DAF6F0E
:100270006EAEAA6A6BAB69A9A86878B8B979BB7B7E
:100280007ABABE7E7FBF7DBDBC7CB47475B577B7CE
:10029000B67672B2B373B17170B0509091519353FE
:1002A000529296565797559594549C5C5D9D5F9FCE
:1002B0009E5E5A9A9B5B99595898884849894B8BFE
:1002C0008A4A4E8E8F4F8D4D4C8C4484854587478E
:1002D00046868242438341818040D8B204D0050ED5
:1002E000EA6EA20EE96E006A016A026A036A0501FB
:1002F000A26BA36BA46BA56BA151A0119F119E11C2
:100300002CE0200EA66FD8909A379B379C379D37EC
:10031000A237A337A437A537A151A55D08E1A051A5
:10032000A45D05E19F51A35D02E19E51A25D0FE333
:100330009E51A25F9F51D8A09F3DA35FA051D8A01E
:10034000A03DA45FA151D8A0A13DA55FD8800036F3
:10035000013602360336A62FD6D7A2C5EFFFA3C5B6
:10036000ECFFA4C5ECFFA5C5ECFF0001D8EF01F040
:10037000036A05015D515D0FE96E040E0320EA6E0C
:100380009EAAFED7AECFEFFF5D2B94908B90D892B4
:10039000020E9D6F160E9C6F0E0E9B6FC00E9A6F15
:1003A000A16BA06BE2C39FF5E1C39EF5000195D759
:1003B000FF0ED88000560156000E0256035601C0AB
:1003C000CFFF00C0CEFF9E909D809E9A36EF00F03A
:1003D000FF0E0501A76FA86FA56BA451A55D1CE2D8
:1003E000036AA551A225E96EA3510320EA6EEF50DE
:1003F000A819A66F036AA65100015FDE016E050110
:10040000A7510118A86F036AA6510001DEDEE8CFEC
:10041000A7F50501A52BE1D7A8C503F0A7C501F0F5
:10042000A8C502F00001000C04000501A151000A5A
:10043000000158E0010AD8B471D0030AD8B48AD0B8
:10044000010AD8B4A3D0070AD8B4B6D0010AD8B4E8
:10045000CFD0030AD8B4E2D0010AD8B4FBD00F0A37
:10046000D8B414D1010AD8B42DD1030AD8B440D1DC
:10047000010AD8B453D1070AD8B46CD1010AD8B450
:1004800085D1030AD8B49ED1010AD8B4B7D11F0AC6
:10049000D8B4D0D1010AD8B4E9D1030AD8B402D271
:1004A000010AD8B41BD2070AD8B434D2010AD8B48E
:1004B00049D2030AD8B45ED2010AD8B473D20F0A63
:1004C000D8B4AAD2010AD8B4E1D2030AD8B418D356
:1004D000010AD8B43DD3070AD8B456D3010AD8B418
:1004E0006FD38AD3036A050168515D0FE96E040E6C
:1004F0000320EA6E0301AAC3EFFF0501682B036A1C
:1005000068515D0FE96E040E0320EA6E0301A9C372
:10051000EFFF0501682B020E5D277CD3036A0501FE
:1005200068515D0FE96E040E0320EA6E0301B6C345
:10053000EFFF0501682B036A68515D0FE96E040E39
:100540000320EA6E0301B5C3EFFF0501682B020E1D
:100550005D2760D3036A050168515D0FE96E040EE3
:100560000320EA6E0301A6C3EFFF0501682B036AAF
:1005700068515D0FE96E040E0320EA6E0301A5C306
:10058000EFFF0501682B020E5D2744D3036A0501C6
:1005900068515D0FE96E040E0320EA6EEF6A682B66
:1005A000036A68515D0FE96E040E0320EA6EEF6A7C
:1005B000682B020E5D272ED3036A050168515D0F7B
:1005C000E96E040E0320EA6E0301A4C3EFFF0501E8
:1005D000682B036A68515D0FE96E040E0320EA6E12
:1005E0000301A3C3EFFF0501682B020E5D2712D3A1
:1005F000036A050168515D0FE96E040E0320EA6E7F
:10060000EF6A682B036A68515D0FE96E040E0320E0
:10061000EA6EEF6A682B020E5D27FCD2036A0501C1
:1006200068515D0FE96E040E0320EA6E0301CAC330
:10063000EFFF0501682B036A68515D0FE96E040E38
:100640000320EA6E0301C9C3EFFF0501682B020E08
:100650005D27E0D2036A050168515D0FE96E040E63
:100660000320EA6E0301B4C3EFFF0501682B036AA0
:1006700068515D0FE96E040E0320EA6E0301B3C3F7
:10068000EFFF0501682B020E5D27C4D2036A050146
:1006900068515D0FE96E040E0320EA6E0301C0C3CA
:1006A000EFFF0501682B036A68515D0FE96E040EC8
:1006B0000320EA6E0301BFC3EFFF0501682B020EA2
:1006C0005D27A8D2036A050168515D0FE96E040E2B
:1006D0000320EA6EEF6A682B036A68515D0FE96ECA
:1006E000040E0320EA6EEF6A682B020E5D2792D299
:1006F000036A050168515D0FE96E040E0320EA6E7E
:10070000EF6A682B036A68515D0FE96E040E0320DF
:10071000EA6EEF6A682B020E5D277CD2036A050140
:1007200068515D0FE96E040E0320EA6E0301CCC32D
:10073000EFFF0501682B036A68515D0FE96E040E37
:100740000320EA6E0301CBC3EFFF0501682B020E05
:100750005D2760D2036A050168515D0FE96E040EE2
:100760000320EA6E0301D2C3EFFF0501682B036A81
:1007700068515D0FE96E040E0320EA6E0301D1C3D8
:10078000EFFF0501682B020E5D2744D2036A0501C5
:1007900068515D0FE96E040E0320EA6E0301ACC3DD
:1007A000EFFF0501682B036A68515D0FE96E040EC7
:1007B0000320EA6E0301ABC3EFFF0501682B020EB5
:1007C0005D2728D2036A050168515D0FE96E040EAA
:1007D0000320EA6E0301B8C3EFFF0501682B036A2B
:1007E00068515D0FE96E040E0320EA6E0301B7C382
:1007F000EFFF0501682B020E5D270CD2036A05018D
:1008000068515D0FE96E040E0320EA6E0301C2C356
:10081000EFFF0501682B036A68515D0FE96E040E56
:100820000320EA6E0301C1C3EFFF0501682B020E2E
:100830005D27F0D1036A050168515D0FE96E040E72
:100840000320EA6E0301C4C3EFFF0501682B036AAE
:1008500068515D0FE96E040E0320EA6E0301C3C305
:10086000EFFF0501682B020E5D27D4D1036A050155
:1008700068515D0FE96E040E0320EA6E0301C6C3E2
:10088000EFFF0501682B036A68515D0FE96E040EE6
:100890000320EA6E0301C5C3EFFF0501682B020EBA
:1008A0005D27B8D1036A050168515D0FE96E040E3A
:1008B0000320EA6E0301E2C3EFFF0501682B036A20
:1008C00068515D0FE96E040E0320EA6E0301E1C377
:1008D000EFFF0501682B020E5D279CD1036A05011D
:1008E00068515D0FE96E040E0320EA6E0301E4C354
:1008F000EFFF0501682B036A68515D0FE96E040E76
:100900000320EA6E0301E3C3EFFF0501682B020E2B
:100910005D2780D1036A050168515D0FE96E040E01
:100920000320EA6E5FC5EFFF682B036A68515D0F15
:10093000E96E040E0320EA6E5EC5EFFF682B020E1F
:100940005D2768D1036A050168515D0FE96E040EE9
:100950000320EA6E61C5EFFF682B036A68515D0FE3
:10096000E96E040E0320EA6E60C5EFFF682B020EED
:100970005D2750D1036A050168515D0FE96E040ED1
:100980000320EA6E63C5EFFF682B036A68515D0FB1
:10099000E96E040E0320EA6E62C5EFFF682B020EBB
:1009A0005D2738D1050EEA6EA20EE96E030EE26EE7
:1009B000D70EE16E040E016EE6CFEEFF012EFCD7DE
:1009C000036A050168515D0FE96E040E0320EA6EAB
:1009D000A2C5EFFF682B036A68515D0FE96E040E34
:1009E0000320EA6EA3C5EFFF682B036A68515D0F11
:1009F000E96E040E0320EA6EA4C5EFFF682B036ABC
:100A000068515D0FE96E040E0320EA6EA5C5EFFF85
:100A1000682B040E5D27FED0050EEA6EA20EE96E6D
:100A2000030EE26EDB0EE16E040E016EE6CFEEFF0A
:100A3000012EFCD7036A050168515D0FE96E040EB3
:100A40000320EA6EA2C5EFFF682B036A68515D0FB1
:100A5000E96E040E0320EA6EA3C5EFFF682B036A5C
:100A600068515D0FE96E040E0320EA6EA4C5EFFF26
:100A7000682B036A68515D0FE96E040E0320EA6E6D
:100A8000A5C5EFFF682B040E5D27C4D0050EEA6EE6
:100A9000A20EE96E030EE26EAD0EE16E040E016E63
:100AA000E6CFEEFF012EFCD7036A050168515D0F0A
:100AB000E96E040E0320EA6EA2C5EFFF682B036AFD
:100AC00068515D0FE96E040E0320EA6EA3C5EFFFC7
:100AD000682B036A68515D0FE96E040E0320EA6E0D
:100AE000A4C5EFFF682B036A68515D0FE96E040E21
:100AF0000320EA6EA5C5EFFF682B040E5D278AD0A0
:100B0000036A050168515D0FE96E040E0320EA6E69
:100B1000EF6A682B036A68515D0FE96E040E0320CB
:100B2000EA6EEF6A682B036A68515D0FE96E040E86
:100B30000320EA6EEF6A682B036A68515D0FE96E65
:100B4000040E0320EA6EEF6A682B040E5D2762D064
:100B5000036A050168515D0FE96E040E0320EA6E19
:100B60000301B2C3EFFF0501682B036A68515D0FF3
:100B7000E96E040E0320EA6E0301B1C3EFFF050125
:100B8000682B020E5D2746D0036A050168515D0F90
:100B9000E96E040E0320EA6E0301BEC3EFFF0501F8
:100BA000682B036A68515D0FE96E040E0320EA6E3C
:100BB0000301BDC3EFFF0501682B020E5D272AD09C
:100BC000036A050168515D0FE96E040E0320EA6EA9
:100BD0000301E0C3EFFF0501682B036A68515D0F55
:100BE000E96E040E0320EA6E0301DFC3EFFF050187
:100BF000682B020E5D270ED004015E8F030E5F6F1F
:100C0000050E05015D6F622BD8B4632B5E51D8B41D
:100C10005F075E070001B0EF0DF004000501A15170
:100C2000000A000151E0010A53E0030A55E0010AFD
:100C300057E0070A59E0010A5BE0030A5DE0010A98
:100C40005FE00F0AD8B460D0010AD8B461D0030ABB
:100C5000D8B462D0010AD8B463D0070AD8B47BD024
:100C6000010AD8B493D0030AD8B4ABD0010AD8B4DF
:100C7000C3D01F0AD8B4DBD0010AD8B4F3D0030A1A
:100C8000D8B40BD1010AD8B40CD1070AD8B424D1F6
:100C9000010AD8B425D1030AD8B426D1010AD8B4A0
:100CA00027D10F0AD8B465D1010AD8B4A3D1030A59
:100CB000D8B4E1D1010AD8B4E2D1070AD8B4FAD144
:100CC000010AD8B412D22CD2020E0501682736D2FE
:100CD000020E0501682732D2020E050168272ED2C6
:100CE000020E050168272AD2020E0501682726D2C6
:100CF000020E0501682722D2020E050168271ED2C6
:100D0000020E050168271AD2020E0501682716D2C5
:100D1000020E0501682712D2020E050168270ED2C5
:100D2000036A050168515D0FE96E040E0320EA6E47
:100D3000EFCFA6F5010E6825036A5D0FE96E040E7C
:100D40000320EA6EEFCFA7F5A6C5CCF3A7C5CBF37A
:100D5000020E6827F3D1036A050168515D0FE96E41
:100D6000040E0320EA6EEFCFA6F5010E6825036A94
:100D70005D0FE96E040E0320EA6EEFCFA7F5A6C55E
:100D8000D2F3A7C5D1F3020E6827D8D1036A0501B3
:100D900068515D0FE96E040E0320EA6EEFCFA6F5F1
:100DA000010E6825036A5D0FE96E040E0320EA6EEA
:100DB000EFCFA7F5A6C5ACF3A7C5ABF3020E682726
:100DC000BDD1036A050168515D0FE96E040E032071
:100DD000EA6EEFCFA6F5010E6825036A5D0FE96E96
:100DE000040E0320EA6EEFCFA7F5A6C5B8F3A7C59A
:100DF000B7F3020E6827A2D1036A050168515D0F9F
:100E0000E96E040E0320EA6EEFCFA6F5010E682509
:100E1000036A5D0FE96E040E0320EA6EEFCFA7F5BB
:100E2000A6C5C2F3A7C5C1F3020E682787D1036A1E
:100E3000050168515D0FE96E040E0320EA6EEFCFE5
:100E4000A6F5010E6825036A5D0FE96E040E032006
:100E5000EA6EEFCFA7F5A6C5C4F3A7C5C3F3020E8C
:100E600068276CD1036A050168515D0FE96E040EB5
:100E70000320EA6EEFCFA6F5010E6825036A5D0F29
:100E8000E96E040E0320EA6EEFCFA7F5A6C5C6F300
:100E9000A7C5C5F3020E682751D1020E05016827C8
:100EA0004DD1036A050168515D0FE96E040E032000
:100EB000EA6EEFCFA6F5010E6825036A5D0FE96EB5
:100EC000040E0320EA6EEFCFA7F5A6C5E4F3A7C58D
:100ED000E3F3020E682732D1020E050168272ED1F6
:100EE000020E050168272AD1020E0501682726D1C6
:100EF000030E05016825036A5D0FE96E040E0320E9
:100F0000EA6EEFCFA6F5020E6825036A5D0FE96E63
:100F1000040E0320EA6EEFCFA7F5010E6825036AE1
:100F20005D0FE96E040E0320EA6EEFCFA8F5036AA9
:100F300068515D0FE96E040E0320EA6EEFCFA9F54C
:100F4000A6C5A5F5A7C5A4F5A8C5A3F5A9C5A2F58D
:100F5000030EEA6ED70EE96E050EE26EA20EE16E8A
:100F6000040E016EE6CFEEFF012EFCD7040E6827BB
:100F7000E5D0030E05016825036A5D0FE96E040ED6
:100F80000320EA6EEFCFA6F5020E6825036A5D0F17
:100F9000E96E040E0320EA6EEFCFA7F5010E682577
:100FA000036A5D0FE96E040E0320EA6EEFCFA8F529
:100FB000036A68515D0FE96E040E0320EA6EEFCFFD
:100FC000A9F5A6C5A5F5A7C5A4F5A8C5A3F5A9C506
:100FD000A2F5030EEA6EDB0EE96E050EE26EA20EBE
:100FE000E16E040E016EE6CFEEFF012EFCD7040E7B
:100FF0006827A4D0030E05016825036A5D0FE96E1A
:10100000040E0320EA6EEFCFA6F5020E6825036AF0
:101010005D0FE96E040E0320EA6EEFCFA7F5010E17
:101020006825036A5D0FE96E040E0320EA6EEFCFB8
:10103000A8F5036A68515D0FE96E040E0320EA6E9D
:10104000EFCFA9F5A6C5A5F5A7C5A4F5A8C5A3F535
:10105000A9C5A2F5030EEA6EAD0EE96E050EE26EAD
:10106000A20EE16E040E016EE6CFEEFF012EFCD75C
:10107000040E682763D0040E050168275FD0036A59
:10108000050168515D0FE96E040E0320EA6EEFCF93
:10109000A6F5010E6825036A5D0FE96E040E0320B4
:1010A000EA6EEFCFA7F5A6C5B2F3A7C5B1F3020E5E
:1010B000682744D0036A050168515D0FE96E040E8C
:1010C0000320EA6EEFCFA6F5010E6825036A5D0FD7
:1010D000E96E040E0320EA6EEFCFA7F5A6C5BEF3B6
:1010E000A7C5BDF3020E682729D0036A0501685120
:1010F0005D0FE96E040E0320EA6EEFCFA6F5010E38
:101100006825036A5D0FE96E040E0320EA6EEFCFD7
:10111000A7F5A6C5E0F3A7C5DFF3020E68270ED03A
:1011200004015E8F030E5F6F050E05015D6F622B7C
:10113000D8B4632B5E51D8B45F075E070001DBEFC4
:101140000DF0D190CBC3A5F5A96AA5C5A8FFA69CB3
:10115000A69EA684F250006EF29E0F01550EA76E59
:10116000AA0EA76EA682A6B2FED7A6940050F212CF
:10117000CCC3A5F5010EA96EA5C5A8FFA69CA69E89
:10118000A684F250006EF29E550EA76EAA0EA76EB0
:10119000A682A6B2FED7A6940050F212D1C3A5F53E
:1011A000020EA96ED1C3A8FFA69CA69EA684F2CF6C
:1011B00000F0F29E550EA76EAA0EA76EA682A6B2EA
:1011C000FED7A6940050F212D2C3A5F5030EA96E65
:1011D000D2C3A8FFA69CA69EA684F2CF00F0F29EE2
:1011E000550EA76EAA0EA76EA682A6B2FED7A6942B
:1011F0000050F212ABC3A5F5040EA96EABC3A8FF55
:10120000A69CA69EA684F2CF00F0F29E550EA76E75
:10121000AA0EA76EA682A6B2FED7A6940050F2121E
:10122000ACC3A5F5050EA96EACC3A8FFA69CA69EEF
:10123000A684F2CF00F0F29E550EA76EAA0EA76EFE
:10124000A682A6B2FED7A6940050F212B7C3A5F5A7
:10125000060EA96EB7C3A8FFA69CA69EA684F2CFD1
:1012600000F0F29E550EA76EAA0EA76EA682A6B239
:10127000FED7A6940050F212B8C3A5F5070EA96ECA
:10128000B8C3A8FFA69CA69EA684F2CF00F0F29E4B
:10129000550EA76EAA0EA76EA682A6B2FED7A6947A
:1012A0000050F212C1C3A5F5080EA96EC1C3A8FF74
:1012B000A69CA69EA684F2CF00F0F29E550EA76EC5
:1012C000AA0EA76EA682A6B2FED7A6940050F2126E
:1012D000C2C3A5F5090EA96EC2C3A8FFA69CA69E0F
:1012E000A684F2CF00F0F29E550EA76EAA0EA76E4E
:1012F000A682A6B2FED7A6940050F212C5C3A5F5E9
:101300000A0EA96EC5C3A8FFA69CA69EA684F2CF0E
:1013100000F0F29E550EA76EAA0EA76EA682A6B288
:10132000FED7A6940050F212C6C3A5F50B0EA96E07
:10133000C6C3A8FFA69CA69EA684F2CF00F0F29E8C
:10134000550EA76EAA0EA76EA682A6B2FED7A694C9
:101350000050F212C3C3A5F50C0EA96EC3C3A8FFBB
:10136000A69CA69EA684F2CF00F0F29E550EA76E14
:10137000AA0EA76EA682A6B2FED7A6940050F212BD
:10138000C4C3A5F50D0EA96EC4C3A8FFA69CA69E56
:10139000A684F2CF00F0F29E550EA76EAA0EA76E9D
:1013A000A682A6B2FED7A6940050F212E1C3A5F51C
:1013B0000E0EA96EE1C3A8FFA69CA69EA684F2CF3E
:1013C00000F0F29E550EA76EAA0EA76EA682A6B2D8
:1013D000FED7A6940050F212E2C3A5F50F0EA96E37
:1013E000E2C3A8FFA69CA69EA684F2CF00F0F29EC0
:1013F000550EA76EAA0EA76EA682A6B2FED7A69419
:101400000050F212E3C3A5F5100EA96EE3C3A8FFC6
:10141000A69CA69EA684F2CF00F0F29E550EA76E63
:10142000AA0EA76EA682A6B2FED7A6940050F2120C
:10143000E4C3A5F5110EA96EE4C3A8FFA69CA69E61
:10144000A684F2CF00F0F29E550EA76EAA0EA76EEC
:10145000A682A6B2FED7A6940050F212B1C3A5F59B
:10146000120EA96EB1C3A8FFA69CA69EA684F2CFB9
:1014700000F0F29E550EA76EAA0EA76EA682A6B227
:10148000FED7A6940050F212B2C3A5F5130EA96EB2
:10149000B2C3A8FFA69CA69EA684F2CF00F0F29E3F
:1014A000550EA76EAA0EA76EA682A6B2FED7A69468
:1014B0000050F212BDC3A5F5140EA96EBDC3A8FF5E
:1014C000A69CA69EA684F2CF00F0F29E550EA76EB3
:1014D000AA0EA76EA682A6B2FED7A6940050F2125C
:1014E000BEC3A5F5150EA96EBEC3A8FFA69CA69EF9
:1014F000A684F2CF00F0F29E550EA76EAA0EA76E3C
:10150000A682A6B2FED7A6940050F212DFC3A5F5BC
:10151000160EA96EDFC3A8FFA69CA69EA684F2CFD6
:1015200000F0F29E550EA76EAA0EA76EA682A6B276
:10153000FED7A6940050F212E0C3A5F5170EA96ECF
:10154000E0C3A8FFA69CA69EA684F2CF00F0F29E60
:10155000550EA76EAA0EA76EA682A6B2FED7A694B7
:101560000050F212050EEA6EA10EE96E030EE26E55
:10157000D70EE16E040E016EE6CFEEFF012EFCD712
:10158000A4C5A5F51A0EA96EA4C5A8FFA69CA69E83
:10159000A684F2CF00F0F29E550EA76EAA0EA76E9B
:1015A000A682A6B2FED7A6940050F212A3C5A5F556
:1015B0001B0EA96EA3C5A8FFA69CA69EA684F2CF6B
:1015C00000F0F29E550EA76EAA0EA76EA682A6B2D6
:1015D000FED7A6940050F212A2C5A5F5180EA96E6A
:1015E000A2C5A8FFA69CA69EA684F2CF00F0F29EFC
:1015F000550EA76EAA0EA76EA682A6B2FED7A69417
:101600000050F212A1C5A5F5190EA96EA1C5A8FF3B
:10161000A69CA69EA684F2CF00F0F29E550EA76E61
:10162000AA0EA76EA682A6B2FED7A6940050F2120A
:10163000050EEA6EA10EE96E030EE26EDB0EE16EA0
:10164000040E016EE6CFEEFF012EFCD7A4C5A5F572
:101650001E0EA96EA4C5A8FFA69CA69EA684F2CFC6
:1016600000F0F29E550EA76EAA0EA76EA682A6B235
:10167000FED7A6940050F212A3C5A5F51F0EA96EC1
:10168000A3C5A8FFA69CA69EA684F2CF00F0F29E5A
:10169000550EA76EAA0EA76EA682A6B2FED7A69476
:1016A0000050F212A2C5A5F51C0EA96EA2C5A8FF96
:1016B000A69CA69EA684F2CF00F0F29E550EA76EC1
:1016C000AA0EA76EA682A6B2FED7A6940050F2126A
:1016D000A1C5A5F51D0EA96EA1C5A8FFA69CA69E35
:1016E000A684F2CF00F0F29E550EA76EAA0EA76E4A
:1016F000A682A6B2FED7A6940050F212050EEA6E9C
:10170000A10EE96E030EE26ED70EE16E040E016EBD
:10171000E6CFEEFF012EFCD7A4C5A5F5220EA96EDB
:10172000A4C5A8FFA69CA69EA684F2CF00F0F29EB8
:10173000550EA76EAA0EA76EA682A6B2FED7A694D5
:101740000050F212A3C5A5F5230EA96EA3C5A8FFEC
:10175000A69CA69EA684F2CF00F0F29E550EA76E20
:10176000AA0EA76EA682A6B2FED7A6940050F212C9
:10177000A2C5A5F5200EA96EA2C5A8FFA69CA69E8F
:10178000A684F2CF00F0F29E550EA76EAA0EA76EA9
:10179000A682A6B2FED7A6940050F212A1C5A5F566
:1017A000210EA96EA1C5A8FFA69CA69EA684F2CF75
:1017B00000F0F29E550EA76EAA0EA76EA682A6B2E4
:1017C000FED7A6940050F212050EEA6EA10EE96E45
:1017D000030EE26ED70EE16E040E016EE6CFEEFF51
:1017E000012EFCD7A4C5A5F5260EA96EA4C5A8FF99
:1017F000A69CA69EA684F2CF00F0F29E550EA76E80
:10180000AA0EA76EA682A6B2FED7A6940050F21228
:10181000A3C5A5F5270EA96EA3C5A8FFA69CA69EE5
:10182000A684F2CF00F0F29E550EA76EAA0EA76E08
:10183000A682A6B2FED7A6940050F212A2C5A5F5C4
:10184000240EA96EA2C5A8FFA69CA69EA684F2CFD0
:1018500000F0F29E550EA76EAA0EA76EA682A6B243
:10186000FED7A6940050F212A1C5A5F5250EA96ECB
:10187000A1C5A8FFA69CA69EA684F2CF00F0F29E6A
:10188000550EA76EAA0EA76EA682A6B2FED7A69484
:101890000050F212D1800001F6EF0DF0050EEA6E55
:1018A000A10EE96EEF5011E00A0E016EBF0E006E40
:1018B0000400002EFDD7012EF9D75E0E006E002E1B
:1018C000FED700D00400EF2EEFD7ADEF0EF0929CC4
:1018D000898C9EA8FED70501A2C5ADFF0000929C91
:1018E000898CACA2FED7929C899C000133EF0FF04B
:1018F0009D9A94908B8005015D51030801E3B9D254
:101900000301E35104015D5D04E05D5302E0050164
:10191000B0D2020E05015D5DA16F040EA36F5D0ED6
:10192000A26FA1C5A4F50001E8EC01F002C067F5C3
:1019300001C066F5020E05015D5D036A5D0FE96E8B
:10194000040E0320EA6EEFCFA1F5010E5D5D036A80
:101950005D0FE96E040E0320EA6EEFCFA2F5A1C57C
:1019600065F5A2C564F56451665D03E16551675D87
:1019700004E0602BD8B4612B7CD204015E51420A92
:10198000000113E0010AD8B471D0070AD8B4CCD052
:10199000010AD8B4F4D0200AD8B421D10F0AD8B49F
:1019A00037D1010AD8B4EAD119D205015D51050831
:1019B00052E104015F51000A000105E0010A0EE056
:1019C000030A3BE03DD00301C791010EF46F040E02
:1019D00005015D6F5E2BD8B45F2B3CD00301C7813E
:1019E000010EF46F05019E6B9D6B9E510301C65D58
:1019F0001DE308E1C55105019D5DD8A002D003019A
:101A000015D00301D89005019D35026E9E35036EF9
:101A10000250A30FE96E020E0320EA6EEC6AED524B
:101A2000EF6A9D2BD8B49E2BE0D70301040E05016D
:101A30005D6F5E2BD8B45F2B0DD0FF0005010AD07F
:101A400004015E8F030E5F6F0501622BD8B4632B18
:101A5000050E5D6F0AD004015E8F020E5F6F050EEA
:101A600005015D6F622BD8B4632BC2D105015D51B6
:101A700007084FE104016051000A000103E0010A78
:101A80001FE03CD00501A06B020E9F6F9E6B9D6B0B
:101A90009E5100080FE35D0E9F25E96E040EA02104
:101AA000EA6EEF6A9F2BD8B4A02B020E9D27000E82
:101AB0009E23EED7840E5D6F5E2BD8B45F2B28D0AB
:101AC0000501A06B020E9F6F9E6B9D6B9E510008DF
:101AD0000FE35D0E9F25E96E040EA021EA6EEF6A0A
:101AE0009F2BD8B4A02B020E9D27000E9E23EED76D
:101AF000840E5D6F5E2BD8B45F2B0AD004015E8F1D
:101B0000030E5F6F0501622BD8B4632B050E5D6F6A
:101B10000AD004015E8F020E5F6F050E05015D6F36
:101B2000622BD8B4632B64D105015D5107081CE119
:101B3000040E5D6F5E2BD8B45F2B020E686F60C41D
:101B40009AF504016151602505019B6F9AC59CF5CA
:101B50009B519C5D08E29CC5A1F5000114EF02F0C9
:101B600005019C2BF5D70AD004015E8F020E5F6F32
:101B7000050E05015D6F622BD8B4632B39D10501C9
:101B80005D51070821E25DB11FD0040E686F60C48B
:101B90009AF5020E5D5D9B6F040E5D6F5E2BD8B4EF
:101BA0005F2B9AC59CF59B51685D08E29CC5A1F529
:101BB00000010DEF06F005019C2BF5D7040E5D6FBB
:101BC0005E2BD8B45F2B0AD004015E8F020E5F6FCC
:101BD000050E05015D6F622BD8B4632B09D1050199
:101BE0005D5104080AE10001A1EF08F0040E0501AF
:101BF0005D6F5E2BD8B45F2B0AD004015E8F020E9E
:101C00005F6F050E05015D6F622BD8B4632BF0D0BA
:101C100005015D510508D8A4A4D0040E5D6F5E2BAC
:101C2000D8B45F2B04015F51000A00010FE0010AE4
:101C30001CE0030A29E0010A36E0070A43E0010A32
:101C400050E0030A5DE0010A68E075D0040E03016C
:101C5000E26FB00EE16FB8860A0EAF6E1A0EB06E6C
:101C6000A60EAC6E0000000071D0070E0301E26FFB
:101C7000080EE16FB8865B0EAF6E110EB06EA60E49
:101C8000AC6E0000000062D0090E0301E26F600E2E
:101C9000E16FB886040EAF6E0D0EB06EA60EAC6E80
:101CA0000000000053D0120E0301E26FC00EE16F7E
:101CB000B886820EAF6E060EB06EA60EAC6E000039
:101CC000000044D01C0E0301E26F200EE16FB886C5
:101CD000560EAF6E040EB06EA60EAC6E0000000085
:101CE00035D0250E0301E26F800EE16FB886400EFD
:101CF000AF6E030EB06EA60EAC6E0000000026D0D4
:101D0000380E0301E26F400EE16FB8968A0EAF6E97
:101D1000A60EAC6E0000000019D04B0E0301E26F5E
:101D2000E16BB886A00EAF6E010EB06EA60EAC6E63
:101D3000000000000BD004015E8F030E5F6F050EE4
:101D400005015D6F622BD8B4632B030194908B70F7
:101D5000640E0501A16F0001A1D594908B700CD089
:101D6000050104015E8F020E5F6F050E05015D6FB8
:101D7000622BD8B4632B000105013AD005015D51F7
:101D8000040821E14D0E04015F6F570E606F540E81
:101D9000616F2D0E626F530E636F500E646F4D0EA8
:101DA000656F330E666F760E676F310E686F2E0E9D
:101DB000696F300E6A6F6B6F100E05015D6F5E2BE1
:101DC000D8B45F2B0AD004015E8F020E5F6F050E40
:101DD00005015D6F622BD8B4632B0AD004015E8FBE
:101DE000010E5F6F050E05015D6F622BD8B4632B8A
:101DF00004015D533FE0020E05015D5DA16F040E1D
:101E0000A36F5D0EA26FA1C5A4F50001E8EC01F07F
:101E100002C067F501C066F5020E05015D5D036A4B
:101E20005D0FE96E040E0320EA6E67C5EFFF010E39
:101E30005D5D036A5D0FE96E040E0320EA6E66C500
:101E4000EFFF9C6B5D519C5D13E20400036A9C51A3
:101E50005D0FE96E040E0320EA6EEFCFA1F5A1C578
:101E6000A2F5000134D594908B9005019C2BEAD704
:101E700000D0040194908B8005015D6B9E909D9035
:101E80009D8A9E90000136EF00F0700ED36EC00E5A
:101E90009B6ED3509698D190070EB46E9250926E6E
:101EA00004001A0E006E002EFED7B450A19CB56A35
:101EB000C150C00B1909C16EC050C00B0D09C06ED6
:101EC000C08EC2803F0E926EF80E946E000E956E1C
:101ED000929E898E94928B8294948B8495908C8020
:101EE00095928C82959A8C8A95988C8894908B8008
:101EF000800ED56EB50ECD6E000ECA6E000ECB6E86
:101F0000850EB16E929C899CC69A949A94889496F8
:101F1000300EC66E400EC76E9D8AC00EF2120301CF
:101F2000F46B0001DCEF1BF0F2CF8AF5F29E010E9C
:101F3000A96EA69CA69EA680A85005018ABFF28E17
:101F40008B6FF2CF8CF5F29EA96AA69CA69EA68006
:101F5000A8508CBFF28E8D6F8BC5CCF38DC5CBF3A3
:101F6000F2CF8AF5F29E030EA96EA69CA69EA680CD
:101F7000A8508ABFF28E8B6FF2CF8CF5F29E020EC4
:101F8000A96EA69CA69EA680A8508CBFF28E8D6FCF
:101F90008BC5D2F38DC5D1F3F2CF8AF5F29E050E33
:101FA000A96EA69CA69EA680A8508ABFF28E8B6FB3
:101FB000F2CF8CF5F29E040EA96EA69CA69EA6807A
:101FC000A8508CBFF28E8D6F8BC5ACF38DC5ABF373
:101FD000F2CF8AF5F29E070EA96EA69CA69EA68059
:101FE000A8508ABFF28E8B6FF2CF8CF5F29E060E50
:101FF000A96EA69CA69EA680A8508CBFF28E8D6F5F
:102000008BC5B8F38DC5B7F3F2CF8AF5F29E090EF2
:10201000A96EA69CA69EA680A8508ABFF28E8B6F42
:10202000F2CF8CF5F29E080EA96EA69CA69EA68005
:10203000A8508CBFF28E8D6F8BC5C2F38DC5C1F3D6
:10204000F2CF8AF5F29E0B0EA96EA69CA69EA680E4
:10205000A8508ABFF28E8B6FF2CF8CF5F29E0A0EDB
:10206000A96EA69CA69EA680A8508CBFF28E8D6FEE
:102070008BC5C6F38DC5C5F3F2CF8AF5F29E0D0E62
:10208000A96EA69CA69EA680A8508ABFF28E8B6FD2
:10209000F2CF8CF5F29E0C0EA96EA69CA69EA68091
:1020A000A8508CBFF28E8D6F8BC5C4F38DC5C3F362
:1020B000F2CF8AF5F29E0F0EA96EA69CA69EA68070
:1020C000A8508ABFF28E8B6FF2CF8CF5F29E0E0E67
:1020D000A96EA69CA69EA680A8508CBFF28E8D6F7E
:1020E0008BC5E2F38DC5E1F3F2CF8AF5F29E110EB6
:1020F000A96EA69CA69EA680A8508ABFF28E8B6F62
:10210000F2CF8CF5F29E100EA96EA69CA69EA6801C
:10211000A8508CBFF28E8D6F8BC5E4F38DC5E3F3B1
:10212000F2CF8AF5F29E130EA96EA69CA69EA680FB
:10213000A8508ABFF28E8B6FF2CF8CF5F29E120EF2
:10214000A96EA69CA69EA680A8508CBFF28E8D6F0D
:102150008BC5B2F38DC5B1F3F2CF8AF5F29E150EA1
:10216000A96EA69CA69EA680A8508ABFF28E8B6FF1
:10217000F2CF8CF5F29E140EA96EA69CA69EA680A8
:10218000A8508CBFF28E8D6F8BC5BEF38DC5BDF38D
:10219000F2CF8AF5F29E170EA96EA69CA69EA68087
:1021A000A8508ABFF28E8B6FF2CF8CF5F29E160E7E
:1021B000A96EA69CA69EA680A8508CBFF28E8D6F9D
:1021C0008BC5E0F38DC5DFF3F2CF8AF5F29E1A0ED0
:1021D000A96EA69CA69EA680A8508ABFF28E8B6F81
:1021E000F2CF8CF5F29E1B0EA96EA69CA69EA68031
:1021F000A8508CBFF28E8D6FF2CF8EF5F29E180E26
:10220000A96EA69CA69EA680A8508EBFF28E8F6F48
:10221000F2CF90F5F29E190EA96EA69CA69EA680FE
:10222000A85090BFF28E916F8BC589F58DC588F54A
:102230008FC587F591C586F5030EEA6ED70EE96E58
:10224000050EE26E860EE16E040E016EE6CFEEFF25
:10225000012EFCD7F2CF8AF5F29E1E0EA96EA69C27
:10226000A69EA680A8508ABFF28E8B6FF2CF8CF507
:10227000F29E1F0EA96EA69CA69EA680A8508CBF9B
:10228000F28E8D6FF2CF8EF5F29E1C0EA96EA69C7B
:10229000A69EA680A8508EBFF28E8F6FF2CF90F5CB
:1022A000F29E1D0EA96EA69CA69EA680A85090BF69
:1022B000F28E916F8BC589F58DC588F58FC587F531
:1022C00091C586F5030EEA6EDB0EE96E050EE26E31
:1022D000860EE16E040E016EE6CFEEFF012EFCD7F6
:1022E000F2CF8AF5F29E220EA96EA69CA69EA6802B
:1022F000A8508ABFF28E8B6FF2CF8CF5F29E230E20
:10230000A96EA69CA69EA680A8508CBFF28E8D6F4B
:10231000F2CF8EF5F29E200EA96EA69CA69EA680F8
:10232000A8508EBFF28E8F6FF2CF90F5F29E210EE5
:10233000A96EA69CA69EA680A85090BFF28E916F13
:102340008BC589F58DC588F58FC587F591C586F54F
:10235000030EEA6EAD0EE96E050EE26E860EE16EBC
:10236000040E016EE6CFEEFF012EFCD7F2CF8AF508
:10237000F29E260EA96EA69CA69EA680A8508ABF95
:10238000F28E8B6FF2CF8CF5F29E270EA96EA69C73
:10239000A69EA680A8508CBFF28E8D6FF2CF8EF5D0
:1023A000F29E240EA96EA69CA69EA680A8508EBF63
:1023B000F28E8F6FF2CF90F5F29E250EA96EA69C3D
:1023C000A69EA680A85090BFF28E916F8BC589F50E
:1023D0008DC588F58FC587F591C586F5030EEA6E24
:1023E000B90EE96E050EE26E860EE16E040E016E08
:1023F000E6CFEEFF012EFCD70001DEEF1BF005015A
:102400005D6B0301E151006EE251036E040E035C4B
:1024100005E1B00E005C000139E00301070E035C2A
:1024200005E1080E005C00013BE00301090E035CBE
:1024300005E1600E005C00013DE00301120E035C4B
:1024400005E1C00E005C00013FE003011C0E035CCF
:1024500005E1200E005C000141E00301250E035C54
:1024600005E1800E005C000143E00301380E035CCF
:1024700005E1400E005C000145E003014B0E035CEA
:1024800004E10052000146E003014FD0B8860A0E75
:10249000AF6E1A0EB06EA60EAC6E000000004ED0ED
:1024A000B8865B0EAF6E110EB06EA60EAC6E00005D
:1024B000000044D0B886040EAF6E0D0EB06EA60EAE
:1024C000AC6E000000003AD0B886820EAF6E060EE9
:1024D000B06EA60EAC6E0000000030D0B886560E6E
:1024E000AF6E040EB06EA60EAC6E0000000026D0DB
:1024F000B886400EAF6E030EB06EA60EAC6E000036
:1025000000001CD0B8968A0EAF6EA60EAC6E00000E
:10251000000014D0B886A00EAF6E010EB06EA60EED
:10252000AC6E000000000AD00301B886400EAF6E0A
:10253000030EB06EA60EAC6E000000000001E0EFCE
:102540001BF08E0E006E8BC501F08AC502F0036A87
:1025500001AE05D0011E021E022A01E1012A01522C
:1025600009E102C001F0026A080E005E015202E1B8
:10257000006A0DD0D89001BE04D0023601360006A4
:10258000F9D705018BAF02D0000101D0019E0001F7
:10259000000C05018A51D8B471D0006E8E51D8B4A8
:1025A0006DD0002604E3810E002668E204D07F0E81
:1025B000005E64E363E08BC592F58F51921B8B8FB5
:1025C0008F8F8D519103F4CF94F58C519003F4CFFC
:1025D00003F0F3CF93F59103F3509427F450932332
:1025E000000E03228D519003F3509427F45093234F
:1025F000000E026A032202228B519103F3509327AB
:10260000F4500322000E02228B519003F350032654
:10261000F4500222000E016A01228D518F03F35003
:102620009327F4500322000E022201228C518F03C3
:10263000F3500326F4500222000E01228B518F0327
:10264000F3500226F4500122002A01BE05D0933730
:102650000336023601360006000E93AF0AD0032A75
:1026600002220122015005E1025003E1035001E181
:10267000002A92BF018E92AF019E04D0006A016AC7
:10268000026A036A0001000C8E0E006E050188517B
:10269000005E89C502F08AC501F0028E005209E091
:1026A000D890025202E1015204E002320132002EBF
:1026B000F7D789AF05D0011E021E012AD8B4022A1D
:1026C0000001000C080E016EC250C30B0110C26E57
:1026D00004001A0E006E002EFED7C282C2B2FED7D0
:1026E000C4CF87F50501C3CF86F5CD0E865D886F13
:1026F000000E8759896F8B6F88C58AF5000121DF2D
:1027000003C08DF502C08CF501C08BF500C08AF5C1
:10271000DF0E0501916F4F0E906F430E8F6F830E8A
:102720008E6F000136DF03C08BF502C08AF501C051
:1027300089F500C088F5A8DF02C0CAF301C0C9F35B
:10274000140E016EC250C30B0110C26E04001A0EAB
:10275000006E002EFED7C282C2B2FED7C4CF87F56C
:102760000501C3CF86F5CD0E865D886F000E8759B3
:10277000896F8B6F88C58AF50001E3DE03C08DF594
:1027800002C08CF501C08BF500C08AF5DF0E050193
:10279000916F4F0E906F430E8F6F830E8E6F0001FF
:1027A000F8DE03C08BF502C08AF501C089F500C0D0
:1027B00088F56ADF02C0B4F301C0B3F3100E016EF6
:1027C000C250C30B0110C26E04001A0E006E002E20
:1027D000FED7C282C2B2FED7C4CF87F50501C3CFF0
:1027E00086F5CD0E865D886F000E8759896F8B6FD9
:1027F00088C58AF50001A5DE03C08DF502C08CF501
:1028000001C08BF500C08AF5DF0E0501916F4F0EF8
:10281000906F430E8F6F830E8E6F0001BADE03C080
:102820008BF502C08AF501C089F500C088F52CDF60
:1028300002C0C0F301C0BFF3000CD1900501865364
:1028400002E1875302E0000E01D0010E8A6F875328
:1028500005E18651060802E3000E01D0010E8A153B
:1028600003E0876B010E866F1F0E8B6FFF0E8A6F62
:102870008651006E05E0D8908B338A33002EFBD74B
:102880008A51886F8B517009896F959A8C9A89C586
:102890008AF5C95089C5C9FFC730FEE388C58AF5E6
:1028A000C95088C5C9FFC730FEE3959A8C8AD1808C
:1028B000000102EF1CF0D1900501865302E187531D
:1028C00002E0000E01D0010E8A6F875305E18651A8
:1028D000060802E3000E01D0010E8A1503E0876BA3
:1028E000010E866F1F0E8B6FFF0E8A6F8651006E72
:1028F00005E0D8908B338A33002EFBD78A51886F3E
:102900008B517009896F95988C9889C58AF5C95043
:1029100089C5C9FFC730FEE388C58AF5C95088C597
:10292000C9FFC730FEE395988C88D180000108EF7D
:102930001CF08E0E006E8BC501F08AC502F0036A92
:10294000015209E102C001F0026A080E005E015264
:1029500002E1006A08D0D89001BE04D002360136E8
:102960000006F9D7019E000C05018A51D8B4A5D004
:10297000966F8E51D8B4A1D0965F05E37F0E96274F
:10298000D8B09BD006D0810E965FD8A096D0D8B490
:1029900094D096C500F0016A026A036A956B8BC5F4
:1029A00094F5948F8CC593F58DC592F5190E966F9D
:1029B0009151925F0DE2010E935F0AE2945F08E28B
:1029C000955F06E2952B942B932B9151922728D05B
:1029D0009051935F12E2010E945F0FE2955F0DE25A
:1029E000952B942B905193279151922719E3932B78
:1029F00017E1942B15E1952B13D08F518009945F2B
:102A00000EE2010E955F0BE2952B8F518009942702
:102A100090519327E9E3942BE7E1952BE5D70380C9
:102A2000962F01D00BD0D8909237933794379537A3
:102A3000D8900336023601369737BAD797A106D019
:102A4000D890013202320332973302D0000635E0CB
:102A500097BF1ED0D89092379337943795379151BE
:102A6000925F07E2010E935F04E2945F02E2955FDA
:102A70001AE39051935F05E2010E945F02E2955FC5
:102A800012E38F518009945F03E2010E955F0BE31F
:102A9000032A09E1022A07E1012A05E1002A0DE0E3
:102AA0000132023203328BC596F58F51961B96AFD9
:102AB00002D0018E06D0019E04D0006A016A026A2B
:102AC000036A0001000C05018651B608866F036A8F
:102AD00087C58AF5878FD890873388338933033247
:102AE000023201320032862FF6D78AAF0BD0001E99
:102AF000011E021E031E002AD8B4012AD8B4022ADD
:102B0000D8B4032A0001000C800ED8A202D005011F
:102B10008F1B0501946B956B8BC593F58F51931BA0
:102B20008A51D8B4DFD0926F006E8E51D8B4E3D002
:102B3000925FD8B483D03EE38FC598F5988F90C547
:102B400097F591C596F5956BD89098339733963352
:102B50009533922FF8D793AF03D09481E0D094911E
:102B600092919489050EEA6E8D0EE96EEBD09499E0
:102B700093BF0AD092A113D09833973396339533ED
:102B8000002AD8B4C7D00BD098BF0CD0D8909537B6
:102B90009637973798370006D8B4BCD0F5D7948DC0
:102BA0006DD0949D8BC593F58BAF02D0988FABD031
:102BB000989FA9D08EC592F58EC500F08A51925F7C
:102BC0008BC598F5988F8CC597F58DC596F5956B47
:102BD000D8909833973396339533922FF8D793AF95
:102BE00003D094839CD094939291948B050EEA6EBB
:102BF000910EE96EA7D0949B93BF0AD092A113D0F7
:102C00009833973396339533002AD8B483D00BD0BA
:102C100098BF0CD0D89095379637973798370006DD
:102C2000D8B478D0F5D7948F29D0949F8FC593F5D9
:102C30008FAF02D0988F67D0989F65D08FC598F5D9
:102C4000988F90C597F591C596F593AF04D0989F4E
:102C5000948565D09495956B9291050EEA6E8D0ED4
:102C6000E96E70D093BF1CD08BC593F592A106D0AE
:102C70009833973396339533002A4CE095AF0BD0B9
:102C8000962B09E1972B07E1982B05E198339733B1
:102C90009633002A3FE094BD84D794BFC6D71CD09A
:102CA000800E981B98AF04D03AD08FC593F50AD008
:102CB0008BC593F5985306E1975304E1965302E1CF
:102CC000006A21D098BF08D0D890953796379737AB
:102CD0009837002EF7D71ED093AF02D0988F13D01D
:102CE000989F11D08EC500F08FC598F590C597F5C7
:102CF00091C596F508D08AC500F08BC598F58CC5AE
:102D000097F58DC596F598C501F097C502F096C563
:102D100003F034D0006A016A026A036A2FD0956B0F
:102D2000961F971F981F951F952B05E1962B03E182
:102D3000972B01E1982B94B112D794B354D794B543
:102D400089D7B3D7EF50962705E3972B03E1982B4C
:102D5000D8B49281ED52EF50972703E3982BD8B463
:102D60009281ED52EF50EFBE01D0800A9827D8B083
:102D7000928194B9FCD694BB3ED774D700011FEF63
:102D800021F0F86AD09E078EEA6AE96A700ED36E67
:102D9000400E9B6ED3500301C86BF36B320EF26F83
:102DA00005015D6B929C899CB886400EAF6E030E48
:102DB000B06EA60EAC6E900EAB6E00000000C1505F
:102DC000C00B0F09C16E070EB46E196A1A6A1B6A2E
:102DD0001C6A1D6A1E6A1F6A206A216A226A236AA7
:102DE000246A256A266A276A286A296A2A6A2B6A57
:102DF0002C6A2D6A2E6A2F6A306A316A326A336A07
:102E0000346A356A366A376A386A396A3A6A3B6AB6
:102E10003C6A3D6A3E6A3F6A406A416A426A436A66
:102E2000446A456A466A476A486A496A4A6A4B6A16
:102E30004C6A4D6A4E6A4F6A506A516A526A536AC6
:102E4000546A556A566A576A586A596A5A6A5B6A76
:102E50005C6A5D6A5E6A5F6A606A616A626A636A26
:102E6000646A656A666A676A686A696A6A6A6B6AD6
:102E70006C6A6D6A6E6A6F6A706A716A726A736A86
:102E8000746A756A766A776A786A796A7A6A7B6A36
:102E90007C6A7D6A7E6A7F6A0001806B816B826BCF
:102EA000836B846B856B866B876B886B896B8A6B96
:102EB0008B6B8C6B8D6B8E6B8F6B906B916B926B46
:102EC000936B946B956B966B976B986B996B9A6BF6
:102ED0009B6B9C6B9D6B9E6B9F6BA06BA16BA26BA6
:102EE000A36BA46BA56BA66BA76BA86BA96BAA6B56
:102EF000AB6BAC6BAD6BAE6BAF6BB06BB16BB26B06
:102F0000B36BB46BB56BB66BB76BB86BB96BBA6BB5
:102F1000BB6BBC6BBD6BBE6BBF6BC06BC16BC26B65
:102F2000C36BC46BC56BC66BC76BC86BC96BCA6B15
:102F3000CB6BCC6BCD6BCE6BCF6BD06BD16BD26BC5
:102F4000D36BD46BD56BD66BD76BD86BD96BDA6B75
:102F5000DB6BDC6BDD6BDE6BDF6BE06BE16BE26B25
:102F6000E36BE46BE56BE66BE76BE86BE96BEA6BD5
:102F7000EB6BEC6BED6BEE6BEF6BF06BF16BF26B85
:102F8000F36BF46BF56BF66BF76BF86BF96BFA6B35
:102F9000FB6BFC6BFD6BFE6BFF6B0101006B016B50
:102FA000026B036B046B056B066B076B086B096B9D
:102FB0000A6B0B6B0C6B0D6B0E6B0F6B106B116B4D
:102FC000126B136B146B156B166B176B186B196BFD
:102FD0001A6B1B6B1C6B1D6B1E6B1F6B206B216BAD
:102FE000226B236B246B256B266B276B286B296B5D
:102FF0002A6B2B6B2C6B2D6B2E6B2F6B306B316B0D
:10300000326B336B346B356B366B376B386B396BBC
:103010003A6B3B6B3C6B3D6B3E6B3F6B406B416B6C
:10302000426B436B446B456B466B476B486B496B1C
:103030004A6B4B6B4C6B4D6B4E6B4F6B506B516BCC
:10304000526B536B546B556B566B576B586B596B7C
:103050005A6B5B6B5C6B5D6B5E6B5F6B606B616B2C
:10306000626B636B646B656B666B676B686B696BDC
:103070006A6B6B6B6C6B6D6B6E6B6F6B706B716B8C
:10308000726B736B746B756B766B776B786B796B3C
:103090007A6B7B6B7C6B7D6B7E6B7F6B806B816BEC
:1030A000826B836B846B856B866B876B886B896B9C
:1030B0008A6B8B6B8C6B8D6B8E6B8F6B906B916B4C
:1030C000926B936B946B956B966B976B986B996BFC
:1030D0009A6B9B6B9C6B9D6B9E6B9F6BA06BA16BAC
:1030E000A26BA36BA46BA56BA66BA76BA86BA96B5C
:1030F000AA6BAB6BAC6BAD6BAE6BAF6BB06BB16B0C
:10310000B26BB36BB46BB56BB66BB76BB86BB96BBB
:10311000BA6BBB6BBC6BBD6BBE6BBF6BC06BC16B6B
:10312000C26BC36BC46BC56BC66BC76BC86BC96B1B
:10313000CA6BCB6BCC6BCD6BCE6BCF6BD06BD16BCB
:10314000D26BD36BD46BD56BD66BD76BD86BD96B7B
:10315000DA6BDB6BDC6BDD6BDE6BDF6BE06BE16B2B
:10316000E26BE36BE46BE56BE66BE76BE86BE96BDB
:10317000EA6BEB6BEC6BED6BEE6BEF6BF06BF16B8B
:10318000F26BF36BF46BF56BF66BF76BF86BF96B3B
:10319000FA6BFB6BFC6BFD6BFE6BFF6B0201006B54
:1031A000016B026B036B046B056B066B076B086BA3
:1031B000096B0A6B0B6B0C6B0D6B0E6B0F6B106B53
:1031C000116B126B136B146B156B166B176B186B03
:1031D000196B1A6B1B6B1C6B1D6B1E6B1F6B206BB3
:1031E000216B226B236B246B256B266B276B286B63
:1031F000296B2A6B2B6B2C6B2D6B2E6B2F6B306B13
:10320000316B326B336B346B356B366B376B386BC2
:10321000396B3A6B3B6B3C6B3D6B3E6B3F6B406B72
:10322000416B426B436B446B456B466B476B486B22
:10323000496B4A6B4B6B4C6B4D6B4E6B4F6B506BD2
:10324000516B526B536B546B556B566B576B586B82
:10325000596B5A6B5B6B5C6B5D6B5E6B5F6B606B32
:10326000616B626B636B646B656B666B676B686BE2
:10327000696B6A6B6B6B6C6B6D6B6E6B6F6B706B92
:10328000716B726B736B746B756B766B776B786B42
:10329000796B7A6B7B6B7C6B7D6B7E6B7F6B806BF2
:1032A000816B826B836B846B856B866B876B886BA2
:1032B000896B8A6B8B6B8C6B8D6B8E6B8F6B906B52
:1032C000916B926B936B946B956B966B976B986B02
:1032D000996B9A6B9B6B9C6B9D6B9E6B9F6BA06BB2
:1032E000A16BA26BA36BA46BA56BA66BA76BA86B62
:1032F000A96BAA6BAB6BAC6BAD6BAE6BAF6BB06B12
:10330000B16BB26BB36BB46BB56BB66BB76BB86BC1
:10331000B96BBA6BBB6BBC6BBD6BBE6BBF6BC06B71
:10332000C16BC26BC36BC46BC56BC66BC76BC86B21
:10333000C96BCA6BCB6BCC6BCD6BCE6BCF6BD06BD1
:10334000D16BD26BD36BD46BD56BD66BD76BD86B81
:10335000D96BDA6BDB6BDC6BDD6BDE6BDF6BE06B31
:10336000E16BE26BE36BE46BE56BE66BE76BE86BE1
:10337000E96BEA6BEB6BEC6BED6BEE6BEF6BF06B91
:10338000F16BF26BF36BF46BF56BF66BF76BF86B41
:10339000F96BFA6BFB6BFC6BFD6BFE6BFF6B030158
:1033A000006B016B026B036B046B056B066B076BA9
:1033B000086B096B0A6B0B6B0C6B0D6B0E6B0F6B59
:1033C000106B116B126B136B146B156B166B176B09
:1033D000186B196B1A6B1B6B1C6B1D6B1E6B1F6BB9
:1033E000206B216B226B236B246B256B266B276B69
:1033F000286B296B2A6B2B6B2C6B2D6B2E6B2F6B19
:10340000306B316B326B336B346B356B366B376BC8
:10341000386B396B3A6B3B6B3C6B3D6B3E6B3F6B78
:10342000406B416B426B436B446B456B466B476B28
:10343000486B496B4A6B4B6B4C6B4D6B4E6B4F6BD8
:10344000506B516B526B536B546B556B566B576B88
:10345000586B596B5A6B5B6B5C6B5D6B5E6B5F6B38
:10346000606B616B626B636B646B656B666B676BE8
:10347000686B696B6A6B6B6B6C6B6D6B6E6B6F6B98
:10348000706B716B726B736B746B756B766B776B48
:10349000786B796B7A6B7B6B7C6B7D6B7E6B7F6BF8
:1034A000806B816B826B836B846B856B866B876BA8
:1034B000886B896B8A6B8B6B8C6B8D6B8E6B8F6B58
:1034C000906B916B926B936B946B956B966B976B08
:1034D000986B996B9A6B9B6B9C6B9D6B9E6B9F6BB8
:1034E000A06BA16BA26BA36BA46BA56BA66BA76B68
:1034F000A86BA96BAA6BAB6BAC6BAD6BAE6BAF6B18
:10350000B06BB16BB26BB36BB46BB56BB66BB76BC7
:10351000B86BB96BBA6BBB6BBC6BBD6BBE6BBF6B77
:10352000C06BC16BC26BC36BC46BC56BC66BC79101
:10353000C96BCA6BCB6BCC6BCD6BCE6BCF6BD06BCF
:10354000D16BD26BD36BD46BD56BD66BD76BD86B7F
:10355000D96BDA6BDB6BDC6BDD6BDE6BDF6BE06B2F
:10356000E16BE26BE36BE46BE56BE66BE76BE86BDF
:10357000E96BEA6BEB6BEC6BED6BEE6BEF6BF06B8F
:10358000F16B04015D6B5E6B5F6B606B616B626B1B
:10359000636B646B656B666B676B686B696B6A6B9F
:1035A0006B6B6C6B6D6B6E6B6F6B706B716B726B4F
:1035B000736B746B756B766B776B786B796B7A6BFF
:1035C0007B6B7C6B7D6B7E6B7F6B806B816B826BAF
:1035D000836B846B856B866B876B886B896B8A6B5F
:1035E0008B6B8C6B8D6B8E6B8F6B906B916B926B0F
:1035F000936B946B956B966B976B986B996B9A6BBF
:103600009B6B9C6B9D6B9E6B9F6BA06BA16BA26B6E
:10361000A36BA46BA56BA66BA76BA86BA96BAA6B1E
:10362000AB6BAC6BAD6BAE6BAF6BB06BB16BB26BCE
:10363000B36BB46BB56BB66BB76BB86BB96BBA6B7E
:10364000BB6BBC6BBD6BBE6BBF6BC06BC16BC26B2E
:10365000C36BC46BC56BC66BC76BC86BC96BCA6BDE
:10366000CB6BCC6BCD6BCE6BCF6BD06BD16BD26B8E
:10367000D36BD46BD56BD66BD76BD86BD96BDA6B3E
:10368000DB6BDC6BDD6BDE6BDF6BE06BE16BE26BEE
:10369000E36BE46BE56BE66BE76BE86BE96BEA6B9E
:1036A000EB6BEC6BED6BEE6BEF6BF06BF16BF26B4E
:1036B000F36BF46BF56BF66BF76BF86BF96BFA6BFE
:1036C000FB6BFC6BFD6BFE6BFF6B0501006B016B15
:1036D000026B036B046B056B066B076B086B096B66
:1036E0000A6B0B6B0C6B0D6B0E6B0F6B106B116B16
:1036F000126B136B146B156B166B176B186B196BC6
:103700001A6B1B6B1C6B1D6B1E6B1F6B206B216B75
:10371000226B236B246B256B266B276B286B296B25
:103720002A6B2B6B2C6B2D6B2E6B2F6B306B316BD5
:10373000326B336B346B356B366B376B386B396B85
:103740003A6B3B6B3C6B3D6B3E6B3F6B406B416B35
:10375000426B436B446B456B466B476B486B496BE5
:103760004A6B4B6B4C6B4D6B4E6B4F6B506B516B95
:10377000526B536B546B556B566B576B586B596B45
:103780005A6B5B6B5C6B5E6B5F6B606B616B626BF0
:10379000636B646B656B666B676B686B696B756B92
:1037A000746B010E806FFF0E7F6F010E826FFF0E34
:1037B000816F000145EF0FF094EF0FF0FFEF11F074
:1037C0009D8A9D90C00EF21296928D82010E030189
:1037D000F46F0400F451FC0FD8B0B8EF21F0040FDF
:1037E0000001BBEF21F062EC13F00301B8EF21F010
:1037F0000501846B836BACC387F5ABC386F5000111
:103800001DEF14F0B8C387F5B7C386F55BEF14F06E
:1038100005016F6B6E6B6F510301C45D1DE308E121
:10382000C35105016E5DD8A002D0030115D003017C
:10383000D89005016E35026E6F35036E0250190F78
:10384000E96E000E0320EA6EEC6AED52EF6A6E2B11
:10385000D8B46F2BE0D703010501796B786B7A6BD5
:103860000301E56B0001A26BA16B9E6B9D6BA06BCE
:103870009F6B9C6B9B6B9A6B996BCCC38BF5CBC38B
:103880008AF599EC14F000C086F501C087F502C0F6
:1038900088F503C089F503C08DF502C08CF501C021
:1038A0008BF500C08AF50501916B906B7A0E8F6FD6
:1038B000880E8E6F0001B4EC14F000C086F501C0D4
:1038C00087F502C088F503C089F503C08DF502C0F5
:1038D0008CF501C08BF500C08AF5A80E0501916F2B
:1038E000C60E906F4B0E8F6F900E8E6F0001C9EC5D
:1038F00012F003C089F502C088F501C087F500C049
:1039000086F563EC15F003C0D0F302C0CFF301C01D
:10391000CEF300C0CDF3D2C38BF5D1C38AF599ECB9
:1039200014F000C086F501C087F502C088F503C019
:1039300089F503C08DF502C08CF501C08BF500C080
:103940008AF50501916B906B7A0E8F6F880E8E6FE2
:103950000001B4EC14F000C086F501C087F502C088
:1039600088F503C089F503C08DF502C08CF501C050
:103970008BF500C08AF5A80E0501916FC60E906FF9
:103980004B0E8F6F900E8E6F0001C9EC12F000C0CD
:1039900086F501C087F502C088F503C089F5D89087
:1039A0000301C231036EC131026E05018A6F03C08B
:1039B0008BF5000199EC14F089C58DF588C58CF55F
:1039C00087C58BF586C58AF503C091F502C090F5D1
:1039D00001C08FF500C08EF5B4EC14F003C089F57A
:1039E00002C088F501C087F500C086F563EC15F0CC
:1039F00003C0D6F302C0D5F301C0D4F300C0D3F3A3
:103A0000020E0301F46FB8EF21F0CFC389F5CEC3E6
:103A100088F505018931716F8831706F71337033AA
:103A20003F0E711795928C9271510F0B1009866F92
:103A3000C95086C5C9FFC730FEE370C586F5C950B9
:103A400070C5C9FFC730FEE395928C82929E899E15
:103A5000929E898E000E016EC250C30B0110C26E81
:103A6000D8900301C23105016D6F0301C131050119
:103A70006C6FD8900301C4310501876F0301C33116
:103A80000501866F010E8625766F000E8721776F00
:103A90007E6B7D6B7C6B7B6B6B6B6A6B6B51775D4D
:103AA000D8A07ED004E176516A5DD8B079D0040008
:103AB000C2820301D351CD27D451CE23D551CF2378
:103AC000D651D023CFC389F5CEC388F505018931FE
:103AD000716F8831706F713370333F0E711795922B
:103AE0008C9271510F0B1009866FC95086C5C9FFA2
:103AF000C730FEE370C586F5C95070C5C9FFC73031
:103B0000FEE395928C82C2B2FED7C3CF72F5C4CFCA
:103B100073F5929E899E929E898ED8900301E53519
:103B2000036A190FE96E000E0320EA6EECCF03F072
:103B3000ED52EF500501745F0350755B72517427AD
:103B400073517523D8900301E535036A190FE96EA7
:103B5000000E0320EA6E73C5ECFFED5272C5EFFF55
:103B6000E55304E1C3C3E5F3E50701D0E50705012B
:103B7000753100019A6F050174310001996F9A3314
:103B800099339A3399339A3399339A3399339A33D1
:103B90009933030E9A1705016A2BD8B46B2B7ED785
:103BA00077C56BF576C56AF56B516D5DD8A0ACD065
:103BB00004E16C516A5DD8B0A7D00400C282030151
:103BC000D351CD27D451CE23D551CF23D651D02395
:103BD000CFC389F5CEC388F505018931716F88316E
:103BE000706F713370333F0E711795928C927151D3
:103BF0000F0B1009866FC95086C5C9FFC730FEE399
:103C000070C586F5C95070C5C9FFC730FEE39592EF
:103C10008C82C2B2FED7C3CF72F5C4CF73F5929E29
:103C2000899E929E898ED8900301E535036A190F0B
:103C3000E96E000E0320EA6EECCF03F0ED52EF5078
:103C40000501745F0350755B7251742773517523BE
:103C5000D8900301E535036A190FE96E000E0320C1
:103C6000EA6E73C5ECFFED5272C5EFFFE55304E158
:103C7000C3C3E5F3E50701D0E50705017531000190
:103C80009A6F050174310001996F9A3399339A3311
:103C900099339A3399339A3399339A339933030E7C
:103CA0009A17995105017B2700019A5105017C2340
:103CB000000E7D237E2300019C519A5D0CE303E1FD
:103CC00099519B5D08E279C59EF078C59DF09AC038
:103CD0009CF099C09BF00501782BD8B4792B8251C8
:103CE00000019A5D0CE307E199510501815DD8A0BF
:103CF00002D0000104D00501832BD8B4842B050128
:103D00006A2BD8B46B2B50D794908B90D89003012A
:103D1000C23105016D6F0301C13105016C6F6B6B21
:103D20006A6B6B516D5DD8A0ACD004E16C516A5DDB
:103D3000D8B0A7D00400C2820301D351CD5FD451C3
:103D4000CE5BD551CF5BD651D05BCFC389F5CEC307
:103D500088F505018931716F8831706F7133703367
:103D60003F0E711795928C9271510F0B1009866F4F
:103D7000C95086C5C9FFC730FEE370C586F5C95076
:103D800070C5C9FFC730FEE395928C82C2B2FED7E0
:103D9000C3CF72F5C4CF73F5929E899E929E898E91
:103DA000D8900301E535036A190FE96E000E032070
:103DB000EA6EECCF03F0ED52EF500501745F035053
:103DC000755B7251742773517523D8900301E535E3
:103DD000036A190FE96E000E0320EA6E73C5ECFF4B
:103DE000ED5272C5EFFFE55304E1C3C3E5F3E50708
:103DF00001D0E5070501753100019A6F05017431A5
:103E00000001996F9A3399339A3399339A339933DE
:103E10009A3399339A339933030E9A1799510501BE
:103E20007B2700019A5105017C23000E7D237E2310
:103E30000001A0519A5D0CE303E199519F5D08E2F6
:103E400079C5A2F078C5A1F09AC0A0F099C09FF002
:103E50000501782BD8B4792B825100019A5D0CE3CF
:103E600007E199510501815DD8A002D0000104D07D
:103E70000501832BD8B4842B05016A2BD8B46B2B96
:103E800050D76B6B6A6B6B51775DD8A079D004E12A
:103E900076516A5DD8B074D00400736B726BD890A1
:103EA0000301E535036A190FE96E000E0320EA6E7F
:103EB000ECCF03F0ED52EF500501745F0350755BDA
:103EC0007251742773517523D8900301E535036A45
:103ED000190FE96E000E0320EA6E73C5ECFFED5278
:103EE00072C5EFFFE55304E1C3C3E5F3E50701D075
:103EF000E5070501753100019A6F05017431000174
:103F0000996F9A3399339A3399339A3399339A3311
:103F100099339A339933030E9A17995105017B27E8
:103F200000019A5105017C23000E7D237E230001B0
:103F3000A0519A5D0CE303E199519F5D08E279C5B8
:103F4000A2F078C5A1F09AC0A0F099C09FF0050139
:103F5000782BD8B4792B825100019A5D0CE307E1EC
:103F600099510501815DD8A002D0000104D005015E
:103F7000832BD8B4842B05016A2BD8B46B2B83D741
:103F8000030E0301F46FF4D162EC13F0040003019B
:103F9000F251DF25016EF351E021036E0150CABFDB
:103FA00009D00350CA5D06E303E1C951015C02E296
:103FB00096928D92F251DF5D006EF351E059036EDF
:103FC00000C001F0CABF07D0CA51035C06E303E199
:103FD0000150C95D02E296928D8205017E31026E2A
:103FE0007D31016E7C31006E0232013200320232CC
:103FF000013200321F0E021601C080F500C07FF5AD
:10400000D8900301C835036AA30FE96E000E0320A0
:10401000EA6E00019B519F250501886F00019C51AC
:10402000A0210501896FD8908931036E8831EF6E28
:1040300003C0ECFFD8900301C835036AA30FE96EF3
:10404000000E0320EA6EECCF03F0ED52EF500501B5
:104050007F25866F03508021876FD8908731826FCC
:104060008631816FD8900301C835036AA30FE96ECA
:10407000010E0320EA6E84C5ECFFED5283C5EFFF0D
:1040800000019D51A15D0301A76F00019E51A2593E
:104090000301A86FD890C835036AA30FE96E020E1A
:1040A0000320EA6EA8C3ECFFED52A7C3EFFFC8538D
:1040B00004E1010EC55DC86F01D0C807E96BE86B6C
:1040C000E76BE66BED6BEC6BEB6BEA6BF16BF06B3C
:1040D000EF6BEE6B05016F6B6E6B6F510301C65D8D
:1040E00054E308E1C55105016E5DD8A002D003017B
:1040F0004CD00301D89005016E35026E6F35036E0A
:104100000250A30FE96E000E0320EA6EECCF03F01D
:10411000ED52EF500301E6270350E723000EE8239A
:10412000E923D89005016E35026E6F35036E02509B
:10413000A30FE96E010E0320EA6EECCF03F0ED52FF
:10414000EF500301EA270350EB23000EEC23ED238D
:10415000D89005016E35026E6F35036E0250A30FC5
:10416000E96E020E0320EA6EECCF03F0ED52EF5041
:104170000301EE270350EF23000EF023F123050186
:104180006E2BD8B46F2BA9D70301E931036EE83148
:10419000026EE731016EE631006E03320232013207
:1041A0000032033202320132003203320232013273
:1041B0000032033202320132003203320232013263
:1041C00000320332023201320032010E031601C006
:1041D00075F500C074F575C58BF574C58AF50001D9
:1041E00099EC14F003C08DF502C08CF501C08BF57D
:1041F00000C08AF5E60E0501916F3F0E906F1C0E10
:104200008F6F800E8E6F0001C9EC12F000C086F532
:1042100001C087F502C088F503C089F5D88203C0C4
:104220008DF502C08CF501C08BF500C08AF5050143
:10423000916B906B8F6B8E6B000184EF15F003C058
:104240008BF502C08AF501C089F500C088F544EC01
:1042500013F002C087F501C086F502C0A4F301C0C7
:10426000A3F30301AB51006E05E0D890A433A33350
:10427000002EFBD7ED31036EEC31026EEB31016E97
:10428000EA31006E0332023201320032033202326E
:104290000132003203320232013200320332023282
:1042A0000132003203320232013200320332023272
:1042B00001320032010E031601C075F500C074F51D
:1042C00005017531036E7431026E033202323F0E06
:1042D0000316025074250301A56F035005017521D3
:1042E0000301A66FF131036EF031026EEF31016E02
:1042F000EE31006E033202320132003203320232FA
:104300000132003203320232013200320332023211
:104310000132003203320232013200320332023201
:1043200001320032010E031601C0AAF300C0A9F346
:10433000D890A9350501866F0301AA350501876F5D
:10434000D8900301AA31036EA93105018625030126
:10435000A96F0350050187210301AA6FC7A102D0ED
:10436000F46B02D0010EF46F94908B8001D00301A6
:10437000E9EF1BF0FFD7E824F76AF736910FF66EE6
:10438000430EF7220A00F550FA6E0800F550F96E58
:08439000E637F0370A3A883FD6
:0200000400F00A
:10000000FC08E80301000100000880004000004BEC
:100010000100C409C409B80B00000000007F000003
:080020000000000000000000D8
:020000040030CA
:0E00000000C81900000700000FC00FE00F40FD
:00000001FF
;PIC18F4520
;CRC=A834  CREATED="24-дек-15 18:37"
